:020000040800F2
:10000000480D00200902000839300008DF240008EC
:1000100035300008451700085F4B0008000000005D
:10002000000000000000000000000000D93B0008B4
:10003000692200080000000071320008B143000886
:1000400023020008230200082302000823020008FC
:1000500023020008230200082302000823020008EC
:1000600023020008230200082302000823020008DC
:1000700023020008230200082302000823020008CC
:1000800023020008230200082302000823020008BC
:10009000054B000823020008230200082302000881
:1000A000230200082302000823020008230200089C
:1000B00023020008414400089D4400082302000870
:1000C000230200082302000823020008230200087C
:1000D00023020008D146000823020008230200087A
:1000E00023020008230200083749000800F002F844
:1000F00000F07BF80AA090E8000C82448344AAF147
:100100000107DA4501D100F070F8AFF2090EBAE844
:100110000F0013F0010F18BFFB1A43F0010318473B
:10012000BC5C0000DC5C00000A444FF0000C10F8DE
:10013000013B13F0070408BF10F8014B1D1108BF65
:1001400010F8015B641E05D010F8016B641E01F805
:10015000016BF9D113F0080F1EBF10F8014BAD1C55
:100160000C1B09D16D1E58BF01F801CBFAD505E073
:1001700014F8016B01F8016B6D1EF9D59142D6D3CD
:10018000704700000023002400250026103A28BFF5
:1001900078C1FBD8520728BF30C148BF0B607047F9
:1001A000662905F0598503681B0A28BF41F08001C4
:1001B000642900F08780752900F08480782900F098
:1001C000F980E42900F0BA80F52900F0B78000201A
:1001D00070471FB500F014FD04000020002105F059
:1001E000B9FAE0601FBD10B510BD00F0C3FD1146A7
:1001F000FFF7EFFF04F002FF00F0E1FD03B4FFF7AB
:10020000F2FF03BC00F0E2FD0948804709480047BF
:10021000FEE7FEE7FEE7FEE7FEE7FEE7FEE7FEE7B6
:10022000FEE7FEE704480549054A064B7047000013
:10023000E1430008ED00000848070020480D0020B9
:1002400048090020480900200FB41CB5074B06AA36
:100250007B4469460090059800F0B9FC002069468F
:1002600000F0C8FC1CBC5DF814FB0000A1090000F4
:1002700070B5044685690068C10601D5302600E0E6
:100280002026C00708D070BDD4E901213046904730
:10029000206A00F1010020626D1EF5D570BD70B5B9
:1002A000044685690078C00708D170BDD4E90121F2
:1002B00020209047206A00F1010020626D1EF5D5D4
:1002C00070BD00002DE9F041064600241068752934
:1002D000314616A511D0AFF30080002803DAC0F133
:1002E000000013A507E031688A0701D511A502E0D7
:1002F000490704D510A5012401E0AFF300800021D7
:100300000A2306F1240707E0B0FBF3F203FB120017
:10031000303078541046491C0028F5D123462A462F
:100320003046BDE8F04100F0E1B9000000000000F7
:100330002D0000002B000000200000002DE9F041FE
:100340008046D21D22F007020025D2E90002F529DD
:1003500014A612D0002A06DA0023D0EB030063EBC8
:10036000020211A608E0D8F800108B0701D50FA6ED
:1003700002E0490701D50EA601251146002408F127
:10038000240704E000F06DF930323A55641C50EA5D
:100390000102F7D12B46324621464046BDE8F041E6
:1003A00000F0A4B9000000002D0000002B000000A8
:1003B0002000000070B504460D4621461068AFF3DA
:1003C00000802188090502D5104A7A4402E00F4ACC
:1003D0007A440E32002104F1240307E000F00F06F6
:1003E0004FEA1010965D5E5401F101010028F5D12D
:1003F00003462078000704D5702D02D009B11132D0
:1004000002232046BDE8704000F070B93F5900005B
:100410002DE9F05F894604464FF0000ADFF878B115
:10042000FB44C0F820A02046E1688847002875D02A
:10043000252806D0D4E901219047206A401C20627B
:10044000F1E700265F462046E168884720280546F8
:1004500008DB312D06D207EB050010F8200C08B19F
:100460000643F0E7B00701D526F00406C4F81CA047
:100470000027C4F818A02A2D09D0284604F0DEFC75
:1004800038B304EB8708303DC8F8185019E059F824
:10049000041B204604EB87029161E1688847012F25
:1004A000054618D1E069002820DA26F020061DE074
:1004B000D8F8180000EB800005EB40003038C8F891
:1004C00018002046E1688847054604F0B7FC00287C
:1004D000EED1012F0AD02E2D08D12046E1688847A1
:1004E0007F1C0546022F46F02006C4DBA0690028C9
:1004F00003DA404246F00106A061F00701D026F081
:1005000010066C2D0BD0682D09D04C2D39D06A2DDA
:1005100035D0742D35D07A2D33D016E038E0E1682F
:100520002F4620468847B842054609D16C2F26D071
:100530004FF48060E168064320468847054604E0A2
:100540006C2F1AD04FF4807006430DB3A5F1410013
:10055000192802D8203546F400664A462946204626
:1005600026604E46FFF71CFE80B101280BD0F61D19
:1005700026F0070000F1080955E74020E4E7802055
:10058000D8E70020D6E706F104094CE7284651E7F2
:10059000206ABDE8F09F00001159000010B5431C0F
:1005A00002E010F8011B71B18107FAD14FF001325E
:1005B00002C88C1A8C4314EAC211F9D0C01A0A0678
:1005C00003D0C01E10BDC01A10BD0A0401D0801E89
:1005D00010BD0902FCD0401E10BD00004FF0013CD0
:1005E00050F8042B51F8043B9A4221D1A2EB0C03A2
:1005F000934313EACC1317D150F8042B51F8043B62
:100600009A4215D1A2EB0C03934313EACC130BD1FE
:1006100050F8042B51F8043B9A4209D1A2EB0C0389
:10062000934313EACC13DBD04FF00000704700BFB8
:10063000D01A01BAB1FA81F101F0180122FA01F0E1
:10064000CB40C1F12001DBB2C0B2C01A2CFA01F3D9
:10065000D11A914311EAC311E6D170477047704730
:10066000704730B5B0F10A024FEA900E71F1000305
:100670004EEA817EB0EB0E0061EB91014FEA101E55
:100680004EEA017E10EB0E0041EB11114FEA102EE5
:100690004EEA016E10EB0E0041EB11214FEA104EB5
:1006A0004EEA014E10EB0E0041EB1141401841F1B2
:1006B00000014FEAD00040EA41704FEAD10110EB4F
:1006C00080054FEA810444EA907444EB01046D19FB
:1006D00044EB0404521BA3414FF0000348BF0A320D
:1006E00000D530BD401C41F1000130BD2DE9F0477F
:1006F0000D4699469246044600F124080168880692
:1007000004D5E06921F01001216000E00120A84239
:1007100002DDA0EB050700E00027A16907EB050259
:1007200002EB0900A1EB0000A0612078C00602D412
:100730002046FFF79DFD002608E0D4E901211AF8C4
:1007400006009047206A401C761C20624E45F4DB70
:100750002078C0060AD52046FFF78AFD06E0D4E9D6
:10076000012130209047206A401C2062381EA7F1EA
:100770000107F4DC07E0D4E9012118F805009047EF
:10078000206A401C2062281EA5F10105F3DC2046EA
:10079000FFF785FD2078000602D50220BDE8F0872E
:1007A0000120FBE770472DE9FF4F0C461E464FF036
:1007B000FF378BB0D2E90001DDF860800A908A46ED
:1007C000C1F30A5505B93D46002108464FF0000027
:1007D000BAF1000F00F4400005DA00EB80004FF49E
:1007E000400101EA50004FEA9059B9F1010F00DDD4
:1007F000B9460A9850EA4A000ED044F61050A5F2C5
:10080000FF3545432F14B8F1000F1ED07542291E45
:100810001EDDC9F100021CE0B8F1010F4FF000002D
:1008200001D0302103E0F24305E02154401CB042E6
:10083000FBDB30460022002121540B99C1F80880CF
:10084000C1E900200FB0BDE8F08FBD1B6D1CDEE7D5
:100850004A4600DA694206A800F016FA06AB07CB52
:1008600003AB07C350460A9900F0B7FA8DE80700BA
:10087000A0F500501F3800900398002D09DD42F2CA
:100880001F014A46084403A90390684600F016FD7C
:1008900008E0A0F500504A461F3803A903906846B7
:1008A00000F020FD8DE807000004000C03D04FF09D
:1008B000FF30410800E01046B8F1000F03D00022DD
:1008C000009215461FE0751E06D4FFF7CAFE02F11E
:1008D000300262556D1EF8D5B3460122084302D09E
:1008E00000227F1C04E02078302801D100227F1EE6
:1008F000002A099787D01DE0112D07DAFFF7B1FE16
:10090000303262556D1C50EA0102F5D108430FD117
:100910000021681E05E0235C625C6354491C22547C
:10092000401E8142F7DBAB46A81B401E099001E048
:10093000009848B1002004F80B000B98099AC0F801
:100940000880C0E9002B7DE711264FF000085AE728
:100950002DE9F04F88460446D21D22F0070191B0E0
:10096000D1E90001CDE90A0104F054FA02460B98DE
:10097000C00F01D02D2007E02068810701D52B2072
:1009800002E0202101EAC000032A099001D0072AD1
:1009900005DB03464146204600F036F90FE120789A
:1009A000800601D5E06900E00620B8F1650F8146B8
:1009B00006D0B8F1660F18D0B8F1670F72D132E0E7
:1009C0000020B9F1110F009001DB112301E009F1C2
:1009D00001030AAA01A90CA8FFF7E5FEDDE90C70E6
:1009E000002609F10105834648E001204B460090AE
:1009F0004FF000470AAA01A90CA8FFF7D4FEDDE9D1
:100A00000DB00C995D46002618B909F1010001EB03
:100A10000005B9EB050003D4C0F1FF3609F101056B
:100A2000A5EB09002BE0B9F1010F01DA4FF0010944
:100A30000020B9F1110F0090484601DD112300E0BC
:100A400003460AAA01A90CA8FFF7ADFEDDE90C7068
:100A50004D4600268346207800070AD4AB4500DACD
:100A60005D4601A8012D04DD411911F8011C302952
:100A700007D04F4502DA17F1040F04DA012082464D
:100A800010E06D1EEEE7002F02DCED1B3E4403E09C
:100A9000781CA84200DD0546A7EB060000F1010A1C
:100AA0004FF000472078000703D4AA4501DB4FF040
:100AB000FF3A0021B7F1004F0DF143088DF84310C4
:100AC00023D002202B23002F01DA7F422D234FF069
:100AD0000A0C011EA0F1010000DC4FB197FBFCF1F4
:100AE0000CFB11720F4602F1300208F8012DF0E7FD
:100AF000A8F1010003702188090501D5452100E016
:100B00006521A0F1010800F8011C09980FA9A1EBCB
:100B1000080707F1070700B1012000EB050101EB11
:100B2000EA70A1693844A1EB0000A0F10100A061C6
:100B30002078C00602D42046FFF79AFB099830B10E
:100B4000D4E901219047206A00F101002062207859
:100B5000C00620D52046FFF78BFB1CE0002E04DBEF
:100B6000B34502DD01A8805D00E03020D4E9012119
:100B70009047206A761C401CBAF1010A20620AD113
:100B800000F03EF8C0680168405CD4E9012190475C
:100B9000206A401C2062281EA5F10105DEDC07E06A
:100BA000D4E9012118F8010B9047206A401C20620B
:100BB000381EA7F10107F3DC2046FFF770FB022087
:100BC00011B040E601694A1C02610878704700B51F
:100BD0008FB0CDE901310021059105497944CDE976
:100BE000031011466846FFF713FC0FB000BD00006C
:100BF000E5FFFFFF0A6802F8010B0A60704700007A
:100C000000487047080700202DE9F0411F460446C0
:100C100003260168072A01F4006004DB08B116A569
:100C200005E016A503E008B115A500E015A521F023
:100C300010002060A069C01EA0610FB1401EA0611D
:100C40002046FFF715FB4FB1D4E901213846904704
:100C5000206A401C2062C01C206206E0206AFAE77D
:100C6000D4E9012115F8010B9047761EF8D22046F1
:100C7000FFF715FBBDE8F0814E414E006E616E003E
:100C8000494E4600696E66002DE9F04781461646DA
:100C90008AB035487844D0E9002380680092CDE9D5
:100CA0000130314878440C38D0E9022300690392BE
:100CB0004FF03702CDE9043041F69B30014491FBFF
:100CC000F2F0A0F1800502FB10141B3C02D5644237
:100CD000012000E00020DFF890A080460027FA44C1
:100CE000AAF1C60A0DE0E00709D03246684607EBD4
:100CF00047010AEB810100F0F5FA8DE80700641066
:100D00007F1C002CEFD1184F7F44B43F17E0E80759
:100D100013D007EB04100DF1180A90E80E00AAE8B2
:100D20000E00C068F04201D198190890324606A919
:100D300003A800F0D7FA03AB07C36D10641C002DA5
:100D4000E5D132466946B8F1000F03A802D000F0A1
:100D5000B5FA01E000F0C6FAC9E90001C9F80820B7
:100D60000AB0BDE8F08700002C5100000048704731
:100D7000E80600207546FFF7F9FFAE460500694614
:100D8000534620F00700854618B020B5FFF74AFA11
:100D9000BDE820404FF000064FF000074FF000087C
:100DA0004FF0000B21F00701AC46ACE8C009ACE8FD
:100DB000C009ACE8C009ACE8C0098D4670470446DC
:100DC000AFF300802046FFF719FA00000149182010
:100DD000ABBEFEE72600020070475FEA400C08BF8A
:100DE00091F0000F4FEA8C234FEAC12243EA5151A0
:100DF0004FEA1C5018BF00F5F0404FEA300018BF12
:100E000041F000415FEA6C5C00F02980BCF1FF3FDB
:100E100008BF40F080407047130C06BF12044FF02B
:100E2000100C4FF0000C130E04BF12020CF1080C52
:100E3000130F04BF12010CF1040C930F04BF9200B6
:100E40000CF1020CD30F04BF52000CF1010C11463F
:100E50004FF00002A0F11F00A0EB0C00704711F052
:100E6000004F08BF704731F000413FF4D5AF0B0C85
:100E700006BF09044FF0100C4FF0000C0B0E04BF1E
:100E800009020CF1080C0B0F04BF09010CF1040C52
:100E90008B0F04BF89000CF1020CCB0F04BF49007B
:100EA0000CF1010CCCF12003A0EB0C0022FA03F3AF
:100EB00002FA0CF241EA030100F10100704720F050
:100EC0007F4C80EA030023F07F47ACEB070303F578
:100ED0007C5300F0004003F1FF032DE980494FEA05
:100EE000154B09B44FEA144325EA0B4E24EA034894
:100EF0000FF2042606EB132749083E785FEA320218
:100F000003FB0667C7F5000707FB06F64FEA5437F1
:100F10004FEAD64606F1020607FB066CCCF1005CF0
:100F20004FEA1C472CEA074C07FB06F40CFB06F5BE
:100F300004EB15464FEA961634BF00204FF00040F0
:100F40004FEAD13706FB07FC4FEA1C4C0CFB0BF7B2
:100F5000D21B03FB0CF761EB07010CFB0EF7B0EBA8
:100F6000074072EB17420CFB08F734BFA2EB0742B5
:100F7000B2EB074261EB17414FEA0C444FEA91078D
:100F800006FB07FC4FEA1C4C0CFB0BF7B0EBC74011
:100F900072EB573203FB0CF734BFA2EBC742B2EB44
:100FA000C74261EB57310CFB0EF7B0EBC70072EB99
:100FB00057720CFB08F734BFA2EBC702B2EBC702B3
:100FC00061EB5771039F4FEA816141EA921104EB93
:100FD000CC044FEAD1374FEA826206FB07FC42EAB3
:100FE00090124FEA80604FEA1C4C0CFB0BF7D21BAF
:100FF00003FB0CF761EB07010CFB0EF7B0EB0740AE
:1010000072EB17420CFB08F734BFA2EB0742B2EBBE
:10101000074261EB17414FEA8C554FEA910704EB09
:101020009C2406FB07FC4FEA1C4C0CFB0BF7B0EBB7
:10103000C74072EB573203FB0CF734BFA2EBC74239
:10104000B2EBC74261EB57310CFB0EF7B0EBC700B8
:1010500072EB57720CFB08F734BFA2EBC702B2EB7E
:10106000C70261EB577115EB4C254FEA816141EAEC
:1010700092114FEA82624FEAD13742EA901206FBA0
:1010800007FC44F100044FEA80604FEA1C4C0CFB63
:101090000BF7D21B03FB0CF761EB07010CFB0EF700
:1010A000B0EB074072EB17420CFB08F734BFA2EB22
:1010B0000742B2EB074261EB174115EB1C154FEAF3
:1010C000813141EA92414FEA823242EA90424FEA4C
:1010D00080304FEA0C7644F1000448EA03434EEABC
:1010E0000B484FF0000EB2EB080C71EB030724BF66
:1010F000624639464EEB0E0E4FF0000B001852417F
:1011000049414BEB0B0BB2EB080C71EB03077BF186
:10111000000B24BF624639464EEB0E0E4FF0000B1B
:101120000018524149414BEB0B0BB2EB080C71EB31
:1011300003077BF1000B24BF624639464EEB0E0ECF
:1011400051EA020718BF46F0010616EB0E7655F17C
:10115000000254F1000103D5BDE88901BDE8008813
:10116000BDE88901BDE80048B619524141EB0101D3
:10117000A3F10103704780807F7E7D7C7B7A797844
:10118000777676757473727171706F6E6E6D6C6C4C
:101190006B6A6A69686867666665646463636261EE
:1011A0006160605F5F5E5E5D5D5C5C5B5B5A5A596F
:1011B00059585857575656555555545453535252DB
:1011C0005251515050504F4F4F4E4E4D4D4D4C4C33
:1011D0004C4B4B4B4A4A4A4949494848484747477C
:1011E00047464646454545444444444343434342B9
:1011F000424242414141002B26D4770021D01CB508
:101200004FEA370703B44FF010004FF010014FF0D2
:1012100000000FBCBDE810400BF1010BBBF1010F4A
:1012200008BF5FEA170722BF12F1010211F10101A5
:101230004FF0004143F1000300F0004043EA00009A
:101240007047F9D35708DAE746EA064613F1400F2C
:101250004FEA16461FDD13F1200FDFBF16430A4683
:10126000002120335B42C8D0C3F1200746EA06467E
:1012700002FA07F74FEA164646EA0706C3F12007C7
:1012800022FA03F201FA07F721FA03F14FF0000303
:1012900042EA0702B1E746EA020646EA06464FEA94
:1012A000164646EA0106BCBF46EA0646360C4FF033
:1012B00000034FF000024FF000019EE72DE9C04807
:1012C000934630B491E8380007C831EA400C48BF73
:1012D00034EA430C03D5FFF7F2FDFFF78CFFF0BCB7
:1012E000BDE800882DE9C048934630B491E8380045
:1012F00007C810F0804F08BF13F0804F03D100F0F3
:1013000005F8FFF778FFF0BCBDE8008820F07F47C4
:1013100080EA030023F07F4C07EB0C03A3F57C531A
:1013200000F00040A3F1FE0392F0000F00F0B38044
:1013300095F0000F00F077802DE901494FEA114048
:101340004FEA144621EA004800FB06FC24EA06475F
:1013500008FB06F607FB08F800FB07F718EB064842
:101360004CEB164C4FEA124B18EB07484FEA154668
:101370004CEB174022EA0B4E0BFB06FC25EA064716
:101380000EFB06F607FB0EFE0BFB07F71EEB064EE9
:101390004CEB164C4FF000061EEB074E4CEB174B78
:1013A00018EB0B0840F1000018EB0E0B58EB00088F
:1013B00040F100008F1A4FF000013CBFC943661B8B
:1013C00014BFB5EB040C00213CBFC943F61B4FEA28
:1013D00017444EEA8E0E27EA04454FEA1C4704FBE9
:1013E00007622CEA074C05FB07F70CFB05F604FB2C
:1013F0000CFC16EB074642EB174216EB0C4642EB91
:101400001C421BEB060658EB0202414146EA9E06CF
:1014100001D5BDE80189B619524141EB0101A3F1A3
:101420000103BDE801894FEA14454FEA114724EA58
:10143000054621EA074C05FB07F406FB07F70CFB02
:1014400006F105FB0CFC11EB074144EB17444FEA96
:10145000124711EB0C4144EB1C4422EA074C05FBFC
:1014600007F206FB07F70CFB06F605FB0CFC16EB78
:10147000074642EB174216EB0C4642EB1C456A1836
:1014800054F1000148BF7047B619524141EB0101C8
:10149000A3F10103704795F0000F37D04FEA1142D6
:1014A0004FEA144721EA024624EA074C02FB07F1FF
:1014B00006FB07F70CFB06F402FB0CFC14EB0744DD
:1014C00041EB17414FEA154714EB0C4441EB1C412B
:1014D00025EA074C02FB07F506FB07F70CFB06F6AF
:1014E00002FB0CFC16EB074645EB174516EB0C46CA
:1014F00045EB1C42121951F1000148BF7047B61963
:10150000524141EB0101A3F1010370474FEA144539
:101510004FEA114724EA054621EA074C05FB07F18B
:1015200006FB07F70CFB06F24FF0000605FB0CFC70
:1015300012EB074241EB174112EB0C4251EB1C41FD
:1015400048BF7047921841EB0101A3F101037047B6
:1015500021B1826842F00102826003E0826822F0D9
:1015600001028260704721B1826842F48072826019
:1015700003E0826822F480728260704710B50446EE
:101580001248844208D10121401502F015F80021CB
:10159000601502F011F817E00D48844208D10121CE
:1015A000001502F009F80021201502F005F80BE003
:1015B0000848844208D10121C80301F0FDFF002141
:1015C0004FF4004001F0F8FF10BD0000002401407E
:1015D00000280140003C0140014600208A6812F0CA
:1015E000040F01D0012000E00020704701460020D8
:1015F0008A6812F0080F01D0012000E00020704737
:1016000030B502460020002350680F4C20400D7971
:101610000C6844EA05242043506090680B4C20403D
:10162000D1E902542C434D7944EA450420439060AB
:10163000D06A20F470000C7C641EE4B2234340EABC
:101640000350D06230BD0000FFFEF0FFFDF7F1FF58
:10165000F0B504460D4600200021092D11DDE0689B
:10166000A5F10A0606EB4607072606FA07F18843A6
:10167000A5F10A0606EB460603FA06F10843E06008
:101680000CE0206905EB4507072606FA07F18843B9
:1016900005EB450603FA06F108432061072A0FDA35
:1016A000606B561E06EB86071F2606FA07F1884375
:1016B000561E06EB860605FA06F10843606322E033
:1016C0000D2A0FDA206BD61F06EB86071F2606FAB7
:1016D00007F18843D61F06EB860605FA06F1084394
:1016E000206310E0E06AA2F10D0606EB86071F26D4
:1016F00006FA07F18843A2F10D0606EB860605FA05
:1017000006F10843E062F0BD816841F008018160A4
:10171000704721B1826842F4A002826003E08268CF
:1017200022F4A00282607047816841F00401816068
:10173000704700210160017141718160C160012128
:101740000174704700BFFEE70146CAB20B1243EABC
:101750000220704708B50020009015E190480088ED
:1017600000F00F008F4908700846007800287DD1EE
:101770008D4800688D4908800846008800F03000D8
:101780008B4908808948008800F4405087490880C8
:10179000854909684BF6BF7201EA020080F40050E7
:1017A00080F0200040F4004141F080017E4A116049
:1017B0007B48008810F0100F32D11046006848F6C0
:1017C0000F7108401146086000F054FF764909681F
:1017D0004BF6BF7201EA02007449098811F4805F78
:1017E00001D080F480507149098811F4005F01D064
:1017F00080F400506E49098811F0100F01D080F07C
:1018000010006B49098811F0200F01D080F02000F2
:1018100081B241F4004141F08001634A116008BD8A
:101820006148006880B20090BDF8000010F4006FBD
:1018300036D05D480068C0F30E0048F68F7108404E
:101840005949086002F01AFB574909684BF6BF7204
:1018500001EA02005549098811F4805F01D080F443
:1018600080505249098811F4005F00E052E001D035
:1018700080F400504E49098811F0100F01D080F01B
:1018800010004B49098811F0200F01D080F0200092
:1018900081B241F4004141F08001434A1160BEE74A
:1018A000BDF8000010F4004F6ED03F480068C0F350
:1018B0000E0048F68F7108403B49086001F09CFC1F
:1018C000394909684BF6BF7201EA020037490988B5
:1018D00011F4805F01D080F480503449098811F4FC
:1018E000005F01D080F400503149098811F0100FD9
:1018F00001D080F010002E49098811F0200F01D08E
:1019000080F0200081B241F4004141F08001264A7C
:10191000116084E723480078234951F8200080B201
:101920000090BDF8000010F4004F14D01D4800785E
:1019300051F82000C0F30E0048F68F710840194995
:101940000978194A42F8210016490978491E194AAE
:1019500052F821008047BDF8000010F0800F13D02E
:1019600010480078104951F8200048F60F710840DF
:101970000C4909780C4A42F821000A490978491EA5
:101980000D4A52F82100804707484430006880B271
:101990000349088010F4004F7FF4E0AE00BF3EE73B
:1019A000E800002008010020005C00401C0100202D
:1019B0001E010020CC000020B0000020094951F891
:1019C000201011F4804F0BD0064951F8201048F632
:1019D0008F7211404CF280021143024A42F82010EB
:1019E00070470000005C0040094951F8201011F0D8
:1019F000400F0BD0064951F8201048F68F72114065
:101A000048F2C0021143024A42F820107047000019
:101A1000005C0040064951F8201048F68F621140E2
:101A200048F280021143024A42F820107047000039
:101A3000005C004010B5B0B06448007800280BD0BE
:101A4000012120A803F012FB044620A8FEF7A6FD02
:101A500018B9002403F0FAF9B6E05DA120A8FEF75A
:101A6000BDFD40B95C4A5DA16846FEF7EDFB6846E6
:101A700003F0B4FBA0E05DA120A8FEF7AFFD0028B5
:101A800029D1012C0AD15B48007818B15AA003F083
:101A9000A5FB91E05BA003F0A1FB8DE0022120A853
:101AA00003F0E4FA5BA120A8FEF798FD18B9012025
:101AB0005049087080E058A120A8FEF78FFD30B98A
:101AC00056A003F08BFB00204A49087074E054A034
:101AD00003F084FB70E056A120A8FEF77FFD0028EC
:101AE00029D1012C0AD15348007818B152A003F033
:101AF00075FB61E053A003F071FB5DE0022120A8BB
:101B000003F0B4FA43A120A8FEF768FD18B901203C
:101B10004849087050E040A120A8FEF75FFD30B9A9
:101B20003EA003F05BFB00204249087044E048A05F
:101B300003F054FB40E049A120A8FEF74FFD48BB4D
:101B4000012C0AD14648007818B146A003F046FBA4
:101B500032E047A003F042FB2EE0022120A803F070
:101B600085FA2CA120A8FEF739FD18B901203C49BF
:101B7000087021E028A120A8FEF730FD30B927A089
:101B800003F02CFB00203649087015E03BA003F061
:101B900025FB11E03CA120A8FEF720FD48B91FA0BD
:101BA00003F01CFB39A003F019FB1CA003F016FB8B
:101BB00002E03EA003F012FB0E48007810B117A01F
:101BC00003F00CFB03F042F930B010BD39010020E6
:101BD000534E4657000000002362BC420D0A534E8C
:101BE0005F46572025640D0A000000004543484F1A
:101BF00000000000490100200D0A4543484F204FD6
:101C00004E0D0A000D0A4543484F204F46460D0A27
:101C1000000000004F4E00004F4646000D0A000035
:101C20000D0A4543484F204552520D0A000000005E
:101C300053480000480100200D0A5348204F4E0D24
:101C40000A0000000D0A5348204F46460D0A0000C6
:101C50000D0A5348204552520D0A0000434C5300D0
:101C60004A0100200D0A434C53204F4E0D0A00003C
:101C70000D0A434C53204F46460D0A000D0A434CB3
:101C800053204552520D0A0056455200494F206DCF
:101C90006F64756C652076302E372E3920286F7072
:101CA000656E2D706C632E636F6D29000D0A554EA5
:101CB0004B4E4F574E20434F4D4D414E440D0A0061
:101CC00021B1026842F00102026004E002684FF6AE
:101CD000FE731A400260704701684FF6FE721140B1
:101CE00001600021016041608160C1604B49884210
:101CF00008D14A490839496841F00F01474A083A72
:101D000051608AE045491431884208D14349083975
:101D1000496841F0F001414A083A51607DE03F498D
:101D20002831884208D13D490839496841F4706139
:101D30003A4A083A516070E038493C31884208D14B
:101D400036490839496841F47041344A083A5160CB
:101D500063E032495031884208D130490839496836
:101D600041F470212D4A083A516056E02B49643104
:101D7000884208D129490839496841F47001274A45
:101D8000083A516049E025497831884208D1234911
:101D90000839496841F07061204A083A51603CE0D6
:101DA0001F49884206D1011F096841F00F01021F37
:101DB000116032E01A491431884208D11849091FCC
:101DC000096841F0F001164A121F116025E014491C
:101DD0002831884208D11249091F096841F470610D
:101DE0000F4A121F116018E00D493C31884208D19A
:101DF0000B49091F096841F47041094A121F11601B
:101E00000BE007495031884207D10549091F09688D
:101E100041F47021024A121F11607047080002400D
:101E20000804024010B50022026847F6F0739A4396
:101E30000C6A8B6823430C6923434C6923438C69E8
:101E40002343CC6923434C6A23438C6A23431A43BC
:101E50000260CB6843600B6883604B68C36010BD51
:101E60002DE9F0472848006800F110052E88264823
:101E70000068077AD6B9042F18D1244800780128C1
:101E80000FD100212248006880B2801C214A42F80C
:101E9000101030202049088000BF00201B49087026
:101EA00003E0072710201C49088027E0AC88A642E1
:101EB00001D8042000E002200746B44200D934468D
:101EC000A0B2A96888478046002000F0B5FA814694
:101ED000A2B24946404602F045FEA1B2002001F000
:101EE00023FF2888001B28806888204468803020D1
:101EF0000949088000020949088000BF02490968B1
:101F00000F72BDE8F08700000C01002004010020E2
:101F1000505C0040006000401E0100201C010020B9
:101F20002DE9F0412848006800F110042688A068D7
:101F3000C0B1BEB1A588B54200D93546A8B2A168E6
:101F4000884707462088401B20806088284460809E
:101F5000002000F04FFA8046AAB24146384601F010
:101F600073F900BF208850B14FF4405017490880E2
:101F70000021084601F0D8FE30201549088020884D
:101F8000A188884204DB03200F490968087218E021
:101F90002088002804DD05200B490968087210E03C
:101FA000208870B90620084909680872002109488C
:101FB000006880B2801C084A42F8101030200449A2
:101FC0000880BDE8F08100000C0100201C01002009
:101FD0001E010020505C0040006000402DE9F84FD9
:101FE0009848006845780027BA46062D1AD19548CA
:101FF0000068007810F07F0F13D192490968887843
:10200000012803D190490968CF690AE0022803D169
:102010008D4909680F6A04E0032802D18A490968DA
:102020004F6A90E0002D60D1864800684088002803
:102030005BD184480068C088022856D18148006876
:102040000079002851D17F480068007810F07F0F98
:1020500005D17C480068808808B97C4F73E07948D6
:102060000068007800F07F00012810D175490968E8
:102070004879754909688A6900219047002862D12A
:1020800070480068807A00285DD0704F5BE06D4832
:102090000068007800F07F00022854D16948006889
:1020A000407900F00F0667480068407900F0700939
:1020B00064480068407910F0800F05D0644850F8FB
:1020C000260000F0300804E0614850F8260000F4D3
:1020D000405860480078B04235D9B9F1000F32D18C
:1020E000B8F1000F2FD0594F2DE0082D07D15548DA
:1020F0000068007810F07F0F25D1574F23E00A2D9C
:1021000021D150480068007800F07F0001281AD1E2
:102110004C480068807AB0B14A480068408890B95D
:1021200048480068007970B946480068C0880128AE
:1021300009D1444909684879434909688A690021F5
:10214000904700B9454F57B13E480068A0F812A02B
:102150003C48006887610020B84700240FE0394AF6
:1021600012685078384A1268116988470446032C6F
:1021700005D10920334909680872BDE8F88F314854
:102180000068008AA0F57F41FF3904D109202D495C
:1021900009680872F1E7022C03D02A480068008A17
:1021A00020B90820274909680872E6E72548006831
:1021B000007810F0800F3CD022480068C088009062
:1021C00020480068008A0099884204D91D49009877
:1021D0000968088223E01B480068008A19490968D9
:1021E000C98888421BDA17480068008A16490968BE
:1021F00091F82C10884203DA0020194908700EE08B
:1022000010480068008A1049096891F82C1090FB6A
:10221000F1F201FB120010B90120114908700A48BF
:10222000006890F82C10074800688182FFF718FEBC
:1022300006E0032003490968087200030949088081
:1022400000BF9AE70C01002010010020F9400008AF
:10225000005C00401C0000207D400008CD400008CC
:10226000040100201C010020704710B500F036F971
:1022700010BD000070B500252C4600BF094800784D
:102280000028FBD10120074908700749032002F00C
:102290004FFC84B22546032001F020FD00200149B7
:1022A000087070BD94010020A80600200149086054
:1022B00070470000140401402DE9F041024600255A
:1022C0000026002000230024002791F803C00CF012
:1022D0000F0591F803C01CF0100F03D091F802C055
:1022E0004CEA050591F800C0BCF1000F31D014682C
:1022F00000202BE04FF0010C0CFA00F3B1F800C005
:102300000CEA03069E4220D183004FF00F0C0CFA1A
:1023100003F7BC4305FA03FC4CEA040491F803C03C
:10232000BCF1280F06D14FF0010C0CFA00FCC2F8EA
:1023300014C00AE091F803C0BCF1480F05D14FF07A
:10234000010C0CFA00FCC2F810C0401C0828D1D3C4
:102350001460B1F800C0BCF1FF0F34DD54680020F8
:102360002EE000F1080C4FF0010808FA0CF3B1F868
:1023700000C00CEA03069E4221D183004FF00F0CEF
:102380000CFA03F7BC4305FA03FC4CEA040491F889
:1023900003C0BCF1280F05D100F1080C08FA0CF8B5
:1023A000C2F8148091F803C0BCF1480F07D100F1C6
:1023B000080C4FF0010808FA0CF8C2F81080401C15
:1023C0000828CED35460BDE8F0810246002093680F
:1023D0000B4201D0012000E00020704741617047AE
:1023E000016170474FF6FF71018002218170042165
:1023F000C170704701460548006880B200EBC1001B
:10240000001D034A32F8100080B27047505C004053
:102410000060004001460648006880B200EBC10041
:10242000801D044A32F81000C0F309007047000014
:10243000505C00400060004001460548006880B2E2
:1024400000EBC100034A32F8100080B27047000070
:10245000505C0040006000401048006800680F4970
:102460000968896848400E4908600C48006800689F
:1024700000210C4A1060516011460868496800212B
:1024800011605060054800688068136852681843FE
:102490001146044A1060516070470000A8010020F6
:1024A000B0010020B801002070B50A480468001D82
:1024B0000568001D0668344454B1082206492046C8
:1024C00000F008FB042204491031284600F002FB0A
:1024D00070BD0000E8F7FF1FEC000020704700BF50
:1024E000FEE770B502460024002500230020958AEF
:1024F000138B1B0445EA030626F07F4404EA010619
:102500008E4201D1012000E0002070BD21B102887F
:1025100042F00102028004E002884FF6FE731A4086
:10252000028070472DE9F04385B004460D46002631
:10253000B1460427DFF8CC80A6884FF6C07006406D
:10254000684601F06FF8DDF808802F48B8FBF0F01E
:102550001FFA80F946EA0906A68020884FF6FE7128
:102560000840208000262949286888420CD828681D
:102570004000B8FBF0F087B2042F00DA04273E4396
:1025800009F10100208427E0E888A0F53F41FF39E8
:1025900006D1286800EB4000B8FBF0F087B209E0F4
:1025A000286800EBC00101EB0010B8FBF0F087B227
:1025B00047F480473805000D01D147F0010747F483
:1025C000004006434FF4967009FB00F04FF47A7117
:1025D00090FBF1F0401C2084A683208840F001008D
:1025E000208026884FF6F5300640A8886989084380
:1025F00006432680A88929890843208105B0BDE8C3
:10260000F083000000127A0040420F00A086010013
:1026100041F288310160002181804BF6FF71C18059
:102620000021018141814FF4804181817047000088
:102630004CF6CC4001490860704700000030004073
:102640004AF6AA20014908607047000000300040A7
:10265000014948607047000000300040014988602F
:1026600070470000003000400149086070470000DA
:102670000030004010B518480068047A022C01D0E0
:10268000042C05D1FFF7ECFB13480068047A1CE02A
:10269000062C19D110480068407805280ED10E4844
:1026A0000068007810F07F0F08D10B490968C878DE
:1026B00001F09CFA09490968086A804708490968D5
:1026C00088688047082400E00824034909680C72E0
:1026D00000F0D0FD10BD00000C010020180100200A
:1026E0001001002070B592B0002407E000209D4941
:1026F00041F824009C4941F82400641C082CF5DBB7
:1027000000260025002099490880002421E09748F0
:10271000008808281CDA04EB8400954901EB80004E
:10272000C088012814D104EB840051F820202846E9
:102730006D1C8C4941F820208C480088401C8B4936
:10274000088004EB84008A4901EB800080890643FD
:10275000641C012CDBDB854800884FF4007191FB81
:10276000F0F0844908800846008880490988484379
:1027700081490880012140F2012000F00DFF012174
:10278000084600F0E9FE11A8FFF72CFEADF8446002
:1027900000208DF8470003208DF8460011A97748E6
:1027A000FFF78AFD7648FFF797FA73480088049090
:1027B000002003900B90734802904FF480600890C3
:1027C00080200690202009906F4801908015079086
:1027D000002005904FF400500A9001A96848FFF7C7
:1027E00021FB01216648FFF76BFA67484C38FEF77A
:1027F000C5FE0CA8FEF79DFF01208DF835000020D6
:102800000F904FF460200E9000200C9057480088E5
:10281000C0B28DF8400001208DF834000CA95A4850
:102820004C38FEF7EDFE002471E000256CE04D48C9
:1028300050F8240005EB85014D4A52F821108842DA
:1028400061D105EB8500114601EB800080891028DD
:1028500034D008DC01280DD0022814D004281BD065
:1028600008284FD121E0202831D0402838D08028B6
:1028700048D13EE0601CC2B20523002142484C38DA
:10288000FEF7E6FE3EE0601CC2B2052301213E4891
:102890004C38FEF7DDFE35E0601CC2B20523022194
:1028A00039484C38FEF7D4FE2CE0601CC2B2052338
:1028B000032135484C38FEF7CBFE23E0601CC2B242
:1028C0000523042130484C38FEF7C2FE1AE0601C94
:1028D000C2B2052319462C484C38FEF7B9FE11E068
:1028E000601CC2B20523062127484C38FEF7B0FE13
:1028F00008E0601CC2B20523072123484C38FEF7CC
:10290000A7FE00BF00BF6D1C012D90DB641C1748A3
:102910000088844289DB01211B484C38FEF718FEF1
:10292000012119484C38FEF71EFE17484C38FEF7B7
:10293000EBFE00BF14484C38FEF758FE0028F9D1D2
:1029400011484C38FEF7F0FE00BF0F484C38FEF738
:1029500043FE0028F9D101210B484C38FEF7D9FE7F
:1029600012B070BD88060020680600206C010020AF
:10297000E40100206E0100207001002000080140E9
:1029800008000240680200204C24014010B501F00C
:1029900027FD01F007F902F0FFFA00F0BBF8642010
:1029A00002F048FD40F225510F4801F0DDFE0F48CE
:1029B000007830B104210EA002F02EFC642002F059
:1029C00059FA05210CA002F027FCFFF745FD642011
:1029D00002F050FA00F014F800F048F802F058FA4B
:1029E00002F098FA10BD0000003801404A010020B2
:1029F0001B630D0A000000002B2B2B0D0A000000AA
:102A00001FB50121022000F0B7FD684601F056FE17
:102A10000020ADF802004FF4E150ADF800000A20AC
:102A2000ADF804006946104801F0F6FD0122114698
:102A30000D4801F0E7FD01210B4801F0C6FD4FF400
:102A4000A06000F035FB1D208DF80C0002208DF8F1
:102A50000D0003208DF80E0001208DF80F0003A853
:102A600000F0ECFA1FBD0000000400401FB501217A
:102A7000042000F081FD684601F020FE0020ADF842
:102A8000020041F61F40ADF800000920ADF8040037
:102A900069460F4801F0C0FD012211460C4801F0C3
:102AA000B1FD01210A4801F090FD4FF4A06000F053
:102AB000FFFA1E208DF80C0002208DF80D008DF815
:102AC0000E0001208DF80F0003A800F0B7FA1FBD1B
:102AD0000008004030B50B46002100BF16E00A2474
:102AE000B4EB107F05D9302404EB107403F81140C7
:102AF00005E0412404EB10740A3C03F81140000186
:102B000000254C00641C1D554C1CE1B29142E6DBD3
:102B100030BD00002DE9F04786B000F05DFD0020DB
:102B200000F042FE4FF4803000F018FE4FF4E01148
:102B30004FF4803000F05CFE002000F003FE4FF404
:102B4000806000F037FE002000F040FE4FF40040AF
:102B500000F0F6FC012000F045FE00BF392000F037
:102B6000CBFD0028FAD0022000F050FE00BF00F09C
:102B7000E1FD0828FBD10121042000F00DFD012119
:102B8000082000F009FD0121102000F005FD0121C1
:102B9000880300F001FD0121084600F0FDFCFE481D
:102BA000006840F08070FC490860FC48FC490860FF
:102BB000FC48006840F00100FA49086000204860C5
:102BC0004FF4A06000F074FA05A8FFF70BFC182082
:102BD0008DF817004FF40070ADF8140002208DF846
:102BE000160005A9F048FFF767FB04208DF81700D1
:102BF0000002ADF8140002208DF8160005A9EA487D
:102C0000FFF75AFB01A801F08AFE4FF4E130019072
:102C10000020ADF80800ADF80A00ADF80C00ADF8E2
:102C200010000C20ADF80E0001A9E04801F006FEEE
:102C30000121DE4801F0A7FD4FF4A06000F038FA52
:102C400025208DF8000002208DF8010001208DF86C
:102C500002008DF80300684600F0F0F90121D34826
:102C600001F091FD252000F01F0201219140420951
:102C70004FF0E02303EB8202C2F8001100BF0122F3
:102C800040F22551C94801F0B4FD05A8FFF7AAFBA1
:102C90004FF40050ADF8140010208DF817000120FB
:102CA0008DF8160005A9C248FFF706FB4FF4005146
:102CB000BF48FFF795FB05A8FFF794FB0126D2E07C
:102CC0004FF000080027C9E017B9DFF8DC8208E000
:102CD000012F02D1DFF8DC8203E0022F01D1DFF8FF
:102CE000D0820024002581E005EB8500B24901EB8C
:102CF0008000C088012802D14FF0000906E005EBF2
:102D00008500AD4901EB8000B0F80690B1456CD16B
:102D100005EB8500A84901EB80008068404564D13F
:102D200005EB850001EB80008089B0F5807F43D002
:102D300012DC102834D008DC012825D0022826D047
:102D4000042827D008284FD127E020282BD040285E
:102D50002CD0802848D12CE0B0F5805F38D009DC39
:102D6000B0F5007F2BD0B0F5806F2BD0B0F5006FA1
:102D70003AD12AE0B0F5005F2DD0B0F5804F2DD0CC
:102D8000B0F5004F30D12CE044F001042CE044F0C9
:102D9000020429E044F0040426E044F0080423E09F
:102DA00044F0100420E044F020041DE044F040040E
:102DB0001AE044F0800417E044F4807414E044F412
:102DC000007411E044F480640EE044F400640BE00D
:102DD00044F4805408E044F4005405E044F4804492
:102DE00002E044F4004400BF00BF6D1C012DFFF65B
:102DF0007BAF94B3092E26D2DFE806F02505090D36
:102E00001115191D210000208DF817001BE004206A
:102E10008DF8170017E028208DF8170013E04820E0
:102E20008DF817000FE014208DF817000BE010202C
:102E30008DF8170007E010208DF8170003E0102030
:102E40008DF8170000BF00BFADF8144001208DF8C9
:102E5000160005A94046FFF72FFA7F1C032FFFF647
:102E600033AF701C86B2092EFFF62AAF002544E06E
:102E700005EB8500504901EB8000C08804280DD087
:102E800005EB850001EB8000C088072806D005EB24
:102E9000850001EB8000C08808280DD105EB850274
:102EA000454B03EB8202918905EB850203EB82021D
:102EB0009068FFF795FA14E005EB85003E4901EBB9
:102EC0008000C08803280CD105EB85020B4603EB7C
:102ED0008202918905EB850203EB82029068FFF77D
:102EE0007DFA05EB8500344901EB8000C08801289C
:102EF00002D13249088002E06D1C012DB8DB00BF11
:102F00002E48008818B1FFF7EDFBFFF7AFFD6FF01B
:102F1000040001F038FA2A49B1F1807F00D323E0A0
:102F200021F07F40401E4FF0E022506150170F22E9
:102F300000280BDA13074FEA136A174BE43B00F043
:102F40000F0CACF1040C03F80CA005E013074FEADA
:102F5000136C1C4B03F800C000BF00204FF0E022B0
:102F600090610720106100BF4FF4A06000F0A0F84E
:102F7000FF208DF8000000208DF8010003208DF85F
:102F8000020001208DF80300684600F057F845F272
:102F90005550FFF769FB17E0FCED00E055CEACC5DE
:102FA000B01F00E0001000E00008014000380140C0
:102FB00000100140000C0140E40100206C010020E1
:102FC00080FC0A0000E400E00320FFF741FB40F62C
:102FD000C410FFF743FBFFF733FBFFF729FB00208B
:102FE0000C4908600C4908600C4908700C490860DD
:102FF0000C490860074800680B49086005480068EC
:103000000A490860034800680949086006B0BDE83D
:10301000F08700003C010020400100203901002021
:1030200064010020680100204C01002050010020B4
:103030005401002000BFFEE77047704770B50021C3
:1030400000230F22C4780CB3164C246804F4E06407
:10305000C4F5E064210AC1F10403CA40447804FACB
:1030600003F184781440214309010F4C0678A155DF
:10307000047804F01F050124AC4005786D114FF071
:10308000E02606EB8505C5F8004109E0047804F068
:103090001F050124AC40054D0678761145F8264001
:1030A00070BD00000CED00E000E400E080E100E015
:1030B00002490143024A1160704700000000FA050E
:1030C0000CED00E070B5022646480068447845489B
:1030D0000068007810F07F0F44D1092C03D101F073
:1030E00087F806465FE0052C14D13E480068C0789A
:1030F0007F280BDC3B480068807838B93948006885
:10310000808818B937480068807A08B1082565E0DA
:10311000002648E0032C0ED132480068C078012810
:1031200007D130480068808818B901F085F8064654
:1031300039E0022637E0012C35D12A480068C078F2
:1031400001280DD127480068808848B925480068C3
:10315000407A10F0200F03D000F0ECFE064622E08B
:10316000022620E01F480068007800F07F00012858
:1031700005D10B2C17D101F0CFF8064613E0194802
:103180000068007800F07F0002280BD1012C03D1E9
:1031900000F0D0FE064606E0032C04D101F060F8F2
:1031A000064600E002264EB1E0B20F4A12685169AD
:1031B00088470646032E01D109250FE00EB10825E8
:1031C0000CE0062500210948006880B2801C084AEE
:1031D00042F8101030200749088000BF01490968F3
:1031E0000D7270BD0C01002010010020505C0040E9
:1031F000006000401E01002010B511480068047AEC
:10320000022C01D0042C01D1082412E0032C01D09F
:10321000052C05D1FEF784FE09480068047A08E011
:10322000072C05D107490968C8688047082400E0D1
:103230000824034909680C7200F01CF810BD000056
:103240000C01002010010020F0B5561C7510074E2F
:1032500006EB41042B4605E034F8047B20F8017BA3
:10326000401C5B1E002BF7D1F0BD00000060004049
:103270007047000010B50D4890F82C10002000F0A9
:10328000EBFC0B480068007A082805D14002094988
:10329000088010200849088005480068007A09283D
:1032A00001D1012010BD0020FCE70000200000201B
:1032B0000C0100201C0100201E01002010B501207F
:1032C00001F03FFB01240B48046000200A490880FC
:1032D00008460088074908600020091D08604FF46F
:1032E000E05005490880084600880249086000202F
:1032F00010BD0000405C0040160100202DE9F04F99
:10330000A9B07848006878490968401A322879D904
:1033100076480078002875D17548007810B175A0FE
:1033200001F05CFF0024D0E004EB8400734901EB62
:10333000800080880C2815D2DFE800F0C50615252E
:103340003444546575889BB204EB84006B4951F892
:1033500020502B78621C6AA104A8FCF775FF04A812
:1033600001F03CFFAFE004EB8400644951F82060B9
:1033700096F90030621C65A104A8FCF765FF04A85B
:1033800001F02CFF9FE004EB84005C4951F82070B1
:103390003B78621C5AA104A8FCF756FF04A801F070
:1033A0001DFF90E004EB8400544951F82080B8F9E7
:1033B0000030621C55A104A8FCF746FF04A801F0E8
:1033C0000DFF80E004EB84004C4951F82090B9F8DF
:1033D0000030621C4AA104A8FCF736FF04A801F0E3
:1033E000FDFE70E004EB8400444951F820A0621C0B
:1033F00046A104A8DAF80030FCF726FF04A801F083
:10340000EDFE60E06BE004EB84003C4951F820B035
:10341000621C3BA104A8DBF80030FCF715FF04A8F0
:1034200001F0DCFE4FE004EB8400344951F8200049
:103430002790279803C8621CCDE9000136A104A893
:10344000FCF702FF04A801F0C9FE3CE004EB840095
:103450002A4951F820002690269803C8621CCDE91D
:10346000000130A104A8FCF7EFFE04A801F0B6FEAD
:1034700029E004EB8400214951F820102591259979
:10348000086802F073FBCDE90201621CCDE900017E
:1034900027A104A8FCF7D8FE04A801F09FFE12E0C3
:1034A00004EB8400154951F820002490249803C8A7
:1034B000621CCDE900011EA104A8FCF7C5FE04A80A
:1034C00001F08CFE00BF00BF641C002C3FF42CAF49
:1034D000044800680449086018A001F07FFE29B084
:1034E000BDE8F08F3C01002054010020F8010020CD
:1034F0004A0100201B5B481B5B324A00E4010020AC
:10350000252D38752025750D0A000000252D3875EC
:103510002025640D0A000000252D387520256C6CCF
:10352000640D0A00252D387520256C6C750D0A0078
:10353000252D38752025660D0A0000000D0A0000B3
:1035400001460020034A506820F440400843506080
:10355000704700000010024029B1064A5269024338
:10356000044B5A6104E0034A52698243014B5A6199
:10357000704700000010024029B1064AD269024398
:10358000044BDA6104E0034AD2698243014BDA61F9
:10359000704700000010024029B1064A92690243B8
:1035A000044B9A6104E0034A92698243014B9A6199
:1035B000704700000010024029B1064AD268024359
:1035C000044BDA6004E0034AD2688243014BDA60BC
:1035D00070470000001002400F48006840F00100F2
:1035E0000D490860084640680C4908400A4948608F
:1035F000084600680A49084007490860084600680C
:1036000020F4802008600846406820F4FE004860EE
:103610004FF41F0088607047001002400000FFF860
:10362000FFFFF6FE30B500210022002400232D4DBF
:103630006D6805F00C0121B1042905D0082923D1BA
:1036400005E0294D056022E0274D05601FE0254D6E
:103650006D6805F47012234D6D6805F48034022501
:1036600005EB92421CB9214D554305600BE01D4D01
:103670006D6815F4003F03D01C4D5543056002E012
:10368000194D5543056002E0174D056000BF00BFAE
:10369000144D6D6805F0F0010909154D6B5C056866
:1036A000DD4045600F4D6D6805F4E061090A104D7D
:1036B0006B5C4568DD4085600A4D6D6805F46051BE
:1036C000C90A0B4D6B5C4568DD40C560054D6D68F2
:1036D00005F44041890B074D6B5CC568B5FBF3F5FC
:1036E000056130BD0010024000127A0000093D0063
:1036F000200100203001002010B5014600220023E7
:1037000000204A11012A02D1094C236806E0022A4E
:1037100002D1074C236A01E0054C636A01F01F02E5
:10372000012494401C4201D0012000E0002010BD83
:10373000001002400248406800F00C007047000092
:103740000010024001460020034A506820F0F000BB
:10375000084350607047000000100240114909689A
:1037600021F480310F4A11601146096821F480214B
:103770001160B0F5803F03D0B0F5802F0ED106E088
:103780000849096841F48031064A116007E005499B
:10379000096841F4A021034A116000E000BF00BFA6
:1037A00070470000001002400149086070470000A7
:1037B0000000424201460020034A506820F4E060C5
:1037C000084350607047000000100240014600208E
:1037D000034A506820F4605040EAC10050607047CE
:1037E0000010024001490866704700000000424294
:1037F00002460020044B586820F47C1042EA010382
:103800001843014B586070470010024001460020E9
:10381000034A506820F003000843506070470000DE
:10382000001002402DE9F041D148006818B9D14894
:103830000068CF490860D048006818B9CD480068D2
:10384000CD490860CD48006818B9CA480068CB491E
:103850000860CB48006818B9C6480068C8490860C5
:10386000C848006818B9C3480068C6490860C64817
:10387000006818B9BF480068C3490860C3480068B9
:10388000002841D100243CE004EB8400C04901EB56
:103890008000C08807282CD104EB84020B4603EB80
:1038A0008202918904EB840203EB82029068FEF7A6
:1038B00095FD4FF4FA7001F0CDFD04EB8402B44B9A
:1038C00003EB8202918904EB840203EB820290688D
:1038D000FEF786FD4FF4FA7001F0BCFDA0B2CC21DA
:1038E00001F0E0FE1E2001F0B5FDA0B2442101F080
:1038F000D9FE0120A54908609E4800689C490860DF
:10390000641C012CC0DB71E0A048006801280ED1C6
:103910009848006896490968401A642866D30220CE
:103920009A49086093480068914908605EE09748AA
:103930000068022847D1002442E004EB8400944947
:1039400001EB8000C088072832D104EB84020B46CB
:1039500003EB8202918904EB840203EB82029068FC
:10396000FEF73CFD4FF4FA7001F074FD04EB8402A5
:10397000874B03EB8202918904EB840203EB820202
:103980009068FEF72DFD4FF4FA7001F063FDA0B2D0
:10399000CC2101F087FE1E2001F05CFDA0B2BE210B
:1039A00001F080FE1E2001F055FDA0B201F072FD75
:1039B0000320764908606F4800686D490860641C00
:1039C000012CBADB12E07148006803280ED1694867
:1039D000006867490968401AB0F5967F06D3002051
:1039E0006A4908606348006861490860694800687E
:1039F00008BB002415E004EB8400654901EB80005E
:103A0000C08808280CD104EB84020B4603EB820229
:103A1000918904EB840203EB82029068FEF7DEFCDE
:103A2000641C012CE7DB01205A49086051480068FA
:103A30005149086042E05748006801283ED14D488E
:103A400000684D490968401A192837D3002415E049
:103A500004EB84004E4901EB8000C08808280CD19B
:103A600004EB84020B4603EB8202918904EB84028F
:103A700003EB82029068FEF7B3FC641C012CE7DBC9
:103A80004FF4FA7001F0E6FC002412E004EB84002D
:103A90003F4901EB8000C088082809D1A0B233213A
:103AA00001F000FE3C2001F0D5FCA0B201F0F2FCD8
:103AB000641C012CEADB002036490860002452E037
:103AC00004EB8400324901EB8000C08801281AD140
:103AD00004EB840051F8207000250FE004EB840013
:103AE0002B4951F820002C4951F82510884204D167
:103AF0002A4850F82500388004E06D1C28480088CA
:103B00008542EBDB2EE004EB8400214901EB8000D1
:103B1000C088012826DD04EB840001EB8000C0880A
:103B200007281FDA04EB84020B4603EB820291891B
:103B300004EB840203EB82029068FEF746FC08B1B6
:103B4000012000E00020804604EB8400104951F879
:103B50002060002004EB84010D4A52F82110086017
:103B600086F80080641C012CAADBBDE8F08100000F
:103B70004C0100203C010020500100205401002095
:103B8000580100205C010020600100206401002039
:103B9000E40100206801002088060020680600205B
:103BA0006C0100207047704710B50948006805286F
:103BB0000CD1084801680068401C064A10600529BD
:103BC00004D1002011460860FEF788FC10BD0000FB
:103BD00000000020AC010020704700004FF6F87193
:103BE0000140014A11607047505C004030B5014609
:103BF0000E4B1A78002010E0C3B20D4C54F823305D
:103C000048F68F74234048F280042343C4B2234310
:103C1000C4B2074D45F82430401C9042ECD341F02B
:103C20008003034C4C34236030BD00001C00002096
:103C3000005C004010B54A105300054A126892B269
:103C400002EBC002121D034C44F8123010BD0000FC
:103C5000505C00400060004010B502460F4800680C
:103C600080B200EBC200801D0D4C04EB40033E29E6
:103C70000BDD481111F01F0F01D1441EA0B24FF40B
:103C8000004444EA80241C6007E0481011F0010F52
:103C900001D0441CA0B284021C6010BD505C0040E6
:103CA0000060004010B50C4B53F820304BF68F7479
:103CB00003EA040211F4805F01D082F4805211F40F
:103CC000005F01D082F4005242F4004343F08003CD
:103CD000014C44F8203010BD005C0040094A52F805
:103CE00020204BF68F7302EA030181F4805181F4A6
:103CF000005141F4004242F08002024B43F8202080
:103D000070470000005C004010B54A105300044AA0
:103D1000126892B202EBC002024C44F8123010BD9D
:103D2000505C004000600040044A126892B202EB0E
:103D3000C002921C024B43F812107047505C0040C6
:103D40000060004010B50C4B53F8203048F6BF74AB
:103D500003EA040211F0100F01D082F0100211F0FA
:103D6000200F01D082F0200242F4004343F0800390
:103D7000014C44F8203010BD005C0040054A52F868
:103D8000202048F68F131A400A43024B43F82020A4
:103D900070470000005C004010B500F001F810BD55
:103DA0000CB50020019000903248006840F480304B
:103DB0003049086000BF2F48006800F400300090D0
:103DC0000198401C0190009818B90198B0F5A06FB7
:103DD000F1D12848006810F4003F02D00120009083
:103DE00001E0002000900098012842D1224800689C
:103DF00040F01000204908600846006820F00300E9
:103E000008600846006840F00200086019484068F1
:103E1000184948600846406848600846406840F4D1
:103E2000806048600846406820F47C10486008467E
:103E3000406840F4E81048600846006840F0807030
:103E4000086000BF0B48006810F0007FFAD00948F6
:103E5000406820F00300074948600846406840F089
:103E60000200486000BF0348406800F00C000828CA
:103E7000F9D10CBD001002400020024038B50124E9
:103E80002948006880B2001D284931F8100080B22E
:103E900001EB4000009026480068007A092832D0E3
:103EA000009800782249096808700098401C00902A
:103EB000009800781E49096848700098401C0090DE
:103EC000009800EB44000090009931F8020B00913B
:103ED000FDF73AFC164909684880009800EB440059
:103EE0000090009931F8020B0091FDF72DFC10496C
:103EF00009688880009800EB4400009000980088D2
:103F00000B490968C88001200949096808720848F6
:103F10000068C08810B9FFF7D5F801E0FEF75EF839
:103F2000FFF7A8F938BD0000505C00400060004079
:103F30000C0100202DE9F0474B480068007800F0A4
:103F40007F08B8F1000F0AD147480068407A00F0B6
:103F5000DF004549096848720020BDE8F087B8F1E4
:103F6000020F7ED140480068408818B93E4800687A
:103F7000007908B10220F0E7DFF8F0903A480068D5
:103F8000477927F080052C4637480068407910F0C3
:103F9000800F05D0364850F8240000F0300604E0C9
:103FA000334850F8240000F4405699F80000A84225
:103FB00004D91EB12C480068807A08B90220CCE7E9
:103FC00017F0800F0ED02A4850F8240000F030007F
:103FD00010283FD1E0B2FDF707FDE0B23021FFF736
:103FE000B1FE37E0224850F8240000F44050B0F50C
:103FF000805F2FD1C4B91F4A92F82C10E0B2FFF7AE
:104000002BFE1B4951F824104BF68F7201EA020077
:1040100080F4805080F4005040F4004141F0800171
:10402000134A42F8241015E0E0B2FDF7C7FC10492E
:1040300051F824104BF68F7201EA020080F4805090
:1040400080F4005040F4004141F08001084A42F8F9
:10405000241000BF084909684869804700207CE7B0
:10406000FFE700BF022078E70C0100201C000020C1
:10407000005C0040200000201801002010B504461C
:104080002CB90120064909680882002010BD0549A5
:10409000096808688047024800680A30F6E70000AF
:1040A0000C0100201801002010B5024606480068E7
:1040B000438A32B98888C01A034C246820820020C1
:1040C00010BD08681844FBE70C01002010B5044639
:1040D0002CB90120064909680882002010BD054955
:1040E000096888688047024800680C30F6E70000DD
:1040F0000C0100201801002010B504462CB9022044
:10410000374909680882002010BD00203549088021
:1041100033480068007810F07F0F23D130490968D8
:10412000487A10F0200F06D02E49097841F002019C
:104130002C4A117005E02B49097801F0FD01294A4C
:10414000117010F0400F06D02649097841F00101A6
:10415000244A117005E02349097801F0FE01214A43
:10416000117036E01E480068007800F07F000128DA
:1041700001D11C48C8E71A480068007800F07F00A9
:10418000022824D1164A1268517901F00F0011F06B
:10419000800F0DD0144A52F8202002F03002102A6D
:1041A00014D1104A127842F001020E4B1A700DE041
:1041B0000D4A52F8202002F44052B2F5805F05D13A
:1041C000084A127842F00102064B1A7001E0002002
:1041D0009AE70649096808698047024894E70000A1
:1041E0000C01002006010020005C004018010020A6
:1041F00010B50E480068C0780D494978884213DC34
:104200000A480068807878B908480068808858B9FA
:1042100006480068C0780549096888720549096838
:1042200048688047002010BD0220FCE70C010020F8
:104230001C0000201801002010B507480068407AD3
:1042400040F0200004490968487204490968C869B7
:104250008047002010BD00000C0100201801002044
:104260002DE9F04128480068467926F080073C4651
:1042700025480068407910F0800F05D0234850F899
:10428000240000F0300504E0204850F8240000F439
:1042900040551F480078A04208D91B480068408854
:1042A00020B91DB118480068807A10B90220BDE815
:1042B000F08116F0800F10D0144951F8241048F600
:1042C000BF7201EA020080F0100040F4004141F0AA
:1042D00080010E4A42F8241010E00C4951F82410D5
:1042E0004BF68F7201EA020080F4805040F40041E6
:1042F00041F08001054A42F8241000BF05490968D1
:10430000886980470020D2E70C010020005C004053
:104310001C0000201801002010B5174B1B68D9782D
:10432000154B1B685879154B1B689A6990470446D2
:1043300011480068807AE8B13CB90F4800680079FC
:1043400018B90D480068807808B1022010BD8CB9FA
:104350000B490968C86880470748006840790649E2
:104360000968C87204480068C0780349096808737E
:104370000020EBE70220E9E70C01002010010020FB
:10438000180100207047042808D14FF0E021096986
:1043900041F004014FF0E022116107E04FF0E0210D
:1043A000096921F004014FF0E0221161704700001B
:1043B00010B509480068401C0749086007490868AB
:1043C000411C064A1160142804D9002011460860D7
:1043D000FEF736F910BD00003C010020440100202A
:1043E00010B51348006840F0010011490860084604
:1043F0004068104908400E494860084600680E4968
:1044000008400B4908600846006820F480200860D6
:104410000846406820F4FE0048604FF41F008860A2
:10442000FFF7BAFC4FF000600449086010BD0000BF
:10443000001002400000FFF8FFFFF6FE08ED00E06C
:1044400010B50021124800F0C0F8FDF7F3FAFFF7AD
:10445000E9F91048007808B1FEF750FF0E490868E6
:10446000411C0D4A1160142804D90020114608602F
:10447000FEF7E6F80121064800F0B3F818B1012173
:10448000034800F09FF80121014800F09EF810BD9C
:1044900000040040480100204401002070B590B0A5
:1044A0000021424800F091F8002406E0002008A90D
:1044B00041F824004DF82400641C3D4800888442E3
:1044C000F4DB0026002422E000251BE0394830F808
:1044D000160010F4004F13D108A850F825003549F4
:1044E00031F81610084408A941F825005DF82500A8
:1044F000401C4DF825004FF6FF702E4921F816009C
:10450000761C6D1C2A4800888542DFDB641C2A4823
:1045100000888442D8DB00241CE008A850F824005E
:1045200025490988B0FBF1F0244941F824005DF8E1
:10453000240050B108A850F824005DF82410B0FB06
:10454000F1F008A941F8240003E0002008A941F88F
:104550002400641C164800888442DEDB002406E048
:1045600008A850F82400154941F82400641C10489C
:1045700000888442F4DB12490868411C104A11602B
:10458000142804D9002011460860FEF759F80121CB
:10459000064800F026F818B10121044800F012F88E
:1045A0000121024800F011F810B070BD0008004071
:1045B0006C010020680200206E01002068060020C7
:1045C00044010020CA430282704721B1028842F0B0
:1045D0000102028004E002884FF6FE731A40028056
:1045E000704730B50246002000230024158A05EAF2
:1045F0000103958905EA010413B10CB1012000E023
:10460000002030BD1AB183890B43838102E0838986
:104610008B43838170470000002202881D4B984223
:104620000ED01D4B98420BD0B0F1804F08D01B4BE1
:10463000984205D01A4B984202D01A4B984204D1A6
:104640004FF68F731A404B881A43174B984207D086
:10465000164B984204D04FF6FF431A40CB881A43BA
:1046600002808B8883850B8803850A4B98420BD088
:10467000094B984208D00E4B984205D00D4B9842FA
:1046800002D00D4B984201D10B7A0386012383821D
:1046900070470000002C014000340140000400403D
:1046A00000080040000C00400010004000140040D2
:1046B0000040014000440140004801404FF6FF71B6
:1046C000818000210180C18041800172704700001B
:1046D00008B540F225511F4800F061F8002838D095
:1046E0001C4800F017F9C0B28DF8000000208DF8CA
:1046F00001009DF800000D280BD100211648174A33
:10470000127881540120164908700020134908705E
:104710001AE09DF800000A2816D0104800783F28BB
:1047200012DA9DF800200D490878411C0B4B1970D6
:1047300009490A5400201A4612788854094800781A
:1047400010B1684600F04AFD40F22551014800F0E2
:104750000BF808BD00380140F801002038010020A6
:10476000390100204901002010B500220023A1F5E5
:1047700010646A3C00D100BF0A1201249440A3B225
:10478000DC43048010BD21B1828942F40052828151
:1047900004E082894DF6FF731A408281704770B53C
:1047A00002460024002300250020A1F510666A3E81
:1047B00000D100BFC1F3421501F01F03012606FA24
:1047C00003F3012D02D19689334006E0022D02D178
:1047D000168A334001E0968A33400C12012606FA0D
:1047E00004F41688344013B10CB1012000E000201D
:1047F00070BDF0B503460024002600250020A1F579
:1048000010676A3F00D100BF1846C1F3421401F09F
:104810001F06012707FA06F5012C01D10C3004E030
:10482000022C01D1103000E014301AB107682F4378
:10483000076002E00768AF430760F0BD2DE9F0476D
:1048400086B005460E460024A24600BFA1460027BA
:10485000B08900B100BF2F462C8A4CF6FF7004408F
:10486000F08804432C82AC894EF6F3100440B088E3
:1048700031890843718908430443AC81AC8A4FF6FF
:10488000FF400440B0890443AC8201A8FEF7CAFE91
:104890001F48874202D1DDF810A001E0DDF80CA02E
:1048A000A88910F4004F08D00AEBCA0000EB0A10E8
:1048B00031684900B0FBF1F807E00AEBCA0000EBF1
:1048C0000A1031688900B0FBF1F86420B8FBF0F001
:1048D00004012009642101FB1089A88910F4004F0C
:1048E00008D0322000EBC900B0FBF1F000F0070067
:1048F000044308E0322000EB09106421B0FBF1F022
:1049000000F00F0004432C8106B0BDE8F0870000E2
:104910000038014001468888C0F3080070474FF412
:104920001651016000218180C18001810C214181EB
:1049300000218181704710B54FF48020FDF7B6FC4F
:1049400010BD704710B588B00024664800686649FD
:1049500008800846008800F400706449098808420D
:104960000AD04FF6FF505F49086061480078401C4C
:104970005F490870FFF718F95B48008800F40040B1
:104980005A490988084201D0FCF7E4FE56480088DD
:1049900000F4806055490988084206D04FF6FF3080
:1049A000504908605349486880474F48008800F4E0
:1049B00000504E490988084203D04DF6FF7049491E
:1049C00008604948008800F4805048490988084236
:1049D00006D04EF6FF70434908600020FFF7E3F869
:1049E0004148008800F400604049098808420CD022
:1049F0004148007810B1FFF7C5FC02E00220FFF744
:104A0000D2F84FF2FF70374908603748008800F449
:104A1000807036490988084261D04FF6FF603149FD
:104A20000860081D006810F4004F52D03348006839
:104A3000401C324908600846006803284CD92948C0
:104A4000001F006810F0080F46D12648001F0068BC
:104A500080B22B490860002407E02248443850F80F
:104A6000240080B24DF82400641C082CF5D324489F
:104A7000006840F00100224908600846006880B2E2
:104A80001849091F08601E48006820F001001C49F1
:104A900008600846006880B21249091F086000BF1C
:104AA0001048006810F4806FFAD04FF6FF300D49BF
:104AB0000860002407E05DF8240080B20949443909
:104AC00041F82400641C082CF5D300200B49086031
:104AD00002E00020094908600720FFF764F808B0E9
:104AE00010BD0000445C0040E800002016010020DA
:104AF000A40000202000002004000020A8000020C6
:104B0000AC00002010B5FFF71DFF10BD00200649C6
:104B100008604FF43F400549088008460088024974
:104B2000091F086000207047445C00401601002007
:104B30002DE9F04104460E46002504F07F00FDF704
:104B400069FC054604F07F00FDF754FC07462A4641
:104B500039463046FEF778FB2846BDE8F08100BFB5
:104B6000FEE70000F0B5144604F1010C4FEA6C07B3
:104B7000DFF824C00CEB41033D460AE00678401CF8
:104B800090F800C046EA0C2223F8022B9B1C401C24
:104B90006D1E002DF2D1F0BD0060004070B50446DE
:104BA0000025212C08D112480068007800F07F0011
:104BB00021280ED10F4D0CE0202C0AD10C480068A2
:104BC000007800F07F00212800D10B4D20200B49F8
:104BD00008700DB9022070BD05480068856100218C
:104BE0000348006841820020A8470020F3E7000046
:104BF0000C010020294C0008B94D000810000020CD
:104C000010B5044602492046FFF74EFA10BD0000D9
:104C10007C00002010B5044602492046FFF744FA04
:104C200010BD000074000020014629B90820034A85
:104C300012681082002070470148FCE70C01002038
:104C40001400002070B5054606480068C478042C9E
:104C500001DD002070BD044800EBC4012846FFF7C9
:104C600023FAF7E70C010020840000200246002907
:104C700001DD02207047012A01DD0220FAE7002051
:104C8000F8E70000014608480068007800F07F005F
:104C9000212807D1022901D100207047222901D102
:104CA0000020FAE70220F8E70C01002010B50020F0
:104CB0003449096888723448C079324909684872B1
:104CC000002030490968C872FEF788FF4FF4007170
:104CD0000020FFF753F810210020FFF733F84021A0
:104CE0000020FEF7A7FF80210020FFF70DF800202D
:104CF000FCF790FE254890F82C100020FEF7ACFF42
:104D00000020FEF7EBFF00210120FFF737F8C0215C
:104D10000120FEF7F9FF20210120FFF713F8002101
:104D20000120FEF7BFFF4FF4C0610220FFF726F815
:104D30004FF480710220FEF7E7FF00210220FEF70A
:104D4000B1FF20210220FEF7FDFF00210320FFF725
:104D500015F84FF488710320FEF76CFF4021032003
:104D6000FEF77AFF4FF440510320FEF79BFF00212E
:104D70000320FEF7E7FF0020FEF738FF012004497B
:104D8000086010BD0C0100206E5C000820000020AF
:104D9000000000200348817A11B10521024A116008
:104DA00070470000C80100200000002004200149D5
:104DB0000860704700000020014629B90820034A16
:104DC00012681082002070470148FCE70C010020A7
:104DD0001400002003480078202802D10020014957
:104DE00008707047100000207047000010B5FDF7F4
:104DF0005BFB0020054909688872FEF75FFAFFF740
:104E000085FE00200249086010BD00000C01002052
:104E100000000020490050EAC12018BF04204A0DBC
:104E200018BF40F0010040F2FF72B2EB515F08BFC3
:104E300040F00200012808BF0520704730380A28DA
:104E400001D201207047002070470000002003E0DD
:104E50000021054A1154401C4028F9DB0021034A77
:104E60001170034A11707047F801002039010020C9
:104E70003801002008B541F270714143009102E011
:104E80000099491E009100990029F9D108BD000040
:104E900000B585B001214805FEF76EFB0121082011
:104EA000FEF77AFB00211848FDF730FB01A8FDF75B
:104EB000AFFBC020ADF8000003208DF802001C20DD
:104EC0008DF8030069461148FDF7F6F90020ADF8AA
:104ED00008004BF6FF70ADF80A000020ADF80C009A
:104EE0004FF48060ADF80E000001ADF810000848E6
:104EF000019001A90448FDF715FB01210248FDF7C7
:104F000005FB05B000BD000000540040000C01404E
:104F1000A086010000B585B001218805FEF72CFBB5
:104F200001210820FEF738FB00211848FDF7EEFAB2
:104F300001A8FDF76DFB4FF44060ADF800000320C1
:104F40008DF802001C208DF8030069461048FDF71B
:104F5000B3F90020ADF808004BF6FF70ADF80A0079
:104F60000020ADF80C004FF48060ADF80E00000199
:104F7000ADF810000748019001A90448FDF7D2FAE6
:104F800001210248FDF7C2FA05B000BD00580040FB
:104F9000000C0140A0860100002029E0002100EB68
:104FA0008002154B43F8221000EB800203EB8202D3
:104FB000918000EB800203EB8202D18000EB800243
:104FC00003EB8202916000EB800203EB820291818D
:104FD00000EB800203EB8202D18100EB800203EB45
:104FE0008202118200EB800203EB82025182401C9C
:104FF0000128D3DB70470000E4010020A0B00024AA
:1050000000BFFDF7C3FC11A000F0E8F800BF19E0F5
:105010006006010E104800F019F940B122460FA1B8
:105020006846FBF711F9684600F0D8F802E00DA0D9
:1050300000F0D4F8601C10F00F0F02D10AA000F0AD
:10504000CDF8641C802CE3D300BFFEE77363616E70
:1050500020493243320D0A000058004020253032EA
:105060005800000020202E000D0A00002DE9F04F0E
:1050700087B081460F465848FBF790FA0646002055
:1050800089F800008346012F01DB072F03DD002094
:1050900007B0BDE8F08F002E7ED000250CE04E4812
:1050A000FBF77CFA0646002504E04B49681C085CC7
:1050B00048556D1CB542F8DB474800782028EED0F3
:1050C0004548FBF76BFA461E002E0BDD06E0002E6E
:1050D00004DB00204049885506B1761E3E48805DBD
:1050E0002028F4D03C48FBF759FA064600242AE071
:1050F0003948005D202803DB3748005D7E2805DD48
:105100003548005D10B12420334908553248005D10
:10511000602804DD3048005D20382F49085508E03C
:10512000254604E02C49681C085C48556D1CB542B6
:10513000F8DB2948005D202804D12749601C085C61
:105140002028EDD0641CB442D2DB002503E000200F
:105150004DF825006D1C072DF9DB002500240FE01C
:105160001D48005D202802D01B48005D38B9072D7E
:1051700005DA28466D1C4DF820400BF1010B641C2C
:10518000B442EDDD781E5DF8200008B3012F07D191
:105190004FF00008781E00E01CE05DF820A007E05A
:1051A000B81E5DF8200000F10108781E5DF820A00F
:1051B000444606E00848005DA4EB080109F8010038
:1051C000641C5445F6DB0020A4EB080109F801003B
:1051D00058465DE700205BE7F801002070B5064601
:1051E00000BF0C48008810F0400FFAD03046FBF7A3
:1051F000D5F9054600240AE000BF0648008810F0F3
:10520000400FFAD0305D0349091D0880641CAC4290
:10521000F2DB70BD0038014010B5024600BF0A4BFA
:105220001B8813F0400FFAD000200AE000BF064BA5
:105230001B8813F0400FFAD0135C034C241D23800D
:10524000401C8842F2DB10BD0038014070B50446B6
:105250000D460026012300222946204600F008F8CA
:1052600000B90126204600F09FF8304670BD0000CE
:105270002DE9F04104460D4616461F46208840F4AD
:105280008070208041484249086019E04048006829
:10529000401E3F49086013D13E48844205D13E4834
:1052A0000068401C3C49086007E03C48844204D147
:1052B0003B480068401C3A4908600120BDE8F08185
:1052C000A08A10F0010FE1D01FB1208840F4806067
:1052D00020801EBB25F0010020822C482C4908604C
:1052E00018E02B480068401E2949086012D129485F
:1052F000844205D128480068401C2749086007E01F
:105300002648844204D126480068401C244908608D
:105310000120D3E7A08A10F0020FE2D0012E25D1A0
:1053200045F00100208219481949086018E0184822
:105330000068401E1649086012D11648844205D103
:1053400015480068401C1449086007E0134884426F
:1053500004D113480068401C114908600120ADE7E2
:1053600010492046FDF7BDF80028E0D0208B094801
:10537000844203D100200849086005E007488442C0
:1053800002D1002006490860002097E7400D030085
:10539000C401002000540040740100200058004067
:1053A000780100200200030001461C481C4A1060DE
:1053B00018E01B480068401E194A106012D11948B5
:1053C000814205D118480068401C174A106007E068
:1053D0001648814204D116480068401C144A1060E7
:1053E00001207047888A10F0800FE2D0888A10F080
:1053F000040FDED0088840F400700880094881421C
:1054000003D10020084A106005E00848814202D11B
:105410000020074A10600020E3E70000400D030071
:10542000C4010020005400407401002000580040D6
:105430007801002008B502460020009006E04FF4F5
:105440007A7000F007F80098401C00900098904295
:10545000F5D308BD08B500EB40014900009102E01A
:105460000099491E009100990029F9D108BD082230
:105470000DE080EA010313F0010F03D08C2383EACF
:10548000600300E0431018464910531EDAB2002AA8
:10549000EFD170472DE9F04F8DB00446002544E070
:1054A0004FF0000B002739E004EB84027B4B03EB49
:1054B0008202918904EB840203EB82029068FCF77C
:1054C0008DFF0520FFF7C6FF04EB8402734B03EB4F
:1054D0008202918904EB840203EB82029068FCF75C
:1054E0007FFF0A20FFF7B6FF04EB84026B4B03EB50
:1054F0008202918904EB840203EB82029068FCF73C
:1055000064FF06462EB106FA07F040EA0B0000F0F1
:10551000FF0B3C20FFF79EFF781CC7B2082FC3DBB0
:1055200009A800F805B0681CC5B2092DB8DB4FF01A
:105530000008002507E009A8415D4046FFF797FFF6
:105540008046681CC5B2082DF5DB04EB8400534986
:1055500001EB8000C08807284CD104EB840051F88F
:1055600020A09DF82C00404529D19DF825000890E9
:10557000BDF82000000200B208909DF82400BDF99B
:10558000201008430890BDF9200000F083FA0022A3
:10559000434BCDE9000100F025F9CDE9020100F00F
:1055A000EFF80590059800F0E1FACAE90001002043
:1055B00004EB8401394A02EB810108826AE004EBC2
:1055C0008400364901EB8000008A05280CDA04EBE0
:1055D000840001EB8000008A401C04EB84012F4A08
:1055E00002EB8101088255E000214FF08140CAE9B9
:1055F00000104FE004EB8400284901EB8000C088D4
:10560000082847D104EB840051F820900020069030
:105610000790002510E0DDE90610000240EA116065
:105620000902CDE9061009A8405DDDE90623104313
:10563000CDE90603681CC5B2082DECDB4FF0FF3343
:10564000DDE906105940584001431FD104EB8400A6
:10565000124901EB8000408A60B104EB840001EB49
:105660008000408A401E04EB84010C4A02EB810159
:1056700048820FE0DDE90601C9E90001012004EBE1
:105680008401064A02EB8101488203E0DDE906015C
:10569000C9E900010DB0BDE8F08F0000E401002071
:1056A000000030402DE9F04104460E4600254AE056
:1056B00015B146FA05F700E0374607F0010707B3D2
:1056C00004EB8402224B03EB8202918904EB8402F7
:1056D00003EB82029068FCF781FE0F20FFF7BAFE11
:1056E00004EB84021A4B03EB8202918904EB8402DF
:1056F00003EB82029068FCF773FE3C20FFF7AAFEE2
:105700001FE004EB8402124B03EB8202918904EB4D
:10571000840203EB82029068FCF760FE3C20FFF7F6
:1057200099FE04EB84020A4B03EB8202918904EB9D
:10573000840203EB82029068FCF752FE0F20FFF711
:1057400089FE681CC5B2082DB2DBBDE8F0810000FF
:10575000E401002010B500290AD00878002807D0FD
:1057600005487844FAF73AFF002801D0002010BD20
:105770000248784410BD00009A060000920600001E
:1057800021F00042A2F16052B2F5801F01F0004307
:1057900028BFD2F17F6C0BD95FEA001C43EAC2023A
:1057A00042EB507018BF704728BF20F001007047CF
:1057B000B2F5801FBCBF184670474FEA410C1CF57C
:1057C000001F02D2084600F042BA70B500F079F925
:1057D00000000089FFF7F6BF4FF00040A0F5800001
:1057E000704700002DE9C04130B4DFF8A0C23CEAA8
:1057F000111418BF3CEA131400F0EC8081EA030591
:105800001CEA111444EAD57418BF1CEA131500F001
:10581000C780A4EB05044FF0004545EAC12145EAE5
:10582000C32341EA505143EA525304F17F74994231
:1058300004F500344FEAC0204FEAC22208BF90426C
:1058400000F09C804FEA13650FF24016765D4FEA38
:10585000134506FB05F7C7F1807706FB07F74FEA0C
:10586000D737A7FB03687642C8F58038A7FB06CE7A
:1058700038BFA8F1010807FB08E64FF0000EA6FBB1
:10588000028CE6FB03CEDCF1000CCEF1004E38BFFB
:10589000AEF1010EA6FB0C584FF000074FF00005CB
:1058A000E6FB0E87A1FB08C6A0FB07CE16EB0E0693
:1058B00045F10005E1FB076515F1E04E7EBFA4F55B
:1058C00080345FEA46066D4116F1800745F1000518
:1058D0004FEA17274FEA066647EA0567A6F1DE4654
:1058E000B6F1805F4FEA15251FD9384624F0010C28
:1058F00005EBC471BCF1FE6F01EB0C1102D8F0BCDA
:10590000BDE8008124425CBF01F5801E9EEAC47F91
:1059100002D4F0BCBDE80081244238D4F0BCA1F12F
:10592000C041BDE8004100F01AB94FEAD22242EA74
:1059300043524FEAD323A7FB02864FEAD02040EA26
:10594000415007FB03661EEA0E0F4FEAD12105FB0B
:10595000026658BFA6EB0056B6EB00564FEA520E51
:105960004EEAC37E18EB0E0E56EB530EBDD518EB68
:1059700002085E417F1C55F10005B6E74FF4801523
:105980004FF000074FF000064FF00008ADE7F0BC05
:105990004FF0000001F1C04101F00041BDE800817D
:1059A00011EA0C1F0CEA131500D00CE013EA0C1FCF
:1059B00000F025804FF00000F0BC81EA030101F007
:1059C0000041BDE80081F0BCBDE8004181EA03016F
:1059D00000F0C5B8F0BCBDE8004170B500F071F84A
:1059E000097EFC3E00F007B881EA03014FF0000099
:1059F00001F00041704781EA030100F0B0B8F0BC4B
:105A0000BDE800414FF0000021497047FFFDFBF960
:105A1000F7F5F4F2F0EEEDEBE9E8E6E4E3E1E0DEE1
:105A2000DDDBDAD8D7D5D4D3D1D0CFCDCCCBCAC853
:105A3000C7C6C5C4C2C1C0BFBEBDBCBBBAB9B8B77A
:105A4000B6B5B4B3B2B1B0AFAEADACABAAA9A8A86D
:105A5000A7A6A5A4A3A3A2A1A09F9F9E9D9C9C9B3B
:105A60009A999998979796959594939392919190E6
:105A70008F8F8E8E8D8C8C8B8B8A89898888878777
:105A80008685858484838382828181800000FF07EC
:105A90000000F87F10F0004248BF4042B0FA80F3A7
:105AA00010FA03F10AD0C3F11D0303F580634FEA36
:105AB000415002EB035202EBD12170474FF000003E
:105AC00070470EF1020E2EF0030E5EF8046B3642A4
:105AD00005D4012A43EB030515F5001F12D8012850
