:020000040800F2
:1000000078090020C5010008CD010008CF010008D3
:10001000D1010008D3010008D5010008000000004C
:10002000000000000000000000000000D7010008F0
:10003000D901000800000000DB010008910B000856
:10004000DF010008DF010008DF010008DF01000810
:10005000DF010008DF010008DF010008DF01000800
:10006000DF01000883300008DF010008DF0100081D
:10007000DF010008DF010008DF010008DF010008E0
:10008000DF010008DF010008DF010008DF010008D0
:10009000DF010008DF010008DF010008DF010008C0
:1000A000DF010008DF010008DF010008DF010008B0
:1000B000DF010008DF010008DF010008DF010008A0
:1000C000DF010008DF010008DF010008DF01000890
:1000D000DF010008FB070008DF010008DF0100085E
:1000E000DF010008DF010008DF01000800F002F86E
:1000F00000F059F80AA090E8000C82448344AAF169
:100100000107DA4501D100F04EF8AFF2090EBAE866
:100110000F0013F0010F18BFFB1A43F0010318473B
:100120007461000094610000103A24BF78C878C15F
:10013000FAD8520724BF30C830C144BF04680C60ED
:10014000704700000023002400250026103A28BF35
:1001500078C1FBD8520728BF30C148BF0B60704739
:10016000662906F00980642904F08282752904F06A
:100170007F82782904F0B882632904F0B0860020D9
:1001800070471FB504F010FC04000020002105F0AA
:100190004FFC401C60600020002105F05FFCE06027
:1001A0001FBD10B510BD05F02BF81146FFF7E9FF94
:1001B00003F00EFB05F057F803B4FFF7F2FF03BCA2
:1001C00005F058F80948804709480047FEE7FEE770
:1001D000FEE7FEE7FEE7FEE7FEE7FEE7FEE7FEE7F7
:1001E00004480549054A064B70470000E102000833
:1001F000ED00000878030020780900207805002031
:10020000780500200CB50020019000906948006836
:1002100040F480306749086000BF6648006800F419
:10022000003000900198401C0190009818B9019886
:10023000B0F5A06FF1D15F48006810F4003F02D024
:100240000120009001E0002000900098012842D198
:100250005948006840F01000574908600846006897
:1002600020F0030008600846006840F002000860C3
:10027000504840684F494860084640684860084612
:10028000406840F4806048600846406820F47C1074
:1002900048600846406840F4E81048600846006836
:1002A00040F08070086000BF4248006810F0007F96
:1002B000FAD04048406820F003003E4948600846B4
:1002C000406840F00200486000BF3A48406800F0D3
:1002D0000C000828F9D10CBD10B5FFF793FF10BD35
:1002E00010B53448006840F0010032490860084603
:1002F0004068324908402F49486008460068304944
:1003000008402C4908600846006820F480200860F6
:100310000846406820F4FE0048604FF41F008860E3
:10032000FFF7DAFF10BD10B5002100200022214B9D
:100330005B6803F00C0121B1042906D0082928D1FB
:1003400007E0204B204C236027E01E4B1E4C23600F
:1003500023E0184B5B6803F47010164B5B6803F4E2
:100360008032022303EB904022B9184B4343164CD2
:1003700023600DE00F4B5B6813F4003F04D0134B78
:100380004343114C236003E00E4B43430E4C236068
:1003900003E00C4B0C4C236000BF00BF054B5B68B7
:1003A000C3F303130A4CE15C074B1B68CB40064CBC
:1003B000236010BD00100240002002400000FFF842
:1003C000FFFFF6FE00127A000000002000093D0049
:1003D00004000020DD48006840F00100DB490860AF
:1003E00008464068DA490840D8494860084600682D
:1003F000D8490840D54908600846006820F48020A4
:1004000008600846406820F4FE0048604FF41F0072
:1004100088607047CD49096821F48031CB4A11606A
:100420001146096821F480211160B0F5803F03D0A6
:10043000B0F5802F0ED106E0C449096841F480313F
:10044000C24A116007E0C149096841F4A021BF4ACE
:10045000116000E000BF00BF704710B501460022E8
:10046000002300204A11012A02D1B84C236806E07B
:10047000022A02D1B54C236A01E0B44C636A01F050
:100480001F02012494401C4201D0012000E0002002
:1004900010BD38B5002000900024002500BF312099
:1004A000FFF7DBFF05460098401C00900098B0F570
:1004B000A06F01D0002DF2D03120FFF7CEFF08B1A0
:1004C000012400E00024204638BD014600209F4A58
:1004D000106820F0F80040EAC100106070479E49A3
:1004E0000860704702460020984B586820F47C1042
:1004F00042EA01031843954B5860704796490866D5
:10050000704701460020914A506820F003000843DC
:10051000506070478D48406800F00C0070470146FD
:1005200000208A4A506820F0F0000843506070476D
:1005300001460020854A506820F4E060084350607E
:10054000704701460020814A506820F4605040EA1C
:10055000C1005060704729B17C4A527A02437B4BFC
:100560005A7204E0794A527A8243784B5A72704741
:100570007A490860704701460020744A506820F4A8
:1005800040400843506070470021754A11706F4A1F
:1005900082F82010012802D0042808D103E00121AC
:1005A0006F4A117004E005216D4A117000E000BF30
:1005B00000BF70476B49086070476449096A01438E
:1005C000624A11627047674944390860704730B524
:1005D00000210022002400235C4D6D6805F00C0111
:1005E00021B1042905D0082923D105E05E4D05601D
:1005F00022E05D4D05601FE0544D6D6805F47012FA
:10060000524D6D6805F48034022505EB92421CB909
:10061000564D554305600BE04C4D6D6815F4003F99
:1006200003D0524D5543056002E04F4D55430560E0
:1006300002E04D4D056000BF00BF444D6D6805F000
:10064000F00109094A4D6B5C0568DD4045603F4D8E
:100650006D6805F4E061090A454D6B5C4568DD4055
:1006600085603A4D6D6805F46051C90A404D6B5C78
:100670004568DD40C560354D6D6805F44041890B26
:100680003C4D6B5CC568B5FBF3F5056130BD29B128
:100690002E4A526902432D4B5A6104E02B4A52699B
:1006A00082432A4B5A61704729B1284A9269024312
:1006B000264B9A6104E0254A92698243234B9A6152
:1006C000704729B1214AD2690243204BDA6104E024
:1006D0001E4AD26982431D4BDA61704729B11B4A19
:1006E000D2680243194BDA6004E0184AD2688243A8
:1006F000164BDA60704729B1144A12690243134B52
:100700001A6104E0114A12698243104B1A61704762
:1007100014494039086070470F49C86470470B4955
:10072000C87170470948406A40F0807007494862C4
:10073000704701460020054A92680A4201D0012014
:1007400000E00020704701498872704700100240A5
:100750000000FFF8FFFFF6FE00004242D8004242D0
:10076000201002408004424200127A0000093D003D
:100770001400002024000020302141430022F64BC9
:100780005A6000BFF44A52688A42FBD3704730B5C2
:100790000446002504E04FF47A70FFF7EDFF6D1C6E
:1007A000A542F8D330BD70B5064600BFEB480088BF
:1007B00010F0400FFAD0304604F093F805460024BC
:1007C0000AE000BFE548008810F0400FFAD0305D25
:1007D000E249091D0880641CAC42F2DB70BD0020B8
:1007E00003E00021DE4A1154401C4028F9DB0021BF
:1007F000DC4A1170DC4A1170704738B540F225515F
:10080000D64803F0D1FB58B3D44803F04DFBC4B233
:100810008DF8004000208DF801000D2C0AD1D04940
:10082000D14A127888540120CE4908700020CE4960
:10083000087010E0CC4800783F280CDACA490878E4
:10084000411CC94A1170C6490C54002012788854C2
:100850006846FFF7A8FF40F22551C04803F0CEFBE1
:1008600038BD70B50546182D00DD18254FF48051B0
:10087000BE4803F03AF90220FFF77EFF002418E09B
:10088000BB48015DBB4803F03DFD00BF8021B94876
:1008900003F08BFD0128F9D000BF0121B54803F01A
:1008A00084FD0128F9D1B34803F02EFDB249085563
:1008B000641CAC42E4DB0220FFF75EFF4FF4805182
:1008C000AA4803F010F90A20FFF756FF70BD0EB5D5
:1008D0000321012003F070F90820019000208DF819
:1008E00008000C208DF8090001208DF80A0001A8ED
:1008F00003F0C0FD09208DF800000D208DF80100E7
:1009000000208DF8020001208DF80300684603F0F6
:1009100094FB0220964908702B2048704120887073
:100920000320FFF79EFF0220914908706020487065
:1009300088700320FFF795FF02208D490870702012
:100940004870602088700320FFF78BFF02208849E1
:1009500008700C204870302088700320FFF781FF5A
:1009600002208349087062204870082088700320A4
:10097000FFF777FF8148008807287DD2DFE800F085
:100980000423426182A1C1000220794908702A2013
:100990004870802088700320FFF763FF02207449AD
:1009A000087029204870912088700320FFF759FFB4
:1009B00002206F49087028204870012088700320A9
:1009C000FFF74FFFBCE00220694908702A204870F9
:1009D000802088700320FFF744FF022064490870DC
:1009E00029204870B52088700320FFF73AFF0220C5
:1009F0005F49087028204870012088700320FFF7A5
:100A000030FF9DE002205A4908702A20487081205A
:100A100088700320FFF725FF022055490870292020
:100A20004870B52088700320FFF71BFF0220504953
:100A3000087028204870012088700320FFF711FFFC
:100A40007EE002204A4908702A2048708120887080
:100A50000320FFF706FF022045490870292048704F
:100A6000BF2088700320FFF7FCFE02204049087079
:100A700028204870022000E042E088700320FFF741
:100A8000F0FE5DE002203A4908702A204870842078
:100A900088700320FFF7E5FE022035490870292001
:100AA0004870B52088700320FFF7DBFE0220304934
:100AB000087028204870012088700320FFF7D1FEBD
:100AC0003EE002202A4908702A2048708920887058
:100AD0000320FFF7C6FE0220254908702920487030
:100AE000BF2088700320FFF7BCFE02202049087059
:100AF00028204870022088700320FFF7B2FE1FE014
:100B000000BF02201A4908702A2048709820887077
:100B10000320FFF7A6FE022015490870292048701F
:100B2000B52088700320FFF79CFE02201049087052
:100B300028204870012088700320FFF792FE00BF34
:100B400000BF02200A4908700F20487008208870F2
:100B50000320FFF786FE0EBD001000E000380140C4
:100B6000780000203B0000203A000020000C0140EB
:100B7000C800002000380040E000002036000020BF
:100B800010B5C020FE4908700120FFF76AFE10BDB5
:100B900010B5FC48006828B1FA480068401EF949C1
:100BA00008600FE0F848007818B11920F54908608E
:100BB00002E04B20F3490860F448C06880F400501C
:100BC000F249C860F2480068401CF1490860F148E9
:100BD0000068401CEF49086008460068B0F5FA7FDD
:100BE00009D9FFF7CDFF6420FFF7C6FDFFF76FFEC1
:100BF0000020E8490860E8490868411CE64A11609D
:100C0000142804D900201146086003F00EFC10BD22
:100C1000F0B587B0FFF7DEFB0020FFF760FC4FF474
:100C20008030FFF7F7FB4FF420114FF44030FFF70F
:100C300059FC0220FFF765FC0020FFF770FC4FF421
:100C40008060FFF775FC0020FFF77BFC0120FFF7B9
:100C500055FC00BF3920FFF700FC0028FAD000BF88
:100C6000FFF758FC0828FBD101210420FFF71CFDE9
:100C700001210820FFF718FD01211020FFF714FDC6
:100C800001218803FFF710FD01210846FFF70CFD45
:100C9000C248006840F08070C0490860C048C1493F
:100CA0000860C148006840F00100BF4908600020AA
:100CB00048604FF40050ADF8180010208DF81B006C
:100CC00002208DF81A0006A9B04802F061FE4FF428
:100CD0000051AE4802F007FF00250026002425E061
:100CE000B24800EB44100068B14988421DD1AF48BA
:100CF00000EB44100089012811D0AC4800EB4410EF
:100D0000008902280BD0A94800EB44100089032871
:100D100005D0A64800EB44100089042805D1A3485B
:100D200000EB4410C08805430126641CA1480088DC
:100D30008442D5DB66B1A8B2ADF8180010208DF85A
:100D40001B0003208DF81A0006A9994802F020FE26
:100D500000250026002413E0944800EB44100068AE
:100D6000934988420BD1914800EB44100089052833
:100D700005D18E4800EB4410C08805430126641C51
:100D80008C4800888442E7DB66B1A8B2ADF8180051
:100D900004208DF81B0003208DF81A0006A9844852
:100DA00002F0F6FD00250026002425E07F4800EB38
:100DB00044100068804988421DD17C4800EB4410F3
:100DC0000089012811D0794800EB441000890228DD
:100DD0000BD0764800EB44100089032805D07348F7
:100DE00000EB44100089042805D1704800EB441042
:100DF000C08805430126641C6E4800888442D5DB08
:100E000066B1A8B2ADF8180010208DF81B000320C1
:100E10008DF81A0006A9684802F0BAFD00250026E0
:100E2000002413E0614800EB4410006862498842E6
:100E30000BD15E4800EB44100089052805D15B48C2
:100E400000EB4410C08805430126641C5948008803
:100E50008442E7DB66B1A8B2ADF8180004208DF833
:100E60001B0003208DF81A0006A9534802F090FDDC
:100E7000002440E04D4800EB441000684C49884293
:100E800006D04A4800EB441000684B49884231D1F3
:100E9000464800EB4410008960B3444800EB44101E
:100EA000008903280AD1414A02EB4412D1883F4A03
:100EB00002EB4412106802F018FE1BE03B4800EB06
:100EC0004410008901280BD0384800EB44100089F9
:100ED000022805D0354800EB44100089042809D1C8
:100EE000324A02EB4412D188304A02EB44121068B5
:100EF00002F0F9FD641C2F4800888442BADB01210E
:100F00002E4802F014FE0820ADF8180004208DF8D9
:100F10001B0002208DF81A0006A9274802F038FDB0
:100F200006A802F0BEFD18208DF81B004FF40070DB
:100F3000ADF8180002208DF81A0006A91C4802F02E
:100F400027FD04208DF81B000002ADF818000220D8
:100F50008DF81A0006A9164802F01AFD02A802F040
:100F60000FFF4FF4E13002900020ADF80C00ADF817
:100F70000E00ADF81000ADF814000C2020E00000C9
:100F8000C8000020400000203C000020001001406C
:100F9000440000204C00002048000020FCED00E050
:100FA00055CEACC5B01F00E0001000E018010020D5
:100FB000000801405C000020000C014000043000EB
:100FC000ADF8120002A9F74802F071FE0121F548C0
:100FD00002F0F9FE25208DF8040001208DF80700AD
:100FE00001A803F02AF80121EE4802F0ECFE2520CA
:100FF00000F01F020121914042094FF0E02303EB72
:101000008202C2F8001100BF012240F22551E548DA
:1010100002F0E5FEE449B1F1807F00D31FE021F04A
:101020007F40401E4FF0E022506150170F220028F1
:1010300009DA13074FEA136CDC4B00F00F073F1F70
:1010400003F807C003E013071F0ED94B1F5400BF5E
:1010500000204FF0E02290610720106100BF45F2B0
:10106000555003F0D9F9032003F0D9F94FF49C70DF
:1010700003F0D8F903F0D9F903F0DCF90020CD49E9
:101080000860CD490870CD490870CD490870CD4938
:101090000860CD490860CD490860C6480068CC4961
:1010A0000860C4480068CB49086007B0F0BD2DE96E
:1010B000F04780460F469146C74803F012FC0646AB
:1010C000002E73D000240CE0C34803F00AFC06464F
:1010D000002404E0C049601C085C0855641CB4424C
:1010E000F8DBBD4800782028EED0BB4803F0F9FBC0
:1010F000461E002E0BDD06E0002E04DB0020B64964
:10110000885506B1761EB448805D2028F4D0B248D8
:1011100003F0E7FB064600252AE0AF48405D2028A3
:1011200003DBAD48405D7E2805DDAB48405D10B176
:101130002420A9494855A848405D602804DDA648F8
:10114000405D2038A449485508E02C4604E0A249F7
:10115000601C085C0855641CB442F8DB9E48405D86
:10116000202804D19C49681C085C2028EDD06D1C07
:10117000B542D2DB002403E0002047F82400641CC1
:101180004C45F9DB002400250AE09348405D202807
:1011900005D14C4503DA2046641C47F820506D1CED
:1011A000B542F2DB386870B1002405E010E08A48EF
:1011B000005D08F80400641C3868A042F7DC0020D9
:1011C00008F8040007E08449404603F066FB02E0AB
:1011D000002088F80000BDE8F0872DE9F0470446BC
:1011E0000D4617469A4600202070002D3BDD5545E0
:1011F00039DC681E57F8200088B357F82500B0B1D5
:101200004FF00008681E57F82000461C06E07248A0
:10121000825D404608F101082254761C57F82500EB
:10122000401CB042F3DC002004F808001DE06A48CE
:1012300003F057FB81464FF00008681E57F8200066
:10124000461C06E06448825D404608F101082254CD
:10125000761C4E45F6DB002004F8080005E0FFE7A9
:101260000020207001E000202070BDE8F08730B53C
:101270005A4C5B4D6C605B4C6C6000BF584CE46832
:1012800014F0010FFAD1564C246944F00204544D75
:101290002C61554C6C612C46246944F040042C614F
:1012A00000BF4F4CE46814F0010FFAD14C4C246994
:1012B00024F002044A4D2C612C46246944F00104B8
:1012C0002C614A4C206882B200BF454CE46814F09F
:1012D000010FFAD1444C2280000C024600BF404C62
:1012E000E46814F0010FFAD13F4CA41C2280404C5A
:1012F000206882B200BF3A4CE46814F0010FFAD1C2
:10130000394C241D2280000C024600BF344CE46896
:1013100014F0010FFAD1344CA41D228000BF304CD0
:10132000E46814F0010FFAD1324C24882E4D0835B0
:101330002C8000BF2A4CE46814F0010FFAD12E4C27
:101340002488294D0A352C8000BF254CE46814F010
:10135000010FFAD1294C2488234D0C352C8000BF75
:101360001F4CE46814F0010FFAD1254C24881E4D5F
:101370000E352C8000BF1A4CE46814F0010FFAD12E
:10138000204C2488184D10352C801221002070E04C
:101390001D4C04EB401424681C4DAC4238D1012391
:1013A00040E00000003801400053070018ED00E065
:1013B00000E400E0440000203B0000203C0000204E
:1013C000380000204C000020700000207400002035
:1013D0006C00002068000020780000202301674591
:1013E00000200240AB89EFCD00FC00082C0000205B
:1013F0003000002034000020360000205C00002077
:101400005E0000206000002018010020000801405C
:10141000F44C04EB40142468F34DAC4201D1022398
:1014200000E0002300BFF14CE46814F0010FFAD192
:10143000EF4C0B538C1CA1B2EA4C04EB4014A38874
:1014400000BFEA4CE46814F0010FFAD1E84C0B53EA
:101450008C1CA1B2E34C04EB4014238900BFE34C85
:10146000E46814F0010FFAD1E14C0B538C1CA1B2CB
:10147000401C10288CD300BFDC4CE46814F0010F32
:10148000FAD1DA4C246924F00104D84D2C612C46A1
:10149000246944F080042C6130BD10B5D44B1B6826
:1014A000D44C2360D24B1B1D1B68D34C2360D04B04
:1014B00008331B88D14C2380CD4B0A331B88D04C7A
:1014C0002380CB4B0C331B88CE4C2380C84B0E3370
:1014D0001B88CD4C2380C64B10331B88CB4C2380FC
:1014E000C84B1B88102B02DCC64B1B8813B9012389
:1014F000C44C238012210020BDE0BD4BCA5A8B1C76
:1015000099B2012A05D1C24BB64C04EB40142360BA
:101510000CE0022A05D1B44BB24C04EB401423601A
:1015200004E00023AF4C04EB40142360B04BCA5AD4
:101530008B1C99B2102A04DAAA4B03EB40139A8051
:1015400008E00023A74C04EB40142360A54C04EBF7
:101550004014A380A64BCA5A8B1C99B2052A04DCFE
:10156000A04B03EB40131A8104E000239D4C04EBD5
:10157000401423819B4B03EB40139C88102C72D2A8
:10158000DFE804F0080E141A20262C32383F464DAE
:10159000545B62690123934C04EB4014E38068E0E0
:1015A0000223904C04EB4014E38062E004238D4C52
:1015B00004EB4014E3805CE008238A4C04EB401405
:1015C000E38056E01023874C04EB4014E38050E0A6
:1015D0002023844C04EB4014E3804AE04023814CF8
:1015E00004EB4014E38044E080237E4C04EB401481
:1015F000E3803EE04FF480737A4C04EB4014E380C8
:1016000037E04FF40073774C04EB4014E38030E094
:101610004FF48063734C04EB4014E38029E04FF4F3
:101620000063704C04EB4014E38022E04FF48053DD
:101630006C4C04EB4014E3801BE04FF40053694C06
:1016400004EB4014E38014E04FF48043654C04EB5A
:101650004014E3800DE04FF40043624C04EB40146F
:10166000E38006E0FFE700235E4C04EB4014E380D8
:1016700000BF00BF401C1028FFF43FAF624B1B8827
:10168000502B02DD5023604C238042F21073594CE2
:101690002360604B1B689B68574C236010BD2DE98D
:1016A000F04F9BB001205C49087000201A905BA0AD
:1016B000FFF779F869A16C4803F0EFF8FFF78FF8AE
:1016C0006948FFF770F80620079001F05BB867489B
:1016D00000780028F9D0002064490870002664488A
:1016E00003F0FFF80546002D01F0498000208DF839
:1016F000280001A90AA8079AFFF7D9FC5DA10AA84A
:1017000003F00EF9A8B95CA1574803F0C6F8564893
:10171000FFF749F800204049087059A0FFF743F847
:10172000FFF75DF81A9808B102F0C0F81BB0BDE8E9
:10173000F08F55A10AA803F0F3F8002850D153A068
:10174000FFF731F852A0FFF72EF857A0FFF72BF85C
:101750005DA0FFF728F84DA0FFF725F861A0FFF77F
:1017600022F86AA0FFF71FF86FA0FFF71CF877A018
:10177000FFF719F87EA0FFF716F886A0FFF713F819
:101780008DA0FFF710F894A0FFF70DF89AA0FFF7CF
:101790000AF83EA0FFF707F810229F490AA802F0B6
:1017A00001FF0AA8FEF7FFFF9CA0FEF7FCFFA9A01F
:1017B000FEF7F9FF35A0FEF7F6FFB6A0FEF7F3FF40
:1017C000B6A0FEF7F0FFBEA0FEF7EDFFC6A0FEF745
:1017D000EAFFD0A0FEF7E7FFD9A0FEF7E4FFC3E1E0
:1017E000E5E1000018010020000C0140002002404B
:1017F00000FC00082C0000203000002034000020F5
:10180000360000205C0000205E0000206000002008
:1018100000080140280000203C0000200D0D0A0AAD
:10182000286329204F70656E2D504C43202D204792
:1018300050494F206D6F64756C652076312E3520D0
:10184000286F70656E2D706C632E636F6D290D0AA5
:101850000A3F202D2068656C700D0A000D0A436F49
:101860006E6669673E200000B80000203B00002043
:1018700078000020510000000D0A57313E20000082
:101880000D0A0D0A000000003F0000000D0A0000D4
:101890000D0A3F202020202020202D20546869732D
:1018A00020706167650000000D0A71202020202053
:1018B00020202D20457869742066726F6D20436F5B
:1018C0006E666967000000000D0A73682020202002
:1018D00020202D2053686F7720706172616D6574D0
:1018E000657273000D0A636E203C4E6E3E202D2003
:1018F000736574204E6E206F6E2043414E206275DA
:10190000732028312E2E3130302900000D0A6373E8
:10191000203C4E6E3E202D207365742043414E20A6
:1019200073706565640000000D0A202020202020CF
:10193000202020204E6E203D20303B2053706565D6
:101940006420353030303030000000000D0A202097
:1019500020202020202020204E6E203D20313B20C2
:10196000537065656420323530303030000000003F
:101970000D0A202020202020202020204E6E203DF7
:1019800020323B2053706565642031323530303071
:10199000000000000D0A20202020202020202020F0
:1019A0004E6E203D20333B205370656564203130FE
:1019B00030303030000000000D0A20202020202090
:1019C000202020204E6E203D20343B205370656542
:1019D00064203530303030000D0A202020202020B7
:1019E000202020204E6E203D20353B205370656521
:1019F00064203230303030000D0A2020202020209A
:101A0000202020204E6E203D20363B2053706565FF
:101A100064203130303030007C6100080D0A6C6386
:101A2000203C6368616E6E656C3E203C706F727422
:101A30003E203C4750494F783E205B4750494F205D
:101A4000547970655D202D20736574206368616E24
:101A50006E656C000D0A6C74203C6368616E6E6587
:101A60006C3E203C4750494F20547970653E202001
:101A700020202020202020202020202020202D2059
:101A8000736574206368616E6E656C20747970652F
:101A9000000000000D0A7768657265000D0A2020BD
:101AA00020202020206368616E6E656C202D204E02
:101AB0006E206F66206368616E6E656C00000000CA
:101AC0000D0A20202020202020706F7274202020FA
:101AD000202D20706F727420412C422C28302D64F0
:101AE000656C6574652900000D0A202020202020E7
:101AF000204750494F782020202D204E6E207069BD
:101B00006E206F6620706F7274732028302D31350F
:101B1000290000000D0A20202020202020475049C5
:101B20004F20547970653A20204E6E203D203020A1
:101B30002D204E6F7420636F6E6E65637465640054
:101B40000D0A2020202020202020202020202020BE
:101B500020202020204E6E203D2031202D20445377
:101B60003138423230000000B4A0FEF71CFEBDA0A8
:101B7000FEF719FECAA0FEF716FED7A0FEF713FE69
:101B8000AFF2F820FEF70FFEE1A0FEF70CFEE9A091
:101B9000FEF709FEF4A0FEF706FEFAA0FEF703FE2C
:101BA000AFF21830FEF7FFFD0126FEF718FE002EFB
:101BB0007DD1FD48008810B10120FB490880FBA1C0
:101BC0000AA802F0ADFE0028F2D1F94800880728E3
:101BD00016D2DFE800F00406080A0C0F1200F54DDB
:101BE00010E0F54D0EE0F54D0CE0F54D0AE04CF23D
:101BF000503507E044F6206504E042F2107501E03C
:101C0000012500BF00BFAFF28830FEF7CCFDEDA18B
:101C10000AA802F0C7FC0AA8FEF7C5FDEFA10AA8B2
:101C200002F0C0FC0AA8FEF7BEFDF3480268F3A16B
:101C30000AA802F0B7FC0AA8FEF7B5FDF44802684E
:101C4000F4A10AA802F0AEFC0AA8FEF7ACFDF64823
:101C50000288F6A10AA802F0A5FC0AA8FEF7A3FDD7
:101C60002A46F7A10AA802F09DFC0AA8FEF79BFDF0
:101C7000AFF2E830FEF797FDF748B0F800B04FEA52
:101C8000EB700BEB5070C210F4A10AA802F08AFCB2
:101C90000AA8FEF788FDC4480288F6A10AA802F047
:101CA00081FC0AA8FEF77FFDAFF2204000E078E05B
:101CB000FEF779FDF4A0FEF776FDF8A0FEF773FDC0
:101CC000002460E0621CFAA10AA802F06BFC0AA8DA
:101CD000FEF769FD00200990F74800EB441000680A
:101CE000F649884205D1F6A0FEF75DFD0120099076
:101CF0000FE0F14800EB44100068F249884205D13A
:101D0000F1A0FEF750FD0120099002E0EFA0FEF7E0
:101D10004AFD099850B1E84800EB44108288EDA1D3
:101D20000AA802F03FFC0AA8FEF73DFDE24800EBDE
:101D30004410008906281CD2DFE800F003070B0FCF
:101D40001317E6A0FEF72FFD17E0E6A0FEF72BFD28
:101D500013E0E8A0FEF727FD0FE0EAA0FEF723FD61
:101D60000BE0F1A0FEF71FFD07E0F7A0FEF71BFD5B
:101D700003E0DAA0FEF717FD00BF00BFAFF2F440AA
:101D8000FEF711FD641CF848008884429ADBF6488F
:101D9000008818B9AFF20C50FEF705FD0126FEF7DA
:101DA0001EFD46BBF1A10AA802F0BAFD18BB01AAAC
:101DB00001210AA8079BFFF710FA9DF82800A0B19F
:101DC0000AA802F05DFD0446002C0ADD652C08DA45
:101DD00095490C80FFF74BFAFFF75FFB01201A9043
:101DE00006E0E3A0FEF7DFFC02E0EAA0FEF7DBFC82
:101DF0000126FEF7F4FCF6B9EBA10AA802F090FD6B
:101E0000C8B901AA01210AA8079BFFF7E6F99DF8C6
:101E1000280088B10AA802F033FD0446002C0CDB30
:101E2000072C0ADA62490C80FFF721FAFFF735FB2D
:101E300001201A90C2E1C4E1BCE1B7E10D0A202003
:101E40002020202020202020202020202020202092
:101E5000204E6E203D2032202D2069427574746F13
:101E60006E0000000D0A20202020202020202020AD
:101E70002020202020202020204E6E203D203320B6
:101E80002D206269646972656374696F6E616C208C
:101E90004750494F2070756C6C646F776E0000007E
:101EA0000D0A20202020202020202020202020205B
:101EB00020202020204E6E203D2034202D206269DD
:101EC000646972656374696F6E616C204750494F35
:101ED0002070756C6C7570000D0A20202020202069
:101EE000202020202020202020202020204E6E2076
:101EF0003D2035202D204750494F5F4D6F646520B0
:101F0000496E70757420466C6F6174696E6700006D
:101F10000D0A73642020203C4E6E3E20202D20535D
:101F2000686F7720446174612C204E6E3D302F31F4
:101F3000000000000D0A746D2020203C4E6E3E20F3
:101F4000202D205365742074696D656F757420664B
:101F50006F722069427574746F6E2C204E6E3D3026
:101F60002E2E3130000000000D0A7772736E203C77
:101F70004E6E3E20202D20577269746520532F4EDF
:101F8000000000000D0A77726474203C4E6E3E2003
:101F9000202D205772697465204465766963652039
:101FA0005479706500000000600000205348000074
:101FB0003600002020A1070090D0030048E801006F
:101FC000A08601004E616D65202020202020202069
:101FD0002056616C75650D0A000000002D2D2D2D19
:101FE0002D2D2D2D2D2D2D20202D2D2D2D2D2D2D3B
:101FF0002D2D2D0D0A0000002C000020446576696F
:1020000063652054797065202025750D0A00000055
:1020100030000020532F4E20202020202020202080
:102020002025750D0A000000340000204E6E206F40
:102030006E2043414E2020202025750D0A0000000F
:1020400043414E2053706565642020202025642084
:102050006270730D0A0000005E00002042544E20A2
:1020600074696D656F757420202564207365630D38
:102070000A00000053686F772044617461202020BB
:102080002025640D0A000000636820706F727420C0
:102090004750494F20547970650D0A002D2D202D91
:1020A0002D2D2D202D2D2D2D2D2D2D2D2D0D0A00DD
:1020B00025327520000000001801002000080140B2
:1020C00050410000000C0140504200002D2D2D2DEC
:1020D00000000000252D327500000000202D2D2D60
:1020E0002D0000002028312920445331384232305D
:1020F00000000000202832292069427574746F6E38
:102100000000000020283329206269646972656339
:1021100074696F6E616C204750494F2070756C6C0C
:10212000646F776E00000000202834292062696403
:102130006972656374696F6E616C204750494F2006
:1021400070756C6C75700000202835292047504947
:102150004F5F4D6F646520496E70757420466C6FDB
:102160006174696E670000005C000020434E00004F
:102170000D0A4572726F722043414E206E756D627A
:1021800065722E20456E61626C6520312E2E3130D5
:10219000300D0A000D0A436F6D6D616E642065722B
:1021A000726F720D0A00000043530000FDA0FEF79D
:1021B000FAFA03E0AFF22400FEF7F5FA0126FEF783
:1021C0000EFB4EBBFCA10AA802F0AAFB20BB01AA91
:1021D00001210AA8079BFFF700F89DF82800A0B18D
:1021E0000AA802F04DFB0546002D0ADD112D08DA84
:1021F000F2490D80FFF73BF8FFF74FF901201A90E5
:1022000007E0EFA0FEF7CFFA03E0AFF27800FEF7A9
:10221000CAFA0126FEF7E3FA002E7AD1EFA10AA846
:1022200002F07EFB0028F8D10027804681468246D6
:1022300001AA01210AA8079BFEF7CFFF9DF82800FD
:1022400050B10AA802F01CFBB0F1000B01DB5846AC
:1022500001E0CBF1000087B201AA02210AA8079B86
:10226000FEF7BBFF9DF8280038B39DF82900202811
:1022700002D100208DF829000AA802F032FB0128C3
:102280001FD19DF82800302802D14FF000081AE035
:102290009DF82800612803D09DF82800412802D12C
:1022A0004FF001080FE09DF82800622803D09DF848
:1022B0002800422802D14FF0020804E04FF0FF0846
:1022C00001E04FF0FF0801AA03210AA8079BFEF7CF
:1022D00084FF9DF8280058B10AA802F0D1FAB0F1A5
:1022E000000B01DB584601E0CBF100001FFA80F93A
:1022F00001AA04210AA8079BFEF76FFF9DF828009A
:1023000060B10AA802F0BCFAB0F1000B02DB58463B
:1023100002E0AAE0CBF100001FFA80FA01251FB10C
:10232000A6480088874203DDADA0FEF73CFA0025F1
:1023300035B1B8F1020F03DDAFA0FEF734FA002586
:1023400035B1B9F10F0F03DDB0A0FEF72CFA00256F
:1023500065B1B8F1010F09D1B9F10D0F02D0B9F192
:102360000E0F03D1A9A0FEF71EFA00254DB1B8F15A
:10237000020F06D1B9F1020F03D1A4A0FEF713FAA0
:10238000002535B1BAF1050F03DDA5A0FEF70BFA64
:1023900000257DB301200890B8F1010F03D1A548B5
:1023A000A549086009E0B8F1020F03D1A348A2498A
:1023B000086002E00020A04908609F48A0F804904F
:1023C000A0F808A0002417E09B48006898B19A483C
:1023D00000689B4901EB4411096888420BD196487B
:1023E0008088974901EB44118988884203D10020F5
:1023F000089005E036E0641C704800888442E3DB06
:1024000000BF089858B3B8F1010F06D18949781E6A
:102410008B4A02EB401001600FE0B8F1020F06D1C9
:102420008649781E864A02EB4010016005E00021D3
:10243000781E834A02EB40100160781E804901EB50
:102440004010A0F80490781E01EB4010A0F808A0FE
:10245000FEF70DFFFFF721F801201A9002E079A0A6
:10246000FEF7A1F90126FEF7BAF9EEBB7CA10AA896
:1024700002F056FAC0BB0027B84601AA01210AA8FB
:10248000079BFEF7AAFE9DF8280050B10AA802F0AB
:10249000F7F9B0F1000B01DB584601E0CBF1000089
:1024A00087B201AA02210AA8079BFEF796FE9DF8B3
:1024B000280058B10AA802F0E3F9B0F1000B01DBE3
:1024C000584601E0CBF100001FFA80F801251FB14A
:1024D0003A480088874203DD41A0FEF764F90025F1
:1024E00045B1B8F1050F00E014E003DD4CA0FEF7A4
:1024F0005AF900255DB1781E514901EB4010A0F852
:102500000880FEF7B4FEFEF7C8FF01201A900126EE
:10251000FEF765F93EBB53A10AA802F001FA10BB11
:1025200001AA01210AA8079BFEF757FE9DF8280083
:1025300090B10AA802F0A4F90446002C08DD4B482B
:102540000460FEF794FEFEF7A8FF01201A9007E052
:1025500047A0FEF728F903E0AFF2C830FEF723F9F1
:102560000126FEF73CF9DEB946A10AA802F0D8F927
:10257000B0B901AA01210AA8079BFEF72EFE9DF81B
:10258000280070B10AA802F07BF90446002C7FDD18
:102590003E480460FEF76BFEFEF77FFF012078E007
:1025A00085E07DE00D0A4572726F722043414E2036
:1025B00073706565640D0A004C4E00005C000020DD
:1025C0000D0A57726F6E67206E756D6265722C20F2
:1025D00063616E63656C2E0D0A0000004C430000C1
:1025E0000D0A57726F6E67204E6E206368616E6EC3
:1025F000656C0D0A000000000D0A57726F6E6720AF
:10260000706F7274206E616D650D0A000D0A57724D
:102610006F6E67204E6E2070696E0D0A000000001C
:102620000D0A57726F6E67204750494F20547970DA
:10263000650D0A0000080140F8000020000C014070
:10264000180100200D0A506F727420616C72656170
:10265000647920696E207573652E0D0A00000000F4
:102660004C5400005752534E000000003000002030
:102670000D0A4572726F72206E756D6265720D0A79
:102680000000000057524454000000002C000020BD
:1026900001E01A9008E0AFF22800FEF784F803E0AA
:1026A000AFF21050FEF77FF80126FEF798F86EBBE8
:1026B000FDA10AA802F034F940BB01AA01210AA831
:1026C000079BFEF78AFD9DF82800C0B10AA802F01A
:1026D000D7F80446002C0EDB0B2C0CDA4FF6FF70FB
:1026E00000EAC400F1490880FEF7C1FDFEF7D5FEFF
:1026F00001201A9007E0EEA0FEF755F803E0AFF2D4
:102700006C50FEF750F80126FEF769F846BBEDA1C4
:102710000AA802F005F918BB01AA01210AA8079B23
:10272000FEF75BFD9DF8280098B10AA802F0A8F812
:1027300004460CB1012C08D1E3490C80FEF797FD4B
:10274000FEF7ABFE01201A9007E0E0A0FEF72BF8A1
:1027500003E0AFF2C050FEF726F80126FEF73FF87F
:102760004EB9DFA0FEF71FF8E2A0FEF71CF8E6481E
:10277000FEF719F806E0E448FEF715F802E0E24833
:10278000FEF711F8E148007800287EF4A0AFFEF7CC
:1027900026F800BFFEF7CABF2DE9F041DC480078FB
:1027A00000286ED00127DB4802F09BF80646002E79
:1027B00068D0002518E0D748405D302803DBD548B5
:1027C000405D392800DD002701F0D4FE0068D149C2
:1027D000495D405C10F0080F05D0CE49485D01F01E
:1027E000D1FECC4948556D1CB542E4DBCAA1C948AD
:1027F00002F096F810B9FEF752FF63E0002F4AD0BE
:10280000C44802F03DF80446002C40D0102C3EDCB9
:10281000641EC24800EB4410006888B3BF4800EB58
:1028200044100089032805D0BC4800EB44100089FF
:10283000042821D1B94A02EB4412D188B74A02EBED
:102840004412106801F035F9064656B1B34A02EB5E
:102850004412D188B14A02EB4412106801F045F9E4
:1028600030E0AE4A02EB4412D188AC4A02EB44128B
:10287000106801F038F925E0A9A0FDF794FF21E0E8
:1028800001E027E021E0AEA0FDF78DFF1AE0B3A044
:10289000FDF789FF16E09F4802F023F800280ED0CC
:1028A000B5A0FDF780FFB9A0FDF77DFFB9A0FDF74A
:1028B0007AFFBFA0FDF777FFC1A0FDF774FF924834
:1028C000FDF771FFFDF78BFF04E08F48FDF76BFF0D
:1028D000FDF785FFBDE8F08100B587B001218803D1
:1028E000FDF7EFFE4FF48050ADF8180010208DF882
:1028F0001B0002208DF81A0006A9C04801F048F814
:102900004FF48051BD4801F0EEF84FF42040ADF88F
:10291000180018208DF81B0002208DF81A0006A957
:10292000B64801F035F84FF48040ADF818000420A7
:102930008DF81B0002208DF81A0006A9AF4801F09F
:1029400027F801A801F097FC0020ADF80400ADF8CD
:102950000800ADF80A00ADF80C004FF40070ADF8B7
:102960000E002020ADF810000020ADF812004FF44A
:102970008270ADF8060001A9A14801F0EDFB01212C
:102980009F4801F08EFC07B000BD2DE9FE4F0020EE
:10299000029003209B4908702C204870002088700A
:1029A0000320FDF75EFF984880780190019810F0B1
:1029B000010F4BD0002095490860022403E000205D
:1029C00090490855641C182CF9D303208D490870D0
:1029D000612048700620FDF744FF8B4880788C49C1
:1029E00008708948C07848708748007988708648A0
:1029F0004079C870084600784701084640784FEA99
:102A0000E00909F0FC0007430846407800F00300A5
:102A10000743084690F80280C578C7B9012403E04F
:102A2000002078490855641C182CF9D39220754968
:102A300008700920FDF715FF002405E07249601CAD
:102A4000085C74490855641C082CF7D388E1724867
:102A50000088874224D1012403E0002069490855F9
:102A6000641C182CF9D39220664908700920FDF7E0
:102A7000F8FE002405E06449601C085C65490855BF
:102A8000641C082CF7D3002064490870B8F1010FCA
:102A900007D0B8F1020F05D0B8F1030F03D155E10B
:102AA0005CE1BDE0F9E053E1544D00005E00002020
:102AB0000D0A4572726F7220544D206E756D6265FD
:102AC000720D0A0053440000600000200D0A457298
:102AD000726F722053442076616C75650D0A000098
:102AE0000D0A556E6B6E6F776E20636F6D6D616E44
:102AF000640000000D0A3F202D20666F722068657B
:102B00006C700D0A00000000B80000203C0000209E
:102B10003B000020780000204346470018010020B9
:102B20000D0A4368616E6E656C206D617920626587
:102B3000204750494F206F6E6C792E0D0A0000001F
:102B40000D0A4368616E6E656C206E6F742064655B
:102B500066696E65642E0D0A000000000D0A57724A
:102B60006F6E67204E6E206F66206368616E6E65C3
:102B70006C2E0D0A000000000D0A556E6B6E6F770B
:102B80006E20636F6D6D616E640D0A007072696E08
:102B9000740D0A00202020202020203C6366673E20
:102BA00020666F7220436F6E6669670D0A00000031
:102BB000202020202020203C6E6E3E0D0A000000C8
:102BC000202020202020202020202020206E6E2069
:102BD0003D204E6E206F66206368616E6E656C20CE
:102BE0004750494F20666F72207265766572736533
:102BF0002073746174650D0A00000000000C014030
:102C000000380040C8000020E00000204C000020F8
:102C10005000002054000020340000203900002023
:102C2000681EF84901EB4010006880B3681E01EB94
:102C30004010008958B3681E01EB4010008903283A
:102C400005D0681E01EB4010008904281AD1EE4817
:102C5000007858B16A1EEB4B03EB4212D1886A1E12
:102C600003EB4212106800F03EFF15E06A1EE54BD0
:102C700003EB4212D1886A1E03EB4212106800F087
:102C800034FF09E00120E1490870029004E0FFE709
:102C90000120DE49087002905FE005F07F05DC4806
:102CA0000088854204DD0120D849087002904CE07C
:102CB0002DBB002600241FE04FF0000B00200090E9
:102CC000102E0AD23046761CCE4901EB401090F807
:102CD00008B04FEA0B704FEA106B102E06D2304648
:102CE000761CC84901EB4010007A009000984BEA2E
:102CF0000000C5490855641C082CDDD325E0681E7A
:102D0000C04901EB4010006898B1681E01EB40100B
:102D1000008970B1681E01EB401000F1100A002418
:102D200004E01AF80400B8490855641C082CF8D3CC
:102D30000BE00120B54908700290002403E0002058
:102D4000B1490855641C082CF9D306E000F0AEFD2B
:102D50000120AE490870029000BF01E002200290FD
:102D60000298BDE8FE8F2DE9F84F4FF0000AD346D8
:102D7000A84800784701A7484078C0100090BDF8E7
:102D8000000000F0FC000743A248407800F0030078
:102D90000743A048C0789F49897840EA0120009005
:102DA000062503E000209C4948556D1C182DF9DBD1
:102DB0000220994908703120487057B3BDF80000CF
:102DC00038B394480078887092484078C8708F482B
:102DD000007828B18F48807840F08000087103E0C7
:102DE0008C4880788C4908718A48C07840F080000F
:102DF0008949487108208871002505E08248415DB5
:102E0000854AE81D11546D1C082DF7DB4FF0010BAE
:102E1000D2E0002FFCD16C46607801286DD120787B
:102E200001282DD1784E7D49306809688842EFD15C
:102E3000784800787849887076484078C870754836
:102E4000807808717348C07840F08000487108208D
:102E5000887130460078C871304640780872304634
:102E6000807848723046C07888726D4C2078C8727D
:102E7000607808734FF0010B01206A4908709BE0ED
:102E80002078022832D1604E64493068096888424F
:102E9000BED160480078604988705E484078C8704C
:102EA0005C48807808715B48C07840F080004871C9
:102EB0000820887130460078C87130464078087222
:102EC0003046807848723046C0788872544C2078FA
:102ED000C872607808733046007921460880FEF792
:102EE000C6F9FEF7DAFA4FF0010B65E02078032807
:102EF00062D100204B4908705EE0607802285BD107
:102F000048480078002857D1207840BB434CA0782F
:102F1000414988703F484078C870607808712078CF
:102F200000F01F09084680F805900820887100BF4E
:102F3000002504E0615D384AE81D11546D1C042D24
:102F4000F8DB394C002505E0615D334A05F10B00E3
:102F500011546D1C042DF7DB4FF0010B2CE0207891
:102F6000012829D1284E2D4930680968884223D18B
:102F7000284800782849887026484078C870254835
:102F8000807808712348C07840F08000487108209C
:102F9000887130460078C8713046407808723046F3
:102FA000807848723046C07888721D4C2078C8728C
:102FB000607808734FF0010BBBF1000F5ED00F205B
:102FC000FDF74FFC8120144908700120FDF749FCF2
:102FD0001648D0F80080002538E00A20FDF7CCFB29
:102FE00003200D4908702C204870002088700320B1
:102FF000FDF737FC0E48807810F0040F1AD0012539
:1030000024E00000180100205400002039000020B6
:103010005C00002050000020C8000020300000208C
:1030200034000020380000202C0000204400002044
:10303000E0000020FB488078012807D1FDF7A0FDC3
:103040006420FDF799FBFDF742FC0125F64909686C
:10305000B1EB080001D4014600E04142022901DA47
:10306000002DBAD0F0490968B1EB080001D401463F
:1030700000E04142012901DD4FF0010A5046BDE860
:10308000F88F10B5FFF781FC04460520E74908706A
:103090002C204870FF2088700020C8700420FDF7A5
:1030A000E0FB0CB1012C0BD1FFF75DFE0446012CB7
:1030B00006D1FDF765FD6420FDF75EFBFDF707FC1B
:1030C0000520DA4908702C204870FF208870002005
:1030D000C8700420FDF7C5FB082001F031FA10B1DB
:1030E000082001F03EFA10BD08220DE080EA01033D
:1030F00013F0010F03D08C2383EA600300E0431038
:1031000018464910531EDAB2002AEFD170472DE954
:10311000F04104460E4600253EE015B146FA05F79B
:1031200000E0374607F00107D7B1C14A02EB44126D
:10313000D188BF4A02EB4412106800F0D6FC0F2081
:10314000FDF71AFBBA4A02EB4412D188B84A02EBE7
:103150004412106800F0C7FC3C20FDF70DFB19E09D
:10316000B34A02EB4412D188B14A02EB4412106810
:1031700000F0BBFC3C20FDF7FFFAAD4A02EB441225
:10318000D188AB4A02EB4412106800F0ACFC0F206F
:10319000FDF7F2FA681CC5B2082DBEDBBDE8F08170
:1031A0002DE9F04F8BB00446002740E000200A9044
:1031B000824634E09E4A02EB4412D1889C4A02EBDC
:1031C0004412106800F091FC0520FDF7D5FA984AEA
:1031D00002EB4412D188964A02EB4412106800F0C8
:1031E00082FC0A20FDF7C8FA914A02EB4412D1880A
:1031F0008F4A02EB4412106800F05BFC8146B9F183
:10320000000F05D009FA0AF00A990843C0B20A90E3
:103210003C20FDF7B1FA0AF1010000F0FF0ABAF113
:10322000080FC7DB07A90A98C855781CC7B2092F31
:10323000BCDB4FF0000B002707E007A8C15D584634
:10324000FFF752FF8346781CC7B2082FF5DB78489A
:1032500000EB4410008901284CD19DF8240058450A
:103260002FD19DF81D804FEA08200FFA80F89DF8B5
:103270001C0040EA0808404602F090FD00226D4B19
:10328000CDE9000102F032FC00226B4BCDE90201D6
:1032900002F0E2FDCDE9040102F0F6FB069006988B
:1032A00002F004FF0FFA80F84FEAE870604901EB82
:1032B0004411C1E9048000205D4901EB44110883F9
:1032C00054E05B4800EB4410008B052809DA5848AD
:1032D00000EB4410008B401C554901EB441108835E
:1032E00044E04FF47C410020514A02EB4412C2E911
:1032F00004103BE04E4800EB44100089022835D111
:1033000000252E46002708E0300240EA15662D020F
:1033100007A8C05D0543781CC7B2082FF4DB4FF047
:10332000FF3185EA0100714008431AD1404800EBA3
:103330004410408B48B13E4800EB4410408B401E87
:103340003B4901EB4411488310E0394800EB44103D
:10335000C0E9045639480088354901EB44114883D7
:1033600004E0334800EB4410C0E904560BB0BDE85C
:10337000F08F10B532480068002840D1002439E0B1
:103380002B4800EB4410008901282BD1284800EB82
:103390004410006830B3264A02EB4412D188244A14
:1033A00002EB4412106800F0A0FB4FF4FA70FDF736
:1033B000E3F91F4A02EB4412D1881D4A02EB441282
:1033C000106800F090FB4FF4FA70FDF7D5F9A0B249
:1033D000CC21FFF79CFE1E20FDF7CEF9A0B24421C0
:1033E000FFF795FE0120164908600F48006815494F
:1033F0000860641C144800888442C1DB84E01048E3
:103400000068012822D1084800680E490968401A5E
:10341000642879D302200A490860034800680949F2
:10342000086071E0E000002044000020C800002097
:103430001801002000003040000024405E00002001
:1034400070000020640000205C000020F948006843
:10345000022846D100243FE0F74800EB44100089E1
:10346000012831D1F44800EB4410006860B3F24AFF
:1034700002EB4412D188F04A02EB4412106800F0CB
:1034800034FB4FF4FA70FDF777F9EB4A02EB441284
:10349000D188E94A02EB4412106800F024FB4FF493
:1034A000FA70FDF769F9A0B2CC21FFF730FE1E20BB
:1034B000FDF762F9A0B2BE21FFF729FE1E20FDF73D
:1034C0005BF9A0B2FFF76CFE0320DA490860DB4825
:1034D0000068DB490860641CDA4800888442BBDB72
:1034E00012E0D448006803280ED1D4480068D449BB
:1034F0000968401AB0F5967F06D30020CD490860D0
:10350000CE480068CE490860CF48006818BB002448
:1035100015E0C94800EB4410008902280ED1C648C6
:1035200000EB4410006848B1C34A02EB4412D18852
:10353000C14A02EB4412106800F0D7FA641CC1487B
:1035400000888442E5DB0120BF490860BB48006871
:10355000BE49086049E0BC480068012845D1B74829
:103560000068BA490968401A19283ED3002415E0BA
:10357000B14800EB4410008902280ED1AE4800EBA0
:103580004410006848B1AC4A02EB4412D188AA4A00
:1035900002EB4412106800F0A6FA641CA9480088E7
:1035A0008442E5DB4FF4FA70FDF7E6F8002415E0FD
:1035B000A14800EB4410008902280ED19E4800EB80
:1035C0004410006848B1A0B23321FFF7A0FD1E20CF
:1035D000FDF7D2F8A0B2FFF7E3FD641C994800881C
:1035E0008442E5DB002098490860002427E09248E7
:1035F00000EB4410006808B38F4800EB44100089CA
:1036000003280BD08C4800EB44100089042805D017
:10361000894800EB4410008905280FD1864A02EB47
:103620004412D188844A02EB4412106800F041FA37
:103630000021814A02EB4412C2E90401641C814862
:1036400000888442D3DB10BD2DE9F04FA3B00125E3
:1036500000240BE0784800EB4410008928B176483C
:1036600000EB4410006800B10025641C7548008818
:103670008442EFDB15B123B0BDE8F08F6F480068DE
:1036800073490968401A32287ED9724800780028A8
:103690007AD100248DE0684800EB441000890028AE
:1036A00073D0654800EB441000680028F8D06248E9
:1036B00000EB441000686849884202D14120229002
:1036C0000BE05D4800EB441000686449884202D179
:1036D0004220229001E02D202290574800EB441018
:1036E00000F11009544800EB441080880090621CDF
:1036F0005BA102A8229B00F055FF02A8FDF753F83A
:10370000002509E019F805205AA102A800F04AFF97
:1037100002A8FDF748F86D1C082DF3DB464800EBC6
:103720004410008901281ED1434800EB4410D0E921
:103730000421104602F04AFB074600224F4B02F0DC
:10374000D5F9824602F0A0F90646304602F082FC26
:1037500007463A460B464AA102A800F023FF02A8FA
:10376000FDF721F820E0344800EB441000890328DD
:103770000ED0314800EB44100089042808D02E48B0
:1037800000EB4410008901E020E011E005280BD196
:10379000294800EB4410008A82B23CA102A800F044
:1037A00001FF02A8FCF7FFFFAFF6D040FCF7FBFFDC
:1037B000641C244800888442FFF66DAFAFF6E440F5
:1037C000FCF7F1FF1D4800682149086000BF52E77F
:1037D000FCF786FDFDF761FEFDF71AFAFFF77CF8AE
:1037E000FDF7CEF96420FCF7C7FFFDF770F8294913
:1037F000294801F052F840F22551284800F0FEFB1C
:1038000027A0FCF7D0FF0D4800680D4908600B4861
:1038100000680E490860094800680D49086008E022
:10382000FFF7A7FD2048008808B1FFF70DFFFEF75E
:10383000B3FFF5E7700000201801002044000020CD
:10384000640000205C00002074000020680000205C
:103850006C0000207800002000080140000C0140AE
:103860006368252D326420282563252D32642920A4
:103870003D000000202530325800000000002440A8
:10388000202F202530332E3166000000202F2025E8
:103890006400000078180008B800002000380140DB
:1038A0002B2B2B0D0A00000060000020064800684A
:1038B00000F4E06005490843001D03490860BFF3B8
:1038C000408F00BFFEE700000CED00E00000FA05AD
:1038D00010B50446CA48844208D101210420FCF7EF
:1038E000FDFE00210420FCF7F9FE46E0C5488442B5
:1038F00008D101210820FCF7F1FE00210820FCF787
:10390000EDFE3AE0C048844208D101211020FCF7C6
:10391000E5FE00211020FCF7E1FE2EE0BB488442CA
:1039200008D101212020FCF7D9FE00212020FCF73E
:10393000D5FE22E0B648844208D101214020FCF7A0
:10394000CDFE00214020FCF7C9FE16E0B1488442BC
:1039500008D101218020FCF7C1FE00218020FCF766
:10396000BDFE0AE0AC48844207D101218015FCF776
:10397000B5FE0021A015FCF7B1FE10BD10B5012168
:103980000846FCF7ABFE00210120FCF7A7FE10BDA6
:103990002DE9F041024600250026002000230024E6
:1039A000002791F803C00CF00F0591F803C01CF03C
:1039B000100F03D091F802C04CEA050591F800C041
:1039C000BCF1000F31D0146800202BE04FF0010C47
:1039D0000CFA00F3B1F800C00CEA03069E4220D1B5
:1039E00083004FF00F0C0CFA03F7BC4305FA03FCFD
:1039F0004CEA040491F803C0BCF1280F06D14FF043
:103A0000010C0CFA00FCC2F814C00AE091F803C0E3
:103A1000BCF1480F05D14FF0010C0CFA00FCC2F8C4
:103A200010C0401C0828D1D31460B1F800C0BCF10C
:103A3000FF0F34DD546800202EE000F1080C4FF039
:103A4000010808FA0CF3B1F800C00CEA03069E4224
:103A500021D183004FF00F0C0CFA03F7BC4305FA99
:103A600003FC4CEA040491F803C0BCF1280F05D113
:103A700000F1080C08FA0CF8C2F8148091F803C0A1
:103A8000BCF1480F07D100F1080C4FF0010808FA0B
:103A90000CF8C2F81080401C0828CED35460BDE852
:103AA000F0814FF6FF710180022181700421C17005
:103AB00070470246002093680B4201D0012000E0CD
:103AC000002070470146886880B270470246002097
:103AD000D3680B4201D0012000E00020704701466E
:103AE000C86880B2704701617047416170470AB190
:103AF000016100E041617047C16070474FF480325E
:103B00000A438261816182618269826970470246EB
:103B10000020424B18684FF68073184040EA0210AC
:103B200008433E4B186070473D49C8617047F0B587
:103B30000A46002300240021002500F00046B6F1CB
:103B4000004F02D1354EF16901E0344E7168C0F387
:103B5000034583B200F44016B6F5401F08D121F0AA
:103B600070612E4E766826F070662C4F7E6012E0F3
:103B700000F48016B6F5801F06D1032606FA05F478
:103B8000A14341F0706106E0460D360103FA06F6E6
:103B9000B14341F0706122B1460D360103FA06F6D9
:103BA000314300F00046B6F1004F02D11B4EF161E7
:103BB00001E01A4E7160F0BD30B500228B071C0F7A
:103BC0000F2303FA04F2154B08338C1053F82430FA
:103BD0009343124C08348D1044F8253023468C1042
:103BE00053F824308C07240F00FA04F423430B4CC1
:103BF00008348D1044F8253030BD0A4908607047FC
:103C000000080140000C0140001001400014014078
:103C100000180140001C014000200140000001404C
:103C200000002042DC00204210B50446FB488442DC
:103C300009D101218803FCF751FD00214FF4804098
:103C4000FCF74CFD32E0F648844209D101214804DA
:103C5000FCF751FD00214FF40030FCF74CFD25E04E
:103C6000F048844209D101218804FCF744FD002179
:103C70004FF48020FCF73FFD18E0EB48844209D167
:103C80000121C804FCF737FD00214FF40020FCF7A8
:103C900032FD0BE0E548844208D101210805FCF71C
:103CA0002AFD00214FF48010FCF725FD10BD2DE901
:103CB000F04786B005460E460024A24600BFA14646
:103CC0000027B08900B100BF2F462C8A4CF6FF7048
:103CD0000440F08804432C82AC894EF6F310044073
:103CE000B08831890843718908430443AC81AC8AA8
:103CF0004FF6FF400440B0890443AC8201A8FCF7B2
:103D000066FCC648874202D1DDF810A001E0DDF86C
:103D10000CA0A88910F4004F08D00AEBCA0000EBF1
:103D20000A1031684900B0FBF1F807E00AEBCA005D
:103D300000EB0A1031688900B0FBF1F86420B8FB91
:103D4000F0F004012009642101FB1089A88910F416
:103D5000004F08D0322000EBC900B0FBF1F000F0BA
:103D60000700044308E0322000EB09106421B0FB97
:103D7000F1F000F00F0004432C8106B0BDE8F0879D
:103D80004FF41651016000218180C18001810C2116
:103D9000418100218181704710B502460020108AC0
:103DA0004FF2FF0318400B884C8823438C88234331
:103DB000CC8823431843108210BD0021018041802C
:103DC0008180C180704721B1828942F40052828192
:103DD00004E082894DF6FF731A4082817047F0B586
:103DE00003460024002600250020A1F510676A3F45
:103DF00000D100BF1846C1F3421401F01F0601278D
:103E000007FA06F5012C01D10C3004E0022C01D197
:103E1000103000E014301AB107682F43076002E049
:103E20000768AF430760F0BD1AB1838A0B438382F2
:103E300002E0838A8B4383827047028A4FF6F073D5
:103E40001A400282028A0A430282704782894FF234
:103E5000FF731A40828182890A438281704721B1AF
:103E6000828942F00202828104E082894FF6FD736A
:103E70001A4082817047028A4FF6DF731A4002822D
:103E8000028A0A430282704721B1028A42F48042C8
:103E9000028204E0028A4BF6FF731A4002827047E6
:103EA000C1F308028280704701468888C0F3080089
:103EB0007047818941F0010181817047028BD2B244
:103EC0000283028B42EA012202837047028B02F4D2
:103ED0007F420283028B0A430283704721B1828AA8
:103EE00042F02002828204E0828A4FF6DF731A4099
:103EF0008282704721B1828A42F01002828204E0FD
:103F0000828A4FF6EF731A408282704721B1828A0B
:103F100042F00802828204E0828A4FF6F7731A4068
:103F20008282704721B1828942F40042828103E09B
:103F30008289C2F30E028281704721B1828A42F4E3
:103F40000062828204E0828A4FF2FF731A4082820A
:103F50007047828A4FF6FB731A408282828A0A4334
:103F60008282704721B1828A42F00202828204E09A
:103F7000828A4FF6FD731A40828270470246002003
:103F8000B1F5007F00D100BF13880B4201D00120A2
:103F900000E00020704701F40072B2F5007F00D10C
:103FA00000BFCA430280704770B502460024002358
:103FB00000250020A1F510666A3E00D100BFC1F3C4
:103FC000421501F01F03012606FA03F3012D02D169
:103FD0009689334006E0022D02D1168A334001E073
:103FE000968A33400C12012606FA04F416883440EF
:103FF00013B10CB1012000E0002070BD10B500220B
:104000000023A1F510646A3C00D100BF0A1201240C
:104010009440A3B2DC43048010BD0000003801408E
:104020000044004000480040004C00400050004068
:1040300031490143314A1160704770B500210023B6
:104040000F22C4780CB32D4C246804F4E064C4F54A
:10405000E064210AC1F10403CA40447804FA03F180
:104060008478144021430901254C0678A155047831
:1040700004F01F050124AC4005786D114FF0E026D7
:1040800006EB8505C5F8004109E0047804F01F053A
:104090000124AC401B4D0678761145F8264070BDD2
:1040A000194A0A400243154B1B1F1A60704739B169
:1040B000124A121D12680243104B1B1D1A6006E0C3
:1040C0000E4A121D126882430C4B1B1D1A6070476A
:1040D000042808D14FF0E021096941F004014FF0B4
:1040E000E022116107E04FF0E021096921F00401AD
:1040F0004FF0E022116170470000FA050CED00E07E
:1041000000E400E080E100E080FFFF1F10B50446FE
:10411000BE48844208D101218014FCF7DFFA002157
:10412000A014FCF7DBFA16E0B948844208D101215B
:104130000014FCF7E0FA00212014FCF7DCFA0AE096
:10414000B448844207D10121C013FCF7D4FA0021FE
:10415000E013FCF7D0FA10BD10B50022028802F47B
:1041600041520B884C8823438C882343CC882343BB
:104170000C8923434C8923438C892343CC892343D3
:104180001A430280838B4FF2FF74234083830B8A90
:10419000038210BD2DE9F04F85B005460C464FF067
:1041A000000902274FF000084FF0010B0026B2462D
:1041B000A88B4FF240010840A88302202884B5F85C
:1041C0001C90A068022801D100BF38E0A08810B977
:1041D0004FF0010B01E04FF0020B8D48854200D1FA
:1041E00000E000BF6846FCF7F2F9DDF800A0E088C7
:1041F000B0F5007F0AD14FEA1A2000EB80004000A2
:10420000A168B0FBF1F0401D86B20BE04FEA4B1005
:10421000BAFBF0F000EB80004000A168B0FBF1F0C9
:10422000401D86B20A20B6FBF0F606F00108A6EBA8
:104230000800C0F34F074FF6FF7000EA0828022F6E
:1042400001DBFF2F02DD02274FF00008E08840EA83
:10425000080038432884A088A1890843618808435E
:104260002188084340F4006040EA0909A5F81C9041
:1042700005B0BDE8F08F0021018041808180C180C0
:10428000018141818181C181072101827047002123
:10429000018041808180C180022181600021818173
:1042A000704721B1028842F04002028004E0028897
:1042B0004FF6BF731A400280704721B1828B42F4DF
:1042C0008062828304E0828B4FF6FF331A40828340
:1042D000704730B5002400230C110125A540ABB276
:1042E0001AB185881D43858002E085889D438580BD
:1042F00030BD1AB183880B43838002E083888B43EF
:104300008380704781817047014688897047A1F595
:104310007E42FF3A04D0028842F48072028004E0B8
:1043200002884FF6FF631A400280704721B18288ED
:1043300042F00402828004E082884FF6FB731A4048
:104340008280704702884FF2FF731A400280028811
:104350000A4302807047018841F480510180704710
:1043600021B1028842F40052028004E002884DF636
:10437000FF731A400280704702460020012901D0D5
:10438000108B00E0908A70470146088A7047B1F5AB
:10439000804F04D1028842F48042028004E0028807
:1043A0004BF6FF731A4002807047024600201389C3
:1043B0000B4201D0012000E000207047CA43028177
:1043C0007047F0B50246002000240023002501F0CC
:1043D0000F070126BE40B4B20B1101269E40B3B2B6
:1043E000968806EA03051689264202D00DB10120FF
:1043F00000E00020F0BD10B5002201F00F04012301
:10440000A3409AB2D343038110BD000000300140A5
:1044100000380040003C00400E49086070470D49DC
:10442000486070470B49886070474AF6AA200949DE
:10443000086070474CF6CC4006490860704701465A
:104440000020044AD2680A4201D0012000E0002086
:104450007047000000300040002044490860091DFA
:104460000860091D0860091D086041483F49143172
:104470000860704700213D498279002A3AD00A46F7
:10448000126803689A430B461A600A1D1268036893
:104490009A430B1D1A60027911440A6803681A4393
:1044A0000A60324A0832126803689A432F4B083375
:1044B0001A601A1D126803689A432C4B0C331A6059
:1044C0004279102A0ED11A1F126803681A43274B2B
:1044D00008331A601A1D126803681A43234B0C3301
:1044E0001A600DE02149427911440A6803681A43B1
:1044F0000A6005E0027911440A6803689A430A6079
:1045000070470021016001710C214171002181710E
:1045100070471649103109680143144A103211607E
:10452000704701460020114A143212680A4201D035
:10453000012000E0002070470C49143108607047EA
:10454000014600200022094B1B6803EA0102074BC9
:1045500014331B680B4202D00AB1012000E0002096
:1045600070470249143108607047000000040140A0
:10457000FFFF0F0010B500F017FA001D10BD00BFBF
:10458000B114000010B50446FFF7F4FF0068005DA9
:10459000000704D5DF2C02D0A4F1200010BD204676
:1045A00010BD00000FB41CB5074B06AA7B4469463A
:1045B0000090059800F071FC0020694600F080FC36
:1045C0001CBC5DF814FB00001109000070B5044626
:1045D00085690068C10601D5302600E02026C007A5
:1045E00008D070BDD4E9012130469047206A00F11F
:1045F000010020626D1EF5D570BD70B50446856959
:104600000078C00708D170BDD4E90121202090476F
:10461000206A00F1010020626D1EF5D570BD70B5F5
:104620000C460546012A05D02878800600D5EA699F
:10463000002302E0012305E05B1C934202D2E05C10
:104640000028F9D1A869E618C01AA861286A184498
:1046500028622846FFF7BAFF04E0D5E9012114F8E3
:10466000010B9047B442F8D32846FFF7C6FF70BD50
:104670002DE9F0410646002410687529314616A53B
:1046800011D0AFF30080002803DAC0F1000013A5B9
:1046900007E031688A0701D511A502E0490704D572
:1046A00010A5012401E0AFF3008000210A2306F1E8
:1046B000240707E0B0FBF3F203FB1200303078541C
:1046C0001046491C0028F5D123462A463046BDE84D
:1046D000F04100F071B90000000000002D00000062
:1046E0002B0000002000000070B504460D46214656
:1046F0001068AFF300802188090502D5104A7A447A
:1047000002E00F4A7A440E32002104F1240307E04C
:1047100000F00F064FEA1010965D5E5401F10101A2
:104720000028F5D103462078000704D5702D02D06B
:1047300009B1113202232046BDE8704000F03CB9B7
:10474000C41A00002DE9F05F894604464FF0000AC4
:10475000DFF828B1FB44C0F820A02046E168884774
:1047600000287CD0252806D0D4E901219047206A72
:10477000401C2062F1E700255F462046E16888473B
:104780002028064608DB312E06D207EB060010F87B
:10479000200C08B10543F0E7A80701D525F0040572
:1047A000C4F81CA00027C4F818A02A2E09D030464F
:1047B00001F036F938B304EB8708303EC8F81860CA
:1047C00019E059F8041B204604EB87029161E16867
:1047D0008847012F064618D1E069002820DA25F025
:1047E00020051DE0D8F8180000EB800006EB400023
:1047F0003038C8F818002046E1688847064601F0BE
:104800000FF90028EED1012F0AD02E2E08D1204614
:10481000E16888477F1C0646022F45F02005C4DB6F
:10482000A069002803DA404245F00105A061E807CD
:1048300001D025F0100596B1A6F14100192802D843
:10484000203645F400654A463146204625604D46EF
:10485000FBF786FC60B1012807D0ED1D00E009E000
:1048600025F0070000F1080977E705F1040974E76E
:10487000304679E7206ABDE8F09F0000961A0000F4
:1048800070B5064600F094F80468054630460A22E2
:10489000002100F030FB2C6070BD40EA01030246AD
:1048A00030B59B0710D14FF0013400E008C208C9B1
:1048B0001D1B9D4315EAC41FF8D013F0FF0102F839
:1048C000011B0DD01B0AF8E711F8013B002B02F881
:1048D000013B05D011F8013B002B02F8013BF3D15D
:1048E00030BD10B5431C02E010F8011B71B1810707
:1048F000FAD14FF0013202C88C1A8C4314EAC2116B
:10490000F9D0C01A0A0603D0C01E10BDC01A10BDCF
:104910000A0401D0801E10BD0902FCD0401E10BD4B
:104920004FF0013C50F8042B51F8043B9A4221D13E
:10493000A2EB0C03934313EACC1317D150F8042BCA
:1049400051F8043B9A4215D1A2EB0C03934313EAAE
:10495000CC130BD150F8042B51F8043B9A4209D1E7
:10496000A2EB0C03934313EACC13DBD04FF000000F
:10497000704700BFD01A01BAB1FA81F101F01801F5
:1049800022FA01F0CB40C1F12001DBB2C0B2C01A63
:104990002CFA01F3D11A914311EAC311E6D1704701
:1049A0007047704770470000004870473803002088
:1049B00000487047180300202DE9F0470D4699463E
:1049C0009246044600F124080168880604D5E0698F
:1049D00021F01001216000E00120A84202DDA0EBDF
:1049E000050700E00027A16907EB050202EB0900BB
:1049F000A1EB0000A0612078C00602D42046FFF79A
:104A0000E5FD002608E0D4E901211AF806009047E8
:104A1000206A401C761C20624E45F4DB2078C006DC
:104A20000AD52046FFF7D2FD06E0D4E90121302067
:104A30009047206A401C2062381EA7F10107F4DC71
:104A400007E0D4E9012118F805009047206A401CCE
:104A50002062281EA5F10105F3DC2046FFF7CDFDFD
:104A60002078000602D50220BDE8F0870120FBE790
:104A700070472DE9FF4F0C461E464FF0FF378BB0B5
:104A8000D2E90001DDF860800A908A46C1F30A5538
:104A900005B93D46002108464FF00000BAF1000F6D
:104AA00000F4400005DA00EB80004FF4400101EA19
:104AB00050004FEA9059B9F1010F00DDB9460A984C
:104AC00050EA4A000ED044F61050A5F2FF35454397
:104AD0002F14B8F1000F1ED07542291E1EDDC9F13A
:104AE00000021CE0B8F1010F4FF0000001D03021AE
:104AF00003E0F24305E02154401CB042FBDB3046AA
:104B00000022002121540B99C1F80880C1E900203E
:104B10000FB0BDE8F08FBD1B6D1CDEE74A4600DA22
:104B2000694206A800F0FAFA06AB07CB03AB07C34D
:104B300050460A9900F0A5FB8DE80700A0F500504B
:104B40001F3800900398002D09DD42F21F014A46EC
:104B5000084403A90390684600F004FE08E0A0F5AD
:104B600000504A461F3803A90390684600F00EFE25
:104B70008DE807000004000C03D04FF0FF3041081F
:104B800000E01046B8F1000F03D000220092154655
:104B90001FE0751E06D400F0EBF902F130026255F9
:104BA0006D1EF8D5B3460122084302D000227F1CB7
:104BB00004E02078302801D100227F1E002A0997C6
:104BC00087D01DE0112D07DA00F0D2F9303262559E
:104BD0006D1C50EA0102F5D108430FD10021681E77
:104BE00005E0235C625C6354491C2254401E8142F0
:104BF000F7DBAB46A81B401E099001E0009848B1C6
:104C0000002004F80B000B98099AC0F80880C0E94E
:104C1000002B7DE711264FF000085AE72DE9F04FF1
:104C200088460446D21D22F0070191B0D1E9000167
:104C3000CDE90A0100F0E0FE02460B98C00F01D05A
:104C40002D2007E02068810701D52B2002E02021DC
:104C500001EAC000032A099001D0072A05DB0346B8
:104C60004146204600F0CAF90FE12078800601D5C0
:104C7000E06900E00620B8F1650F814606D0B8F182
:104C8000660F18D0B8F1670F72D132E00020B9F189
:104C9000110F009001DB112301E009F101030AAAC1
:104CA00001A90CA8FFF7E5FEDDE90C70002609F16B
:104CB0000105834648E001204B4600904FF0004735
:104CC0000AAA01A90CA8FFF7D4FEDDE90DB00C99E2
:104CD0005D46002618B909F1010001EB0005B9EBAA
:104CE000050003D4C0F1FF3609F10105A5EB090069
:104CF0002BE0B9F1010F01DA4FF001090020B9F101
:104D0000110F0090484601DD112300E003460AAA76
:104D100001A90CA8FFF7ADFEDDE90C704D46002699
:104D20008346207800070AD4AB4500DA5D4601A827
:104D3000012D04DD411911F8011C302907D04F4520
:104D400002DA17F1040F04DA0120824610E06D1E2A
:104D5000EEE7002F02DCED1B3E4403E0781CA84286
:104D600000DD0546A7EB060000F1010A4FF0004701
:104D70002078000703D4AA4501DB4FF0FF3A002159
:104D8000B7F1004F0DF143088DF8431023D00220F6
:104D90002B23002F01DA7F422D234FF00A0C011E36
:104DA000A0F1010000DC4FB197FBFCF10CFB11728C
:104DB0000F4602F1300208F8012DF0E7A8F10100DA
:104DC00003702188090501D5452100E06521A0F186
:104DD000010800F8011C09980FA9A1EB080707F1C9
:104DE000070700B1012000EB050101EBEA70A169A2
:104DF0003844A1EB0000A0F10100A0612078C006BA
:104E000002D42046FFF7E2FB099830B1D4E9012132
:104E10009047206A00F1010020622078C00620D56A
:104E20002046FFF7D3FB1CE0002E04DBB34502DD78
:104E300001A8805D00E03020D4E901219047206A7C
:104E4000761C401CBAF1010A20620AD1FFF7ACFDC2
:104E5000C0680168405CD4E901219047206A401C89
:104E60002062281EA5F10105DEDC07E0D4E901215E
:104E700018F8010B9047206A401C2062381EA7F1E9
:104E80000107F3DC2046FFF7B8FB022011B040E633
:104E900001694A1C02610878704700B58FB0CDE9FE
:104EA00001310021059105497944CDE903101146EE
:104EB0006846FFF747FC0FB000BD0000E5FFFFFFAD
:104EC0000A6802F8010B0A60704710B5436913B114
:104ED000AFF3008001E0FFF7A2FB012010BD1278C4
:104EE00000F124010A7000224A700122EDE71168E6
:104EF0004FF0FF32E9E72DE9F04791460F46804633
:104F00000446002614F8015B2DB1FFF733FB00685F
:104F1000405DC007F6D12B2D02D02D2D18D0641E78
:104F20004A463946204600F0A9F827B13968A1421F
:104F300001D1C7F800804FF0020471050BD5404243
:104F4000002803DDFFF734FD0460A007BDE8F0870B
:104F500046F48066E4E70028F8DAFFF729FD0460EC
:104F60006FF00040F2E7000000487047180300208F
:104F700030B5B0F10A024FEA900E71F100034EEA2B
:104F8000817EB0EB0E0061EB91014FEA101E4EEAFC
:104F9000017E10EB0E0041EB11114FEA102E4EEA8C
:104FA000016E10EB0E0041EB11214FEA104E4EEA5C
:104FB000014E10EB0E0041EB1141401841F1000190
:104FC0004FEAD00040EA41704FEAD10110EB800572
:104FD0004FEA810444EA907444EB01046D1944EBF8
:104FE0000404521BA3414FF0000348BF0A3200D50E
:104FF00030BD401C41F1000130BD00002DE9F04101
:105000001F46044603260168072A01F4006004DBFA
:1050100008B116A505E016A503E008B115A500E046
:1050200015A521F010002060A069C01EA0610FB17D
:10503000401EA0612046FFF7C9FA4FB1D4E9012113
:1050400038469047206A401C2062C01C206206E05F
:10505000206AFAE7D4E9012115F8010B9047761E82
:10506000F8D22046FFF7C9FABDE8F0814E414E0064
:105070006E616E00494E4600696E66002DE9F05F74
:10508000824615468B4600270AF10104B94600788E
:10509000302801D09DB113E014F8010B01277828C6
:1050A00003D0582801D045B10AE00DB1102D07D129
:1050B000002714F8010B102502E0082500E00A255E
:1050C0000026B0460EE005FB080005FB06F10127AF
:1050D0001FFA80F801EB1046B6F5803F00D3B946C1
:1050E00014F8010B294600F0B0F80028EBDABBF108
:1050F000000F05D00FB1641E00E05446CBF800400D
:10510000B9F1000F06D0FFF753FC02210160C81E61
:10511000BDE8F09F48EA0640FAE700002DE9F047B5
:10512000814616468AB035487844D0E90023806825
:105130000092CDE90130314878440C38D0E902239F
:10514000006903924FF03702CDE9043041F69B30FD
:10515000014491FBF2F0A0F1800502FB10141B3C0E
:1051600002D56442012000E00020DFF890A08046D4
:105170000027FA44AAF1C60A0DE0E00709D032463A
:10518000684607EB47010AEB810100F0FFFA8DE862
:10519000070064107F1C002CEFD1184F7F44B43FF0
:1051A00017E0E80713D007EB04100DF1180A90E898
:1051B0000E00AAE80E00C068F04201D198190890CC
:1051C000324606A903A800F0E1FA03AB07C36D104D
:1051D000641C002DE5D132466946B8F1000F03A8E2
:1051E00002D000F0BFFA01E000F0D0FAC9E90001F6
:1051F000C9F808200AB0BDE8F0870000501100008F
:105200007546FFF7B1FEAE4605006946534620F0ED
:105210000700854618B020B5FAF7E2FFBDE8204048
:105220004FF000064FF000074FF000084FF0000B62
:1052300021F00701AC46ACE8C009ACE8C009ACE815
:10524000C009ACE8C0098D4670473A2800D2303812
:1052500020F02002412A01D3A2F13700884201D375
:105260004FF0FF3070470446AFF300802046FAF756
:10527000A3FF000001491820ABBEFEE72600020094
:1052800070475FEA400C08BF91F0000F4FEA8C2393
:105290004FEAC12243EA51514FEA1C5018BF00F5B2
:1052A000F0404FEA300018BF41F000415FEA6C5C0B
:1052B00000F02980BCF1FF3F08BF40F080407047FC
:1052C000130C06BF12044FF0100C4FF0000C130E1D
:1052D00004BF12020CF1080C130F04BF12010CF1F1
:1052E000040C930F04BF92000CF1020CD30F04BF07
:1052F00052000CF1010C11464FF00002A0F11F000A
:10530000A0EB0C00704711F0004F08BF704731F060
:1053100000413FF4D5AF0B0C06BF09044FF0100C51
:105320004FF0000C0B0E04BF09020CF1080C0B0F20
:1053300004BF09010CF1040C8B0F04BF89000CF1B0
:10534000020CCB0F04BF49000CF1010CCCF120037F
:10535000A0EB0C0022FA03F302FA0CF241EA03017B
:1053600000F10100704720F07F4C80EA030023F039
:105370007F47ACEB070303F57C5300F0004003F1DB
:10538000FF032DE980494FEA154B09B44FEA144356
:1053900025EA0B4E24EA03480FF2042606EB1327F6
:1053A00049083E785FEA320203FB0667C7F500074B
:1053B00007FB06F64FEA54374FEAD64606F10206D7
:1053C00007FB066CCCF1005C4FEA1C472CEA074C4B
:1053D00007FB06F40CFB06F504EB15464FEA9616A0
:1053E00034BF00204FF000404FEAD13706FB07FCE6
:1053F0004FEA1C4C0CFB0BF7D21B03FB0CF761EBC9
:1054000007010CFB0EF7B0EB074072EB17420CFBE9
:1054100008F734BFA2EB0742B2EB074261EB17413A
:105420004FEA0C444FEA910706FB07FC4FEA1C4C7D
:105430000CFB0BF7B0EBC74072EB573203FB0CF7DA
:1054400034BFA2EBC742B2EBC74261EB57310CFB52
:105450000EF7B0EBC70072EB57720CFB08F734BFC6
:10546000A2EBC702B2EBC70261EB5771039F4FEA91
:10547000816141EA921104EBCC044FEAD1374FEA43
:10548000826206FB07FC42EA90124FEA80604FEA14
:105490001C4C0CFB0BF7D21B03FB0CF761EB070159
:1054A0000CFB0EF7B0EB074072EB17420CFB08F752
:1054B00034BFA2EB0742B2EB074261EB17414FEA60
:1054C0008C554FEA910704EB9C2406FB07FC4FEA3E
:1054D0001C4C0CFB0BF7B0EBC74072EB573203FBD5
:1054E0000CF734BFA2EBC742B2EBC74261EB5731B6
:1054F0000CFB0EF7B0EBC70072EB57720CFB08F712
:1055000034BFA2EBC702B2EBC70261EB577115EBD8
:105510004C254FEA816141EA92114FEA82624FEADB
:10552000D13742EA901206FB07FC44F100044FEA2F
:1055300080604FEA1C4C0CFB0BF7D21B03FB0CF7F3
:1055400061EB07010CFB0EF7B0EB074072EB174263
:105550000CFB08F734BFA2EB0742B2EB074261EB4A
:10556000174115EB1C154FEA813141EA92414FEA90
:10557000823242EA90424FEA80304FEA0C7644F1A0
:10558000000448EA03434EEA0B484FF0000EB2EB2A
:10559000080C71EB030724BF624639464EEB0E0E32
:1055A0004FF0000B0018524149414BEB0B0BB2EB93
:1055B000080C71EB03077BF1000B24BF62463946F0
:1055C0004EEB0E0E4FF0000B0018524149414BEBD1
:1055D0000B0BB2EB080C71EB03077BF1000B24BF44
:1055E000624639464EEB0E0E51EA020718BF46F0EE
:1055F000010616EB0E7655F1000254F1000103D5B9
:10560000BDE88901BDE80088BDE88901BDE8004822
:10561000B619524141EB0101A3F1010370478080AB
:105620007F7E7D7C7B7A79787776767574737271FC
:1056300071706F6E6E6D6C6C6B6A6A6968686766B4
:1056400066656464636362616160605F5F5E5E5D46
:105650005D5C5C5B5B5A5A595958585757565655BA
:1056600055555454535352525251515050504F4F1C
:105670004F4E4E4D4D4D4C4C4C4B4B4B4A4A4A496C
:1056800049494848484747474746464645454544AF
:105690004444444343434342424242414141002B3C
:1056A00026D4770021D01CB54FEA370703B44FF05A
:1056B00010004FF010014FF000000FBCBDE810408B
:1056C0000BF1010BBBF1010F08BF5FEA170722BF07
:1056D00012F1010211F101014FF0004143F1000309
:1056E00000F0004043EA00007047F9D35708DAE7BA
:1056F00046EA064613F1400F4FEA16461FDD13F146
:10570000200FDFBF16430A46002120335B42C8D07A
:10571000C3F1200746EA064602FA07F74FEA1646A3
:1057200046EA0706C3F1200722FA03F201FA07F757
:1057300021FA03F14FF0000342EA0702B1E746EA1B
:10574000020646EA06464FEA164646EA0106BCBF8E
:1057500046EA0646360C4FF000034FF000024FF0C9
:1057600000019EE72DE9C048934630B491E8380027
:1057700007C831EA400C48BF34EA430C03D5FFF7B1
:10578000F2FDFFF78CFFF0BCBDE800882DE9C048B2
:10579000934630B491E8380007C810F0804F08BF36
:1057A00013F0804F03D100F005F8FFF778FFF0BC4D
:1057B000BDE8008820F07F4780EA030023F07F4C9B
:1057C00007EB0C03A3F57C5300F00040A3F1FE03AC
:1057D00092F0000F00F0B38095F0000F00F077809A
:1057E0002DE901494FEA11404FEA144621EA0048E9
:1057F00000FB06FC24EA064708FB06F607FB08F850
:1058000000FB07F718EB06484CEB164C4FEA124B1F
:1058100018EB07484FEA15464CEB174022EA0B4EAF
:105820000BFB06FC25EA06470EFB06F607FB0EFE01
:105830000BFB07F71EEB064E4CEB164C4FF0000629
:105840001EEB074E4CEB174B18EB0B0840F100001A
:1058500018EB0E0B58EB000840F100008F1A4FF0C8
:1058600000013CBFC943661B14BFB5EB040C00210B
:105870003CBFC943F61B4FEA17444EEA8E0E27EA97
:1058800004454FEA1C4704FB07622CEA074C05FB62
:1058900007F70CFB05F604FB0CFC16EB074642EB86
:1058A000174216EB0C4642EB1C421BEB060658EB6C
:1058B0000202414146EA9E0601D5BDE80189B619BA
:1058C000524141EB0101A3F10103BDE801894FEA17
:1058D00014454FEA114724EA054621EA074C05FB27
:1058E00007F406FB07F70CFB06F105FB0CFC11EBBC
:1058F000074144EB17444FEA124711EB0C4144EBCC
:105900001C4422EA074C05FB07F206FB07F70CFBD9
:1059100006F605FB0CFC16EB074642EB174216EBAE
:105920000C4642EB1C456A1854F1000148BF704711
:10593000B619524141EB0101A3F10103704795F003
:10594000000F37D04FEA11424FEA144721EA0246CE
:1059500024EA074C02FB07F106FB07F70CFB06F4F1
:1059600002FB0CFC14EB074441EB17414FEA1547CF
:1059700014EB0C4441EB1C4125EA074C02FB07F5F4
:1059800006FB07F70CFB06F602FB0CFC16EB0746C2
:1059900045EB174516EB0C4645EB1C42121951F12D
:1059A000000148BF7047B619524141EB0101A3F114
:1059B000010370474FEA14454FEA114724EA0546B0
:1059C00021EA074C05FB07F106FB07F70CFB06F283
:1059D0004FF0000605FB0CFC12EB074241EB1741B0
:1059E00012EB0C4251EB1C4148BF7047921841EB3F
:1059F0000101A3F101037047490050EAC12018BF1B
:105A000004204A0D18BF40F0010040F2FF72B2EBD3
:105A1000515F08BF40F00200012808BF0520704711
:105A200030380A2801D2012070470020704700005A
:105A300010B500290AD00878002807D00548784416
:105A4000FEF76EFF002801D0002010BD0248784408
:105A500010BD0000760800006E08000010B5002997
:105A60000AD00878002807D005487844FEF758FF88
:105A7000002801D0002010BD0248784410BD00006D
:105A80005A0900005209000021F00042A2F16052C0
:105A9000B2F5801F01F0004328BFD2F17F6C0BD913
:105AA0005FEA001C43EAC20242EB507018BF704725
:105AB00028BF20F001007047B2F5801FBCBF184618
:105AC00070474FEA410C1CF5001F02D2084600F057
:105AD0004EBB70B500F06AFA00000089FFF7F6BF10
