:020000040800F2
:10000000680D002005020008093B0008632700086E
:10001000053B0008511900081B58000800000000AB
:100020000000000000000000000000002D48000853
:100030007524000800000000413D00083150000810
:100040001F0200081F0200081F0200081F0200080C
:100050001F0200081F0200081F0200081F020008FC
:100060001F0200081F0200081F0200081F020008EC
:100070001F0200081F0200081F0200081F020008DC
:100080001F0200081F0200081F0200081F020008CC
:10009000C15700081F0200081F0200081F020008C5
:1000A0001F0200081F0200081F0200081F020008AC
:1000B0001F020008F15000084D5100081F020008FF
:1000C0001F0200081F0200081F0200081F0200088C
:1000D0001F020008815300081F0200081F020008C9
:1000E0001F0200081F0200087B55000800F002F8FC
:1000F00000F078F80AA090E8000C82448344AAF14A
:100100000107DA4501D100F06DF8AFF2090EBAE847
:100110000F0013F0010F18BFFB1A43F0010318473B
:1001200074720000947200000A444FF0000C10F842
:10013000013B13F0070408BF10F8014B1D1108BF65
:1001400010F8015B641E05D010F8016B641E01F805
:10015000016BF9D113F0080F1EBF10F8014BAD1C55
:100160000C1B09D16D1E58BF01F801CBFAD505E073
:1001700014F8016B01F8016B6D1EF9D59142D6D3CD
:10018000704700000023002400250026103A28BFF5
:1001900078C1FBD8520728BF30C148BF0B607047F9
:1001A000662907F0498003681B0A28BF41F08001D7
:1001B000642900F08580752900F08280E42900F030
:1001C000BB80F52900F0B880002070471FB500F013
:1001D000E7FC04000020002106F0ACFAE0601FBD3F
:1001E00010B510BD00F096FD1146FFF7EFFF05F0CA
:1001F000E5FF00F0B4FD03B4FFF7F2FF03BC00F02D
:10020000B5FD00000948804709480047FEE7FEE7C2
:10021000FEE7FEE7FEE7FEE7FEE7FEE7FEE7FEE7B6
:1002200004480549054A064B7047000091500008F4
:10023000ED00000868070020680D00206809002014
:10024000680900200FB41CB5074B06AA7B44694619
:100250000090059800F08BFC0020694600F09AFCA5
:100260001CBC5DF814FB00004509000070B5044695
:1002700085690068C10601D5302600E02026C00748
:1002800008D070BDD4E9012130469047206A00F1C2
:10029000010020626D1EF5D570BD70B504468569FC
:1002A0000078C00708D170BDD4E901212020904713
:1002B000206A00F1010020626D1EF5D570BD0000BE
:1002C0002DE9F0410646002410687529314616A52F
:1002D00011D0AFF30080002803DAC0F1000013A5AD
:1002E00007E031688A0701D511A502E0490704D566
:1002F00010A5012401E0AFF3008000210A2306F1DC
:10030000240707E0B0FBF3F203FB1200303078540F
:100310001046491C0028F5D123462A463046BDE840
:10032000F04100F0B3B90000000000002D00000013
:100330002B000000200000002DE9F0418046D21D76
:1003400022F007020025D2E90002F52914A612D0F6
:10035000002A06DA0023D0EB030063EB020211A6A9
:1003600008E0D8F800108B0701D50FA602E0490776
:1003700001D50EA601251146002408F1240704E04A
:1003800000F03FF930323A55641C50EA0102F7D1CF
:100390002B46324621464046BDE8F04100F076B992
:1003A000000000002D0000002B00000020000000D5
:1003B0002DE9F05F894604464FF0000ADFF878B176
:1003C000FB44C0F820A02046E1688847002875D08B
:1003D000252806D0D4E901219047206A401C2062DC
:1003E000F1E700265F462046E16888472028054659
:1003F00008DB312D06D207EB050010F8200C08B100
:100400000643F0E7B00701D526F00406C4F81CA0A7
:100410000027C4F818A02A2D09D0284605F06CFB47
:1004200038B304EB8708303DC8F8185019E059F884
:10043000041B204604EB87029161E1688847012F85
:10044000054618D1E069002820DA26F020061DE0D4
:10045000D8F8180000EB800005EB40003038C8F8F1
:1004600018002046E1688847054605F045FB00284E
:10047000EED1012F0AD02E2D08D12046E168884701
:100480007F1C0546022F46F02006C4DBA069002829
:1004900003DA404246F00106A061F00701D026F0E1
:1004A00010066C2D0BD0682D09D04C2D39D06A2D3B
:1004B00035D0742D35D07A2D33D016E038E0E16890
:1004C0002F4620468847B842054609D16C2F26D0D2
:1004D0004FF48060E168064320468847054604E003
:1004E0006C2F1AD04FF4807006430DB3A5F1410074
:1004F000192802D8203546F400664A462946204687
:1005000026604E46FFF74CFE80B101280BD0F61D49
:1005100026F0070000F1080955E74020E4E78020B5
:10052000D8E70020D6E706F104094CE7284651E752
:10053000206ABDE8F09F0000296F000010B5431C41
:1005400002E010F8011B71B18107FAD14FF00132BE
:1005500002C88C1A8C4314EAC211F9D0C01A0A06D8
:1005600003D0C01E10BDC01A10BD0A0401D0801EE9
:1005700010BD0902FCD0401E10BD00004FF0013C30
:1005800050F8042B51F8043B9A4221D1A2EB0C0302
:10059000934313EACC1317D150F8042B51F8043BC2
:1005A0009A4215D1A2EB0C03934313EACC130BD15F
:1005B00050F8042B51F8043B9A4209D1A2EB0C03EA
:1005C000934313EACC13DBD04FF00000704700BF19
:1005D000D01A01BAB1FA81F101F0180122FA01F042
:1005E000CB40C1F12001DBB2C0B2C01A2CFA01F33A
:1005F000D11A914311EAC311E6D170477047704791
:10060000704730B5B0F10A024FEA900E71F1000365
:100610004EEA817EB0EB0E0061EB91014FEA101EB5
:100620004EEA017E10EB0E0041EB11114FEA102E45
:100630004EEA016E10EB0E0041EB11214FEA104E15
:100640004EEA014E10EB0E0041EB1141401841F112
:1006500000014FEAD00040EA41704FEAD10110EBAF
:1006600080054FEA810444EA907444EB01046D195B
:1006700044EB0404521BA3414FF0000348BF0A326D
:1006800000D530BD401C41F1000130BD2DE9F047DF
:100690000D4699469246044600F1240801688806F2
:1006A00004D5E06921F01001216000E00120A8429A
:1006B00002DDA0EB050700E00027A16907EB0502BA
:1006C00002EB0900A1EB0000A0612078C00602D473
:1006D0002046FFF7CBFD002608E0D4E901211AF8F7
:1006E00006009047206A401C761C20624E45F4DBD1
:1006F0002078C0060AD52046FFF7B8FD06E0D4E909
:10070000012130209047206A401C2062381EA7F14A
:100710000107F4DC07E0D4E9012118F8050090474F
:10072000206A401C2062281EA5F10105F3DC20464A
:10073000FFF7B3FD2078000602D50220BDE8F08760
:100740000120FBE770472DE9FF4F0C461E464FF096
:10075000FF378BB0D2E90001DDF860800A908A464D
:10076000C1F30A5505B93D46002108464FF0000087
:10077000BAF1000F00F4400005DA00EB80004FF4FE
:10078000400101EA50004FEA9059B9F1010F00DD34
:10079000B9460A9850EA4A000ED044F61050A5F225
:1007A000FF3545432F14B8F1000F1ED07542291EA6
:1007B0001EDDC9F100021CE0B8F1010F4FF000008E
:1007C00001D0302103E0F24305E02154401CB04247
:1007D000FBDB30460022002121540B99C1F8088030
:1007E000C1E900200FB0BDE8F08FBD1B6D1CDEE736
:1007F0004A4600DA694206A800F016FA06AB07CBB3
:1008000003AB07C350460A9900F0B7FA8DE807001A
:10081000A0F500501F3800900398002D09DD42F22A
:100820001F014A46084403A90390684600F016FDDC
:1008300008E0A0F500504A461F3803A90390684617
:1008400000F020FD8DE807000004000C03D04FF0FD
:10085000FF30410800E01046B8F1000F03D000223D
:10086000009215461FE0751E06D4FFF7CAFE02F17E
:10087000300262556D1EF8D5B3460122084302D0FE
:1008800000227F1C04E02078302801D100227F1E46
:10089000002A099787D01DE0112D07DAFFF7B1FE76
:1008A000303262556D1C50EA0102F5D108430FD178
:1008B0000021681E05E0235C625C6354491C2254DD
:1008C000401E8142F7DBAB46A81B401E099001E0A9
:1008D000009848B1002004F80B000B98099AC0F862
:1008E0000880C0E9002B7DE711264FF000085AE789
:1008F0002DE9F04F88460446D21D22F0070191B041
:10090000D1E90001CDE90A0105F0E2F802460B98B1
:10091000C00F01D02D2007E02068810701D52B20D2
:1009200002E0202101EAC000032A099001D0072A31
:1009300005DB03464146204600F036F90FE12078FA
:10094000800601D5E06900E00620B8F1650F814618
:1009500006D0B8F1660F18D0B8F1670F72D132E047
:100960000020B9F1110F009001DB112301E009F122
:1009700001030AAA01A90CA8FFF7E5FEDDE90C7046
:10098000002609F10105834648E001204B4600900E
:100990004FF000470AAA01A90CA8FFF7D4FEDDE931
:1009A0000DB00C995D46002618B909F1010001EB64
:1009B0000005B9EB050003D4C0F1FF3609F10105CC
:1009C000A5EB09002BE0B9F1010F01DA4FF00109A5
:1009D0000020B9F1110F0090484601DD112300E01D
:1009E00003460AAA01A90CA8FFF7ADFEDDE90C70C9
:1009F0004D4600268346207800070AD4AB4500DA2E
:100A00005D4601A8012D04DD411911F8011C3029B2
:100A100007D04F4502DA17F1040F04DA01208246AD
:100A200010E06D1EEEE7002F02DCED1B3E4403E0FC
:100A3000781CA84200DD0546A7EB060000F1010A7C
:100A40004FF000472078000703D4AA4501DB4FF0A0
:100A5000FF3A0021B7F1004F0DF143088DF8431024
:100A600023D002202B23002F01DA7F422D234FF0C9
:100A70000A0C011EA0F1010000DC4FB197FBFCF154
:100A80000CFB11720F4602F1300208F8012DF0E75D
:100A9000A8F1010003702188090501D5452100E076
:100AA0006521A0F1010800F8011C09980FA9A1EB2C
:100AB000080707F1070700B1012000EB050101EB72
:100AC000EA70A1693844A1EB0000A0F10100A06127
:100AD0002078C00602D42046FFF7C8FB099830B141
:100AE000D4E901219047206A00F1010020622078BA
:100AF000C00620D52046FFF7B9FB1CE0002E04DB22
:100B0000B34502DD01A8805D00E03020D4E9012179
:100B10009047206A761C401CBAF1010A20620AD173
:100B200000F03EF8C0680168405CD4E901219047BC
:100B3000206A401C2062281EA5F10105DEDC07E0CA
:100B4000D4E9012118F8010B9047206A401C20626B
:100B5000381EA7F10107F3DC2046FFF79EFB0220B9
:100B600011B040E601694A1C02610878704700B57F
:100B70008FB0CDE901310021059105497944CDE9D6
:100B8000031011466846FFF713FC0FB000BD0000CC
:100B9000E5FFFFFF0A6802F8010B0A6070470000DA
:100BA00000487047280700202DE9F0411F46044601
:100BB00003260168072A01F4006004DB08B116A5CA
:100BC00005E016A503E008B115A500E015A521F084
:100BD00010002060A069C01EA0610FB1401EA0617E
:100BE0002046FFF743FB4FB1D4E901213846904737
:100BF000206A401C2062C01C206206E0206AFAE7DE
:100C0000D4E9012115F8010B9047761EF8D2204651
:100C1000FFF743FBBDE8F0814E414E006E616E0070
:100C2000494E4600696E66002DE9F047814616463A
:100C30008AB035487844D0E9002380680092CDE935
:100C40000130314878440C38D0E90223006903921E
:100C50004FF03702CDE9043041F69B30014491FB5F
:100C6000F2F0A0F1800502FB10141B3C02D5644297
:100C7000012000E00020DFF890A080460027FA4421
:100C8000AAF1C60A0DE0E00709D03246684607EB34
:100C900047010AEB810100F0F5FA8DE807006410C6
:100CA0007F1C002CEFD1184F7F44B43F17E0E807BA
:100CB00013D007EB04100DF1180A90E80E00AAE813
:100CC0000E00C068F04201D198190890324606A97A
:100CD00003A800F0D7FA03AB07C36D10641C002D06
:100CE000E5D132466946B8F1000F03A802D000F002
:100CF000B5FA01E000F0C6FAC9E90001C9F8082018
:100D00000AB0BDE8F0870000446700000048704763
:100D1000080700207546FFF7F9FFAE460500694653
:100D2000534620F00700854618B020B5FFF778FA43
:100D3000BDE820404FF000064FF000074FF00008DC
:100D40004FF0000B21F00701AC46ACE8C009ACE85D
:100D5000C009ACE8C009ACE8C0098D46704704463C
:100D6000AFF300802046FFF746FA00000149182043
:100D7000ABBEFEE72600020070475FEA400C08BFEA
:100D800091F0000F4FEA8C234FEAC12243EA515100
:100D90004FEA1C5018BF00F5F0404FEA300018BF72
:100DA00041F000415FEA6C5C00F02980BCF1FF3F3C
:100DB00008BF40F080407047130C06BF12044FF08C
:100DC000100C4FF0000C130E04BF12020CF1080CB3
:100DD000130F04BF12010CF1040C930F04BF920017
:100DE0000CF1020CD30F04BF52000CF1010C1146A0
:100DF0004FF00002A0F11F00A0EB0C00704711F0B3
:100E0000004F08BF704731F000413FF4D5AF0B0CE5
:100E100006BF09044FF0100C4FF0000C0B0E04BF7E
:100E200009020CF1080C0B0F04BF09010CF1040CB2
:100E30008B0F04BF89000CF1020CCB0F04BF4900DB
:100E40000CF1010CCCF12003A0EB0C0022FA03F30F
:100E500002FA0CF241EA030100F10100704720F0B0
:100E60007F4C80EA030023F07F47ACEB070303F5D8
:100E70007C5300F0004003F1FF032DE980494FEA65
:100E8000154B09B44FEA144325EA0B4E24EA0348F4
:100E90000FF2042606EB132749083E785FEA320278
:100EA00003FB0667C7F5000707FB06F64FEA543752
:100EB0004FEAD64606F1020607FB066CCCF1005C51
:100EC0004FEA1C472CEA074C07FB06F40CFB06F51F
:100ED00004EB15464FEA961634BF00204FF0004051
:100EE0004FEAD13706FB07FC4FEA1C4C0CFB0BF713
:100EF000D21B03FB0CF761EB07010CFB0EF7B0EB09
:100F0000074072EB17420CFB08F734BFA2EB074215
:100F1000B2EB074261EB17414FEA0C444FEA9107ED
:100F200006FB07FC4FEA1C4C0CFB0BF7B0EBC74071
:100F300072EB573203FB0CF734BFA2EBC742B2EBA4
:100F4000C74261EB57310CFB0EF7B0EBC70072EBF9
:100F500057720CFB08F734BFA2EBC702B2EBC70213
:100F600061EB5771039F4FEA816141EA921104EBF3
:100F7000CC044FEAD1374FEA826206FB07FC42EA13
:100F800090124FEA80604FEA1C4C0CFB0BF7D21B0F
:100F900003FB0CF761EB07010CFB0EF7B0EB07400E
:100FA00072EB17420CFB08F734BFA2EB0742B2EB1F
:100FB000074261EB17414FEA8C554FEA910704EB6A
:100FC0009C2406FB07FC4FEA1C4C0CFB0BF7B0EB18
:100FD000C74072EB573203FB0CF734BFA2EBC7429A
:100FE000B2EBC74261EB57310CFB0EF7B0EBC70019
:100FF00072EB57720CFB08F734BFA2EBC702B2EBDF
:10100000C70261EB577115EB4C254FEA816141EA4C
:1010100092114FEA82624FEAD13742EA901206FB00
:1010200007FC44F100044FEA80604FEA1C4C0CFBC3
:101030000BF7D21B03FB0CF761EB07010CFB0EF760
:10104000B0EB074072EB17420CFB08F734BFA2EB82
:101050000742B2EB074261EB174115EB1C154FEA53
:10106000813141EA92414FEA823242EA90424FEAAC
:1010700080304FEA0C7644F1000448EA03434EEA1C
:101080000B484FF0000EB2EB080C71EB030724BFC6
:10109000624639464EEB0E0E4FF0000B00185241DF
:1010A00049414BEB0B0BB2EB080C71EB03077BF1E7
:1010B000000B24BF624639464EEB0E0E4FF0000B7C
:1010C0000018524149414BEB0B0BB2EB080C71EB92
:1010D00003077BF1000B24BF624639464EEB0E0E30
:1010E00051EA020718BF46F0010616EB0E7655F1DD
:1010F000000254F1000103D5BDE88901BDE8008874
:10110000BDE88901BDE80048B619524141EB010133
:10111000A3F10103704780807F7E7D7C7B7A7978A4
:10112000777676757473727171706F6E6E6D6C6CAC
:101130006B6A6A696868676666656464636362614E
:101140006160605F5F5E5E5D5D5C5C5B5B5A5A59CF
:10115000595858575756565555555454535352523B
:101160005251515050504F4F4F4E4E4D4D4D4C4C93
:101170004C4B4B4B4A4A4A494949484848474747DC
:101180004746464645454544444444434343434219
:10119000424242414141002B26D4770021D01CB568
:1011A0004FEA370703B44FF010004FF010014FF033
:1011B00000000FBCBDE810400BF1010BBBF1010FAB
:1011C00008BF5FEA170722BF12F1010211F1010106
:1011D0004FF0004143F1000300F0004043EA0000FB
:1011E0007047F9D35708DAE746EA064613F1400F8D
:1011F0004FEA16461FDD13F1200FDFBF16430A46E4
:10120000002120335B42C8D0C3F1200746EA0646DE
:1012100002FA07F74FEA164646EA0706C3F1200727
:1012200022FA03F201FA07F721FA03F14FF0000363
:1012300042EA0702B1E746EA020646EA06464FEAF4
:10124000164646EA0106BCBF46EA0646360C4FF093
:1012500000034FF000024FF000019EE72DE9C04867
:10126000934630B491E8380007C831EA400C48BFD3
:1012700034EA430C03D5FFF7F2FDFFF78CFFF0BC17
:10128000BDE800882DE9C048934630B491E83800A5
:1012900007C810F0804F08BF13F0804F03D100F053
:1012A00005F8FFF778FFF0BCBDE8008820F07F4725
:1012B00080EA030023F07F4C07EB0C03A3F57C537B
:1012C00000F00040A3F1FE0392F0000F00F0B380A5
:1012D00095F0000F00F077802DE901494FEA1140A9
:1012E0004FEA144621EA004800FB06FC24EA0647C0
:1012F00008FB06F607FB08F800FB07F718EB0648A3
:101300004CEB164C4FEA124B18EB07484FEA1546C8
:101310004CEB174022EA0B4E0BFB06FC25EA064776
:101320000EFB06F607FB0EFE0BFB07F71EEB064E49
:101330004CEB164C4FF000061EEB074E4CEB174BD8
:1013400018EB0B0840F1000018EB0E0B58EB0008EF
:1013500040F100008F1A4FF000013CBFC943661BEB
:1013600014BFB5EB040C00213CBFC943F61B4FEA88
:1013700017444EEA8E0E27EA04454FEA1C4704FB49
:1013800007622CEA074C05FB07F70CFB05F604FB8C
:101390000CFC16EB074642EB174216EB0C4642EBF1
:1013A0001C421BEB060658EB0202414146EA9E0630
:1013B00001D5BDE80189B619524141EB0101A3F104
:1013C0000103BDE801894FEA14454FEA114724EAB9
:1013D000054621EA074C05FB07F406FB07F70CFB63
:1013E00006F105FB0CFC11EB074144EB17444FEAF7
:1013F000124711EB0C4144EB1C4422EA074C05FB5D
:1014000007F206FB07F70CFB06F605FB0CFC16EBD8
:10141000074642EB174216EB0C4642EB1C456A1896
:1014200054F1000148BF7047B619524141EB010128
:10143000A3F10103704795F0000F37D04FEA114236
:101440004FEA144721EA024624EA074C02FB07F15F
:1014500006FB07F70CFB06F402FB0CFC14EB07443D
:1014600041EB17414FEA154714EB0C4441EB1C418B
:1014700025EA074C02FB07F506FB07F70CFB06F60F
:1014800002FB0CFC16EB074645EB174516EB0C462A
:1014900045EB1C42121951F1000148BF7047B619C3
:1014A000524141EB0101A3F1010370474FEA14459A
:1014B0004FEA114724EA054621EA074C05FB07F1EC
:1014C00006FB07F70CFB06F24FF0000605FB0CFCD1
:1014D00012EB074241EB174112EB0C4251EB1C415E
:1014E00048BF7047921841EB0101A3F10103704717
:1014F00021B1826842F00102826003E0826822F03A
:1015000001028260704721B1826842F48072826079
:1015100003E0826822F480728260704710B504464E
:101520001248844208D10121401502F037FE002103
:10153000601502F033FE17E00D48844208D1012106
:10154000001502F02BFE0021201502F027FE0BE013
:101550000848844208D10121C80302F01FFE00217F
:101560004FF4004002F01AFE10BD000000240140BC
:1015700000280140003C0140014600208A6812F02A
:10158000040F01D0012000E0002070470146002038
:101590008A6812F0080F01D0012000E00020704797
:1015A00030B502460020002350680F4C20400D79D2
:1015B0000C6844EA05242043506090680B4C20409E
:1015C000D1E902542C434D7944EA4504204390600C
:1015D000D06A20F470000C7C641EE4B2234340EA1D
:1015E0000350D06230BD0000FFFEF0FFFDF7F1FFB9
:1015F000F0B504460D4600200021092D11DDE068FC
:10160000A5F10A0606EB4607072606FA07F1884306
:10161000A5F10A0606EB460603FA06F10843E06068
:101620000CE0206905EB4507072606FA07F1884319
:1016300005EB450603FA06F108432061072A0FDA95
:10164000606B561E06EB86071F2606FA07F18843D5
:10165000561E06EB860605FA06F10843606322E093
:101660000D2A0FDA206BD61F06EB86071F2606FA17
:1016700007F18843D61F06EB860605FA06F10843F4
:10168000206310E0E06AA2F10D0606EB86071F2634
:1016900006FA07F18843A2F10D0606EB860605FA65
:1016A00006F10843E062F0BD816841F00801816005
:1016B000704721B1826842F4A002826003E0826830
:1016C00022F4A00282607047816841F004018160C9
:1016D000704700210160017141718160C160012189
:1016E000017470470EB501A802238822ED210090F5
:1016F000864801F02FF99DF804009DF8051040EA96
:1017000001208349088001A802238A22ED2100904C
:101710007E4801F01FF99DF80500000200B29DF817
:10172000041008437B49088001A802238C22ED2184
:101730000090764801F00EF99DF80500000200B215
:101740009DF8041008437449088001A802238E22E2
:10175000ED2100906D4801F0FDF89DF804009DF822
:10176000051040EA01206D49088001A8022390225B
:10177000ED210090654801F0EDF89DF805000002AC
:1017800000B29DF8041008436549088001A80223AF
:101790009222ED2100905D4801F0DCF89DF80500F3
:1017A000000200B29DF8041008435E49088001A8B9
:1017B00002239422ED210090544801F0CBF89DF8CB
:1017C0000500000200B29DF8041008435649088045
:1017D00001A802239622ED2100904C4801F0BAF8AE
:1017E0009DF80500000200B29DF8041008434F491F
:1017F000088001A802239822ED210090434801F0BF
:10180000A9F89DF80500000200B29DF804100843F5
:101810004749088001A802239A22ED2100903B4805
:1018200001F098F89DF80500000200B29DF8041040
:1018300008434049088001A802239C22ED21009022
:10184000324801F087F89DF80500000200B29DF8CB
:10185000041008433749088001A802239E22ED2185
:1018600000902A4801F076F89DF80500000200B2C9
:101870009DF8041008432F490880A122ED21234838
:1018800001F0DAF92C49087001A80723E122ED21C3
:1018900000901E4801F05EF89DF804009DF80510C8
:1018A00040EA012000B2254908809DF8060024493D
:1018B00008709DF8070000F47F609DF8081001F0A3
:1018C0000F0108431F4908809DF8090000F47F605C
:1018D0009DF8081040EA11101B4908809DF80A0085
:1018E00040B21A4908705023F522ED21074801F053
:1018F000E7FA0323F222ED21044801F0E1FA6F2315
:10190000F422ED21014801F0DBFA0EBD0058004041
:101910009401002096010020980100209A010020E7
:101920009C0100209E010020A0010020A2010020B7
:10193000A4010020A6010020AC010020AE0100207F
:10194000B0010020B2010020B4010020B601002047
:1019500000BFFEE70146CAB20B1243EA02207047FD
:1019600008B50020009015E19048008800F00F00B5
:101970008F4908700846007800287DD18D4800689E
:101980008D4908800846008800F030008B490880A7
:101990008948008800F440508749088085490968D3
:1019A0004BF6BF7201EA020080F4005080F0200084
:1019B00040F4004141F080017E4A11607B4800887C
:1019C00010F0100F32D11046006848F60F71084031
:1019D0001146086001F07EFB764909684BF6BF723C
:1019E00001EA02007449098811F4805F01D080F493
:1019F00080507149098811F4005F01D080F40050D3
:101A00006E49098811F0100F01D080F010006B4969
:101A1000098811F0200F01D080F0200081B241F43C
:101A2000004141F08001634A116008BD61480068CF
:101A300080B20090BDF8000010F4006F36D05D4811
:101A40000068C0F30E0048F68F71084059490860DD
:101A500003F054F8574909684BF6BF7201EA0200D7
:101A60005549098811F4805F01D080F480505249B3
:101A7000098811F4005F00E052E001D080F40050CA
:101A80004E49098811F0100F01D080F010004B4929
:101A9000098811F0200F01D080F0200081B241F4BC
:101AA000004141F08001434A1160BEE7BDF80000EB
:101AB00010F4004F6ED03F480068C0F30E0048F6A7
:101AC0008F7108403B49086002F0FEF83949096807
:101AD0004BF6BF7201EA02003749098811F4805FB2
:101AE00001D080F480503449098811F4005F01D09E
:101AF00080F400503149098811F0100F01D080F0B6
:101B000010002E49098811F0200F01D080F020002C
:101B100081B241F4004141F08001264A116084E71E
:101B200023480078234951F8200080B20090BDF886
:101B3000000010F4004F14D01D48007851F8200028
:101B4000C0F30E0048F68F71084019490978194A08
:101B500042F8210016490978491E194A52F8210015
:101B60008047BDF8000010F0800F13D010480078B7
:101B7000104951F8200048F60F7108400C490978C7
:101B80000C4A42F821000A490978491E0D4A52F8C8
:101B90002100804707484430006880B2034908802C
:101BA00010F4004F7FF4E0AE00BF3EE7E8000020F5
:101BB00008010020005C00401C0100201E010020E4
:101BC000CC000020B0000020094951F8201011F489
:101BD000804F0BD0064951F8201048F68F72114003
:101BE0004CF280021143024A42F820107047000074
:101BF000005C0040094951F8201011F0400F0BD053
:101C0000064951F8201048F68F72114048F2C00280
:101C10001143024A42F8201070470000005C004067
:101C2000064951F8201048F68F62114048F28002B0
:101C30001143024A42F8201070470000005C004047
:101C400010B5B0B06448007800280BD0012120A85E
:101C500004F0BCFA044620A8FEF770FC18B9002472
:101C600004F00AFAB6E05DA120A8FEF787FC40B9AF
:101C70005C4A5DA16846FEF7E5FA684604F05EFB43
:101C8000A0E05DA120A8FEF779FC002829D1012C55
:101C90000AD15B48007818B15AA004F04FFB91E0DC
:101CA0005BA004F04BFB8DE0022120A804F08EFA2B
:101CB0005BA120A8FEF762FC18B90120504908700A
:101CC00080E058A120A8FEF759FC30B956A004F0D6
:101CD00035FB00204A49087074E054A004F02EFB44
:101CE00070E056A120A8FEF749FC002829D1012C5C
:101CF0000AD15348007818B152A004F01FFB61E0EC
:101D000053A004F01BFB5DE0022120A804F05EFA62
:101D100043A120A8FEF732FC18B9012048490870F9
:101D200050E040A120A8FEF729FC30B93EA004F005
:101D300005FB00204249087044E048A004F0FEFA88
:101D400040E049A120A8FEF719FC48BB012C0AD1AC
:101D50004648007818B146A004F0F0FA32E047A0F7
:101D600004F0ECFA2EE0022120A804F02FFA2CA1B6
:101D700020A8FEF703FC18B901203C49087021E0B7
:101D800028A120A8FEF7FAFB30B927A004F0D6FA64
:101D900000203649087015E03BA004F0CFFA11E0AE
:101DA0003CA120A8FEF7EAFB48B91FA004F0C6FA40
:101DB00039A004F0C3FA1CA004F0C0FA02E03EA06F
:101DC00004F0BCFA0E48007810B117A004F0B6FA7F
:101DD00004F052F930B010BD39010020534E46577F
:101DE000000000002032F0490D0A534E5F46572094
:101DF00025640D0A000000004543484F0000000024
:101E0000490100200D0A4543484F204F4E0D0A005E
:101E10000D0A4543484F204F46460D0A000000007A
:101E20004F4E00004F4646000D0A00000D0A454384
:101E3000484F204552520D0A000000005348000050
:101E4000480100200D0A5348204F4E0D0A000000A3
:101E50000D0A5348204F46460D0A00000D0A53480C
:101E6000204552520D0A0000434C53004A01002005
:101E70000D0A434C53204F4E0D0A00000D0A434CEF
:101E800053204F46460D0A000D0A434C532045523D
:101E9000520D0A0056455200494F206D6F64756C13
:101EA000652076302E372E3920286F70656E2D70A4
:101EB0006C632E636F6D29000D0A554E4B4E4F57C4
:101EC0004E20434F4D4D414E440D0A0021B1026852
:101ED00042F00102026004E002684FF6FE731A400D
:101EE0000260704701684FF6FE72114001600021E8
:101EF000016041608160C1604B49884208D14A4914
:101F00000839496841F00F01474A083A51608AE0B0
:101F100045491431884208D143490839496841F09C
:101F2000F001414A083A51607DE03F49283188423A
:101F300008D13D490839496841F470613A4A083A84
:101F4000516070E038493C31884208D1364908393F
:101F5000496841F47041344A083A516063E03249BB
:101F60005031884208D130490839496841F470211C
:101F70002D4A083A516056E02B496431884208D115
:101F800029490839496841F47001274A083A5160E3
:101F900049E025497831884208D123490839496800
:101FA00041F07061204A083A51603CE01F49884284
:101FB00006D1011F096841F00F01021F116032E0D4
:101FC0001A491431884208D11849091F096841F09B
:101FD000F001164A121F116025E014492831884289
:101FE00008D11249091F096841F470610F4A121F94
:101FF000116018E00D493C31884208D10B49091F96
:10200000096841F47041094A121F11600BE0074949
:102010005031884207D10549091F096841F47021F0
:10202000024A121F11607047080002400804024073
:1020300010B50022026847F6F0739A430C6A8B6869
:1020400023430C6923434C6923438C692343CC69A4
:1020500023434C6A23438C6A23431A430260CB68B0
:1020600043600B6883604B68C36010BD2DE9F04787
:102070002848006800F110052E8826480068077A75
:10208000D6B9042F18D12448007801280FD1002197
:102090002248006880B2801C214A42F8101030208B
:1020A0002049088000BF00201B49087003E0072773
:1020B00010201C49088027E0AC88A64201D80420E3
:1020C00000E002200746B44200D93446A0B2A96815
:1020D00088478046002000F0F1FA8146A2B24946C6
:1020E000404603F09DFBA1B2002002F047FC288887
:1020F000001B2880688820446880302009490880B7
:1021000000020949088000BF024909680F72BDE852
:10211000F08700000C01002004010020505C00400A
:10212000006000401E0100201C0100202DE9F0414C
:102130002848006800F110042688A068C0B1BEB12C
:10214000A588B54200D93546A8B2A1688847074698
:102150002088401B2080608828446080002000F098
:102160008BFA8046AAB24146384601F0D5FD00BF41
:10217000208850B14FF4405017490880002108468C
:1021800002F0FCFB3020154908802088A188884295
:1021900004DB03200F490968087218E02088002832
:1021A00004DD05200B490968087210E0208870B929
:1021B000062008490968087200210948006880B2B1
:1021C000801C084A42F81010302004490880BDE8FD
:1021D000F08100000C0100201C0100201E010020E5
:1021E000505C0040006000402DE9F84F98480068BE
:1021F00045780027BA46062D1AD195480068007820
:1022000010F07F0F13D1924909688878012803D113
:1022100090490968CF690AE0022803D18D4909680D
:102220000F6A04E0032802D18A4909684F6A90E0E6
:10223000002D60D186480068408800285BD1844822
:102240000068C088022856D18148006800790028BB
:1022500051D17F480068007810F07F0F05D17C488D
:102260000068808808B97C4F73E07948006800787E
:1022700000F07F00012810D1754909684879754937
:1022800009688A6900219047002862D17048006877
:10229000807A00285DD0704F5BE06D480068007860
:1022A00000F07F00022854D169480068407900F0AE
:1022B0000F0667480068407900F0700964480068BC
:1022C000407910F0800F05D0644850F8260000F0E7
:1022D000300804E0614850F8260000F44058604897
:1022E0000078B04235D9B9F1000F32D1B8F1000F02
:1022F0002FD0594F2DE0082D07D1554800680078A0
:1023000010F07F0F25D1574F23E00A2D21D15048DF
:102310000068007800F07F0001281AD14C4800685E
:10232000807AB0B14A480068408890B9484800684F
:10233000007970B946480068C088012809D144492D
:1023400009684879434909688A690021904700B9BA
:10235000454F57B13E480068A0F812A03C480068BD
:1023600087610020B84700240FE0394A126850788E
:10237000384A1268116988470446032C05D10920A0
:10238000334909680872BDE8F88F31480068008A4F
:10239000A0F57F41FF3904D109202D490968087251
:1023A000F1E7022C03D02A480068008A20B90820EF
:1023B000274909680872E6E725480068007810F0A8
:1023C000800F3CD022480068C088009020480068F8
:1023D000008A0099884204D91D490098096808823A
:1023E00023E01B480068008A19490968C9888842A7
:1023F0001BDA17480068008A1649096891F82C1002
:10240000884203DA0020194908700EE0104800687D
:10241000008A1049096891F82C1090FBF1F201FB39
:10242000120010B90120114908700A48006890F89C
:102430002C10074800688182FFF718FE06E0032091
:1024400003490968087200030949088000BF9AE738
:102450000C01002010010020794D0008005C0040B4
:102460001C000020FD4C00084D4D00080401002018
:102470001C010020704710B500F072F910BD00007B
:10248000F8B50026354600BF234800780028FBD168
:102490000120214908702149032003F0A7F985B2E2
:1024A0002E4600208DF80100402D2DDA002429E071
:1024B0001A48005D8DF800009DF800000D2809D134
:1024C00000208DF8000001201549087000201549F2
:1024D000087016E0134800783F2812DA9DF80020B3
:1024E00010490878411C0F4B19700F490A540020FD
:1024F0001A46127888540D48007810B1684603F0E7
:102500001DFF641CAC42D3DB032002F011FA002053
:1025100001490870F8BD0000B7010020C80600207E
:102520003901002038010020180200204901002054
:102530000149086070470000140401402DE9F04192
:10254000024600250026002000230024002791F8E1
:1025500003C00CF00F0591F803C01CF0100F03D05E
:1025600091F802C04CEA050591F800C0BCF1000FDB
:1025700031D0146800202BE04FF0010C0CFA00F36E
:10258000B1F800C00CEA03069E4220D183004FF050
:102590000F0C0CFA03F7BC4305FA03FC4CEA0404E5
:1025A00091F803C0BCF1280F06D14FF0010C0CFAD2
:1025B00000FCC2F814C00AE091F803C0BCF1480F57
:1025C00005D14FF0010C0CFA00FCC2F810C0401C01
:1025D0000828D1D31460B1F800C0BCF1FF0F34DD7E
:1025E000546800202EE000F1080C4FF0010808FAB2
:1025F0000CF3B1F800C00CEA03069E4221D183001F
:102600004FF00F0C0CFA03F7BC4305FA03FC4CEA3D
:10261000040491F803C0BCF1280F05D100F1080CA7
:1026200008FA0CF8C2F8148091F803C0BCF1480F06
:1026300007D100F1080C4FF0010808FA0CF8C2F8B5
:102640001080401C0828CED35460BDE8F0810246BB
:10265000002093680B4201D0012000E00020704769
:1026600041617047016170474FF6FF71018002219F
:1026700081700421C170704701460548006880B22E
:1026800000EBC100001D034A32F8100080B2704711
:10269000505C00400060004001460648006880B27F
:1026A00000EBC100801D044A32F81000C0F309009D
:1026B00070470000505C0040006000400146054843
:1026C000006880B200EBC100034A32F8100080B20B
:1026D00070470000505C00400060004010480068F7
:1026E00000680F490968896848400E4908600C482D
:1026F0000068006800210C4A1060516011460868AB
:1027000049680021116050600548006880681368BE
:10271000526818431146044A106051607047000027
:10272000C8010020D0010020D801002070B50A485F
:102730000468001D0568001D0668344454B1082271
:102740000649204600F014FF0422044910312846AF
:1027500000F00EFF70BD0000E8F7FF1FEC00002046
:10276000704700BFFEE721B1028842F48062028018
:1027700004E002884FF6FF331A400280704770B5BC
:1027800002460024002500230020958A138B1B0499
:1027900045EA030626F07F4404EA01068E4201D191
:1027A000012000E0002070BD21B1028842F001024A
:1027B000028004E002884FF6FE731A4002807047E0
:1027C00021B1028842F48072028004E002884FF650
:1027D000FF631A400280704721B1028842F4007200
:1027E000028004E002884FF6FF531A4002807047CF
:1027F0000CB50246002000230193009300920B0FBA
:10280000019321F07F41019B1BB1009B1433009386
:1028100003E0090C009B18330093009B1B680B42DC
:1028200001D0012000E000200CBD00002DE9F043A4
:1028300085B004460D460026B1460427DFF8CC805B
:10284000A6884FF6C0700640684601F0DDFCDDF852
:1028500008802F48B8FBF0F01FFA80F946EA090615
:10286000A68020884FF6FE71084020800026294966
:10287000286888420CD828684000B8FBF0F087B27E
:10288000042F00DA04273E4309F10100208427E0E9
:10289000E888A0F53F41FF3906D1286800EB4000E9
:1028A000B8FBF0F087B209E0286800EBC00101EB4B
:1028B0000010B8FBF0F087B247F480473805000DF0
:1028C00001D147F0010747F4004006434FF49670EA
:1028D00009FB00F04FF47A7190FBF1F0401C20846A
:1028E000A683208840F00100208026884FF6F5302E
:1028F0000640A8886989084306432680A889298953
:102900000843208105B0BDE8F083000000127A0082
:1029100040420F00A08601000146088AC0B27047FD
:1029200012B141F0010102E04FF6FE73194001823D
:1029300070470182704741F2883101600021818037
:102940004BF6FF71C1800021018141814FF480412C
:10295000818170472DE9F0410446884616461D46A0
:10296000069FAD48AD49086018E0AC480068401EBD
:10297000AA49086012D1AA48844205D1A948006832
:10298000401CA849086007E0A748844204D1A74832
:102990000068401CA5490860BDE8F0814FF4003193
:1029A0002046FFF725FF0028DFD101212046FFF751
:1029B00007FF99489949086017E098480068401E49
:1029C0009649086011D19648844205D1954800681F
:1029D000401C9449086007E09348844204D193481E
:1029E0000068401C91490860D6E791492046FFF7EE
:1029F000C6FE0028E1D0002241462046FFF790FFA6
:102A000085488649086017E084480068401E83496D
:102A1000086011D18248844205D182480068401C78
:102A20008049086007E08048844204D17F480068FC
:102A3000401C7E490860AFE77E492046FFF79FFEB5
:102A40000028E1D031462046FFF773FF72487349F2
:102A5000086017E071480068401E7049086011D195
:102A60006F48844205D16F480068401C6D4908607A
:102A700007E06D48844204D16C480068401C6B49F3
:102A8000086089E76B49891C2046FFF778FE00281B
:102A9000E0D001212046FFF793FE5F485F490860C0
:102AA00017E05E480068401E5C49086011D15C4830
:102AB000844205D15B480068401C5A49086007E021
:102AC0005948844204D159480068401C574908605D
:102AD00062E757492046FFF752FE0028E1D0012166
:102AE0002046FFF740FE012241462046FFF718FF2F
:102AF00049484A49086017E048480068401E47496D
:102B0000086011D14648844205D146480068401CFF
:102B10004449086007E04448844204D143480068BF
:102B2000401C4249086037E74149491C2046FFF7ED
:102B300026FE0028E0D02FE01DB900212046FFF737
:102B400012FE35483549086017E034480068401ED9
:102B50003249086011D13248844205D131480068B9
:102B6000401C3049086007E02F48844204D12F48B8
:102B70000068401C2D4908600EE72D493F31204672
:102B8000FFF7FDFD0028E0D02046FFF7C5FE07F85F
:102B9000010B142003F091FA2800A5F10101CDB238
:102BA000CAD100212046FFF7DEFD01212046FFF7B4
:102BB00013FE19481949086017E018480068401EBC
:102BC0001649086011D11648844205D1154800689D
:102BD000401C1449086007E01348844204D113489C
:102BE0000068401C11490860D6E64FF400312046C9
:102BF000FFF7FEFD0028E0D10948844203D1002000
:102C00000849086005E00848844202D100200749CD
:102C1000086000BFC0E60000400D0300C4010020B2
:102C2000005400407401002000580040780100204A
:102C300001000300820007002DE9F04104460E4622
:102C4000154697489749086019E096480068401E65
:102C50009449086013D19448844205D19348006890
:102C6000401C9249086007E09148844204D1914891
:102C70000068401C8F4908600020BDE8F0814FF4D7
:102C800000312046FFF7B4FD0028DED101212046A7
:102C9000FFF796FD82488349086018E08148006884
:102CA000401E8049086012D17F48844205D17F4888
:102CB0000068401C7D49086007E07D48844204D1DB
:102CC0007C480068401C7B4908600020D5E77A49B1
:102CD0002046FFF754FD0028E0D000223146204670
:102CE000FFF71EFE6E486F49086018E06D480068E7
:102CF000401E6C49086012D16B48844205D16B4874
:102D00000068401C6949086007E06948844204D1B2
:102D100068480068401C674908600020ADE76749C3
:102D20002046FFF72CFD0028E0D029462046FFF77B
:102D300000FE5B485B49086018E05A480068401E86
:102D40005849086012D15848844205D15748006854
:102D5000401C5649086007E05548844204D1554854
:102D60000068401C53490860002086E75349891CCD
:102D70002046FFF704FD0028DFD001212046FFF7A1
:102D80001FFD47484749086018E046480068401E54
:102D90004449086012D14448844205D14348006840
:102DA000401C4249086007E04148844204D1414840
:102DB0000068401C3F49086000205EE73E4920460D
:102DC000FFF7DDFC0028E0D0012231462046FFF766
:102DD000A7FD01212046FFF7C6FC314831490860B4
:102DE00018E030480068401E2E49086012D12E4875
:102DF000844205D12D480068401C2C49086007E03A
:102E00002B48844204D12B480068401C29490860A3
:102E1000002032E728493F312046FFF7B0FC002868
:102E2000DFD02046FFF778FD074600212046FFF758
:102E30009AFC01212046FFF7CFFC19481949086088
:102E400018E018480068401E1649086012D116485C
:102E5000844205D115480068401C1449086007E009
:102E60001348844204D113480068401C114908608B
:102E7000002002E74FF400312046FFF7B9FC00289C
:102E8000DFD10948844203D100200849086005E0E9
:102E90000748844202D10020064908603846ECE623
:102EA000400D0300C00100200054004074010020C8
:102EB0000058004078010020010003008200070054
:102EC0002DE9F04104460F4615461E4601212046D5
:102ED000FFF776FC66486749086018E065480068B7
:102EE000401E6449086012D16348844205D163489A
:102EF0000068401C6149086007E06148844204D1D1
:102F000060480068401C5F490860BDE8F0815E4988
:102F10002046FFF734FC0028E0D000223946204646
:102F2000FFF7FEFC52485349086017E0514800681B
:102F3000401E5049086011D14F48844205D14F4886
:102F40000068401C4D49086007E04D48844204D1A8
:102F50004C480068401C4B490860D6E74B49204666
:102F6000FFF70DFC0028E1D029462046FFF7E1FCE1
:102F70003F484049086017E03E480068401E3D4910
:102F8000086011D13C48844205D13C480068401C8F
:102F90003A49086007E03A48844204D13948006859
:102FA000401C38490860B0E73849891C2046FFF7C3
:102FB000E6FB0028E0D031462046FFF7BAFC2C485B
:102FC0002C49086017E02B480068401E294908601A
:102FD00011D12948844205D128480068401C27495E
:102FE000086007E02648844204D126480068401C57
:102FF0002449086089E72549891C2046FFF7BFFB63
:103000000028E0D001212046FFF7E6FB18481949C7
:10301000086017E017480068401E1649086011D183
:103020001548844205D115480068401C13490860C2
:1030300007E01348844204D112480068401C11493B
:10304000086062E74FF400312046FFF7D1FB00280B
:10305000E0D10948844203D100200849086005E016
:103060000748844202D100200649086000BF4CE7AF
:10307000400D0300B80100200054004074010020FE
:103080000058004078010020010003008200070082
:103090004CF6CC4001490860704700000030004009
:1030A0004AF6AA200149086070470000003000403D
:1030B00001494860704700000030004001498860C5
:1030C0007047000000300040014908607047000070
:1030D0000030004010B518480068047A022C01D076
:1030E000042C05D1FEF7C2FF13480068047A1CE0E7
:1030F000062C19D110480068407805280ED10E48DA
:103100000068007810F07F0F08D10B490968C87873
:1031100001F096FB09490968086A8047084909686F
:1031200088688047082400E00824034909680C7275
:1031300000F008FE10BD00000C0100201801002066
:103140001001002070B592B0002407E000209D49D6
:1031500041F824009C4941F82400641C082CF5DB4C
:1031600000260025002099490880002421E0974886
:10317000008808281CDA04EB8400954901EB8000E4
:10318000C088012814D104EB840051F8202028467F
:103190006D1C8C4941F820208C480088401C8B49CC
:1031A000088004EB84008A4901EB80008089064393
:1031B000641C012CDBDB854800884FF4007191FB17
:1031C000F0F084490880084600888049098848430F
:1031D00081490880012140F2012000F0CFFF012148
:1031E000084600F0ABFF11A8FFF73EFAADF84460C7
:1031F00000208DF8470003208DF8460011A977487C
:10320000FFF79CF97648FEF76DFE7348008804903E
:10321000002003900B90734802904FF48060089058
:1032200080200690202009906F480190801507901B
:10323000002005904FF400500A9001A96848FEF75D
:10324000F7FE01216648FEF741FE67484C38FEF75D
:1032500065F90CA8FEF73DFA01208DF83500002035
:103260000F904FF460200E9000200C90574800887B
:10327000C0B28DF8400001208DF834000CA95A48E6
:103280004C38FEF78DF9002471E000256CE04D48C4
:1032900050F8240005EB85014D4A52F82110884270
:1032A00061D105EB8500114601EB80008089102873
:1032B00034D008DC01280DD0022814D004281BD0FB
:1032C00008284FD121E0202831D0402838D080284C
:1032D00048D13EE0601CC2B20523002142484C3870
:1032E000FEF786F93EE0601CC2B2052301213E488C
:1032F0004C38FEF77DF935E0601CC2B2052302218F
:1033000039484C38FEF774F92CE0601CC2B2052332
:10331000032135484C38FEF76BF923E0601CC2B23C
:103320000523042130484C38FEF762F91AE0601C8E
:10333000C2B2052319462C484C38FEF759F911E062
:10334000601CC2B20523062127484C38FEF750F90D
:1033500008E0601CC2B20523072123484C38FEF761
:1033600047F900BF00BF6D1C012D90DB641C17489E
:103370000088844289DB01211B484C38FEF7B8F8ED
:10338000012119484C38FEF7BEF817484C38FEF7B3
:103390008BF900BF14484C38FEF7F8F80028F9D133
:1033A00011484C38FEF790F900BF0F484C38FEF733
:1033B000E3F80028F9D101210B484C38FEF779F9E0
:1033C00012B070BDA8060020880600206C01002005
:1033D000040200206E01002070010020000801405E
:1033E00008000240880200204C24014010B501F082
:1033F0004FFE01F001FA02F0AFFE00F0D9F86420B0
:1034000003F007F840F225511E4801F0CFFF1E4897
:10341000007830B104211DA002F0CEFF642002F03C
:103420003FFE05211BA002F0C7FFFFF757F94FF43D
:10343000FA6002F0EEFF02F0C5F84FF47A7002F085
:10344000E8FF02F0A1F84FF47A7002F0E2FF0E48B4
:10345000007830B104210DA002F0C8FF642002F012
:103460001FFE05210BA002F0C1FF642002F018FE30
:1034700000F014F800F048F802F02CFEFEF732F9E4
:1034800010BD0000003801404A0100201B630D0AF6
:10349000000000002B2B2B0D0A0000001FB501219E
:1034A000022000F05BFE684601F060FF0020ADF8EE
:1034B00002004FF4E150ADF800000A20ADF804001E
:1034C0006946104801F000FF012211460D4801F045
:1034D000F1FE01210B4801F0D0FE4FF4A06000F096
:1034E0004FFB1D208DF80C0002208DF80D000320ED
:1034F0008DF80E0001208DF80F0003A800F006FBE8
:103500001FBD0000000400401FB50121042000F091
:1035100025FE684601F02AFF0020ADF8020041F6C2
:103520001F40ADF800000920ADF8040069460F48BF
:1035300001F0CAFE012211460C4801F0BBFE012138
:103540000A4801F09AFE4FF4A06000F019FB1E201B
:103550008DF80C0002208DF80D008DF80E00012072
:103560008DF80F0003A800F0D1FA1FBD000800403D
:1035700030B50B46002100BF16E00A24B4EB107FE3
:1035800005D9302404EB107403F8114005E0412400
:1035900004EB10740A3C03F81140000100254C00B4
:1035A000641C1D554C1CE1B29142E6DB30BD0000AD
:1035B0002DE9F04786B000F001FE002000F0E6FEA5
:1035C0004FF4803000F0BCFE4FF4E0114FF4803037
:1035D00000F000FF002000F0A7FE4FF4806000F034
:1035E000DBFE002000F0E4FE4FF4004000F09AFD06
:1035F000002000F009FF012000F0E6FE00BF3920A6
:1036000000F06CFE0028FAD0022000F0F1FE00BFAE
:1036100000F082FE0828FBD10121042000F0AEFD5D
:103620000121082000F0AAFD0121102000F0A6FDD4
:103630000121880300F0A2FD0121084600F09EFD53
:103640000121C80500F08AFDFE48006840F0807046
:10365000FC490860FC48FD490860FD48006840F0EE
:103660000100FB490860002048604FF4A06000F0B2
:1036700087FA05A8FEF7F8FF18208DF817004FF419
:103680000070ADF8140002208DF8160005A9F1486D
:10369000FEF754FF04208DF817000002ADF8140067
:1036A00002208DF8160005A9EA48FEF747FF01A899
:1036B00001F057FF4FF4E13001900020ADF8080011
:1036C000ADF80A00ADF80C00ADF810000C20ADF814
:1036D0000E0001A9E04801F0D3FE0121DE4801F00F
:1036E00074FE4FF4A06000F04BFA25208DF8000026
:1036F00002208DF8010001208DF802008DF80300F2
:10370000684600F003FA0121D34801F05EFE25204F
:1037100000F01F020121914042094FF0E02303EB2A
:103720008202C2F8001100BF012240F22551CA48AE
:1037300001F081FE05A8FEF797FF4FF40050ADF8A9
:10374000140010208DF8170001208DF8160005A92F
:10375000C248FEF7F3FE4FF40051C048FEF782FF67
:103760004FF4C050ADF8140010208DF8170003205E
:103770008DF8160005A9B748FEF7E0FE4FF480511A
:10378000B448FEF76DFF05A8FEF76EFF0126D2E0F4
:103790004FF000080027C9E017B9DFF8B88208E049
:1037A000012F02D1DFF8B88203E0022F01D1DFF848
:1037B000AC820024002581E005EB8500A94901EBDE
:1037C0008000C088012802D14FF0000906E005EB17
:1037D0008500A44901EB8000B0F80690B1456CD19A
:1037E00005EB85009F4901EB80008068404564D16E
:1037F00005EB850001EB80008089B0F5807F43D028
:1038000012DC102834D008DC012825D0022826D06C
:10381000042827D008284FD127E020282BD0402883
:103820002CD0802848D12CE0B0F5805F38D009DC5E
:10383000B0F5007F2BD0B0F5806F2BD0B0F5006FC6
:103840003AD12AE0B0F5005F2DD0B0F5804F2DD0F1
:10385000B0F5004F30D12CE044F001042CE044F0EE
:10386000020429E044F0040426E044F0080423E0C4
:1038700044F0100420E044F020041DE044F0400433
:103880001AE044F0800417E044F4807414E044F437
:10389000007411E044F480640EE044F400640BE032
:1038A00044F4805408E044F4005405E044F48044B7
:1038B00002E044F4004400BF00BF6D1C012DFFF680
:1038C0007BAF94B3092E26D2DFE806F02505090D5B
:1038D0001115191D210000208DF817001BE0042090
:1038E0008DF8170017E028208DF8170013E0482006
:1038F0008DF817000FE014208DF817000BE0102052
:103900008DF8170007E010208DF8170003E0102055
:103910008DF8170000BF00BFADF8144001208DF8EE
:10392000160005A94046FEF709FE7F1C032FFFF68F
:1039300033AF701C86B2092EFFF62AAF002544E093
:1039400005EB8500474901EB8000C08804280DD0B5
:1039500005EB850001EB8000C088072806D005EB49
:10396000850001EB8000C08808280DD105EB850299
:103970003C4B03EB8202918905EB850203EB82024B
:103980009068FEF76FFE14E005EB8500354901EB0A
:103990008000C08803280CD105EB85020B4603EBA1
:1039A0008202918905EB850203EB82029068FEF7A3
:1039B00057FE05EB85002B4901EB8000C0880128EC
:1039C00002D12949088002E06D1C012DB8DB00BF3F
:1039D0002548008818B1FFF7B5FBFFF795FD6FF09C
:1039E000040001F010FB2149B1F1807F00D323E0F6
:1039F00021F07F40401E4FF0E022506150170F220F
:103A000000280BDA13074FEA136A0E4BE43B00F071
:103A10000F0CACF1040C03F80CA005E013074FEAFF
:103A2000136C134B03F800C000BF00204FF0E022DE
:103A300090610720106100BF4FF4A06000F0A0F873
:103A4000FF2017E0FCED00E055CEACC5B01F00E054
:103A5000001000E000080140003801400010014063
:103A6000000C0140040200206C01002080FC0A00D0
:103A700000E400E08DF8000000208DF80100032034
:103A80008DF8020001208DF80300684600F03EF832
:103A900045F25550FFF718FB0320FFF709FB40F6EE
:103AA000C410FFF70BFBFFF7FBFAFFF7F1FA00205A
:103AB0000C4908600C4908600C4908700C49086002
:103AC0000C490860074800680B4908600548006811
:103AD0000A490860034800680949086006B0BDE863
:103AE000F08700003C010020400100203901002047
:103AF00064010020680100204C01002050010020DA
:103B00005401002000BFFEE77047704770B50021E8
:103B100000230F22C4780CB3164C246804F4E0642C
:103B2000C4F5E064210AC1F10403CA40447804FAF0
:103B300003F184781440214309010F4C0678A15504
:103B4000047804F01F050124AC4005786D114FF096
:103B5000E02606EB8505C5F8004109E0047804F08D
:103B60001F050124AC40054D0678761145F8264026
:103B700070BD00000CED00E000E400E080E100E03A
:103B800002490143024A1160704700000000FA0533
:103B90000CED00E070B502264648006844784548C0
:103BA0000068007810F07F0F44D1092C03D101F098
:103BB0005FF906465FE0052C14D13E480068C078E6
:103BC0007F280BDC3B480068807838B939480068AA
:103BD000808818B937480068807A08B1082565E000
:103BE000002648E0032C0ED132480068C078012836
:103BF00007D130480068808818B901F05DF90646A1
:103C000039E0022637E0012C35D12A480068C07817
:103C100001280DD127480068808848B925480068E8
:103C2000407A10F0200F03D000F0C4FF064622E0D7
:103C3000022620E01F480068007800F07F0001287D
:103C400005D10B2C17D101F0A7F9064613E019484E
:103C50000068007800F07F0002280BD1012C03D10E
:103C600000F0A8FF064606E0032C04D101F038F965
:103C7000064600E002264EB1E0B20F4A12685169D2
:103C800088470646032E01D109250FE00EB108250D
:103C90000CE0062500210948006880B2801C084A13
:103CA00042F8101030200749088000BF0149096818
:103CB0000D7270BD0C01002010010020505C00400E
:103CC000006000401E01002010B511480068047A11
:103CD000022C01D0042C01D1082412E0032C01D0C5
:103CE000052C05D1FEF722FA09480068047A08E09D
:103CF000072C05D107490968C8688047082400E0F7
:103D00000824034909680C7200F01CF810BD00007B
:103D10000C01002010010020F0B5561C7510074E54
:103D200006EB41042B4605E034F8047B20F8017BC8
:103D3000401C5B1E002BF7D1F0BD0000006000406E
:103D40007047000010B50D4890F82C10002000F0CE
:103D5000ADFD0B480068007A082805D140020949EA
:103D6000088010200849088005480068007A092862
:103D700001D1012010BD0020FCE700002000002040
:103D80000C0100201C0100201E01002010B50120A4
:103D900001F0F9FB01240B48046000200A49088067
:103DA00008460088074908600020091D08604FF494
:103DB000E050054908800846008802490860002054
:103DC00010BD0000405C0040160100202DE9F04FBE
:103DD000ADB0A8480068A8490968401A32287CD9C3
:103DE000A648007818B1A6480078002875D1A548E3
:103DF000007810B1A4A002F0A1FA0024D9E004EBED
:103E00008400A34901EB800080880C2815D2DFE8EC
:103E100000F0CE0615253444546575889BB204EB3A
:103E200084009B4951F820502B78621C99A108A866
:103E3000FCF708FA08A802F081FAB8E004EB840065
:103E4000934951F8206096F90030621C94A108A8AB
:103E5000FCF7F8F908A802F071FAA8E004EB840076
:103E60008B4951F820703B78621C8AA108A8FCF7A6
:103E7000E9F908A802F062FA99E004EB84008449A9
:103E800051F82080B8F90030621C85A108A8FCF721
:103E9000D9F908A802F052FA89E004EB84007C49C1
:103EA00051F82090B9F80030621C7AA108A8FCF7FC
:103EB000C9F908A802F042FA79E004EB84007449D9
:103EC00051F820A0621C76A108A8DAF80030FCF7AF
:103ED000B9F908A802F032FA69E0C8E004EB8400FE
:103EE0006B4951F820B0621C6AA108A8DBF80030C9
:103EF000FCF7A8F908A802F021FA58E004EB8400C6
:103F0000634951F820002B902B9803C8621CCDE91F
:103F1000000166A108A8FCF795F908A802F00EFABE
:103F200045E004EB84005A4951F820002A902A9871
:103F300003C8621CCDE900015FA108A8FCF782F963
:103F400008A802F0FBF932E004EB8400504951F874
:103F5000201029912999086803F0F8F8CDE90601A5
:103F6000621CCDE9000157A108A8FCF76BF908A86D
:103F700002F0E4F91BE004EB8400454951F820000D
:103F800028902898D0E90021104602F0E9FB05901E
:103F900003F0DCF8CDE90601621CCDE900014CA17B
:103FA00008A8FCF74FF908A802F0C8F900BF00BF45
:103FB000641C002C3FF423AF4848006802F06BFEFD
:103FC0000022474BCDE9000102F0B0FCCDE902012F
:103FD00002F0C6FB059003F0B9F802460B46CDE9A6
:103FE000060140A108A8FCF72DF908A802F0A6F9DF
:103FF0004048006802F04FFE00223F4BCDE900012F
:1040000002F094FCCDE9020102F0AAFB059003F056
:104010009DF802460B46CDE9060138A108A8FCF739
:1040200011F908A802F08AF93848006802F033FE56
:1040300000222B4BCDE9000102F078FCCDE9020112
:1040400002F08EFB059003F081F802460B46CDE9A5
:1040500006012FA108A8FCF7F5F808A802F06EF9F0
:1040600004480068044908602DA002F067F92DB0EB
:10407000BDE8F08F3C010020540100201802002010
:10408000490100204A0100201B5B481B5B324A00AB
:1040900004020020252D38752025750D0A0000002A
:1040A000252D38752025640D0A000000252D387552
:1040B00020256C6C640D0A00252D387520256C6C4C
:1040C000750D0A00252D38752025660D0A000000A3
:1040D000252D387520252E31660D0A007C01002023
:1040E00000002440424D455F5420202020252E31E1
:1040F000660D0A008001002000005940424D455FD6
:104100005020202020252E31660D0A008401002039
:10411000424D455F4820202020252E31660D0A00A3
:104120000D0A000001460020034A506820F4404078
:1041300008435060704700000010024029B1064A51
:1041400052690243044B5A6104E0034A52698243B4
:10415000014B5A61704700000010024029B1064A25
:10416000D2690243044BDA6104E0034AD269824314
:10417000014BDA61704700000010024029B1064A85
:1041800092690243044B9A6104E0034A92698243B4
:10419000014B9A61704700000010024029B1064AA5
:1041A000D2680243044BDA6004E0034AD2688243D7
:1041B000014BDA6070470000001002400F480068B1
:1041C00040F001000D490860084640680C4908406D
:1041D0000A494860084600680A49084007490860DB
:1041E0000846006820F4802008600846406820F4F3
:1041F000FE0048604FF41F008860704700100240C6
:104200000000FFF8FFFFF6FE30B500210022002479
:1042100000232D4D6D6805F00C0121B1042905D056
:10422000082923D105E0294D056022E0274D0560CE
:104230001FE0254D6D6805F47012234D6D6805F47F
:104240008034022505EB92421CB9214D554305608F
:104250000BE01D4D6D6815F4003F03D01C4D554318
:10426000056002E0194D5543056002E0174D0560F9
:1042700000BF00BF144D6D6805F0F0010909154D30
:104280006B5C0568DD4045600F4D6D6805F4E061CD
:10429000090A104D6B5C4568DD4085600A4D6D680C
:1042A00005F46051C90A0B4D6B5C4568DD40C56083
:1042B000054D6D6805F44041890B074D6B5CC56881
:1042C000B5FBF3F5056130BD0010024000127A0025
:1042D00000093D00200100203001002010B50146FA
:1042E0000022002300204A11012A02D1094C236830
:1042F00006E0022A02D1074C236A01E0054C636AFA
:1043000001F01F02012494401C4201D0012000E072
:10431000002010BD001002400248406800F00C0070
:10432000704700000010024001460020034A506818
:1043300020F0F00008435060704700000010024079
:104340001149096821F480310F4A1160114609684A
:1043500021F480211160B0F5803F03D0B0F5802FAB
:104360000ED106E00849096841F48031064A11601F
:1043700007E00549096841F4A021034A116000E003
:1043800000BF00BF704700000010024001490860F4
:10439000704700000000424201460020034A506876
:1043A00020F4E060084350607047000000100240B5
:1043B00001460020034A506820F4605040EAC100E2
:1043C00050607047001002400149086670470000C5
:1043D0000000424202460020044B586820F47C1042
:1043E00042EA01031843014B586070470010024035
:1043F00001460020034A506820F003000843506043
:10440000704700000010024001490860704700003A
:10441000D80042422DE9FE43E648006818B9E64854
:104420000068E4490860E548006818B9E248006897
:10443000E2490860E248006818B9DF480068E049CE
:104440000860E048006818B9DB480068DD4908608A
:10445000DD48006818B9D8480068DB490860DB48C7
:10446000006818B9D4480068D8490860D84800687E
:10447000002841D100243CE004EB8400D54901EB45
:104480008000C08807282CD104EB84020B4603EB84
:104490008202918904EB840203EB82029068FEF7AA
:1044A000DFF84FF4FA7001F0C4FF04EB8402C94B4B
:1044B00003EB8202918904EB840203EB8202906891
:1044C000FEF7D0F84FF4FA7001F0B3FFA0B2CC21A0
:1044D00002F0D8F81E2001F0ACFFA0B2442102F097
:1044E000D1F80120BA490860B3480068B1490860B2
:1044F000641C012CC0DB71E0B548006801280ED1B6
:10450000AD480068AB490968401A642866D30220A8
:10451000AF490860A8480068A64908605EE0AC485A
:104520000068022847D1002442E004EB8400A94936
:1045300001EB8000C088072832D104EB84020B46CF
:1045400003EB8202918904EB840203EB8202906800
:10455000FEF786F84FF4FA7001F06BFF04EB84026B
:104560009C4B03EB8202918904EB840203EB8202F1
:104570009068FEF777F84FF4FA7001F05AFFA0B296
:10458000CC2102F07FF81E2001F053FFA0B2BE2123
:1045900002F078F81E2001F04CFFA0B201F06AFF93
:1045A00003208B4908608448006882490860641CC5
:1045B000012CBADB12E08648006803280ED17E4841
:1045C00000687C490968401AB0F5967F06D3002040
:1045D0007F49086078480068764908607E4800682E
:1045E00008BB002415E004EB84007A4901EB80004D
:1045F000C08808280CD104EB84020B4603EB82022E
:10460000918904EB840203EB82029068FEF728F89C
:10461000641C012CE7DB01206F49086066480068D4
:104620006649086042E06C48006801283ED1624853
:10463000006862490968401A192837D3002415E038
:1046400004EB8400634901EB8000C08808280CD18A
:1046500004EB84020B4603EB8202918904EB840293
:1046600003EB82029068FDF7FDFF641C012CE7DB81
:104670004FF4FA7001F0DDFE002412E004EB840038
:10468000544901EB8000C088082809D1A0B2332129
:1046900001F0F8FF3C2001F0CCFEA0B201F0EAFEF0
:1046A000641C012CEADB00204B490860002452E026
:1046B00004EB8400474901EB8000C08801281AD12F
:1046C00004EB840051F8207000250FE004EB840017
:1046D000404951F82000414951F82510884204D141
:1046E0003F4850F82500388004E06D1C3D480088A4
:1046F0008542EBDB2EE004EB8400364901EB8000C1
:10470000C088012826DD04EB840001EB8000C0880E
:1047100007281FDA04EB84020B4603EB820291891F
:1047200004EB840203EB82029068FDF790FF08B16E
:10473000012000E00020804604EB8400254951F868
:104740002060002004EB8401224A52F82110086006
:1047500086F80080641C012CAADB17480068194900
:104760000968401AB0F5C87F21D31348006815497D
:1047700008606A4601A902A801F0C6F9019808B1CB
:10478000009858B90020029000BF1748006805281B
:1047900004DD002014490860FCF7A4FF13490298C7
:1047A0000860134901980860124900980860BDE844
:1047B000FE8300004C0100203C010020500100203D
:1047C00054010020580100205C01002060010020FD
:1047D000640100200402002068010020A8060020D7
:1047E000880600206C010020780100207C01002058
:1047F00080010020840100207047704710B50948EF
:10480000006805280CD1084801680068401C064A69
:104810001060052904D1002011460860FDF7A0FFB3
:1048200010BD000000000020CC01002070470000F7
:104830004FF6F8710140014A11607047505C00402A
:1048400030B501460E4B1A78002010E0C3B20D4C73
:1048500054F8233048F68F74234048F280042343F1
:10486000C4B22343C4B2074D45F82430401C9042E3
:10487000ECD341F08003034C4C34236030BD000086
:104880001C000020005C004010B54A105300054A8F
:10489000126892B202EBC002121D034C44F81230AF
:1048A00010BD0000505C00400060004010B50246A2
:1048B0000F48006880B200EBC200801D0D4C04EB75
:1048C00040033E290BDD481111F01F0F01D1441E9A
:1048D000A0B24FF4004444EA80241C6007E0481072
:1048E00011F0010F01D0441CA0B284021C6010BD65
:1048F000505C00400060004010B50C4B53F8203075
:104900004BF68F7403EA040211F4805F01D082F445
:10491000805211F4005F01D082F4005242F400434F
:1049200043F08003014C44F8203010BD005C00408F
:10493000094A52F820204BF68F7302EA030181F4F2
:10494000805181F4005141F4004242F08002024B58
:1049500043F8202070470000005C004010B54A106A
:104960005300044A126892B202EBC002024C44F8AF
:10497000123010BD505C004000600040044A1268D4
:1049800092B202EBC002921C024B43F81210704725
:10499000505C00400060004010B50C4B53F82030D4
:1049A00048F6BF7403EA040211F0100F01D082F040
:1049B000100211F0200F01D082F0200242F40043D7
:1049C00043F08003014C44F8203010BD005C0040EF
:1049D000094A52F8202048F6BF7302EA030181F029
:1049E000100181F0200141F4004242F08002024BAC
:1049F00043F8202070470000005C0040054A52F850
:104A0000202048F68F131A400A43024B43F8202017
:104A100070470000005C004010B500F001F810BDC8
:104A20000CB50020019000903248006840F48030BE
:104A30003049086000BF2F48006800F40030009043
:104A40000198401C0190009818B90198B0F5A06F2A
:104A5000F1D12848006810F4003F02D001200090F6
:104A600001E0002000900098012842D1224800680F
:104A700040F01000204908600846006820F003005C
:104A800008600846006840F0020008601948406865
:104A9000184948600846406848600846406840F445
:104AA000806048600846406820F47C1048600846F2
:104AB000406840F4E81048600846006840F08070A4
:104AC000086000BF0B48006810F0007FFAD009486A
:104AD000406820F00300074948600846406840F0FD
:104AE0000200486000BF0348406800F00C0008283E
:104AF000F9D10CBD001002400020024038B501245D
:104B00002948006880B2001D284931F8100080B2A1
:104B100001EB4000009026480068007A092832D056
:104B2000009800782249096808700098401C00909D
:104B3000009800781E49096848700098401C009051
:104B4000009800EB44000090009931F8020B0091AE
:104B5000FCF700FF164909684880009800EB440004
:104B60000090009931F8020B0091FCF7F3FE104918
:104B700009688880009800EB440000900098008845
:104B80000B490968C880012009490968087208486A
:104B90000068C08810B9FEF7FDFF01E0FDF724FBB7
:104BA000FFF7D0F838BD0000505C004000600040C6
:104BB0000C0100202DE9F0474B480068007800F018
:104BC0007F08B8F1000F0AD147480068407A00F02A
:104BD000DF004549096848720020BDE8F087B8F158
:104BE000020F7ED140480068408818B93E480068EE
:104BF000007908B10220F0E7DFF8F0903A48006849
:104C0000477927F080052C4637480068407910F036
:104C1000800F05D0364850F8240000F0300604E03C
:104C2000334850F8240000F4405699F80000A84298
:104C300004D91EB12C480068807A08B90220CCE75C
:104C400017F0800F0ED02A4850F8240000F03000F2
:104C500010283FD1E0B2FCF7CDFFE0B23021FFF7E2
:104C60009BFE37E0224850F8240000F44050B0F595
:104C7000805F2FD1C4B91F4A92F82C10E0B2FFF721
:104C800015FE1B4951F824104BF68F7201EA020001
:104C900080F4805080F4005040F4004141F08001E5
:104CA000134A42F8241015E0E0B2FCF78DFF1049DA
:104CB00051F824104BF68F7201EA020080F4805004
:104CC00080F4005040F4004141F08001084A42F86D
:104CD000241000BF084909684869804700207CE724
:104CE000FFE700BF022078E70C0100201C00002035
:104CF000005C0040200000201801002010B5044690
:104D00002CB90120064909680882002010BD054918
:104D1000096808688047024800680A30F6E7000022
:104D20000C0100201801002010B50246064800685A
:104D3000438A32B98888C01A034C24682082002034
:104D400010BD08681844FBE70C01002010B50446AC
:104D50002CB90120064909680882002010BD0549C8
:104D6000096888688047024800680C30F6E7000050
:104D70000C0100201801002010B504462CB90220B7
:104D8000374909680882002010BD00203549088095
:104D900033480068007810F07F0F23D1304909684C
:104DA000487A10F0200F06D02E49097841F0020110
:104DB0002C4A117005E02B49097801F0FD01294AC0
:104DC000117010F0400F06D02649097841F001011A
:104DD000244A117005E02349097801F0FE01214AB7
:104DE000117036E01E480068007800F07F0001284E
:104DF00001D11C48C8E71A480068007800F07F001D
:104E0000022824D1164A1268517901F00F0011F0DE
:104E1000800F0DD0144A52F8202002F03002102AE0
:104E200014D1104A127842F001020E4B1A700DE0B4
:104E30000D4A52F8202002F44052B2F5805F05D1AD
:104E4000084A127842F00102064B1A7001E0002075
:104E50009AE70649096808698047024894E7000014
:104E60000C01002006010020005C00401801002019
:104E700010B50E480068C0780D494978884213DCA7
:104E80000A480068807878B908480068808858B96E
:104E900006480068C07805490968887205490968AC
:104EA00048688047002010BD0220FCE70C0100206C
:104EB0001C0000201801002010B507480068407A47
:104EC00040F0200004490968487204490968C8692B
:104ED0008047002010BD00000C01002018010020B8
:104EE0002DE9F04128480068467926F080073C46C5
:104EF00025480068407910F0800F05D0234850F80D
:104F0000240000F0300504E0204850F8240000F4AC
:104F100040551F480078A04208D91B4800684088C7
:104F200020B91DB118480068807A10B90220BDE888
:104F3000F08116F0800F10D0144951F8241048F673
:104F4000BF7201EA020080F0100040F4004141F01D
:104F500080010E4A42F8241010E00C4951F8241048
:104F60004BF68F7201EA020080F4805040F4004159
:104F700041F08001054A42F8241000BF0549096844
:104F8000886980470020D2E70C010020005C0040C7
:104F90001C0000201801002010B5174B1B68D978A1
:104FA000154B1B685879154B1B689A699047044646
:104FB00011480068807AE8B13CB90F480068007970
:104FC00018B90D480068807808B1022010BD8CB96E
:104FD0000B490968C8688047074800684079064956
:104FE0000968C87204480068C078034909680873F2
:104FF0000020EBE70220E9E70C010020100100206F
:10500000180100207047042808D14FF0E0210969F9
:1050100041F004014FF0E022116107E04FF0E02180
:10502000096921F004014FF0E0221161704700008E
:1050300010B512480068401C10490860104800680C
:1050400014280EDD00BF0F48006800F4E0600E4930
:105050000843001D0B490860BFF3408F00BF00BF2D
:10506000FEE70A490868411C084A1160142804D95F
:10507000002011460860FEF713F810BD3C01002027
:10508000780100200CED00E00000FA05440100204A
:1050900010B51348006840F0010011490860084647
:1050A0004068104908400E494860084600680E49AB
:1050B00008400B4908600846006820F4802008601A
:1050C0000846406820F4FE0048604FF41F008860E6
:1050D000FFF7A2FC4FF000600449086010BD00001B
:1050E000001002400000FFF8FFFFF6FE08ED00E0B0
:1050F00010B50021124800F0C0F8FCF7A1FDFFF741
:1051000089F91048007808B1FEF760FE0E4908687A
:10511000411C0D4A1160142804D900201146086072
:10512000FDF7BEFF0121064800F0B3F818B10121D8
:10513000034800F09FF80121014800F09EF810BDDF
:1051400000040040480100204401002070B590B0E8
:105150000021424800F091F8002406E0002008A950
:1051600041F824004DF82400641C3D480088844226
:10517000F4DB0026002422E000251BE0394830F84B
:10518000160010F4004F13D108A850F82500354937
:1051900031F81610084408A941F825005DF82500EB
:1051A000401C4DF825004FF6FF702E4921F81600DF
:1051B000761C6D1C2A4800888542DFDB641C2A4867
:1051C00000888442D8DB00241CE008A850F82400A2
:1051D00025490988B0FBF1F0244941F824005DF825
:1051E000240050B108A850F824005DF82410B0FB4A
:1051F000F1F008A941F8240003E0002008A941F8D3
:105200002400641C164800888442DEDB002406E08B
:1052100008A850F82400154941F82400641C1048DF
:1052200000888442F4DB12490868411C104A11606E
:10523000142804D9002011460860FDF731FF012130
:10524000064800F026F818B10121044800F012F8D1
:105250000121024800F011F810B070BD00080040B4
:105260006C010020880200206E01002088060020CA
:1052700044010020CA430282704721B1028842F0F3
:105280000102028004E002884FF6FE731A40028099
:10529000704730B50246002000230024158A05EA35
:1052A0000103958905EA010413B10CB1012000E066
:1052B000002030BD1AB183890B43838102E08389CA
:1052C0008B43838170470000002202881D4B984267
:1052D0000ED01D4B98420BD0B0F1804F08D01B4B25
:1052E000984205D01A4B984202D01A4B984204D1EA
:1052F0004FF68F731A404B881A43174B984207D0CA
:10530000164B984204D04FF6FF431A40CB881A43FD
:1053100002808B8883850B8803850A4B98420BD0CB
:10532000094B984208D00E4B984205D00D4B98423D
:1053300002D00D4B984201D10B7A03860123838260
:1053400070470000002C0140003401400004004080
:1053500000080040000C0040001000400014004015
:105360000040014000440140004801404FF6FF71F9
:10537000818000210180C18041800172704700005E
:1053800010B540F22551084800F02BF850B10648FE
:1053900000F0E2F8C4B2601CC4B240F225510248E9
:1053A00000F004F810BD00000038014010B50022E4
:1053B0000023A1F510646A3C00D100BF0A12012449
:1053C0009440A3B2DC43048010BD21B1828942F431
:1053D0000052828104E082894DF6FF731A40828177
:1053E000704770B502460024002300250020A1F577
:1053F00010666A3E00D100BFC1F3421501F01F03E1
:10540000012606FA03F3012D02D19689334006E006
:10541000022D02D1168A334001E0968A33400C12E5
:10542000012606FA04F41688344013B10CB10120A9
:1054300000E0002070BDF0B50346002400260025E2
:105440000020A1F510676A3F00D100BF1846C1F3E4
:10545000421401F01F06012707FA06F5012C01D1BD
:105460000C3004E0022C01D1103000E014301AB1ED
:1054700007682F43076002E00768AF430760F0BD8D
:105480002DE9F04786B005460E460024A24600BF2F
:10549000A1460027B08900B100BF2F462C8A4CF6E8
:1054A000FF700440F08804432C82AC894EF6F31060
:1054B0000440B08831890843718908430443AC81B2
:1054C000AC8A4FF6FF400440B0890443AC8201A887
:1054D000FEF79AFE1F48874202D1DDF810A001E0D6
:1054E000DDF80CA0A88910F4004F08D00AEBCA0020
:1054F00000EB0A1031684900B0FBF1F807E00AEB55
:10550000CA0000EB0A1031688900B0FBF1F8642092
:10551000B8FBF0F004012009642101FB1089A8897F
:1055200010F4004F08D0322000EBC900B0FBF1F0BE
:1055300000F00700044308E0322000EB091064216A
:10554000B0FBF1F000F00F0004432C8106B0BDE881
:10555000F08700000038014001468888C0F3080049
:1055600070474FF41651016000218180C180018194
:105570000C21418100218181704710B54FF48020BA
:10558000FCF7D6FF10BD704710B508480849086001
:105590000220096808720748074908600748084957
:1055A0000860054909680868804710BDE8010020C7
:1055B0000C010020200000201001002050000020DD
:1055C0001801002008B54FF4A060FEF7D9FA1420A6
:1055D0008DF8000002208DF8010000208DF80200F7
:1055E00001208DF803006846FEF790FA2A208DF816
:1055F000000000208DF801006846FEF787FA08BD1C
:1056000010B588B0002466480068664908800846DE
:10561000008800F400706449098808420AD04FF6F7
:10562000FF505F49086061480078401C5F4908707E
:10563000FFF7E4F85B48008800F400405A49098805
:10564000084201D0FCF78CF95648008800F48060CD
:1056500055490988084206D04FF6FF305049086086
:105660005349486880474F48008800F400504E492D
:105670000988084203D04DF6FF704949086049483F
:10568000008800F4805048490988084206D04EF648
:10569000FF70434908600020FFF7AFF841480088D9
:1056A00000F400604049098808420CD04148007865
:1056B00010B1FFF7A7FC02E00220FFF79EF84FF2BF
:1056C000FF70374908603748008800F48070364919
:1056D0000988084261D04FF6FF6031490860081D13
:1056E000006810F4004F52D033480068401C324923
:1056F00008600846006803284CD92948001F006844
:1057000010F0080F46D12648001F006880B22B49D0
:105710000860002407E02248443850F8240080B292
:105720004DF82400641C082CF5D32448006840F090
:105730000100224908600846006880B21849091F24
:1057400008601E48006820F001001C4908600846F7
:10575000006880B21249091F086000BF1048006845
:1057600010F4806FFAD04FF6FF300D490860002426
:1057700007E05DF8240080B20949443941F824006B
:10578000641C082CF5D300200B49086002E00020BF
:10579000094908600720FFF730F808B010BD000085
:1057A000445C0040E800002016010020A400002016
:1057B0002000002004000020A8000020AC000020F1
:1057C00010B5FFF71DFF10BD0020064908604FF41B
:1057D0003F4005490880084600880249091F0860C3
:1057E00000207047445C0040160100202DE9F04184
:1057F00004460E46002504F07F00FCF74DFF0546E9
:1058000004F07F00FCF738FF07462A463946304649
:10581000FEF782FA2846BDE8F08100BFFEE70000EF
:10582000F0B5144604F1010C4FEA6C07DFF824C010
:105830000CEB41033D460AE00678401C90F800C09E
:1058400046EA0C2223F8022B9B1C401C6D1E002DE7
:10585000F2D1F0BD0060004070B504460025212C57
:1058600008D112480068007800F07F0021280ED18E
:105870000F4D0CE0202C0AD10C480068007800F095
:105880007F00212800D10B4D20200B4908700DB955
:10589000022070BD0548006885610021034800684A
:1058A00041820020A8470020F3E700000C010020FF
:1058B000E5580008755A00081000002010B504468D
:1058C00002492046FFF730FA10BD00007C0000209E
:1058D00010B5044602492046FFF726FA10BD000025
:1058E00074000020014629B90820034A126810827A
:1058F000002070470148FCE70C0100201400002044
:1059000070B5054606480068C478042C01DD002007
:1059100070BD044800EBC4012846FFF705FAF7E71D
:105920000C010020840000200246002901DD022035
:105930007047012A01DD0220FAE70020F8E70000A5
:10594000014608480068007800F07F00212807D150
:10595000022901D100207047222901D10020FAE755
:105960000220F8E70C01002010B500203449096836
:1059700088723448C0793249096848720020304939
:105980000968C872FEF754FF4FF400710020FFF75A
:1059900035F810210020FEF7FFFF40210020FEF720
:1059A00073FF80210020FEF7D9FF0020FCF738F9B3
:1059B000254890F82C100020FEF778FF0020FEF715
:1059C000B7FF00210120FFF719F8C0210120FEF7E1
:1059D000C5FF20210120FEF7DFFF00210120FEF797
:1059E0008BFF4FF4C0610220FFF708F84FF480717D
:1059F0000220FEF7B3FF00210220FEF77DFF2021E9
:105A00000220FEF7C9FF00210320FEF7F7FF4FF445
:105A100088710320FEF738FF40210320FEF746FF80
:105A20004FF440510320FEF767FF00210320FEF7EB
:105A3000B3FF0020FEF704FF01200449086010BDF9
:105A40000C0100204E720008200000200000002001
:105A50000348817A11B10521024A116070470000A4
:105A6000E801002000000020042001490860704780
:105A700000000020014629B90820034A126810825C
:105A8000002070470148FCE70C01002014000020B2
:105A900003480078202802D100200149087070478F
:105AA000100000207047000010B5FCF73FFE0020FA
:105AB000054909688872FEF769F9FFF785FE00203D
:105AC0000249086010BD00000C0100200000002009
:105AD000490050EAC12018BF04204A0D18BF40F009
