:020000040800F2
:1000000068070020C9010008D1010008D3010008D9
:10001000D5010008D7010008D90100080000000040
:10002000000000000000000000000000DB010008EC
:10003000DD01000800000000DF01000803060008E1
:10004000E3010008E3010008E3010008E301000800
:10005000E3010008E3010008E3010008E3010008F0
:10006000E3010008E3010008E3010008E3010008E0
:10007000E3010008E3010008E3010008E3010008D0
:10008000E3010008E3010008E3010008E3010008C0
:10009000E3010008E3010008E3010008E3010008B0
:1000A000E3010008E3010008E3010008E3010008A0
:1000B000E3010008E3010008E3010008E301000890
:1000C000E3010008E3010008E3010008E301000880
:1000D000E30100089B050008E3010008E3010008B4
:1000E000E3010008E3010008E301000800F002F862
:1000F00000F059F80AA090E8000C82448344AAF169
:100100000107DA4501D100F04EF8AFF2090EBAE866
:100110000F0013F0010F18BFFB1A43F0010318473B
:100120004C4900006C490000103A24BF78C878C1DF
:10013000FAD8520724BF30C830C144BF04680C60ED
:10014000704700000023002400250026103A28BF35
:1001500078C1FBD8520728BF30C148BF0B60704739
:10016000662904F0F583642902F09E86752902F061
:100170009B86782902F0D486632903F0C882002088
:1001800070471FB503F028F804000020002104F098
:100190003BF8401C60600020002104F04BF8E06058
:1001A0001FBD10B510BDDFF810D0FFF7EAFF02F059
:1001B0008FFB03F045FC00006807002003B4FFF745
:1001C000F0FF03BC03F044FC0648804706480047A4
:1001D000FEE7FEE7FEE7FEE7FEE7FEE7FEE7FEE7F7
:1001E000FEE7FEE7A5020008ED0000080CB50020C0
:1001F000019000903E48006840F480303C4908601F
:1002000000BF3B48006800F4003000900198401C9B
:100210000190009818B90198B0F5A06FF1D1344859
:10022000006810F4003F02D00120009001E000209F
:1002300000900098012830D12D4840682C49486032
:10024000084640684860084640684860084640687C
:1002500020F47C1048600846406840F498104860DC
:100260000846006840F08070086000BF20480068C1
:1002700010F0007FFAD01E48406820F003001C49AF
:1002800048600846406840F00200486000BF1848D7
:10029000406800F00C000828F9D10CBD10B5FFF73C
:1002A000A5FF10BD10B51248006840F001001049CC
:1002B0000860084640680F4908400D4948600846F4
:1002C00000680D4908400A4908600846006820F4A3
:1002D000802008600846406820F4FE0048604FF423
:1002E0001F0088600020C862FFF7D8FF10BD000023
:1002F000001002400000FFF8FFFFF6FE844800688F
:1003000040F0010082490860084640688149084081
:100310007F494860084600687F4908407C4908607A
:100320000846006820F4802008600846406820F4F1
:10033000FE0048604FF41F0088600020C8627047CC
:100340007349096821F48031714A116011460968C6
:1003500021F480211160B0F5803F03D0B0F5802FEB
:100360000ED106E06A49096841F48031684A11609B
:1003700007E06749096841F4A021654A116000E07F
:1003800000BF00BF704710B50146002200230020C7
:100390004A11012A02D15E4C236806E0022A02D1EA
:1003A0005B4C236A01E05A4C636A01F01F0201248E
:1003B00094401C4201D0012000E0002010BD5749AC
:1003C0000860704702460020514B586820F47410B2
:1003D00042EA010318434E4B586070474F49086684
:1003E0007047014600204A4A506820F00300084345
:1003F000506070474648406800F00C007047014666
:100400000020434A506820F0F000084350607047D5
:10041000014600203E4A506820F4E06008435060E6
:100420007047014600203A4A506820F4605040EA84
:10043000C1005060704770B50021002300240022E5
:100440000025334E766806F00C0121B1042905D051
:10045000082921D105E0324E066020E0304E0660CA
:100460001DE02B4E766806F47013294E766806F46C
:100470008034022606EB93431CB92A4E5E43066085
:1004800009E0234EF66A06F00F06751C244EB6FBF3
:10049000F5F65E43066002E0214E066000BF00BF35
:1004A0001B4E766806F0F00109091F4E725C066863
:1004B000D6404660164E766806F4E061090A1A4E88
:1004C000725C4668D6408660114E766806F46051CC
:1004D000C90A154E725C4668D640C6600C4E7668F6
:1004E00006F44041890B114E725CC668B6FBF2F609
:1004F000066170BD29B1064A92690243044B9A61B4
:1005000004E0034A92698243014B9A6170470000FC
:10051000001002400000FFF8FFFFF6FE000042421C
:1005200000127A0000093D000000002010000020A9
:10053000302141430022FE4B5A6000BFFC4A526802
:100540008A42FBD3704770B5064600BFF948008861
:1005500010F0400FFAD0304602F0DFFD05460024CF
:100560000AE000BFF348008810F0400FFAD0305D79
:10057000F049091D0880641CAC42F2DB70BD00200C
:1005800003E00021EC4A1154401C4028F9DB002113
:10059000EA4A1170EA4A1170704738B540F22551A5
:1005A000E44802F08EFB58B3E24802F085FBC4B287
:1005B0008DF8004000208DF801000D2C0AD1DE4995
:1005C000DF4A127888540120DC4908700020DC4999
:1005D000087010E0DA4800783F280CDAD84908782B
:1005E000411CD74A1170D4490C5400201278885409
:1005F0006846FFF7A8FF40F22551CE4802F08BFB7A
:1006000038BDD048006828B1CE480068401ECD49AA
:10061000086009E0CC48007818B11920C949086081
:1006200002E04B20C7490860C8480068401CC74921
:1006300008607047F0B587B0FFF760FE0020FFF755
:10064000BEFE4FF48030FFF77BFE4FF420110020F8
:10065000FFF7B8FE0220FFF7C4FE0020FFF7CFFE31
:100660004FF48060FFF7D4FE0020FFF7DAFE012090
:10067000FFF7B4FE00BF3920FFF785FE0028FAD04F
:1006800000BFFFF7B7FE0828FBD101210420FFF7C8
:1006900031FF01210820FFF72DFF01211020FFF776
:1006A00029FF01218803FFF725FF01210846FFF7F5
:1006B00021FFA748006840F08070A5490860A54860
:1006C000A54908609A48006840F001009849086010
:1006D0000020486000250026002425E09F4800EB0C
:1006E000441000689E4988421DD19C4800EB44108C
:1006F0000089012811D0994800EB44100089022894
:100700000BD0964800EB44100089032805D093488D
:1007100000EB44100089042805D1904800EB4410F8
:10072000C08805430126641C8E4800888442D5DBBE
:1007300066B1A8B2ADF8180010208DF81B00032098
:100740008DF81A0006A9864802F02AF9002500262D
:10075000002413E0814800EB44100068804988427F
:100760000BD17E4800EB44100089052805D17B4859
:1007700000EB4410C08805430126641C79480088BA
:100780008442E7DB66B1A8B2ADF8180004208DF80A
:100790001B0003208DF81A0006A9714802F000F929
:1007A00000250026002425E06C4800EB441000687A
:1007B0006D4988421DD1694800EB44100089012829
:1007C00011D0664800EB4410008902280BD0634822
:1007D00000EB44100089032805D0604800EB44106A
:1007E0000089042805D15D4800EB4410C08805430A
:1007F0000126641C5B4800888442D5DB66B1A8B240
:10080000ADF8180010208DF81B0003208DF81A0099
:1008100006A9554802F0C4F800250026002413E07C
:100820004E4800EB441000684F4988420BD14B48BA
:1008300000EB44100089052805D1484800EB44101E
:10084000C08805430126641C464800888442E7DBD3
:1008500066B1A8B2ADF8180004208DF81B00032083
:100860008DF81A0006A9404802F09AF8002440E0EA
:100870003A4800EB441000683949884206D03748AE
:1008800000EB441000683849884231D1334800EB0E
:100890004410008960B3314800EB441000890328FC
:1008A0000AD12E4A02EB4412D1882C4A02EB4412A0
:1008B000106802F011F91BE0284800EB4410008991
:1008C00001280BD0254800EB44100089022805D0F0
:1008D000224800EB44100089042809D11F4A02EB8A
:1008E0004412D1881D4A02EB4412106802F0F2F85B
:1008F000641C1C4800888442BADB01211B4802F0BA
:10090000EDF806A802F0D5F818208DF81B004FF47A
:100910000070ADF8180002208DF81A0006A91048E2
:1009200002F03EF804208DF81B00000220E00000D9
:10093000001000E00038014068000020270000207F
:10094000260000202C00002028000020300000207D
:10095000FCED00E055CEACC5B01F00E00801002062
:100960000008014048000020000C01400004300055
:10097000ADF8180002208DF81A0006A9F94802F017
:100980000FF802A802F05BF94FF4E130029000206A
:10099000ADF80C00ADF80E00ADF81000ADF8140085
:1009A0000C20ADF8120002A9EF4802F0DFF8012197
:1009B000ED4802F050F925208DF8040001208DF853
:1009C000070001A802F0B8F90121E74802F043F955
:1009D000252000F01F020121914042094FF0E02341
:1009E00003EB8202C2F8001100BF012240F2255140
:1009F000DD4802F03CF9DD49B1F1807F00D31FE012
:100A000021F07F40401E4FF0E022506150170F222E
:100A1000002809DA13074FEA136CD54B00F00F07D3
:100A20003F1F03F807C003E013071F0ED14B1F54ED
:100A300000BF00204FF0E02290610720106100BF4E
:100A40000020CD490860CD490870CD490870CD49D6
:100A50000870CD490860CD490860C7480068CC4996
:100A60000860C5480068CB49086007B0F0BD2DE9B3
:100A7000F04780460F469146C74802F04EFB0646B7
:100A8000002E73D000240CE0C34802F046FB06465B
:100A9000002404E0C049601C085C0855641CB44292
:100AA000F8DBBD4800782028EED0BB4802F035FBCB
:100AB000461E002E0BDD06E0002E04DB0020B649AA
:100AC000885506B1761EB448805D2028F4D0B2481F
:100AD00002F023FB064600252AE0AF48405D2028AF
:100AE00003DBAD48405D7E2805DDAB48405D10B1BD
:100AF0002420A9494855A848405D602804DDA6483F
:100B0000405D2038A449485508E02C4604E0A2493D
:100B1000601C085C0855641CB442F8DB9E48405DCC
:100B2000202804D19C49681C085C2028EDD06D1C4D
:100B3000B542D2DB002403E0002047F82400641C07
:100B40004C45F9DB002400250AE09348405D20284D
:100B500005D14C4503DA2046641C47F820506D1C33
:100B6000B542F2DB386870B1002405E010E08A4835
:100B7000005D08F80400641C3868A042F7DC00201F
:100B800008F8040007E08449404602F0A2FA02E0B7
:100B9000002088F80000BDE8F0872DE9F047044602
:100BA0000D4617469A4600202070002D3BDD554526
:100BB00039DC681E57F8200088B357F82500B0B11B
:100BC0004FF00008681E57F82000461C06E07248E7
:100BD000825D404608F101082254761C57F8250032
:100BE000401CB042F3DC002004F808001DE06A4815
:100BF00002F093FA81464FF00008681E57F8200073
:100C0000461C06E06448825D404608F10108225413
:100C1000761C4E45F6DB002004F8080005E0FFE7EF
:100C20000020207001E000202070BDE8F08730B582
:100C30005A4C5B4D6C605B4C6C6000BF584CE46878
:100C400014F0010FFAD1564C246944F00204544DBB
:100C50002C61554C6C612C46246944F040042C6195
:100C600000BF4F4CE46814F0010FFAD14C4C2469DA
:100C700024F002044A4D2C612C46246944F00104FE
:100C80002C614A4C206882B200BF454CE46814F0E5
:100C9000010FFAD1444C2280000C024600BF404CA8
:100CA000E46814F0010FFAD13F4CA41C2280404CA0
:100CB000206882B200BF3A4CE46814F0010FFAD108
:100CC000394C241D2280000C024600BF344CE468DD
:100CD00014F0010FFAD1344CA41D228000BF304C17
:100CE000E46814F0010FFAD1324C24882E4D0835F7
:100CF0002C8000BF2A4CE46814F0010FFAD12E4C6E
:100D00002488294D0A352C8000BF254CE46814F056
:100D1000010FFAD1294C2488234D0C352C8000BFBB
:100D20001F4CE46814F0010FFAD1254C24881E4DA5
:100D30000E352C8000BF1A4CE46814F0010FFAD174
:100D4000204C2488184D10352C80122100206EE094
:100D50001D4C04EB40142468024DAC4236D10123F3
:100D60003EE0000000080140003801400053070049
:100D700018ED00E000E400E0300000202700002033
:100D800028000020240000205C00002060000020DB
:100D9000580000205400002068000020230167450F
:100DA00000200240AB89EFCD00FC000818000020B5
:100DB0001C0000202000002022000020480000200D
:100DC0004A0000204C00002008010020ED4C04EBFC
:100DD00040142468EC4DAC4201D1022300E0002312
:100DE00000BFEA4CE46814F0010FFAD1E84C0B5351
:100DF0008C1CA1B2E34C04EB4014A38800BFE34C6D
:100E0000E46814F0010FFAD1E14C0B538C1CA1B231
:100E1000DC4C04EB4014238900BFDC4CE46814F084
:100E2000010FFAD1DA4C0B538C1CA1B2401C1028D4
:100E30008ED300BFD54CE46814F0010FFAD1D34C27
:100E4000246924F00104D14D2C612C46246944F01E
:100E500080042C6130BD10B5CD4B1B68CD4C236098
:100E6000CB4B1B1D1B68CC4C2360C94B08331B8824
:100E7000CA4C2380C64B0A331B88C94C2380C44B01
:100E80000C331B88C74C2380C14B0E331B88C64CC8
:100E90002380BF4B10331B88C44C2380C14B1B885D
:100EA000102B02DCBF4B1B8813B90123BD4C2380E0
:100EB00012210020BDE0B64BCA5A8B1C99B2012A00
:100EC00005D1BB4BAF4C04EB401423600CE0022A6D
:100ED00005D1AD4BAB4C04EB4014236004E0002380
:100EE000A84C04EB40142360A94BCA5A8B1C99B23E
:100EF000102A04DAA34B03EB40139A8008E0002386
:100F0000A04C04EB401423609E4C04EB4014A380DF
:100F10009F4BCA5A8B1C99B2052A04DC994B03EBF0
:100F200040131A8104E00023964C04EB4014238103
:100F3000944B03EB40139C88102C72D2DFE804F032
:100F4000080E141A20262C32383F464D545B626935
:100F500001238C4C04EB4014E38068E00223894CAD
:100F600004EB4014E38062E00423864C04EB40145D
:100F7000E3805CE00823834C04EB4014E38056E0FC
:100F80001023804C04EB4014E38050E020237D4C80
:100F900004EB4014E3804AE040237A4C04EB401415
:100FA000E38044E08023774C04EB4014E3803EE090
:100FB0004FF48073734C04EB4014E38037E04FF43C
:100FC0000073704C04EB4014E38030E04FF4806316
:100FD0006C4C04EB4014E38029E04FF40063694C4F
:100FE00004EB4014E38022E04FF48053654C04EBA3
:100FF0004014E3801BE04FF40053624C04EB4014B8
:10100000E38014E04FF480435E4C04EB4014E38033
:101010000DE04FF400435B4C04EB4014E38006E02A
:10102000FFE70023574C04EB4014E38000BF00BFF0
:10103000401C1028FFF43FAF5B4B1B88502B02DD98
:101040005023594C238042F21073524C2360594B69
:101050001B689B68504C236010BD2DE9F04F9BB07E
:1010600001205549087000201A9054A0FFF76BFA30
:1010700062A1654802F02DF8FFF781FA6248FFF798
:1010800062FA0620079000F004BF6048007800284C
:10109000F9D000205D49087000265D4802F03DF857
:1010A0000546002D00F0F28600208DF8280001A9E9
:1010B0000AA8079AFFF7DBFC56A10AA802F04CF831
:1010C00010BB55A1504802F004F84F48FFF73BFA17
:1010D00000203949087052A0FFF735FAFFF74FFAA0
:1010E0001A9870B100BF5048006800F4E0604F49A2
:1010F0000843001D4C490860BFF3408F00BF00BF8C
:10110000FEE71BB0BDE8F08F49A10AA802F024F861
:10111000002835D147A0FFF716FA47A0FFF713FACA
:101120004BA0FFF710FA52A0FFF70DFA41A0FFF70E
:101130000AFA102255490AA801F050FE0AA8FFF742
:1011400002FA53A0FFF7FFF95FA0FFF7FCF939A0FF
:10115000FFF7F9F96CA0FFF7F6F96DA0FFF7F3F9C7
:1011600074A0FFF7F0F97DA0FFF7EDF986A0FFF777
:10117000EAF990A0FFF7E7F998A0FFF7E4F941E159
:101180005AE1000008010020000C0140002002404C
:1011900000FC0008180000201C0000202000002097
:1011A00022000020480000204A0000204C000020BF
:1011B0000008014014000020280000200D0D0A0A3C
:1011C000286329204F70656E2D504C43202D2047F9
:1011D00050494F206D6F64756C652076312E352037
:1011E000286F70656E2D706C632E636F6D290D0A0C
:1011F0000A3F202D2068656C700D0A000D0A436FB0
:101200006E6669673E200000A800002027000020CD
:1012100068000020510000000D0A57313E200000F8
:101220000D0A0D0A000000000CED00E00000FA05B8
:101230003F0000000D0A00000D0A3F202020202062
:1012400020202D20546869732070616765000000BC
:101250000D0A71202020202020202D20457869743F
:101260002066726F6D20436F6E6669670000000034
:101270000D0A73682020202020202D2053686F77CE
:1012800020706172616D6574657273005449000865
:101290000D0A6C63203C6368616E6E656C3E203C99
:1012A000706F72743E203C4750494F783E205B4738
:1012B00050494F20547970655D202D20736574204E
:1012C0006368616E6E656C000D0A6C74203C636827
:1012D000616E6E656C3E203C4750494F20547970DA
:1012E000653E20202020202020202020202020209B
:1012F00020202D20736574206368616E6E656C20FC
:1013000074797065000000000D0A776865726500E9
:101310000D0A202020202020206368616E6E656CFD
:10132000202D204E6E206F66206368616E6E656CA6
:10133000000000000D0A20202020202020706F7265
:1013400074202020202D20706F727420412C422C9C
:1013500028302D64656C6574652900000D0A202015
:1013600020202020204750494F782020202D204E3B
:101370006E2070696E206F6620706F727473202803
:10138000302D3135290000000D0A2020202020209A
:10139000204750494F20547970653A20204E6E20E6
:1013A0003D2030202D204E6F7420636F6E6E65637C
:1013B000746564000D0A2020202020202020202099
:1013C0002020202020202020204E6E203D20312073
:1013D0002D20445331384232300000000D0A2020C5
:1013E00020202020202020202020202020202020FD
:1013F000204E6E203D2032202D2069427574746F7E
:101400006E000000CBA0FFF79EF8D9A0FFF79BF875
:10141000E5A0FFF798F8AFF2E410FFF794F8F0A01A
:10142000FFF791F8F7A0FFF78EF8AFF2F810FFF78B
:101430008AF80126FFF7A3F8002E75D1FE48008830
:1014400010B10120FC490880FCA10AA801F084FE2B
:101450000028F2D1FA480088072816D2DFE800F009
:101460000406080A0C0F1200F64D10E0F64D0EE0CF
:10147000F64D0CE0F64D0AE04CF2503507E044F62C
:10148000206504E042F2107501E0012500BF00BFB5
:10149000AFF27420FFF757F8EEA10AA801F09EFC06
:1014A0000AA8FFF750F8F1A10AA801F097FC0AA8D2
:1014B000FFF749F8F4480268F4A10AA801F08EFC8D
:1014C0000AA8FFF740F8F6480268F6A10AA801F05A
:1014D00085FC0AA8FFF737F8AFF2A820FFF733F82A
:1014E000F548B0F800B04FEAEB700BEB5070C2104B
:1014F000F2A10AA801F072FC0AA8FFF724F8CE486E
:101500000288F4A10AA801F069FC0AA8FFF71BF8F9
:10151000AFF2E020FFF717F8F3A0FFF714F8F7A0F9
:10152000FFF711F8002461E06EE0621CF8A10AA840
:1015300001F054FC0AA8FFF706F800200990F648CD
:1015400000EB44100068F549884205D1F4A0FEF78D
:10155000FAFF012009900FE0EF4800EB441000680B
:10156000F049884205D1F0A0FEF7EDFF0120099077
:1015700002E0EEA0FEF7E7FF099850B1E64800EB65
:1015800044108288EBA10AA801F028FC0AA8FEF703
:10159000DAFFE14800EB4410008906281CD2DFE89E
:1015A00000F003070B0F1317E4A0FEF7CCFF17E0C2
:1015B000E4A0FEF7C8FF13E0E6A0FEF7C4FF0FE0CB
:1015C000E8A0FEF7C0FF0BE0EFA0FEF7BCFF07E0CE
:1015D000F5A0FEF7B8FF03E0D8A0FEF7B4FF00BF08
:1015E00000BFAFF2B030FEF7AEFF641CF6480088D3
:1015F00084429ADBF448008818B9AFF2C830FEF78D
:10160000A2FF0126FEF7BBFF46BBF0A10AA801F02E
:10161000A3FD18BB01AA01210AA8079BFFF7BDFA89
:101620009DF82800A0B10AA801F046FD0446002C50
:101630000ADD652C08DAE6490C80FFF7F8FAFFF7B7
:101640000AFC01201A9006E0E2A0FEF77CFF02E00F
:10165000E9A0FEF778FF0126FEF791FF46BBEBA15C
:101660000AA801F079FD18BB01AA01210AA8079B6D
:10167000FFF793FA9DF82800A0B10AA801F01CFD1D
:101680000446002C0ADB072C08DA6D490C80FFF7B2
:10169000CEFAFFF7E0FB01201A9006E0DCA0FEF78F
:1016A00052FF02E0D4A0FEF74EFF0126FEF767FFCF
:1016B00046BBDCA10AA801F04FFD18BB01AA01211D
:1016C0000AA8079BFFF769FA9DF82800A0B10AA8AD
:1016D00001F0F2FC0546002D0ADD112D08DABA49A9
:1016E0000D80FFF7A4FAFFF7B6FB01201A9006E081
:1016F000CDA0FEF728FF02E0BFA0FEF724FF0126E1
:10170000FEF73DFF002E14D1CEA10AA801F024FD62
:101710000028F8D1002780468146824601AA01218F
:101720000AA8079BFFF739FA9DF8280000B18BE162
:1017300095E19CE20D0A202020202020202020205E
:101740002020202020202020204E6E203D203320ED
:101750002D206269646972656374696F6E616C20C3
:101760004750494F2070756C6C646F776E000000B5
:101770000D0A202020202020202020202020202092
:1017800020202020204E6E203D2034202D20626914
:10179000646972656374696F6E616C204750494F6C
:1017A0002070756C6C7570000D0A202020202020A0
:1017B000202020202020202020202020204E6E20AD
:1017C0003D2035202D204750494F5F4D6F646520E7
:1017D000496E70757420466C6F6174696E670000A5
:1017E0000D0A73642020203C4E6E3E20202D205395
:1017F000686F7720446174612C204E6E3D302F312C
:10180000000000000D0A746D2020203C4E6E3E202A
:10181000202D205365742074696D656F7574206682
:101820006F722069427574746F6E2C204E6E3D305D
:101830002E2E3130000000004C00002053480000E4
:101840002200002020A1070090D0030048E80100FA
:10185000A08601004E616D652020202020202020E0
:101860002056616C75650D0A000000002D2D2D2D90
:101870002D2D2D2D2D2D2D20202D2D2D2D2D2D2DB2
:101880002D2D2D0D0A0000001800002044657669FA
:1018900063652054797065202025750D0A000000CD
:1018A0001C000020532F4E2020202020202020200C
:1018B0002025750D0A0000004A00002042544E20E9
:1018C00074696D656F757420202564207365630DE0
:1018D0000A00000053686F77204461746120202063
:1018E0002025640D0A000000636820706F72742068
:1018F0004750494F20547970650D0A002D2D202D39
:101900002D2D2D202D2D2D2D2D2D2D2D2D0D0A0084
:101910002532752000000000080100200008014069
:1019200050410000000C0140504200002D2D2D2D93
:1019300000000000252D327500000000202D2D2D07
:101940002D00000020283129204453313842323004
:1019500000000000202832292069427574746F6EDF
:1019600000000000202833292062696469726563E1
:1019700074696F6E616C204750494F2070756C6CB4
:10198000646F776E000000002028342920626964AB
:101990006972656374696F6E616C204750494F20AE
:1019A00070756C6C757000002028352920475049EF
:1019B0004F5F4D6F646520496E70757420466C6F83
:1019C0006174696E6700000048000020434E00000B
:1019D000200000200D0A4572726F722043414E2094
:1019E0006E756D6265722E20456E61626C65203188
:1019F0002E2E3130300D0A000D0A436F6D6D616E71
:101A000064206572726F720D0A000000435300007B
:101A10000D0A4572726F722043414E2073706565E6
:101A2000640D0A004C4E00000D0A57726F6E67205D
:101A30006E756D6265722C2063616E63656C2E0D30
:101A40000A0000004C4300000AA801F035FBB0F189
:101A5000000B01DB584601E0CBF1000087B201AA80
:101A600002210AA8079BFFF798F89DF8280038B3D1
:101A70009DF82900202802D100208DF829000AA80D
:101A800001F04BFB01281FD19DF82800302802D11E
:101A90004FF000081AE09DF82800612803D09DF857
:101AA0002800412802D14FF001080FE09DF82800DE
:101AB000622803D09DF82800422802D14FF0020886
:101AC00004E04FF0FF0801E04FF0FF0801AA0321F6
:101AD0000AA8079BFFF761F89DF8280058B10AA8EB
:101AE00001F0EAFAB0F1000B01DB584601E0CBF15E
:101AF00000001FFA80F901AA04210AA8079BFFF73A
:101B00004CF89DF8280058B10AA801F0D5FAB0F1B8
:101B1000000B01DB584601E0CBF100001FFA80FA10
:101B200001251FB1FA480088874203DDF9A0FEF7BE
:101B30000AFD002535B1B8F1020F03DDFBA0FEF769
:101B400002FD002535B1B9F10F0F03DDFCA0FEF752
:101B5000FAFC002565B1B8F1010F09D1B9F10D0FFB
:101B600002D0B9F10E0F03D1F5A0FEF7ECFC002571
:101B70004DB1B8F1020F06D1B9F1020F03D1F0A0B7
:101B8000FEF7E1FC002535B1BAF1050F03DDF1A048
:101B9000FEF7D9FC00257DB301200890B8F1010FB4
:101BA00003D1F148F149086009E0B8F1020F03D10F
:101BB000EF48EE49086002E00020EC490860EB487D
:101BC000A0F80490A0F808A0002417E0E7480068F7
:101BD00098B1E6480068E74901EB4411096888427A
:101BE0000BD1E2488088E34901EB4411898888429F
:101BF00003D10020089005E036E0641CC44800884A
:101C00008442E3DB00BF089858B3B8F1010F06D156
:101C1000D549781ED74A02EB401001600FE0B8F1B9
:101C2000020F06D1D249781ED24A02EB4010016061
:101C300005E00021781ECF4A02EB40100160781EBB
:101C4000CC4901EB4010A0F80490781E01EB401045
:101C5000A0F808A0FEF7EBFFFFF7FDF801201A90AF
:101C600002E0C5A0FEF76FFC0126FEF788FCEEBB84
:101C7000C8A10AA801F070FAC0BB0027B84601AAA3
:101C800001210AA8079BFEF788FF9DF8280050B1A4
:101C90000AA801F011FAB0F1000B01DB584601E08F
:101CA000CBF1000087B201AA02210AA8079BFEF728
:101CB00074FF9DF8280058B10AA801F0FDF9B0F1B1
:101CC000000B01DB584601E0CBF100001FFA80F861
:101CD00001251FB18E480088874203DD8DA0FEF7E5
:101CE00032FC002545B1B8F1050F00E014E003DD3A
:101CF00098A0FEF728FC00255DB1781E9D4901EBF8
:101D00004010A0F80880FEF792FFFFF7A4F801202A
:101D10001A900126FEF733FC3EBB9FA10AA801F0F2
:101D20001BFA10BB01AA01210AA8079BFEF735FF89
:101D30009DF8280090B10AA801F0BEF90446002CD5
:101D400008DD97480460FEF772FFFFF784F8012072
:101D50001A9007E093A0FEF7F6FB03E0AFF26830BD
:101D6000FEF7F1FB0126FEF70AFC3EBB92A10AA892
:101D700001F0F2F910BB01AA01210AA8079BFEF7A6
:101D80000CFF9DF8280090B10AA801F095F90446CF
:101D9000002C08DD8A480460FEF749FFFFF75BF876
:101DA00001201A9007E07FA0FEF7CDFB03E0AFF221
:101DB000B830FEF7C8FB0126FEF7E1FB6EBB81A140
:101DC0000AA801F0C9F940BB01AA01210AA8079B92
:101DD000FEF7E3FE9DF82800C0B10AA801F06CF9F7
:101DE0000446002C0EDB0B2C0CDA4FF6FF7000EAD9
:101DF000C40075490880FEF71AFFFFF72CF8012090
:101E00001A9007E071A0FEF79EFB03E0AFF21840C6
:101E1000FEF799FB0126FEF7B2FB46BB70A10AA8AC
:101E200001F09AF918BB01AA01210AA8079BFEF745
:101E3000B4FE9DF8280098B10AA801F03DF90446C7
:101E40000CB1012C08D167490C80FEF7F0FEFFF7BA
:101E500002F801201A9007E063A0FEF774FB03E08C
:101E6000AFF26C40FEF76FFB0126FEF788FB4EB920
:101E700062A0FEF768FB66A0FEF765FB6948FEF707
:101E800062FB06E06748FEF75EFB02E06548FEF78E
:101E90005AFB6548007800287FF4F7A8FEF76FFB2F
:101EA00000BFFFF72EB92DE9F04160480078002807
:101EB0002CD001275E4801F030F90646002E26D0CE
:101EC000002518E05A48405D302803DB5848405D43
:101ED000392800DD002700F069FF00685449495D9A
:101EE000405C10F0080F05D05149485D00F066FFD6
:101EF0004F4948556D1CB542E4DB4EA14C4801F0FA
:101F00002BF910B9FFF7A9F8F8E095E0FEE0F8E04A
:101F1000480000200D0A57726F6E67204E6E2063D6
:101F200068616E6E656C0D0A000000000D0A577244
:101F30006F6E6720706F7274206E616D650D0A00A0
:101F40000D0A57726F6E67204E6E2070696E0D0A13
:101F5000000000000D0A57726F6E67204750494F0E
:101F600020547970650D0A0000080140E800002047
:101F7000000C0140080100200D0A506F72742061AE
:101F80006C726561647920696E207573652E0D0A27
:101F9000000000004C5400005752534E0000000057
:101FA0001C0000200D0A4572726F72206E756D6202
:101FB00065720D0A000000005752445400000000F2
:101FC00018000020544D00004A0000200D0A457200
:101FD000726F7220544D206E756D6265720D0A002D
:101FE000534400004C0000200D0A4572726F7220AD
:101FF00053442076616C75650D0A00000D0A556E1C
:102000006B6E6F776E20636F6D6D616E64000000A4
:102010000D0A3F202D20666F722068656C700D0AD6
:1020200000000000A8000020280000202700002059
:102030006800002043464700002F48D0F34801F0D5
:102040003BF80446002C3ED0102C3CDC641EF048CB
:1020500000EB4410006888B3ED4800EB44100089A1
:10206000032805D0EA4800EB44100089042821D158
:10207000E74A02EB4412D188E54A02EB44121068A9
:1020800000F01FFD064656B1E14A02EB4412D1882A
:10209000DF4A02EB4412106800F01EFD2EE0DC4A1D
:1020A00002EB4412D188DA4A02EB4412106800F0C5
:1020B00011FD23E0D7A0FEF746FA1FE0FFE7DDA001
:1020C000FEF741FA1AE0E2A0FEF73DFA16E0CF482B
:1020D00001F023F800280ED0E4A0FEF734FAE8A0BF
:1020E000FEF731FAE8A0FEF72EFAEEA0FEF72BFA83
:1020F000F0A0FEF728FAFE48FEF725FAFEF73FFAB1
:1021000004E0FB48FEF71FFAFEF739FABDE8F0815C
:1021100008220DE080EA010313F0010F03D08C23A5
:1021200083EA600300E0431018464910531EDAB2F8
:10213000002AEFD170472DE9F04104460E460025F4
:102140003EE015B146FA05F700E0374607F0010713
:10215000D7B1AF4A02EB4412D188AD4A02EB441228
:10216000106800F0B9FC0F20FEF7E2F9A84A02EB74
:102170004412D188A64A02EB4412106800F0AAFC6F
:102180003C20FEF7D5F919E0A14A02EB4412D188B0
:102190009F4A02EB4412106800F09EFC3C20FEF7C0
:1021A000C7F99B4A02EB4412D188994A02EB4412C8
:1021B000106800F08FFC0F20FEF7BAF9681CC5B25A
:1021C000082DBEDBBDE8F0812DE9F04F8BB0044651
:1021D000002740E000200A90824634E08C4A02EB5F
:1021E0004412D1888A4A02EB4412106800F074FC51
:1021F0000520FEF79DF9864A02EB4412D188844AF5
:1022000002EB4412106800F065FC0A20FEF790F91A
:102210007F4A02EB4412D1887D4A02EB44121068D7
:1022200000F04FFC8146B9F1000F05D009FA0AF021
:102230000A990843C0B20A903C20FEF779F90AF1E6
:10224000010000F0FF0ABAF1080FC7DB07A90A98DE
:10225000C855781CC7B2092FBCDB4FF0000B002714
:1022600007E007A8C15D5846FFF752FF8346781C78
:10227000C7B2082FF5DB664800EB4410008901283F
:102280004CD19DF8240058452FD19DF81D804FEA70
:1022900008200FFA80F89DF81C0040EA0808404624
:1022A00002F068F90022934BCDE9000102F00AF830
:1022B0000022914BCDE9020102F0BAF9CDE9040107
:1022C00001F0CEFF0690069802F0DCFA0FFA80F8D3
:1022D0004FEAE8704E4901EB4411C1E90480002047
:1022E0004B4901EB4411088354E0494800EB44108A
:1022F000008B052809DA464800EB4410008B401C8F
:10230000434901EB4411088344E04FF47C41002031
:102310003F4A02EB4412C2E904103BE03C4800EBA8
:1023200044100089022835D100252E46002708E0F8
:10233000300240EA15662D0207A8C05D0543781CEF
:10234000C7B2082FF4DB4FF0FF3185EA010071407E
:1023500008431AD12E4800EB4410408B48B12C485A
:1023600000EB4410408B401E294901EB4411488387
:1023700010E0274800EB4410C0E904565F4800888D
:10238000234901EB4411488304E0214800EB441049
:10239000C0E904560BB0BDE8F08F10B5584800688E
:1023A000002832D10024B8E0194800EB441000891D
:1023B000012829D1164800EB4410006820B3144AC4
:1023C00002EB4412D188124A02EB4412106800F06A
:1023D00083FB4FF4FA70FEF7ABF80D4A02EB4412A0
:1023E000D1880B4A02EB4412106800F073FB4FF4E3
:1023F000FA70FEF79DF8A0B2CC21FFF79CFE1E20DC
:10240000FEF796F8A0B27DE07FE08CE06800002047
:10241000080100200D0A4368616E6E656C206D61D5
:1024200079206265204750494F206F6E6C792E0DE0
:102430000A0000000D0A4368616E6E656C206E6FC5
:102440007420646566696E65642E0D0A00000000E4
:102450000D0A57726F6E67204E6E206F662063689C
:10246000616E6E656C2E0D0A000000000D0A556E3F
:102470006B6E6F776E20636F6D6D616E640D0A0019
:102480007072696E740D0A00202020202020203CEC
:102490006366673E20666F7220436F6E6669670DE4
:1024A0000A000000202020202020203C6E6E3E0DDF
:1024B0000A00000020202020202020202020202092
:1024C000206E6E203D204E6E206F66206368616E28
:1024D0006E656C204750494F20666F72207265769A
:1024E000657273652073746174650D0A00000000E5
:1024F000A800002000003040000024404A000020D6
:102500005C0000204421FFF716FE0120FE49086010
:10251000FE480068FE490860641CFE48008884424A
:10252000FFF642AF70E0F848006801280ED1F74886
:102530000068F7490968401A642865D30220F24907
:102540000860F2480068F24908605DE0EE48006803
:10255000022846D100243FE0EF4800EB44100089F8
:10256000012831D1EC4800EB4410006860B3EA4A1E
:1025700002EB4412D188E84A02EB4412106800F0E2
:10258000ABFA4FF4FA70FDF7D3FFE34A02EB4412C3
:10259000D188E14A02EB4412106800F09BFA4FF434
:1025A000FA70FDF7C5FFA0B2CC21FFF7C4FD1E20D5
:1025B000FDF7BEFFA0B2BE21FFF7BDFD1E20FDF757
:1025C000B7FFA0B2FFF700FE0320CF490860CF4855
:1025D0000068CF490860641CCE4800888442BBDB99
:1025E00012E0C948006803280ED1C8480068C849ED
:1025F0000968401AB0F5967F06D30020C2490860EA
:10260000C2480068C2490860C448006818BB00247A
:1026100015E0C14800EB4410008902280ED1BE48E5
:1026200000EB4410006848B1BB4A02EB4412D18869
:10263000B94A02EB4412106800F04EFA641CB54827
:1026400000888442E5DB0120B4490860AF48006897
:10265000B349086049E0B1480068012845D1AB485A
:102660000068AF490968401A19283ED3002415E0D4
:10267000A94800EB4410008902280ED1A64800EBBF
:102680004410006848B1A44A02EB4412D188A24A1F
:1026900002EB4412106800F01DFA641C9D4800888B
:1026A0008442E5DB4FF4FA70FDF742FF002415E0A9
:1026B000994800EB4410008902280ED1964800EB9F
:1026C0004410006848B1A0B23321FFF734FD1E204A
:1026D000FDF72EFFA0B2FFF777FD641C8D48008840
:1026E0008442E5DB00208D490860002427E08A4809
:1026F00000EB4410006808B3874800EB44100089E1
:1027000003280BD0844800EB44100089042805D02E
:10271000814800EB4410008905280FD17E4A02EB66
:102720004412D1887C4A02EB4412106800F0C9F9C7
:102730000021794A02EB4412C2E90401641C754885
:1027400000888442D3DB10BD2DE9F04FA3B00125F2
:1027500000240BE0704800EB4410008928B16E485B
:1027600000EB4410006800B10025641C6948008833
:102770008442EFDB15B123B0BDE8F08F63480068F9
:1027800068490968401A32287ED9674800780028CD
:102790007AD100248DE0604800EB441000890028C5
:1027A00073D05D4800EB441000680028F8D05A4808
:1027B00000EB441000685D49884202D1412022901C
:1027C0000BE0554800EB441000685949884202D19B
:1027D0004220229001E02D2022904F4800EB44102F
:1027E00000F110094C4800EB441080880090621CF6
:1027F00050A102A8229B00F0F1FA02A8FDF7A3FE67
:10280000002509E019F805204FA102A800F0E6FA1A
:1028100002A8FDF798FE6D1C082DF3DB3E4800EB87
:102820004410008901281ED13B4800EB4410D0E938
:102830000421104601F0B6FE07460022444B01F089
:1028400041FD824601F00CFD0646304601F0EEFFE8
:1028500007463A460B463FA102A800F0BFFA02A87D
:10286000FDF771FE20E02C4800EB4410008903289E
:102870000ED0294800EB44100089042808D02648CF
:1028800000EB4410008901E020E011E005280BD1A5
:10289000214800EB4410008A82B231A102A800F066
:1028A0009DFA02A8FDF74FFEAFF6B400FDF74BFE10
:1028B000641C184800888442FFF66DAFAFF6C8006C
:1028C000FDF741FE114800681649086000BF52E755
:1028D000FDF7E8FCFEF7BFFAFDF7ACFE22492348FE
:1028E00000F0F7FB40F22551214800F014FA21A036
:1028F000FDF729FE0548006805490860034800689F
:1029000007490860014839E05C00002030000020E1
:102910005000002048000020080100206000002036
:1029200054000020580000206800002000080140EA
:10293000000C01406368252D326420282563252D75
:10294000326429203D00000020253032580000006C
:1029500000002440202F202530332E316600000057
:10296000202F20256400000018120008A800002075
:10297000003801402B2B2B0D0A000000006806498F
:10298000086008E0FFF709FD0448008808B1FFF778
:10299000DBFEFFF788FAF5E7580000204C00002026
:1029A0002DE9F041024600250026002000230024E6
:1029B000002791F803C00CF00F0591F803C01CF03C
:1029C000100F03D091F802C04CEA050591F800C041
:1029D000BCF1000F31D0146800202BE04FF0010C47
:1029E0000CFA00F3B1F800C00CEA03069E4220D1B5
:1029F00083004FF00F0C0CFA03F7BC4305FA03FCFD
:102A00004CEA040491F803C0BCF1280F06D14FF042
:102A1000010C0CFA00FCC2F814C00AE091F803C0E3
:102A2000BCF1480F05D14FF0010C0CFA00FCC2F8C4
:102A300010C0401C0828D1D31460B1F800C0BCF10C
:102A4000FF0F34DD546800202EE000F1080C4FF039
:102A5000010808FA0CF3B1F800C00CEA03069E4224
:102A600021D183004FF00F0C0CFA03F7BC4305FA99
:102A700003FC4CEA040491F803C0BCF1280F05D113
:102A800000F1080C08FA0CF8C2F8148091F803C0A1
:102A9000BCF1480F07D100F1080C4FF0010808FA0B
:102AA0000CF8C2F81080401C0828CED35460BDE852
:102AB000F0814FF6FF710180022181700421C17005
:102AC00070470246002093680B4201D0012000E0CD
:102AD000002070470161704741617047F0B50A46B8
:102AE000002300240021002500F00046B6F1004F2D
:102AF00002D11D4EF16901E01B4E7168C0F3034520
:102B000083B200F44016B6F5401F08D121F0706181
:102B1000154E766826F07066134F7E6012E000F462
:102B20008016B6F5801F06D1032606FA05F4A143E8
:102B300041F0706106E0460D360103FA06F6B14336
:102B400041F0706122B1460D360103FA06F63143B9
:102B500000F00046B6F1004F02D1034EF16101E0F2
:102B6000014E7160F0BD0000000001402DE9F0470A
:102B700086B005460E460024A24600BFA1460027A7
:102B8000B08900B100BF2F462C8A4CF6FF7004407C
:102B9000F08804432C82AC894EF6F3100440B088D0
:102BA00031890843718908430443AC81AC8A4FF6EC
:102BB000FF400440B0890443AC8201A8FDF73BFC10
:102BC0005C48874202D1DDF810A001E0DDF80CA0DE
:102BD000A88910F4004F08D00AEBCA0000EB0A10D5
:102BE00031684900B0FBF1F807E00AEBCA0000EBDE
:102BF0000A1031688900B0FBF1F86420B8FBF0F0EE
:102C000004012009642101FB1089A88910F4004FF8
:102C100008D0322000EBC900B0FBF1F000F0070053
:102C2000044308E0322000EB09106421B0FBF1F00E
:102C300000F00F0004432C8106B0BDE8F0874FF48C
:102C40001651016000218180C18001810C214181E8
:102C500000218181704721B1828942F40052828132
:102C600004E082894DF6FF731A4082817047F0B507
:102C700003460024002600250020A1F510676A3FC6
:102C800000D100BF1846C1F3421401F01F0601270E
:102C900007FA06F5012C01D10C3004E0022C01D119
:102CA000103000E014301AB107682F43076002E0CB
:102CB0000768AF430760F0BD01468888C0F308008D
:102CC000704770B502460024002300250020A1F5BE
:102CD00010666A3E00D100BFC1F3421501F01F0328
:102CE000012606FA03F3012D02D19689334006E04E
:102CF000022D02D1168A334001E0968A33400C122D
:102D0000012606FA04F41688344013B10CB10120F0
:102D100000E0002070BD10B500220023A1F5106472
:102D20006A3C00D100BF0A1201249440A3B2DC43E4
:102D3000048010BD0038014070B5002100230F222F
:102D4000C4780CB3164C246804F4E064C4F5E06461
:102D5000210AC1F10403CA40447804FA03F18478DB
:102D60001440214309010F4C0678A155047804F062
:102D70001F050124AC4005786D114FF0E02606EBED
:102D80008505C5F8004109E0047804F01F05012419
:102D9000AC40054D0678761145F8264070BD000020
:102DA0000CED00E000E400E080E100E010B500F090
:102DB00013FA001D10BD00BF5114000010B50446E9
:102DC000FFF7F4FF0068005D000704D5DF2C02D098
:102DD000A4F1200010BD204610BD00000FB41CB5AA
:102DE000074B06AA7B4469460090059800F06DFCED
:102DF0000020694600F07CFC1CBC5DF814FB000060
:102E00000909000070B5044685690068C10601D54E
:102E1000302600E02026C00708D070BDD4E901218B
:102E200030469047206A00F1010020626D1EF5D502
:102E300070BD70B5044685690078C00708D170BDC3
:102E4000D4E9012120209047206A00F1010020628E
:102E50006D1EF5D570BD70B50C460546012A05D02E
:102E60002878800600D5EA69002302E0012305E006
:102E70005B1C934202D2E05C0028F9D1A869E618F5
:102E8000C01AA861286A184428622846FFF7BAFFCA
:102E900004E0D5E9012114F8010B9047B442F8D3BE
:102EA0002846FFF7C6FF70BD2DE9F0410646002415
:102EB00010687529314616A511D0AFF3008000289F
:102EC00003DAC0F1000013A507E031688A0701D5D5
:102ED00011A502E0490704D510A5012401E0AFF3D4
:102EE000008000210A2306F1240707E0B0FBF3F27B
:102EF00003FB1200303078541046491C0028F5D1ED
:102F000023462A463046BDE8F04100F06DB9000086
:102F1000000000002D0000002B0000002000000039
:102F200070B504460D4621461068AFF30080218835
:102F3000090502D5104A7A4402E00F4A7A440E325B
:102F4000002104F1240307E000F00F064FEA1010FF
:102F5000965D5E5401F101010028F5D10346207809
:102F6000000704D5702D02D009B11132022320468A
:102F7000BDE8704000F038B9641A00002DE9F05F38
:102F8000894604464FF0000ADFF828B1FB44C0F838
:102F900020A02046E168884700287CD0252806D05C
:102FA000D4E901219047206A401C2062F1E7002506
:102FB0005F462046E16888472028064608DB312E18
:102FC00006D207EB060010F8200C08B10543F0E725
:102FD000A80701D525F00405C4F81CA00027C4F8F3
:102FE00018A02A2E09D0304601F007F938B304EBB7
:102FF0008708303EC8F8186019E059F8041B2046CD
:1030000004EB87029161E1688847012F064618D1D9
:10301000E069002820DA25F020051DE0D8F8180026
:1030200000EB800006EB40003038C8F8180020465E
:10303000E1688847064601F0E0F80028EED1012F4C
:103040000AD02E2E08D12046E16888477F1C06460C
:10305000022F45F02005C4DBA069002803DA4042B6
:1030600045F00105A061E80701D025F0100596B1F3
:10307000A6F14100192802D8203645F400654A46D9
:103080003146204625604D46FDF76AF860B10128BB
:1030900007D0ED1D00E009E025F0070000F1080968
:1030A00077E705F1040974E7304679E7206ABDE85F
:1030B000F09F0000361A000070B5064600F090F848
:1030C0000468054630460A22002100F02CFB2C60E3
:1030D00070BD40EA0103024630B59B0710D14FF0A6
:1030E000013400E008C208C91D1B9D4315EAC41F36
:1030F000F8D013F0FF0102F8011B0DD01B0AF8E70E
:1031000011F8013B002B02F8013B05D011F8013BFF
:10311000002B02F8013BF3D130BD10B5431C02E097
:1031200010F8011B71B18107FAD14FF0013202C8CA
:103130008C1A8C4314EAC211F9D0C01A0A0603D0C3
:10314000C01E10BDC01A10BD0A0401D0801E10BDE3
:103150000902FCD0401E10BD4FF0013C50F8042B7A
:1031600051F8043B9A4221D1A2EB0C03934313EA9A
:10317000CC1317D150F8042B51F8043B9A4215D1C7
:10318000A2EB0C03934313EACC130BD150F8042B9E
:1031900051F8043B9A4209D1A2EB0C03934313EA82
:1031A000CC13DBD04FF00000704700BFD01A01BA3B
:1031B000B1FA81F101F0180122FA01F0CB40C1F11E
:1031C0002001DBB2C0B2C01A2CFA01F3D11A91432C
:1031D00011EAC311E6D17047004870472803002068
:1031E00000487047080300202DE9F0470D46994636
:1031F0009246044600F124080168880604D5E06977
:1032000021F01001216000E00120A84202DDA0EBC6
:10321000050700E00027A16907EB050202EB0900A2
:10322000A1EB0000A0612078C00602D42046FFF781
:10323000E9FD002608E0D4E901211AF806009047CC
:10324000206A401C761C20624E45F4DB2078C006C4
:103250000AD52046FFF7D6FD06E0D4E9012130204B
:103260009047206A401C2062381EA7F10107F4DC59
:1032700007E0D4E9012118F805009047206A401CB6
:103280002062281EA5F10105F3DC2046FFF7D1FDE1
:103290002078000602D50220BDE8F0870120FBE778
:1032A00070472DE9FF4F0C461E464FF0FF378BB09D
:1032B000D2E90001DDF860800A908A46C1F30A5520
:1032C00005B93D46002108464FF00000BAF1000F55
:1032D00000F4400005DA00EB80004FF4400101EA01
:1032E00050004FEA9059B9F1010F00DDB9460A9834
:1032F00050EA4A000ED044F61050A5F2FF3545437F
:103300002F14B8F1000F1ED07542291E1EDDC9F121
:1033100000021CE0B8F1010F4FF0000001D0302195
:1033200003E0F24305E02154401CB042FBDB304691
:103330000022002121540B99C1F80880C1E9002026
:103340000FB0BDE8F08FBD1B6D1CDEE74A4600DA0A
:10335000694206A800F0F4FA06AB07CB03AB07C33B
:1033600050460A9900F07AFB8DE80700A0F500505E
:103370001F3800900398002D09DD42F21F014A46D4
:10338000084403A90390684600F0D9FD08E0A0F5C1
:1033900000504A461F3803A90390684600F0E3FD39
:1033A0008DE807000004000C03D04FF0FF30410807
:1033B00000E01046B8F1000F03D00022009215463D
:1033C0001FE0751E06D400F0E6F902F130026255E6
:1033D0006D1EF8D5B3460122084302D000227F1C9F
:1033E00004E02078302801D100227F1E002A0997AE
:1033F00087D01DE0112D07DA00F0CDF9303262558B
:103400006D1C50EA0102F5D108430FD10021681E5E
:1034100005E0235C625C6354491C2254401E8142D7
:10342000F7DBAB46A81B401E099001E0009848B1AD
:10343000002004F80B000B98099AC0F80880C0E936
:10344000002B7DE711264FF000085AE72DE9F04FD9
:1034500088460446D21D22F0070191B0D1E900014F
:10346000CDE90A0100F0B5FE02460B98C00F01D06D
:103470002D2007E02068810701D52B2002E02021C4
:1034800001EAC000032A099001D0072A05DB0346A0
:103490004146204600F0C4F90FE12078800601D5AE
:1034A000E06900E00620B8F1650F814606D0B8F16A
:1034B000660F18D0B8F1670F72D132E00020B9F171
:1034C000110F009001DB112301E009F101030AAAA9
:1034D00001A90CA8FFF7E5FEDDE90C70002609F153
:1034E0000105834648E001204B4600904FF000471D
:1034F0000AAA01A90CA8FFF7D4FEDDE90DB00C99CA
:103500005D46002618B909F1010001EB0005B9EB91
:10351000050003D4C0F1FF3609F10105A5EB090050
:103520002BE0B9F1010F01DA4FF001090020B9F1E8
:10353000110F0090484601DD112300E003460AAA5E
:1035400001A90CA8FFF7ADFEDDE90C704D46002681
:103550008346207800070AD4AB4500DA5D4601A80F
:10356000012D04DD411911F8011C302907D04F4508
:1035700002DA17F1040F04DA0120824610E06D1E12
:10358000EEE7002F02DCED1B3E4403E0781CA8426E
:1035900000DD0546A7EB060000F1010A4FF00047E9
:1035A0002078000703D4AA4501DB4FF0FF3A002141
:1035B000B7F1004F0DF143088DF8431023D00220DE
:1035C0002B23002F01DA7F422D234FF00A0C011E1E
:1035D000A0F1010000DC4FB197FBFCF10CFB117274
:1035E0000F4602F1300208F8012DF0E7A8F10100C2
:1035F00003702188090501D5452100E06521A0F16E
:10360000010800F8011C09980FA9A1EB080707F1B0
:10361000070700B1012000EB050101EBEA70A16989
:103620003844A1EB0000A0F10100A0612078C006A1
:1036300002D42046FFF7E6FB099830B1D4E9012116
:103640009047206A00F1010020622078C00620D552
:103650002046FFF7D7FB1CE0002E04DBB34502DD5C
:1036600001A8805D00E03020D4E901219047206A64
:10367000761C401CBAF1010A20620AD1FFF7ACFDAA
:10368000C0680168405CD4E901219047206A401C71
:103690002062281EA5F10105DEDC07E0D4E9012146
:1036A00018F8010B9047206A401C2062381EA7F1D1
:1036B0000107F3DC2046FFF7BCFB022011B040E617
:1036C00001694A1C02610878704700B58FB0CDE9E6
:1036D00001310021059105497944CDE903101146D6
:1036E0006846FFF74BFC0FB000BD0000E5FFFFFF91
:1036F0000A6802F8010B0A60704710B5436913B1FC
:10370000AFF3008001E0FFF7A6FB012010BD1278A7
:1037100000F124010A7000224A700122EDE71168CD
:103720004FF0FF32E9E72DE9F04791460F4680461A
:103730000446002614F8015B2DB1FFF737FB006843
:10374000405DC007F6D12B2D02D02D2D18D0641E60
:103750004A463946204600F0A3F827B13968A1420D
:1037600001D1C7F800804FF0020471050BD540422B
:10377000002803DDFFF734FD0460A007BDE8F087F3
:1037800046F48066E4E70028F8DAFFF729FD0460D4
:103790006FF00040F2E730B5B0F10A024FEA900E48
:1037A00071F100034EEA817EB0EB0E0061EB9101F6
:1037B0004FEA101E4EEA017E10EB0E0041EB111194
:1037C0004FEA102E4EEA016E10EB0E0041EB112174
:1037D0004FEA104E4EEA014E10EB0E0041EB114144
:1037E000401841F100014FEAD00040EA41704FEA31
:1037F000D10110EB80054FEA810444EA907444EB58
:1038000001046D1944EB0404521BA3414FF0000363
:1038100048BF0A3200D530BD401C41F1000130BD27
:103820002DE9F0411F46044603260168072A01F4EA
:10383000006004DB08B116A505E016A503E008B199
:1038400015A500E015A521F010002060A069C01E9C
:10385000A0610FB1401EA0612046FFF7D3FA4FB11F
:10386000D4E9012138469047206A401C2062C01CE0
:10387000206206E0206AFAE7D4E9012115F8010B7D
:103880009047761EF8D22046FFF7D3FABDE8F081C4
:103890004E414E006E616E00494E4600696E6600F4
:1038A0002DE9F05F824615468B4600270AF1010498
:1038B000B9460078302801D09DB113E014F8010B0F
:1038C0000127782803D0582801D045B10AE00DB16E
:1038D000102D07D1002714F8010B102502E0082550
:1038E00000E00A250026B0460EE005FB080005FBB7
:1038F00006F101271FFA80F801EB1046B6F5803F6C
:1039000000D3B94614F8010B294600F08BF80028C3
:10391000EBDABBF1000F05D00FB1641E00E0544696
:10392000CBF80040B9F1000F06D0FFF759FC022197
:103930000160C81EBDE8F09F48EA0640FAE70000B3
:103940002DE9F047814616468AB035487844D0E9DB
:10395000002380680092CDE90130314878440C386A
:10396000D0E90223006903924FF03702CDE9043019
:1039700041F69B30014491FBF2F0A0F1800502FB7F
:1039800010141B3C02D56442012000E00020DFF847
:1039900090A080460027FA44AAF1C60A0DE0E0078D
:1039A00009D03246684607EB47010AEB810100F077
:1039B000DAFA8DE8070064107F1C002CEFD1184F55
:1039C0007F44B43F17E0E80713D007EB04100DF174
:1039D000180A90E80E00AAE80E00C068F04201D173
:1039E00098190890324606A903A800F0BCFA03AB68
:1039F00007C36D10641C002DE5D132466946B8F14D
:103A0000000F03A802D000F09AFA01E000F0ABFA30
:103A1000C9E90001C9F808200AB0BDE8F087000034
:103A2000041100003A2800D2303820F02002412A48
:103A300001D3A2F13700884201D34FF0FF30704725
:103A40000446AFF300802046FCF7B8FB7047000047
:103A500001491820ABBEFEE7260002005FEA400CD9
:103A600008BF91F0000F4FEA8C234FEAC12243EACE
:103A700051514FEA1C5018BF00F5F0404FEA30009A
:103A800018BF41F000415FEA6C5C00F02980BCF196
:103A9000FF3F08BF40F080407047130C06BF120480
:103AA0004FF0100C4FF0000C130E04BF12020CF17B
:103AB000080C130F04BF12010CF1040C930F04BF88
:103AC00092000CF1020CD30F04BF52000CF1010C58
:103AD00011464FF00002A0F11F00A0EB0C00704750
:103AE00011F0004F08BF704731F000413FF4D5AFEF
:103AF0000B0C06BF09044FF0100C4FF0000C0B0E1E
:103B000004BF09020CF1080C0B0F04BF09010CF1F2
:103B1000040C8B0F04BF89000CF1020CCB0F04BF07
:103B200049000CF1010CCCF12003A0EB0C0022FAAF
:103B300003F302FA0CF241EA030100F101007047BD
:103B400020F07F4C80EA030023F07F47ACEB0703B3
:103B500003F57C5300F0004003F1FF032DE9804999
:103B60004FEA154B09B44FEA144325EA0B4E24EAF9
:103B700003480FF2042606EB132749083E785FEA54
:103B8000320203FB0667C7F5000707FB06F64FEA9C
:103B900054374FEAD64606F1020607FB066CCCF115
:103BA000005C4FEA1C472CEA074C07FB06F40CFBB1
:103BB00006F504EB15464FEA961634BF00204FF089
:103BC00000404FEAD13706FB07FC4FEA1C4C0CFBC8
:103BD0000BF7D21B03FB0CF761EB07010CFB0EF795
:103BE000B0EB074072EB17420CFB08F734BFA2EBB7
:103BF0000742B2EB074261EB17414FEA0C444FEA30
:103C0000910706FB07FC4FEA1C4C0CFB0BF7B0EBD3
:103C1000C74072EB573203FB0CF734BFA2EBC7422D
:103C2000B2EBC74261EB57310CFB0EF7B0EBC700AC
:103C300072EB57720CFB08F734BFA2EBC702B2EB72
:103C4000C70261EB5771039F4FEA816141EA92110C
:103C500004EBCC044FEAD1374FEA826206FB07FC43
:103C600042EA90124FEA80604FEA1C4C0CFB0BF7C3
:103C7000D21B03FB0CF761EB07010CFB0EF7B0EB5B
:103C8000074072EB17420CFB08F734BFA2EB074268
:103C9000B2EB074261EB17414FEA8C554FEA9107AF
:103CA00004EB9C2406FB07FC4FEA1C4C0CFB0BF7B7
:103CB000B0EBC74072EB573203FB0CF734BFA2EBFB
:103CC000C742B2EBC74261EB57310CFB0EF7B0EBCA
:103CD000C70072EB57720CFB08F734BFA2EBC702A8
:103CE000B2EBC70261EB577115EB4C254FEA8161CE
:103CF00041EA92114FEA82624FEAD13742EA9012CA
:103D000006FB07FC44F100044FEA80604FEA1C4CBC
:103D10000CFB0BF7D21B03FB0CF761EB07010CFB51
:103D20000EF7B0EB074072EB17420CFB08F734BFFD
:103D3000A2EB0742B2EB074261EB174115EB1C15F2
:103D40004FEA813141EA92414FEA823242EA90429F
:103D50004FEA80304FEA0C7644F1000448EA03430E
:103D60004EEA0B484FF0000EB2EB080C71EB030764
:103D700024BF624639464EEB0E0E4FF0000B001882
:103D8000524149414BEB0B0BB2EB080C71EB0307B3
:103D90007BF1000B24BF624639464EEB0E0E4FF00E
:103DA000000B0018524149414BEB0B0BB2EB080CD6
:103DB00071EB03077BF1000B24BF624639464EEBE3
:103DC0000E0E51EA020718BF46F0010616EB0E76FA
:103DD00055F1000254F1000103D5BDE88901BDE8A9
:103DE0000088BDE88901BDE80048B619524141EBA1
:103DF0000101A3F10103704780807F7E7D7C7B7A87
:103E00007978777676757473727171706F6E6E6D86
:103E10006C6C6B6A6A69686867666665646463632C
:103E200062616160605F5F5E5E5D5D5C5C5B5B5AB2
:103E30005A5959585857575656555555545453531F
:103E400052525251515050504F4F4F4E4E4D4D4D7A
:103E50004C4C4C4B4B4B4A4A4A49494948484847C5
:103E60004747474646464545454444444443434303
:103E70004342424242414141002B26D4770021D0A7
:103E80001CB54FEA370703B44FF010004FF0100194
:103E90004FF000000FBCBDE810400BF1010BBBF16F
:103EA000010F08BF5FEA170722BF12F1010211F1EB
:103EB00001014FF0004143F1000300F0004043EAEC
:103EC00000007047F9D35708DAE746EA064613F1CF
:103ED000400F4FEA16461FDD13F1200FDFBF1643D8
:103EE0000A46002120335B42C8D0C3F1200746EACE
:103EF000064602FA07F74FEA164646EA0706C3F1F6
:103F0000200722FA03F201FA07F721FA03F14FF032
:103F1000000342EA0702B1E746EA020646EA06461D
:103F20004FEA164646EA0106BCBF46EA0646360C8C
:103F30004FF000034FF000024FF000019EE72DE923
:103F4000C048934630B491E8380007C831EA400CC5
:103F500048BF34EA430C03D5FFF7F2FDFFF78CFFAF
:103F6000F0BCBDE800882DE9C048934630B491E824
:103F7000380007C810F0804F08BF13F0804F03D1FE
:103F800000F005F8FFF778FFF0BCBDE8008820F0EE
:103F90007F4780EA030023F07F4C07EB0C03A3F577
:103FA0007C5300F00040A3F1FE0392F0000F00F0FC
:103FB000B38095F0000F00F077802DE901494FEABA
:103FC00011404FEA144621EA004800FB06FC24EAAF
:103FD000064708FB06F607FB08F800FB07F718EB97
:103FE00006484CEB164C4FEA124B18EB07484FEAC9
:103FF00015464CEB174022EA0B4E0BFB06FC25EA5C
:1040000006470EFB06F607FB0EFE0BFB07F71EEB43
:10401000064E4CEB164C4FF000061EEB074E4CEBD9
:10402000174B18EB0B0840F1000018EB0E0B58EB88
:10403000000840F100008F1A4FF000013CBFC94357
:10404000661B14BFB5EB040C00213CBFC943F61B33
:104050004FEA17444EEA8E0E27EA04454FEA1C4702
:1040600004FB07622CEA074C05FB07F70CFB05F67F
:1040700004FB0CFC16EB074642EB174216EB0C4612
:1040800042EB1C421BEB060658EB0202414146EA9A
:104090009E0601D5BDE80189B619524141EB0101E7
:1040A000A3F10103BDE801894FEA14454FEA114726
:1040B00024EA054621EA074C05FB07F406FB07F74F
:1040C0000CFB06F105FB0CFC11EB074144EB17441C
:1040D0004FEA124711EB0C4144EB1C4422EA074C17
:1040E00005FB07F206FB07F70CFB06F605FB0CFCCD
:1040F00016EB074642EB174216EB0C4642EB1C450B
:104100006A1854F1000148BF7047B619524141EB9B
:104110000101A3F10103704795F0000F37D04FEA7A
:1041200011424FEA144721EA024624EA074C02FBF7
:1041300007F106FB07F70CFB06F402FB0CFC14EB83
:10414000074441EB17414FEA154714EB0C4441EB90
:104150001C4125EA074C02FB07F506FB07F70CFBA1
:1041600006F602FB0CFC16EB074645EB174516EB73
:104170000C4645EB1C42121951F1000148BF704733
:10418000B619524141EB0101A3F1010370474FEA17
:1041900014454FEA114724EA054621EA074C05FB7E
:1041A00007F106FB07F70CFB06F24FF0000605FBD4
:1041B0000CFC12EB074241EB174112EB0C4251EBA6
:1041C0001C4148BF7047921841EB0101A3F1010364
:1041D0007047490050EAC12018BF04204A0D18BF9B
:1041E00040F0010040F2FF72B2EB515F08BF40F0B7
:1041F0000200012808BF0520704730380A2801D284
:10420000012070470020704710B500290AD00878B7
:10421000002807D005487844FEF79EFF002801D00B
:10422000002010BD0248784410BD00007608000050
:104230006E08000010B500290AD00878002807D0C1
:1042400005487844FEF788FF002801D0002010BD03
:104250000248784410BD00005A09000052090000CD
:1042600021F00042A2F16052B2F5801F01F000433C
:1042700028BFD2F17F6C0BD95FEA001C43EAC2026F
:1042800042EB507018BF704728BF20F00100704704
:10429000B2F5801FBCBF184670474FEA410C1CF5B1
:1042A000001F02D2084600F04EBB70B500F06AFA5B
:1042B00000000089FFF7F6BF4FF00040A0F5800036
:1042C000704700002DE9C04130B4DFF8A0C23CEADD
:1042D000111418BF3CEA131400F0EC8081EA0305C6
:1042E0001CEA111444EAD57418BF1CEA131500F037
:1042F000C780A4EB05044FF0004545EAC12145EA1B
:10430000C32341EA505143EA525304F17F74994266
:1043100004F500344FEAC0204FEAC22208BF9042A1
:1043200000F09C804FEA13650FF24016765D4FEA6D
:10433000134506FB05F7C7F1807706FB07F74FEA41
:10434000D737A7FB03687642C8F58038A7FB06CEAF
:1043500038BFA8F1010807FB08E64FF0000EA6FBE6
:10436000028CE6FB03CEDCF1000CCEF1004E38BF30
:10437000AEF1010EA6FB0C584FF000074FF0000500
:10438000E6FB0E87A1FB08C6A0FB07CE16EB0E06C8
:1043900045F10005E1FB076515F1E04E7EBFA4F590
:1043A00080345FEA46066D4116F1800745F100054D
:1043B0004FEA17274FEA066647EA0567A6F1DE4689
:1043C000B6F1805F4FEA15251FD9384624F0010C5D
:1043D00005EBC471BCF1FE6F01EB0C1102D8F0BC0F
:1043E000BDE8008124425CBF01F5801E9EEAC47FC7
:1043F00002D4F0BCBDE80081244238D4F0BCA1F165
:10440000C041BDE8004100F00BBA4FEAD22242EAB7
:1044100043524FEAD323A7FB02864FEAD02040EA5B
:10442000415007FB03661EEA0E0F4FEAD12105FB40
:10443000026658BFA6EB0056B6EB00564FEA520E86
:104440004EEAC37E18EB0E0E56EB530EBDD518EB9D
:1044500002085E417F1C55F10005B6E74FF4801558
:104460004FF000074FF000064FF00008ADE7F0BC3A
:104470004FF0000001F1C04101F00041BDE80081B2
:1044800011EA0C1F0CEA131500D00CE013EA0C1F04
:1044900000F025804FF00000F0BC81EA030101F03C
:1044A0000041BDE80081F0BCBDE8004181EA0301A4
:1044B00000F0B6B9F0BCBDE8004170B500F062F99B
:1044C000097EFC3E00F007B881EA03014FF00000CE
:1044D00001F00041704781EA030100F0A1B9F0BC8E
:1044E000BDE800414FF0000021497047FFFDFBF996
:1044F000F7F5F4F2F0EEEDEBE9E8E6E4E3E1E0DE17
:10450000DDDBDAD8D7D5D4D3D1D0CFCDCCCBCAC888
:10451000C7C6C5C4C2C1C0BFBEBDBCBBBAB9B8B7AF
:10452000B6B5B4B3B2B1B0AFAEADACABAAA9A8A8A2
:10453000A7A6A5A4A3A3A2A1A09F9F9E9D9C9C9B70
:104540009A9999989797969595949393929191901B
:104550008F8F8E8E8D8C8C8B8B8A898988888787AC
:104560008685858484838382828181800000FF0721
:104570000000F87F10F0004248BF4042B0FA80F3DC
:1045800010FA03F10AD0C3F11D0303F580634FEA6B
:10459000415002EB035202EBD12170474FF0000073
:1045A00070470000B1FA81F30B3B20D3994010D142
:1045B000B0FA80F310FA03F108BF7047C3F11D038E
:1045C00003F580634FEAD1224FEA415002EB0351D9
:1045D0007047C3F1200C20FA0CFC9840C3F1320361
:1045E00003F5806341EA0C0101EB0351704710B5FC
:1045F000C3F10004C3F1320CC4F1200E0CF580624B
:1046000001FA0EFC21FA04F100FA0EF3E040BDE8D5
:10461000104040EA0C0001EB025138BF7047401CCB
:1046200041F100015B0008BF20F00100704700006D
:10463000DFF848C170B51CEA111E1EBF1CEA131535
:104640009EEA0C0F95EA0C0F00F06F8081EA0304DC
:1046500023EA4C134EEAD47E21EA4C1141F4801136
:1046600043F48013AE44A1FB024CA0FB0365AEF102
:104670007F7E361955EB0C05A1FB034C4CF1000372
:10468000A0FB021C16EB0C06654153F10003094226
:1046900018BF46F0010613F4007F0BD14FEA033137
:1046A0004FEA0530340341EA155140EA16506FF0E5
:1046B00003020AE04FEAC3214FEAC520F40241EAAF
:1046C000555140EA56506FF0020202EB2E4201EBC8
:1046D000025585EACE710AD05FEA440C18BF24F077
:1046E000004450F1000041F1000120EAD47040F292
:1046F000FE7C624500D270BDA84214BF4FF08044DA
:104700004FF04044002E08BF0024BEF1806FA8BFC8
:10471000A1F1C041BDE8704080F282804FF00000FE
:1047200001F1C04101F0004170479EEA0C0F0CEA14
:10473000131518BF95EA0C0F06D04FF0000081EA60
:10474000030E0EF0004170BD00F01CF88900013E20
:1047500000F007B800F009B84FEA430C5FEA5C5C70
:1047600008D081EA030100F05BB84FEA410C5FEA30
:104770005C5CF6D14FF00000014970470000FF0774
:104780000000F87F0EF1020E2EF0030E5EF8046BAF
:10479000364205D4012A43EB030515F5001F12D854
:1047A000012841EB010C1CF5001F0CD80ED14FEA7B
:1047B000D17C15F5001F0CEB4C0C0CF1020C08BF62
:1047C0004CEBD37C04E04FF0080C01E04FEAD37CC3
:1047D0000CEB4C0526FA05F606F00706B6F1040CBC
:1047E00006D20EEB860CBDE870404CF0010C604721
:1047F000DFE80CF0090B02024FF000414FF000001F
:10480000A1F5002170BD19461046012851EB0104A5
:1048100018BFD4F5001484BF002001F0004170BD22
:104820000808A0F500114FEA3101704743004FEA34
:10483000D30C4FEA3C0C43401FBF40070CF16051C2
:1048400013F0FE4F70471CF0006F03D100200CF0F6
:10485000004170470CF0004343EA507010B540EA45
:10486000CC0000F02AF800BF000000924FEA0001DF
:10487000FFF7D6BF4FF000414FF00000A1F5002137
:104880007047000041000B0ED3F19E0208D950F48E
:1048900000034FEA032323FA02F048BF4042704767
:1048A00010B500F00AF800BF49922480002070473C
:1048B0006FF0004282EA200070470EF1020E2EF0E7
:1048C000030E5EF8044B244204D44FEA4102B2F1D5
:1048D0007F4F11D84FEA4003B3F17F4F0CD80ED170
:1048E0004FEAD07CB2F17F4F0CEB4C0C0CF1020C78
:1048F00008BF4CEBD17C04E04FF0080C01E04FEA1C
:10490000D17C0CEB4C0324FA03F404F00704B4F15B
:10491000040C06D20EEB840CBDE810404CF0010CE8
:104920006047DFE80CF0070802024FF00040A0F5F6
:10493000800010BD0846420018BFD2F1807288BFC7
:1049400000F0004010BDFF2141EAD050C005704783
:10495000FEF77CBD0D0A6C6E203C4E6E3E20202082
:104960002020202020202020202020202020202047
:1049700020202020202020202020202020202D202A
:10498000736574206E756D626572206F6620636852
:10499000616E6E656C732028312D256429003031DD
:1049A0003233343536373839414243444546403056
:1049B0005800303132333435363738396162636408
:1049C0006566403078000400000800000000000028
:1049D000000200010000100002400000000000A0E2
:1049E0000000000005400000000000C800000000BA
:1049F0000C4000000000409C000000001940000036
:104A00000020BCBE0000000034400000BFC91B8E67
:104A100000000004B5400000504BCFD06607E2CF45
:104A2000010000006C4100003E8251AADFEEA73475
:104A300001000000D9420000DCB5A0E23A301F9727
:104A4000FFFFFFFFB4450000FD25A0C8E9A3C14F4B
:104A5000FFFFFFFFFF3F000000000080000000009C
:104A6000FF3F00000000008000000000B84B00087D
:104A70000000002064000000280100081C4C000811
:104A80006400002004070000440100081001000039
:104A900043000000F8FFFFFF00404040404040401E
:104AA0004040414141414140404040404040404001
:104AB00040404040404040404005020202020202A5
:104AC00002020202020202020220202020202020F4
:104AD0002020200202020202020290909090909008
:104AE00010101010101010101010101010101010C6
:104AF000101010100202020202028888888888883A
:104B00000808080808080808080808080808080825
:104B1000080808080202020240000000000000002D
:104B20000000000000000000000000000000000085
:104B30000000000000000000000000000000000075
:104B40000000000000000000000000000000000065
:104B50000000000000000000000000000000000055
:104B60000000000000000000000000000000000045
:104B70000000000000000000000000000000000035
:104B80000000000000000000000000000000000025
:104B90000000000000000000000000001C000000F9
:104BA00043000000F8FFFFFF0C0000000E000000B3
:104BB0000F0000002E0000000000000001020304AE
:104BC000010203040607080902040608E8F7FF1FAC
:104BD00000000000000000000000000000000000D5
:104BE00000000000000000000000000000000000C5
:104BF00000000000000000000000000000000000B5
:104C000000000000000000000000000000000000A4
:0C4C100000000000000000000000000098
:04000005080000ED02
:00000001FF
