:020000040800F2
:1000000048070020CD010008D5010008D7010008ED
:10001000D9010008DB010008DD0100080000000034
:10002000000000000000000000000000DF010008E8
:10003000E101000800000000E30100086308000877
:10004000E7010008E7010008E7010008E7010008F0
:10005000E7010008E7010008E7010008E7010008E0
:10006000E7010008E7010008E7010008E7010008D0
:10007000E7010008E7010008E7010008E7010008C0
:10008000E7010008E7010008E7010008E7010008B0
:10009000E7010008E7010008E7010008E7010008A0
:1000A000E7010008E7010008E7010008E701000890
:1000B000E7010008E7010008E7010008E701000880
:1000C000E7010008E7010008E7010008E701000870
:1000D000E7010008FB070008E7010008E701000846
:1000E000E7010008E7010008E701000800F002F856
:1000F00000F05DF80AA090E8000C82448344AAF165
:100100000107DA4501D100F052F8AFF2090EBAE862
:100110000F0013F0010F18BFFB1A43F0010318473B
:100120006053000080530000103A24BF78C878C1A3
:10013000FAD8520724BF30C830C144BF04680C60ED
:10014000704700000023002400250026103A28BF35
:1001500078C1FBD8520728BF30C148BF0B60704739
:10016000662905F0DD80642903F09882752903F083
:100170009582782903F0CE82632903F01887002046
:1001800070471FB59DE8030003F048FC03F026FC10
:1001900004000020002104F01FFD401C60600020CE
:1001A000002104F02FFDE0601FBD10B510BD04F06C
:1001B000B1F81146FFF7E5FF02F01EFD04F0DDF88F
:1001C00003B4FFF7F2FF03BC04F00AF909488047C3
:1001D00009480047FEE7FEE7FEE7FEE7FEE7FEE729
:1001E000FEE7FEE7FEE7FEE704480549054A064B41
:1001F00070470000C5020008ED000008480100201B
:100200004807002048030020480300200CB50020C8
:10021000019000906048006840F480305E490860BA
:1002200000BF5D48006800F4003000900198401C59
:100230000190009818B90198B0F5A06FF1D1564817
:10024000006810F4003F02D00120009001E000207F
:1002500000900098012830D14F4840684E494860CE
:10026000084640684860084640684860084640685C
:1002700020F47C1048600846406840F498104860BC
:100280000846006840F08070086000BF424800687F
:1002900010F0007FFAD04048406820F003003E494B
:1002A00048600846406840F00200486000BF3A4895
:1002B000406800F00C000828F9D10CBD10B5FFF71C
:1002C000A5FF10BD10B53448006840F00100324968
:1002D000086008464068314908402F494860084690
:1002E00000682F4908402C4908600846006820F43F
:1002F000802008600846406820F4FE0048604FF403
:100300001F0088600020C862FFF7D8FF10BD30B51D
:1003100000210020002200231F4C646804F00C011F
:1003200021B1042906D0082925D107E01D4C1E4D16
:100330002C6024E01B4C1C4D2C6020E0164C6468A3
:1003400004F47010144C646804F48032022404EB4A
:10035000904022B9154C4443134D2C600AE00E4CDA
:10036000E46A04F00F04631C0E4CB4FBF3F4444342
:100370000D4D2C6003E00B4C0B4D2C6000BF00BFFB
:10038000054C6468C4F30314094D295D064C2468C8
:10039000CC40054D2C6030BD001002400000FFF83D
:1003A000FFFFF6FE00127A000000002000093D0069
:1003B00004000020E448006840F00100E2490860C1
:1003C00008464068E1490840DF494860084600683F
:1003D000DF490840DC4908600846006820F48020B6
:1003E00008600846406820F4FE0048604FF41F0093
:1003F00088600020C8627047D349096821F48031C1
:10040000D14A11601146096821F480211160B0F5CC
:10041000803F03D0B0F5802F0ED106E0CA490968AD
:1004200041F48031C84A116007E0C749096841F4C6
:10043000A021C54A116000E000BF00BF704710B5A1
:1004400001460022002300204A11012A02D1BE4C9D
:10045000236806E0022A02D1BB4C236A01E0BA4CB1
:10046000636A01F01F02012494401C4201D0012064
:1004700000E0002010BD38B50020009000240025C9
:1004800000BF3120FFF7DBFF05460098401C0090BD
:100490000098B0F5A06F01D0002DF2D03120FFF709
:1004A000CEFF08B1012400E00024204638BD0146FB
:1004B0000020A54A106820F0F80040EAC100106052
:1004C0007047A44908607047024600209E4B586858
:1004D00020F4741042EA010318439B4B58607047A4
:1004E0009C490866704702460020974BD86A9A4B91
:1004F000184042EA01031843934BD8627047014603
:100500000020914A506820F0030008435060704773
:100510008D48406800F00C007047014600208A4A70
:10052000506820F0F00008435060704701460020FA
:10053000854A506820F4E0600843506070470146E7
:100540000020814A506820F4605040EAC1005060A9
:10055000704729B17C4A527A02437B4B5A7204E0BD
:10056000794A527A8243784B5A7270477B490860C5
:10057000704701460020744A506820F44040084308
:10058000506070470021764A11706F4A82F820103F
:10059000012802D0042808D103E00121704A11701B
:1005A00004E005216E4A117000E000BF00BF7047F3
:1005B0006C49086070476449096A0143624A1162E4
:1005C0007047684944390860704770B500210023BE
:1005D0000024002200255C4E766806F00C0121B153
:1005E000042905D0082921D105E05F4E066020E0EE
:1005F0005D4E06601DE0544E766806F47013524E50
:10060000766806F48034022606EB93431CB9574EF5
:100610005E43066009E04C4EF66A06F00F06751C54
:10062000514EB6FBF5F65E43066002E04E4E0660A4
:1006300000BF00BF444E766806F0F00109094C4E39
:10064000725C0668D64046603F4E766806F4E0610C
:10065000090A474E725C4668D64086603A4E766814
:1006600006F46051C90A424E725C4668D640C660C4
:10067000354E766806F44041890B3E4E725CC66882
:10068000B6FBF2F6066170BD29B12F4A52690243EA
:100690002D4B5A6104E02C4A526982432A4B5A611D
:1006A000704729B1284A92690243274B9A6104E0B6
:1006B000254A92698243244B9A61704729B1224AA4
:1006C000D2690243204BDA6104E01F4AD2698243B7
:1006D0001D4BDA61704729B11B4AD26802431A4B9D
:1006E000DA6004E0184AD2688243174BDA60704738
:1006F00029B1154A12690243134B1A6104E0124AE8
:1007000012698243104B1A617047164940390860DC
:1007100070471049C86470470B49C87170470A4850
:10072000406A40F0807008494862704701460020E6
:10073000054A92680A4201D0012000E0002070477B
:100740000149887270470000001002400000FFF865
:10075000FFFFF6FE00004242F0FFFEFFD8004242DB
:10076000201002408004424200127A0000093D003D
:100770001400002024000020302141430022F84BC7
:100780005A6000BFF64A52688A42FBD3704730B5C0
:100790000446002504E04FF47A70FFF7EDFF6D1C6E
:1007A000A542F8D330BD70B5064600BFED480088BD
:1007B00010F0400FFAD0304603F0A9F805460024A7
:1007C0000AE000BFE748008810F0400FFAD0305D23
:1007D000E449091D0880641CAC42F2DB70BD0020B6
:1007E00003E00021E04A1154401C4028F9DB0021BD
:1007F000DE4A1170DE4A1170704738B540F225515B
:10080000D84802F0C5FD58B3D64802F041FDC4B245
:100810008DF8004000208DF801000D2C0AD1D2493E
:10082000D34A127888540120D04908700020D0495A
:10083000087010E0CE4800783F280CDACC490878E0
:10084000411CCB4A1170C8490C54002012788854BE
:100850006846FFF7A8FF40F22551C24802F0C2FDEA
:1008600038BDC448006828B1C2480068401EC1496C
:10087000086009E0C048007818B11920BD49086037
:1008800002E04B20BB490860BC480068401CBB49E3
:1008900008607047F0B587B0FFF78CFD0020FFF7C8
:1008A00010FE4FF48030FFF7A7FD4FF42011002019
:1008B000FFF70AFE0220FFF722FE0020FFF72DFEC1
:1008C0004FF48060FFF732FE0020FFF738FE012072
:1008D000FFF706FE00BF3920FFF7B1FD0028FAD070
:1008E00000BFFFF715FE0828FBD101210420FFF708
:1008F000D8FE01210820FFF7D4FE01211020FFF7C8
:10090000D0FE01218803FFF7CCFE9D48006840F02F
:1009100080709B4908609B489B490860904800682C
:1009200040F001008E490860002048600420ADF8C6
:1009300018008DF81B0002208DF81A0006A99348B4
:1009400002F01AFA002500240EE09148006800EB3E
:10095000441000688F49884205D18D48006800EB3B
:100960004410C0880543641C8B4800888442ECDB3B
:10097000A8B2ADF8180010208DF81B0003208DF8E8
:100980001A0006A9834802F0F7F9002500240EE0BA
:100990007F48006800EB441000687C49884205D11C
:1009A0007B48006800EB4410C0880543641C7A480B
:1009B00000888442ECDBA8B2ADF8180010208DF856
:1009C0001B0003208DF81A0006A9704802F0D4F924
:1009D000002436E06E48006800EB441000686D4962
:1009E000884207D06A48006800EB441000686749F5
:1009F000884225D16648006800EB44100089F8B1B0
:100A00006348006800EB4410008903280CD1604A59
:100A1000126802EB4412D1885D4A126802EB44125C
:100A2000106802F056FA0BE0594A126802EB4412C1
:100A3000D188574A126802EB4412106802F047FA54
:100A4000641C554800888442C4DB06A802F01DFAE5
:100A500018208DF81B004FF40070ADF8180002202C
:100A60008DF81A0006A94B4802F086F904208DF88B
:100A70001B000002ADF8180002208DF81A0006A92C
:100A8000444802F079F902A802F06EFB4FF4E1301D
:100A900002900020ADF80C00ADF80E00ADF810008B
:100AA000ADF814000C20ADF8120002A92D4802F098
:100AB000F2FA01212B4802F07AFB25208DF8040080
:100AC00001208DF8070001A802F0ABFC01212548A8
:100AD00002F06DFB252000F01F0201219140420928
:100AE0004FF0E02303EB8202C2F8001100BF0122A5
:100AF00040F225511B4802F066FB2849B1F1807F86
:100B000000D31EE021F07F40401E4FF0E0225061F4
:100B100050170F22002808DA13071F0E184BE43B6A
:100B200000F00F06361F9F5503E013071E0E1C4BE7
:100B30001E5400BF00204FF0E0229061072010619A
:100B400000BF00200D490860084908700A49087074
:100B500014490870144908601449086007B0F0BDD2
:100B6000001000E000380140780000203A0000202A
:100B7000390000203C0000203B0000204000002005
:100B8000FCED00E055CEACC5B01F00E0000C01400C
:100B90005C000020000801404C00002000530700CA
:100BA00000E400E0380000206C000020700000200D
:100BB0002DE9F041FD48FE494860FE48486000BF0D
:100BC000FB48C06810F0010FFAD1F948006940F005
:100BD0000200F7490861F84848610846006940F09A
:100BE0004000086100BFF248C06810F0010FFAD160
:100BF000EF48006920F00200ED49086108460069ED
:100C000040F001000861ED480468A6B200BFE84862
:100C1000C06810F0010FFAD1E7480680240C264680
:100C200000BFE348C06810F0010FFAD1E248801C11
:100C30000680E3480468A6B200BFDD48C06810F033
:100C4000010FFAD1DC48001D0680240C264600BFA7
:100C5000D748C06810F0010FFAD1D748801D068030
:100C600000BFD348C06810F0010FFAD1D548008802
:100C7000D1490831088000BFCD48C06810F0010F8D
:100C8000FAD1D1480088CC490A31088000BFC84851
:100C9000C06810F0010FFAD1CC480088C6490C3169
:100CA000088000BFC248C06810F0010FFAD1C848E0
:100CB0000088C1490E310880102500243DE0C54858
:100CC000006800EB44100068C349884201D1012745
:100CD0000AE0C048006800EB44100068BF49884241
:100CE00001D1022700E0002700BFB148C06810F022
:100CF000010FFAD1B0482F52A81C85B2B548006840
:100D000000EB4410878800BFA948C06810F0010FAD
:100D1000FAD1A9482F52A81C85B2AE48006800EB52
:100D20004410078900BFA248C06810F0010FFAD133
:100D3000A1482F52A81C85B2641CA4480088844294
:100D4000BDD300BF9A48C06810F0010FFAD198488F
:100D5000006920F00100964908610846006940F0EA
:100D6000800008619948008818B19A48006802F02C
:100D7000F8FBBDE8F08170B58F4800688F490860C6
:100D80008D48001D00688E4908608B480830008837
:100D90008C49088088480A3000888B49088086483A
:100DA0000C3000888949088083480E3000888849C3
:100DB000088086480088102803DD002083490880C9
:100DC000ECE02024814800880028F9D07F49098878
:100DD00004FB01F002F096FB7E4908601025002418
:100DE000D7E075482E5AA81C85B2012E06D17A4844
:100DF0007849096801EB441108600EE0022E06D123
:100E000076487449096801EB4411086005E0002048
:100E10007049096801EB4411086067482E5AA81C04
:100E200085B2102E05DA6B48006800EB441086800E
:100E30000AE000206749096801EB44110860654930
:100E4000096801EB441188805B482E5AA81C85B2C2
:100E5000052E05DA5F48006800EB4410068105E0C6
:100E600000205C49096801EB441108815948006879
:100E700000EB44108088102871D2DFE800F0080FE2
:100E8000161D242B32394048505860687179012072
:100E90005049096801EB4411C88078E002204D49AF
:100EA000096801EB4411C88071E0042049490968D0
:100EB00001EB4411C8806AE008204649096801EB4B
:100EC0004411C88063E010204249096801EB4411D5
:100ED000C8805CE020203F49096801EB4411C880CC
:100EE00055E040203B49096801EB4411C8804EE0C1
:100EF00080203849096801EB4411C88047E04FF46D
:100F000080703449096801EB4411C8803FE04FF418
:100F100000703049096801EB4411C88037E04FF494
:100F200080602C49096801EB4411C8802FE04FF420
:100F300000602849096801EB4411C88027E04FF49C
:100F400080502449096801EB4411C8801FE04FF428
:100F500000502049096801EB4411C88017E00FE0F8
:100F60004FF480401B49096801EB4411C8800EE032
:100F70004FF400401749096801EB4411C88006E0AE
:100F800000201449096801EB4411C88000BF00BF6C
:100F9000641C0E4800888442FFF423AF0C4800888C
:100FA000502802DD50200A49088019E023016745D6
:100FB00000200240AB89EFCD00FC00082C0000208F
:100FC0003000002034000020360000204C000020BB
:100FD000580000205C00002000080140000C014087
:100FE00042F21070E4490860E44800688068E4490F
:100FF000086070BD2DE9F04F9BB00120E1490870F9
:1010000000201A90E048FFF7CEFBE0A1E24802F092
:101010005AFCE148FFF7C7FB0620089001F01BB916
:10102000DE4800780028F9D00020DC49087000274D
:10103000DB4802F06CFC0646002E01F0098100241A
:101040000CE0D74802F063FC0646002404E0D449D3
:10105000601C085C0855641CB442F8DBD04800787A
:101060002028EED0CE4802F052FC461E002E0BDDAA
:1010700006E0002E04DB0020C949885506B1761E23
:10108000C748805D2028F4D0C54802F040FC0646E1
:1010900000252AE0C248405D202803DBC048405DAF
:1010A0007E2805DDBE48405D10B12420BC4948556E
:1010B000BB48405D602804DDB948405D2038B84930
:1010C000485508E02C4604E0B549601C085C08550A
:1010D000641CB442F8DBB248405D202804D1B0491A
:1010E000681C085C2028EDD06D1CB542D2DB0024C2
:1010F00004E0002002A941F82400641C08988442FE
:10110000F7DB002400250CE0A548405D202807D12E
:101110000898844204DA2046641C02A941F8205051
:101120006D1CB542F0DB029868B1002404E09C48D5
:10113000005D0AA90855641C0298A042F7DC002053
:101140000AA9085503E096490AA802F0BCFB95A13C
:101150000AA802F0FBFB10BB93A18F4802F0B3FB7F
:101160008D48FFF720FB00208649087090A0FFF70C
:101170001AFBFFF734FB1A9870B100BF8E48006865
:1011800000F4E0608D490843001D8B490860BFF3FF
:10119000408F00BF00BFFEE71BB0BDE8F08F88A105
:1011A0000AA802F0D3FB002847D186A0FFF7FBFA7C
:1011B00085A0FFF7F8FA8AA0FFF7F5FA90A0FFF7ED
:1011C000F2FA80A0FFF7EFFA10226F4944310AA823
:1011D00002F0FEF90AA8FFF7E6FA90A0FFF7E3FA9B
:1011E0009CA0FFF7E0FA77A0FFF7DDFAA9A0FFF7D0
:1011F000DAFAAAA0FFF7D7FAB1A0FFF7D4FABAA09B
:10120000FFF7D1FAC3A0FFF7CEFACDA0FFF7CBFAD4
:10121000D5A0FFF7C8FADEA0FFF7C5FAEBA0FFF7ED
:10122000C2FA68A0FFF7BFFAF6A0FFF7BCFA65A004
:10123000FFF7B9FA0127FFF7D2FA002F78D1FEA104
:101240000AA802F083FB0028F8D1FC480088072890
:1012500016D2DFE800F00406080A0C0F1200F84E60
:1012600010E0F84E0EE0F84E0CE0F84E0AE04CF2BA
:10127000503607E044F6206604E042F2107601E0C2
:10128000012600BF00BF4AA0FFF78DFAF0A10AA80F
:1012900002F09EF90AA8FFF786FAF3A10AA802F065
:1012A00097F90AA8FFF77FFA33480268F5A10AA860
:1012B00002F08EF90AA8FFF776FA31480268F6A123
:1012C0000AA802F085F90AA8FFF76DFA3DA0FFF71A
:1012D0006AFAF6480088C117019000EB5170C210FD
:1012E000F3A10AA802F074F90AA8FFF75CFA35A086
:1012F000FFF759FAF4A0FFF756FAF8A0FFF753FAF0
:10130000002530E26A1CFAA10AA802F061F90AA8D5
:10131000FFF749FA0024F848006800EB4510006820
:10132000F649884205D1F6A0FFF73DFA012410E006
:1013300028E2F148006800EB45100068F149884256
:1013400004D1F1A0FFF72FFA012402E0EFA0FFF78C
:101350002AFA5CB1E848006800EB45108288EDA1EC
:101360000AA802F035F90AA8FFF71DFAE24800685A
:1013700000EB45100089D1E12C000020280000205E
:10138000300000203B000020245300080D0A436F6A
:101390006E6669673E200000B80000203A00002019
:1013A00078000020510000000D0A57313E20000057
:1013B0000D0A0D0A000000000CED00E00000FA0527
:1013C0003F0000000D0A00000D0A3F2020202020D1
:1013D00020202D205468697320706167650000002B
:1013E0000D0A71202020202020202D2045786974AE
:1013F0002066726F6D20436F6E66696700000000A3
:101400000D0A73682020202020202D2053686F773C
:1014100020706172616D6574657273000D0A6C6392
:10142000203C6368616E6E656C3E203C706F727428
:101430003E203C4750494F783E205B4750494F2063
:10144000547970655D202D20736574206368616E2A
:101450006E656C000D0A6C74203C6368616E6E658D
:101460006C3E203C4750494F20547970653E202007
:1014700020202020202020202020202020202D205F
:10148000736574206368616E6E656C207479706535
:10149000000000000D0A7768657265000D0A2020C3
:1014A00020202020206368616E6E656C202D204E08
:1014B0006E206F66206368616E6E656C00000000D0
:1014C0000D0A20202020202020706F727420202000
:1014D000202D20706F727420412C422C28302D64F6
:1014E000656C6574652900000D0A202020202020ED
:1014F000204750494F782020202D204E6E207069C3
:101500006E206F6620706F7274732028302D313515
:10151000290000000D0A20202020202020475049CB
:101520004F20547970653A20204E6E203D203020A7
:101530002D204E6F7420636F6E6E6563746564005A
:101540000D0A2020202020202020202020202020C4
:1015500020202020204E6E203D2031202D2044537D
:1015600031384232300000000D0A20202020202097
:10157000202020202020202020202020204E6E20EF
:101580003D2032202D2069427574746F6E0000007A
:101590000D0A202020202020202020202020202074
:1015A00020202020204E6E203D2033202D206269F7
:1015B000646972656374696F6E616C204750494F4E
:1015C0002070756C6C646F776E0000000D0A20202F
:1015D000202020202020202020202020202020200B
:1015E000204E6E203D2034202D2062696469726592
:1015F0006374696F6E616C204750494F2070756C41
:101600006C7570000D0A746D2020203C4E6E3E20DB
:10161000202D205365742074696D656F7574206684
:101620006F722069427574746F6E2C204E6E3D305F
:101630002E2E3130000000005348000036000020FC
:1016400020A1070090D0030048E80100A086010017
:101650004E616D6520202020202020202056616CC6
:1016600075650D0A000000002D2D2D2D2D2D2D2D21
:101670002D2D2D20202D2D2D2D2D2D2D2D2D2D0DD4
:101680000A0000004465766963652054797065201E
:101690002025750D0A000000532F4E202020202009
:1016A000202020202025750D0A0000005800002071
:1016B00042544E2074696D656F7574202025642036
:1016C0007365630D0A000000636820706F727420F8
:1016D0004750494F20547970650D0A002D2D202D5B
:1016E0002D2D2D202D2D2D2D2D2D2D2D2D0D0A00A7
:1016F00025327520000000005C0000200008014039
:1017000050410000000C0140504200002D2D2D2DB5
:1017100000000000252D327500000000052818D2B9
:10172000DFE800F003070B0F1300F0A0FFF73BF812
:1017300013E0F0A0FFF737F80FE0F2A0FFF733F85F
:101740000BE0F4A0FFF72FF807E0FBA0FFF72BF862
:1017500003E0E6A0FFF727F800BF00BFAFF29C3020
:10176000FFF721F86D1CFC4800888542FFF6CAADE2
:10177000F948008818B9AFF2B430FFF714F8012720
:10178000FFF72DF8002F50D1F4A10AA802F0DEF8DF
:1017900000284AD18DF828000298D8B3039888B160
:1017A00000250298441C06E0ED48025D28466D1CA9
:1017B0000AA90A54641C0398A042F5DC00200AA977
:1017C000485513E0E64802F0A2F8064600250298C4
:1017D000441C06E0E248025D28466D1C0AA90A5432
:1017E000641CB442F6DB00200AA948559DF8280085
:1017F000C0B10AA802F05AF80546002D0BDD652D90
:1018000009DAD8490D80FFF7D3F9FFF7B4FA0120C0
:101810001A9007E003E0D4A0FEF7C5FF02E0DBA0CA
:10182000FEF7C1FF0127FEF7DAFF002F52D1DCA13E
:101830000AA802F08BF8E0BB00208DF8280002987F
:10184000C0B3039888B100250298441C06E0C44840
:10185000025D28466D1C0AA90A54641C0398A04224
:10186000F5DC00200AA9485513E0BD4802F04FF806
:10187000064600250298441C06E0B948025D284649
:101880006D1C0AA90A54641CB442F6DB00200AA9A4
:1018900048559DF82800D0B10AA802F007F805467F
:1018A000002D0DDB072D0BDABE490D80FFF780F907
:1018B00001E00FE008E0FFF75EFA01201A9006E071
:1018C000B9A0FEF770FF02E0B0A0FEF76CFF0127A1
:1018D000FEF785FF002F55D1B8A10AA802F036F80F
:1018E00000284FD18DF828000298B8B3039888B12A
:1018F00000250298441C06E09948025D28466D1CAC
:101900000AA90A54641C0398A042F5DC00200AA925
:10191000485513E0924801F0FAFF06460025029868
:10192000441C06E08E48025D28466D1C0AA90A5434
:10193000641CB442F6DB00200AA948550AA801F04D
:10194000B5FF0646002E13DD112E11DA82480088FD
:10195000864204D19AA0FEF726FF10E00CE07E49F3
:101960000E80FFF725F9FFF706FA01201A9006E02E
:101970009BA0FEF718FF02E084A0FEF714FF0127EA
:10198000FEF72DFF002F7CD19BA10AA801F0DEFFFE
:101990000028F8D180468146824683468DF828008B
:1019A000029890B3039888B100250298441C06E081
:1019B0006B48025D28466D1C0AA90A54641C0398F2
:1019C000A042F5DC00200AA9485513E0644801F064
:1019D0009EFF064600250298441C06E06048025D12
:1019E00028466D1C0AA90A54641CB442F6DB002088
:1019F0000AA948559DF8280038B10AA801F056FFF9
:101A00000190002802DB019802E003E001984042C7
:101A10001FFA80F800208DF82800039890B30498EE
:101A200090B100250398441C06E04D48025D28460D
:101A30006D1C0AA90A54641C0498401CA042F4DCE2
:101A400000200AA9485513E0454801F060FF06460A
:101A500000250398441C06E04148025D28466D1CA1
:101A60000AA90A54641CB442F6DB00200AA94855AE
:101A70009DF82900202802D100208DF829000AA80D
:101A800001E0E2E125E001F042FF01281FD19DF8CD
:101A90002800302802D14FF000091AE09DF82800F4
:101AA000612803D09DF82800412802D14FF0010998
:101AB0000FE09DF82800622803D09DF828004228F6
:101AC00002D14FF0020904E04FF0FF0901E04FF0AE
:101AD000FF0900208DF82800049828B1059820B14E
:101AE00000250498441C90E0BAE096E0202D2D2DAE
:101AF0002D00000020283129204453313842323053
:101B000000000000202832292069427574746F6E2D
:101B1000000000002028332920626964697265632F
:101B200074696F6E616C204750494F2070756C6C02
:101B3000646F776E000000002028342920626964F9
:101B40006972656374696F6E616C204750494F20FC
:101B500070756C6C757000004C000020434E0000E6
:101B600078000020340000200D0A4572726F722048
:101B700043414E206E756D6265722E20456E616226
:101B80006C6520312E2E3130300D0A000D0A436F66
:101B90006D6D616E64206572726F720D0A000000D7
:101BA00043530000360000200D0A4572726F722008
:101BB00043414E2073706565640D0A004C4E000071
:101BC0005468657265206973206E6F7468696E670A
:101BD00020746F206368616E67652E0D0A00000037
:101BE00057726F6E67206E756D6265722C2063612F
:101BF0006E63656C2E0D0A004C430000F948025DCF
:101C000028466D1C0AA90A54641C0598401CA04271
:101C1000F4DC00200AA9485513E0F24801F077FEF1
:101C2000064600250498441C06E0EE48025D28465E
:101C30006D1C0AA90A54641CB442F6DB00200AA9F0
:101C400048559DF8280058B10AA801F02FFE0190D0
:101C5000002801DB019801E0019840421FFA80FA58
:101C600000208DF82800059898B3069890B10025BB
:101C70000598441C06E0DB48025D28466D1C0AA955
:101C80000A54641C0698401CA042F4DC00200AA9F7
:101C9000485513E0D34801F03AFE06460025059862
:101CA000441C06E0CF48025D28466D1C0AA90A5470
:101CB000641CB442F6DB00200AA948559DF82800B0
:101CC00038B10AA801F0F2FD0190002802DB01986A
:101CD00002E003E0019840421FFA80FB0126B8F1C0
:101CE000000F03D0C0480088804503DDBFA0FEF789
:101CF0005AFD002636B1B9F1020F03DDC1A0FEF78F
:101D000052FD002636B1BAF10F0F03DDC2A0FEF777
:101D10004AFD002666B1B9F1010F09D1BAF10D0FE4
:101D200002D0BAF10E0F03D1BBA0FEF73CFD002696
:101D30004EB1B9F1020F06D1BAF1020F03D1B6A02C
:101D4000FEF731FD002636B1BBF1040F03DDB7A06D
:101D5000FEF729FD00268EB301200990B9F1010F8D
:101D600003D1B748B749086009E0B9F1020F03D1C0
:101D7000B548B449086002E00020B2490860B148A3
:101D8000A0F804A0A0F808B0002519E0AD4800684C
:101D9000A8B1AC480068AD49096801EB4511096874
:101DA00088420CD1A7488088A849096801EB4511F1
:101DB0008988884203D10020099005E042E06D1C2B
:101DC000894800888542E1DB00BF0998B0B3B9F1CA
:101DD000010F08D19A49A8F101009C4A126802EB50
:101DE0004010016013E0B9F1020F08D19649A8F143
:101DF0000100964A126802EB4010016007E00021E2
:101E0000A8F10100914A126802EB40100160A8F1AC
:101E100001008E49096801EB4010A0F804A0A8F168
:101E200001008A49096801EB4010A0F808B0FEF7EC
:101E3000BFFEFEF7A0FF01201A9003E0FFE784A099
:101E4000FEF7B1FC0127FEF7CAFC002F7CD187A169
:101E50000AA801F07BFD002876D1804681468DF8E6
:101E60002800029890B3039888B100250298441C7A
:101E700006E05C48025D28466D1C0AA90A54641CF1
:101E80000398A042F5DC00200AA9485513E0554804
:101E900001F03DFD064600250298441C06E051482D
:101EA000025D28466D1C0AA90A54641CB442F6DB84
:101EB00000200AA948559DF8280038B10AA801F069
:101EC000F5FC0190002802DB019802E003E0019894
:101ED00040421FFA80F800208DF828000398A0B334
:101EE000049890B100250398441C06E03D48025D2B
:101EF00028466D1C0AA90A54641C0498401CA04280
:101F0000F4DC00200AA9485513E0364801F0FFFC34
:101F1000064600250398441C06E03248025D284628
:101F20006D1C0AA90A54641CB442F6DB00200AA9FD
:101F300048559DF8280040B10AA801F0B7FC01906F
:101F4000002803DB019803E02AE003E00198404207
:101F50001FFA80F90126B8F1000F03D0224800884B
:101F6000804503DD21A0FEF71EFC002636B1B9F145
:101F7000040F03DD2DA0FEF716FC00266EB1A8F1BC
:101F800001003249096801EB4010A0F80890FEF703
:101F90000FFEFEF7F0FE01201A900127FEF71FFC4E
:101FA000EFB933A10AA801F0D1FCC0B900208DF827
:101FB00028000298A0B1039898B100250298441C0B
:101FC00006E00848025D28466D1C0AA90A54641CF4
:101FD0000398A042F5DC00200AA9485560E07CE0A7
:101FE00074E049E0780000204C0000200D0A577290
:101FF0006F6E67204E6E206368616E6E656C0D0AB1
:10200000000000000D0A57726F6E6720706F7274C7
:10201000206E616D650D0A000D0A57726F6E6720A4
:102020004E6E2070696E0D0A000000000D0A577296
:102030006F6E67204750494F20547970650D0A0034
:1020400000080140C8000020000C01405C00002096
:102050000D0A506F727420616C7265616479206939
:102060006E207573652E0D0A000000004C540000B0
:102070005752534E00000000FE4801F048FC06464F
:1020800000250298441C06E0FA48025D28466D1CB3
:102090000AA90A54641CB442F6DB00200AA9485578
:1020A0009DF82800B0B10AA801F000FC0546002DFB
:1020B00008DDF1480560FEF77BFDFEF75CFE0120C0
:1020C0001A9007E0EDA0FEF76EFB03E0AFF244507C
:1020D000FEF769FB0127FEF782FBEFBBECA10AA824
:1020E00001F034FCC0BB00208DF828000298A0B39A
:1020F000039888B100250298441C06E0DD48025D83
:1021000028466D1C0AA90A54641C0398A042F5DCF9
:1021100000200AA9485513E0D64801F0F8FB06460E
:1021200000250298441C06E0D248025D28466D1C3A
:102130000AA90A54641CB442F6DB00200AA94855D7
:102140009DF82800C8B10AA801F0B0FB0546002D93
:102150000BDDD148056001E012E00AE0FEF728FD42
:10216000FEF709FE01201A9007E0C4A0FEF71BFB52
:1021700003E0AFF2E850FEF716FB0127FEF72FFB56
:10218000EFBBC6A10AA801F0E1FBC0BB00208DF89F
:1021900028000298A0B3039888B100250298441C37
:1021A00006E0B448025D28466D1C0AA90A54641C66
:1021B0000398A042F5DC00200AA9485513E0AD4879
:1021C00001F0A5FB064600250298441C06E0A9483C
:1021D000025D28466D1C0AA90A54641CB442F6DB51
:1021E00000200AA948559DF82800F8B10AA801F076
:1021F0005DFB0546002D11DB0B2D0FDA01E018E029
:1022000010E04FF6FF7000EAC500A5490880FEF710
:10221000CFFCFEF7B0FD01201A9007E0A1A0FEF769
:10222000C2FA03E0AFF29C60FEF7BDFA0127FEF7A9
:10223000D6FA4FB9A0A0FEF7B6FAA4A0FEF7B3FAFB
:10224000A748FEF7B0FA06E0A548FEF7ACFA02E0B0
:10225000A348FEF7A8FAA348007800287EF4E0AE71
:10226000FEF7BDFA00BFFEF797BF2DE9F0419E488B
:102270000078002871D001277E4801F048FB06460F
:10228000002518E07B48405D302803DB7948405D3D
:10229000392800DD002701F02DF900687549495DF6
:1022A000405C10F0080F05D07249485D01F080F9DC
:1022B000704948556D1CB542E4DB8CA16D4801F0B6
:1022C00045FB10B9FEF796FE6BE0002F52D069482F
:1022D00001F0ECFA0446002C48D0102C46DC641EB9
:1022E0008348006800EB4410006800283AD080481A
:1022F000006800EB44100089032806D07C48006881
:1023000000EB44100089042828D1794A126802EBB6
:102310004412D188764A126802EB4412106800F029
:10232000BCFD064666B1724A126802EB4412D188BF
:102330006F4A126802EB4412106800F0CAFD30E0E8
:102340006B4A126802EB4412D188694A126802EBA8
:102350004412106800F0BBFD23E024E065A0FEF706
:1023600022FA1EE06BA0FEF71EFA1AE070A0FEF73C
:102370001AFA16E03F4801F0CAFA00280ED073A0FE
:10238000FEF711FA76A0FEF70EFA77A0FEF70BFA29
:102390007CA0FEF708FA7FA0FEF705FA5048FEF78A
:1023A00002FAFEF71CFABDE8F08108220DE080EA8F
:1023B000010313F0010F03D08C2383EA600300E0D4
:1023C000431018464910531EDAB2002AEFD1704765
:1023D0002DE9F04104460E46002546E015B146FAC7
:1023E00005F700E0374607F00107F7B1404A1268E9
:1023F00002EB4412D1883E4A126802EB4412106884
:1024000000F067FD0F20FEF7B7F9394A126802EBBA
:102410004412D188364A126802EB4412106800F068
:1024200056FD3C20FEF7A8F91DE0314A126802EB88
:102430004412D1882E4A126802EB4412106800F050
:1024400048FD3C20FEF798F9294A126802EB441235
:10245000D188274A126802EB4412106800F037FD59
:102460000F20FEF789F9681CC5B2082DB6DBBDE860
:10247000F081000078000020300000200D0A457235
:10248000726F72206E756D6265720D0A0000000039
:1024900057524454000000002C000020544D00000E
:1024A000580000200D0A4572726F7220544D206E44
:1024B000756D6265720D0A000D0A556E6B6E6F7751
:1024C0006E20636F6D6D616E640000000D0A3F2029
:1024D0002D20666F722068656C700D0A0000000088
:1024E000B80000203B0000203A000020434647008F
:1024F0005C0000200D0A4368616E6E656C206D61A2
:1025000079206265204750494F206F6E6C792E0DFF
:102510000A0000000D0A4368616E6E656C206E6FE4
:102520007420646566696E65642E0D0A0000000003
:102530000D0A57726F6E67204E6E206F66206368BB
:10254000616E6E656C2E0D0A000000000D0A556E5E
:102550006B6E6F776E20636F6D6D616E640D0A0038
:102560007072696E740D0A00202020202020203C0B
:102570006366673E20666F7220436F6E6669670D03
:102580000A000000202020202020203C6E6E3E0DFE
:102590000A000000202020202020202020202020B1
:1025A000206E6E203D204E6E206F66206368616E47
:1025B0006E656C204750494F20666F7220726576B9
:1025C000657273652073746174650D0A0000000004
:1025D0002DE9F04F8BB00446002746E000200A901A
:1025E00082463AE0FE4A126802EB4412D188FC4A65
:1025F000126802EB4412106800F06BFC0520FEF735
:10260000BBF8F74A126802EB4412D188F44A126808
:1026100002EB4412106800F05AFC0A20FEF7ACF8F6
:10262000EF4A126802EB4412D188ED4A126802EBBD
:102630004412106800F031FC8146B9F1000F05D05A
:1026400009FA0AF00A990843C0B20A903C20FEF742
:1026500093F80AF1010000F0FF0ABAF1080FC1DB9C
:1026600007A90A98C855781CC7B2092FB6DB4FF0E6
:10267000000B002707E007A8C15D5846FFF795FE4D
:102680008346781CC7B2082FF5DBD548006800EBFD
:1026900044100089012852D19DF82400584531D1B9
:1026A0009DF81D804FEA08200FFA80F89DF81C0065
:1026B00040EA0808404602F045FC0022C94BCDE93B
:1026C000000102F0E7FA0022C74BCDE9020102F057
:1026D00097FCCDE9040102F0ABFA0690069802F0EF
:1026E000B9FD0FFA80F84FEAE870BD49096801EBBF
:1026F0004411C1E904800020B949096801EB441183
:1027000008835FE0B648006800EB4410008B0528A2
:102710000BDAB348006800EB4410008B401CB04952
:10272000096801EB441108834CE04FF47C41002020
:10273000AB4A126802EB4412C2E9041042E0A84816
:10274000006800EB4410008902283BD100252E468A
:10275000002708E0300240EA15662D0207A8C05D98
:102760000543781CC7B2082FF4DB4FF0FF3185EA30
:102770000100714008431FD19948006800EB4410E4
:10278000408B58B19648006800EB4410408B401EC7
:102790009349096801EB4411488313E090480068AD
:1027A00000EB4410C0E90456904800888C49096841
:1027B00001EB4411488305E08948006800EB4410B0
:1027C000C0E904560BB0BDE8F08F10B5884800682A
:1027D000002840D1002439E08148006800EB441013
:1027E000008901282AD17E4A126802EB4412D1885E
:1027F0007B4A126802EB4412106800F06AFB4FF447
:10280000FA70FDF7B9FF764A126802EB4412D188DC
:10281000734A126802EB4412106800F058FB4FF440
:10282000FA70FDF7A9FFA0B2CC21FFF7D1FD1E2061
:10283000FDF7A2FFA0B24421FFF7CAFD01206C49B9
:1028400008606C4800686C490860641C6B4800882C
:102850008442C1DB78E066480068012812D16549EE
:102860000968654A1268881A01D4014600E04142AD
:10287000642969DB02205E4908605E4800685E49A1
:10288000086061E05A480068022846D100243FE011
:102890005348006800EB44100089012830D1504AA9
:1028A000126802EB4412D1884D4A126802EB4412BE
:1028B000106800F00EFB4FF4FA70FDF75DFF484A18
:1028C000126802EB4412D188454A126802EB4412A6
:1028D000106800F0FCFA4FF4FA70FDF74DFFA0B25B
:1028E000CC21FFF775FD1E20FDF746FFA0B2BE21EB
:1028F000FFF76EFD1E20FDF73FFFA0B2FFF768FE59
:1029000003203B4908603B4800683B490860641C61
:102910003A4800888442BBDB16E03548006803284B
:1029200012D134490968344A1268881A01D4014620
:1029300000E04142B1F5967F06DB00202C4908609B
:102940002C4800682C4908602D48006808BB00240A
:1029500013E02348006800EB4410008902280BD1E3
:102960001F4A126802EB4412D1881D4A126802EB1A
:102970004412106800F0ADFA641C204800888442BC
:10298000E7DB01201E4908601A4800681D490860FD
:1029900059E01B480068012855D1164800681949BC
:1029A0000968401A19284ED3002413E00C48006827
:1029B00000EB4410008902280BD1094A126802EB8F
:1029C0004412D188064A126802EB4412106800F0E3
:1029D0007EFA641C094800888442E7DB14E00000AA
:1029E0005C0000200000304000002440580000201F
:1029F0006C00002040000020600000204C000020FF
:102A000070000020640000204FF4FA70FDF7B4FE5F
:102A1000002411E08B48006800EB44100089022874
:102A200009D1A0B23321FFF7D3FC1E20FDF7A4FE8D
:102A3000A0B2FFF7CDFD641C834800888442E9DB27
:102A4000002082490860002421E07E48006800EBF5
:102A500044100089032806D07A48006800EB44102F
:102A60000089042812D1774A126802EB4412D188F7
:102A7000744A126802EB4412106800F00EFA00214A
:102A8000704A126802EB4412C2E90401641C6E48E9
:102A900000888442D9DB10BD2DE9F04FA3B06C480B
:102AA00000686C490968401A322875D96A4800786C
:102AB000002871D1002490E06248006800EB4410C7
:102AC0000089002869D05F48006800EB4410006866
:102AD0000028F7D05B48006800EB441000685F49AD
:102AE000884202D1412022900CE05648006800EB59
:102AF000441000685A49884202D14220229001E0E5
:102B00002D2022904F48006800EB441000F110097E
:102B10004C48006800EB441080880090621C51A172
:102B200002A8229B00F054FD02A8FDF73CFE002500
:102B300009E019F8052050A102A800F049FD02A8FB
:102B4000FDF731FE6D1C082DF3DB3E48006800EBFD
:102B500044100089012821D13A48006800EB441054
:102B6000D0E90421104602F005FA07460022444B42
:102B700002F090F8824602F05BF80646304602F01A
:102B80003DFB07463A460B463EA102A800F020FD59
:102B900002A8FDF708FE1CE02BE01DE029480068B4
:102BA00000EB44100089032806D02648006800EB9B
:102BB0004410008904280CD12248006800EB44101E
:102BC000008A82B232A102A800F002FD02A8FDF73D
:102BD000EAFD31A0FDF7E7FD641C1B480088844234
:102BE000FFF66AAF2CA0FDF7DEFD19480068194911
:102BF000086023B0BDE8F08FFDF764FBFEF7BBF87B
:102C0000FDF748FE2549264800F05DFE40F22551BB
:102C1000244800F0E7FB24A0FDF7C5FD0C48006840
:102C2000234908600A48006822490860084800688B
:102C30000849086005E0FFF7C8FDFFF72DFFFFF723
:102C400014FBF8E75C0000204C000020700000201E
:102C500040000020680000207800002000080140AB
:102C6000000C01406368252D326420282563252D42
:102C7000326429203D000000202530325800000039
:102C800000002440202F202530332E316600000024
:102C9000202F2025640000000D0A0000A813000862
:102CA000B8000020003801402B2B2B0D0A0000003B
:102CB000600000206400002010B50446CA48844229
:102CC00008D101210420FDF706FD00210420FDF7B5
:102CD00002FD46E0C548844208D101210820FDF7E5
:102CE000FAFC00210820FDF7F6FC3AE0C0488442D7
:102CF00008D101211020FDF7EEFC00211020FDF786
:102D0000EAFC2EE0BB48844208D101212020FDF7D7
:102D1000E2FC00212020FDF7DEFC22E0B6488442E0
:102D200008D101214020FDF7D6FC00214020FDF70D
:102D3000D2FC16E0B148844208D101218020FDF781
:102D4000CAFC00218020FDF7C6FC0AE0AC488442A2
:102D500007D101218015FDF7BEFC0021A015FDF76C
:102D6000BAFC10BD10B501210846FDF7B4FC0021E6
:102D70000120FDF7B0FC10BD2DE9F0410246002511
:102D80000026002000230024002791F803C00CF047
:102D90000F0591F803C01CF0100F03D091F802C08A
:102DA0004CEA050591F800C0BCF1000F31D0146861
:102DB00000202BE04FF0010C0CFA00F3B1F800C03A
:102DC0000CEA03069E4220D183004FF00F0C0CFA50
:102DD00003F7BC4305FA03FC4CEA040491F803C072
:102DE000BCF1280F06D14FF0010C0CFA00FCC2F820
:102DF00014C00AE091F803C0BCF1480F05D14FF0B0
:102E0000010C0CFA00FCC2F810C0401C0828D1D3F9
:102E10001460B1F800C0BCF1FF0F34DD546800202D
:102E20002EE000F1080C4FF0010808FA0CF3B1F89D
:102E300000C00CEA03069E4221D183004FF00F0C24
:102E40000CFA03F7BC4305FA03FC4CEA040491F8BE
:102E500003C0BCF1280F05D100F1080C08FA0CF8EA
:102E6000C2F8148091F803C0BCF1480F07D100F1FB
:102E7000080C4FF0010808FA0CF8C2F81080401C4A
:102E80000828CED35460BDE8F0814FF6FF71018071
:102E9000022181700421C1707047024600209368AE
:102EA0000B4201D0012000E00020704701468868F5
:102EB00080B2704702460020D3680B4201D0012047
:102EC00000E0002070470146C86880B27047016189
:102ED0007047416170470AB1016100E0416170478C
:102EE000C16070474FF480320A4382618161826120
:102EF00082698269704702460020424B18684FF68B
:102F00008073184040EA021008433E4B1860704737
:102F10003D49C8617047F0B50A46002300240021EE
:102F2000002500F00046B6F1004F02D1354EF169A0
:102F300001E0344E7168C0F3034583B200F44016DB
:102F4000B6F5401F08D121F070612E4E766826F04C
:102F500070662C4F7E6012E000F48016B6F5801F7C
:102F600006D1032606FA05F4A14341F0706106E09C
:102F7000460D360103FA06F6B14341F0706122B105
:102F8000460D360103FA06F6314300F00046B6F16D
:102F9000004F02D11B4EF16101E01A4E7160F0BD8D
:102FA00030B500228B071C0F0F2303FA04F2154BD8
:102FB00008338C1053F824309343124C08348D108E
:102FC00044F8253023468C1053F824308C07240F06
:102FD00000FA04F423430B4C08348D1044F82530D8
:102FE00030BD0A490860704700080140000C0140EC
:102FF000001001400014014000180140001C014075
:10300000002001400000014000002042DC0020427E
:1030100010B50446FB48844209D101218803FDF71D
:103020005AFB00214FF48040FDF755FB32E0F64893
:10303000844209D101214804FDF75AFB00214FF4D5
:103040000030FDF755FB25E0F048844209D101210D
:103050008804FDF74DFB00214FF48020FDF748FB6D
:1030600018E0EB48844209D10121C804FDF740FB78
:1030700000214FF40020FDF73BFB0BE0E5488442C4
:1030800008D101210805FDF733FB00214FF4801022
:10309000FDF72EFB10BD2DE9F04786B005460E4624
:1030A0000024A24600BFA1460027B08900B100BF9E
:1030B0002F462C8A4CF6FF700440F08804432C8283
:1030C000AC894EF6F3100440B08831890843718909
:1030D00008430443AC81AC8A4FF6FF400440B089FA
:1030E0000443AC8201A8FDF770FAC648874202D1BA
:1030F000DDF810A001E0DDF80CA0A88910F4004F65
:1031000008D00AEBCA0000EB0A1031684900B0FB96
:10311000F1F807E00AEBCA0000EB0A1031688900F9
:10312000B0FBF1F86420B8FBF0F004012009642141
:1031300001FB1089A88910F4004F08D0322000EB61
:10314000C900B0FBF1F000F00700044308E03220B2
:1031500000EB09106421B0FBF1F000F00F00044314
:103160002C8106B0BDE8F0874FF4165101600021B4
:103170008180C18001810C214181002181817047C2
:1031800010B502460020108A4FF2FF0318400B884A
:103190004C8823438C882343CC88234318431082D4
:1031A00010BD0021018041808180C180704721B124
:1031B000828942F40052828104E082894DF6FF73D5
:1031C0001A4082817047F0B503460024002600258E
:1031D0000020A1F510676A3F00D100BF1846C1F377
:1031E000421401F01F06012707FA06F5012C01D150
:1031F0000C3004E0022C01D1103000E014301AB180
:1032000007682F43076002E00768AF430760F0BD1F
:103210001AB1838A0B43838202E0838A8B438382C1
:103220007047028A4FF6F0731A400282028A0A43FC
:103230000282704782894FF2FF731A40828182892D
:103240000A438281704721B1828942F00202828161
:1032500004E082894FF6FD731A4082817047028A2A
:103260004FF6DF731A400282028A0A4302827047D5
:1032700021B1028A42F48042028204E0028A4BF6C3
:10328000FF731A4002827047C1F3080282807047C0
:1032900001468888C0F308007047818941F0010128
:1032A00081817047028BD2B20283028B42EA0122F3
:1032B00002837047028B02F47F420283028B0A432F
:1032C0000283704721B1828A42F02002828204E0A8
:1032D000828A4FF6DF731A408282704721B1828A58
:1032E00042F01002828204E0828A4FF6EF731A40A5
:1032F0008282704721B1828A42F00802828204E011
:10330000828A4FF6F7731A408282704721B1828910
:1033100042F40042828103E08289C2F30E0282817C
:10332000704721B1828A42F40062828204E0828A7C
:103330004FF2FF731A4082827047828A4FF6FB7306
:103340001A408282828A0A438282704721B1828A2D
:1033500042F00202828204E0828A4FF6FD731A4034
:103360008282704702460020B1F5007F00D100BF85
:1033700013880B4201D0012000E00020704701F4C7
:103380000072B2F5007F00D100BFCA4302807047CF
:1033900070B502460024002300250020A1F5106628
:1033A0006A3E00D100BFC1F3421501F01F030126A0
:1033B00006FA03F3012D02D19689334006E0022D6F
:1033C00002D1168A334001E0968A33400C1201265E
:1033D00006FA04F41688344013B10CB1012000E061
:1033E000002070BD10B500220023A1F510646A3CD6
:1033F00000D100BF0A1201249440A3B2DC43048030
:1034000010BD00000038014000440040004800406A
:10341000004C00400050004031490143314A1160E6
:10342000704770B5002100230F22C4780CB32D4CD7
:10343000246804F4E064C4F5E064210AC1F10403E3
:10344000CA40447804FA03F1847814402143090106
:10345000254C0678A155047804F01F050124AC40E2
:1034600005786D114FF0E02606EB8505C5F80041A3
:1034700009E0047804F01F050124AC401B4D0678D8
:10348000761145F8264070BD194A0A400243154B93
:103490001B1F1A60704739B1124A121D126802438D
:1034A000104B1B1D1A6006E00E4A121D1268824363
:1034B0000C4B1B1D1A607047042808D14FF0E02107
:1034C000096941F004014FF0E022116107E04FF07B
:1034D000E021096921F004014FF0E02211617047F9
:1034E0000000FA050CED00E000E400E080E100E0FF
:1034F00080FFFF1F10B500F071FA001D10BD00BF66
:10350000D916000070B5064600F064FA056806F1A9
:103510000B0020F00704B4429CBF002070BD2B4676
:103520006A68BAB11068A04210D304F10801884259
:103530003CBF5068586007D351681019416011684A
:10354000091B016058601460101D70BD134652685D
:10355000002AE7D12146284600F04CFA0028DED1A7
:1035600070BD70B50446051F00F034FA0068002CE9
:1035700014BF446870BD002C18BFAC423CBF20464D
:103580006468F8D301680A18AA4218BF456003D1DD
:103590002A6805461144016028684119A1421CBFF0
:1035A0006C6070BD6168696021680844286070BD06
:1035B00010B50446FFF79EFF0068005D000704D5C4
:1035C000DF2C02D0A4F1200010BD204610BD000069
:1035D0000FB41CB5074B06AA7B44694600900598BA
:1035E00000F0C3FC0020694600F0D2FC1CBC5DF872
:1035F00014FB0000B509000070B504468569006839
:10360000C10601D5302600E02026C00708D070BDD5
:10361000D4E9012130469047206A00F10100206280
:103620006D1EF5D570BD70B5044685690078C0077C
:1036300008D170BDD4E9012120209047206A00F113
:10364000010020626D1EF5D570BD70B50C460546B3
:10365000012A05D02878800600D5EA69002302E017
:10366000012305E05B1C934202D2E05C0028F9D103
:10367000A869E618C01AA861286A18442862284672
:10368000FFF7BAFF04E0D5E9012114F8010B9047D8
:10369000B442F8D32846FFF7C6FF70BD2DE9F041CC
:1036A0000646002410687529314616A511D0AFF3DF
:1036B0000080002803DAC0F1000013A507E031689C
:1036C0008A0701D511A502E0490704D510A50124F8
:1036D00001E0AFF3008000210A2306F1240707E090
:1036E000B0FBF3F203FB1200303078541046491C53
:1036F0000028F5D123462A463046BDE8F04100F0C7
:10370000C3B90000000000002D0000002B000000E5
:103710002000000070B504460D4621461068AFF346
:1037200000802188090502D5104A7A4402E00F4A38
:103730007A440E32002104F1240307E000F00F0662
:103740004FEA1010965D5E5401F101010028F5D199
:1037500003462078000704D5702D02D009B111323C
:1037600002232046BDE8704000F08EB9841C0000A2
:103770002DE9F05F894604464FF0000ADFF828B1D2
:10378000FB44C0F820A02046E168884700287CD090
:10379000252806D0D4E901219047206A401C2062E8
:1037A000F1E700255F462046E16888472028064665
:1037B00008DB312E06D207EB060010F8200C08B10A
:1037C0000543F0E7A80701D525F00405C4F81CA0BF
:1037D0000027C4F818A02A2E09D0304601F0F5F9C8
:1037E00038B304EB8708303EC8F8186019E059F880
:1037F000041B204604EB87029161E1688847012F92
:10380000064618D1E069002820DA25F020051DE0E1
:10381000D8F8180000EB800006EB40003038C8F8FC
:1038200018002046E1688847064601F0CEF90028D6
:10383000EED1012F0AD02E2E08D12046E16888470C
:103840007F1C0646022F45F02005C4DBA069002836
:1038500003DA404245F00105A061E80701D025F0F8
:10386000100596B1A6F14100192802D8203645F47A
:1038700000654A463146204625604D46FCF770FCFF
:1038800060B1012807D0ED1D00E009E025F0070038
:1038900000F1080977E705F1040974E7304679E794
:1038A000206ABDE8F09F0000561C000070B5064677
:1038B00000F098F80468054630460A22002100F01E
:1038C00082FB2C6070BD40EA0103024630B59B07C5
:1038D00010D14FF0013400E008C208C91D1B9D4300
:1038E00015EAC41FF8D013F0FF0102F8011B0DD038
:1038F0001B0AF8E711F8013B002B02F8013B05D049
:1039000011F8013B002B02F8013BF3D130BD10B59B
:10391000431C02E010F8011B71B18107FAD14FF08E
:10392000013202C88C1A8C4314EAC211F9D0C01AB1
:103930000A0603D0C01E10BDC01A10BD0A0401D073
:10394000801E10BD0902FCD0401E10BD4FF0013C8E
:1039500050F8042B51F8043B9A4221D1A2EB0C03FE
:10396000934313EACC1317D150F8042B51F8043BBE
:103970009A4215D1A2EB0C03934313EACC130BD15B
:1039800050F8042B51F8043B9A4209D1A2EB0C03E6
:10399000934313EACC13DBD04FF00000704700BF15
:1039A000D01A01BAB1FA81F101F0180122FA01F03E
:1039B000CB40C1F12001DBB2C0B2C01A2CFA01F336
:1039C000D11A914311EAC311E6D17047704770478D
:1039D0007047000000487047F00000200048704722
:1039E0000801002000487047E80000207047704739
:1039F0007047704738B504460A4600206946AFF361
:103A00000080002808BF38BD02460099204600F01B
:103A100017FB012038BD012000F074BCF8B5AFF3EE
:103A20000080054600200C46102000BF0646A8195D
:103A3000A0420DD9324669460020AFF3008007004E
:103A400008BF00F05FFC0098A04218BF0546C419EB
:103A5000FFF7C0FF05600746F01D20F0070046197C
:103A6000284600F00AF8B44208BFF8BDA21B314650
:103A70003868BDE8F84000F0E3BA00210160C0E911
:103A800001107047102070472DE9F0470D46994608
:103A90009246044600F124080168880604D5E069CE
:103AA00021F01001216000E00120A84202DDA0EB1E
:103AB000050700E00027A16907EB050202EB0900FA
:103AC000A1EB0000A0612078C00602D42046FFF7D9
:103AD00093FD002608E0D4E901211AF8060090477A
:103AE000206A401C761C20624E45F4DB2078C0061C
:103AF0000AD52046FFF780FD06E0D4E901213020F9
:103B00009047206A401C2062381EA7F10107F4DCB0
:103B100007E0D4E9012118F805009047206A401C0D
:103B20002062281EA5F10105F3DC2046FFF77BFD8E
:103B30002078000602D50220BDE8F0870120FBE7CF
:103B400070472DE9FF4F0C461E464FF0FF378BB0F4
:103B5000D2E90001DDF860800A908A46C1F30A5577
:103B600005B93D46002108464FF00000BAF1000FAC
:103B700000F4400005DA00EB80004FF4400101EA58
:103B800050004FEA9059B9F1010F00DDB9460A988B
:103B900050EA4A000ED044F61050A5F2FF354543D6
:103BA0002F14B8F1000F1ED07542291E1EDDC9F179
:103BB00000021CE0B8F1010F4FF0000001D03021ED
:103BC00003E0F24305E02154401CB042FBDB3046E9
:103BD0000022002121540B99C1F80880C1E900207E
:103BE0000FB0BDE8F08FBD1B6D1CDEE74A4600DA62
:103BF000694206A800F014FB06AB07CB03AB07C372
:103C000050460A9900F012FC8DE80700A0F500501C
:103C10001F3800900398002D09DD42F21F014A462B
:103C2000084403A90390684600F071FE08E0A0F57F
:103C300000504A461F3803A90390684600F07BFEF7
:103C40008DE807000004000C03D04FF0FF3041085E
:103C500000E01046B8F1000F03D000220092154694
:103C60001FE0751E06D400F005FA02F1300262551D
:103C70006D1EF8D5B3460122084302D000227F1CF6
:103C800004E02078302801D100227F1E002A099705
:103C900087D01DE0112D07DA00F0ECF930326255C3
:103CA0006D1C50EA0102F5D108430FD10021681EB6
:103CB00005E0235C625C6354491C2254401E81422F
:103CC000F7DBAB46A81B401E099001E0009848B105
:103CD000002004F80B000B98099AC0F80880C0E98E
:103CE000002B7DE711264FF000085AE72DE9F04F31
:103CF00088460446D21D22F0070191B0D1E90001A7
:103D0000CDE90A0100F04DFF02460B98C00F01D02B
:103D10002D2007E02068810701D52B2002E020211B
:103D200001EAC000032A099001D0072A05DB0346F7
:103D30004146204600F0E4F90FE12078800601D5E5
:103D4000E06900E00620B8F1650F814606D0B8F1C1
:103D5000660F18D0B8F1670F72D132E00020B9F1C8
:103D6000110F009001DB112301E009F101030AAA00
:103D700001A90CA8FFF7E5FEDDE90C70002609F1AA
:103D80000105834648E001204B4600904FF0004774
:103D90000AAA01A90CA8FFF7D4FEDDE90DB00C9921
:103DA0005D46002618B909F1010001EB0005B9EBE9
:103DB000050003D4C0F1FF3609F10105A5EB0900A8
:103DC0002BE0B9F1010F01DA4FF001090020B9F140
:103DD000110F0090484601DD112300E003460AAAB6
:103DE00001A90CA8FFF7ADFEDDE90C704D460026D9
:103DF0008346207800070AD4AB4500DA5D4601A867
:103E0000012D04DD411911F8011C302907D04F455F
:103E100002DA17F1040F04DA0120824610E06D1E69
:103E2000EEE7002F02DCED1B3E4403E0781CA842C5
:103E300000DD0546A7EB060000F1010A4FF0004740
:103E40002078000703D4AA4501DB4FF0FF3A002198
:103E5000B7F1004F0DF143088DF8431023D0022035
:103E60002B23002F01DA7F422D234FF00A0C011E75
:103E7000A0F1010000DC4FB197FBFCF10CFB1172CB
:103E80000F4602F1300208F8012DF0E7A8F1010019
:103E900003702188090501D5452100E06521A0F1C5
:103EA000010800F8011C09980FA9A1EB080707F108
:103EB000070700B1012000EB050101EBEA70A169E1
:103EC0003844A1EB0000A0F10100A0612078C006F9
:103ED00002D42046FFF790FB099830B1D4E90121C4
:103EE0009047206A00F1010020622078C00620D5AA
:103EF0002046FFF781FB1CE0002E04DBB34502DD0A
:103F000001A8805D00E03020D4E901219047206ABB
:103F1000761C401CBAF1010A20620AD1FFF75EFD4F
:103F2000C0680168405CD4E901219047206A401CC8
:103F30002062281EA5F10105DEDC07E0D4E901219D
:103F400018F8010B9047206A401C2062381EA7F128
:103F50000107F3DC2046FFF766FB022011B040E6C4
:103F600001694A1C02610878704700B58FB0CDE93D
:103F700001310021059105497944CDE9031011462D
:103F80006846FFF7F5FB0FB000BD0000E5FFFFFF3F
:103F90000A6802F8010B0A60704710B5436913B153
:103FA000AFF3008001E0FFF750FB012010BD127855
:103FB00000F124010A7000224A700122EDE7116825
:103FC0004FF0FF32E9E72DE9F04791460F46804672
:103FD0000446002614F8015B2DB1FFF78BFA006848
:103FE000405DC007F6D12B2D02D02D2D18D0641EB8
:103FF0004A463946204600F0C3F827B13968A14245
:1040000001D1C7F800804FF0020471050BD5404282
:10401000002803DDFFF7E6FC0460A007BDE8F08799
:1040200046F48066E4E70028F8DAFFF7DBFC04607A
:104030006FF00040F2E7000000487047E800002001
:10404000034640688C46002818BF88423CBF0346A0
:104050004068F8D318681844884207D00CF1030070
:1040600020F00700001D411A521A0146081D0A607F
:10407000FFF777BA30B5B0F10A024FEA900E71F14E
:1040800000034EEA817EB0EB0E0061EB91014FEA36
:10409000101E4EEA017E10EB0E0041EB11114FEAAB
:1040A000102E4EEA016E10EB0E0041EB11214FEA8B
:1040B000104E4EEA014E10EB0E0041EB114140183C
:1040C00041F100014FEAD00040EA41704FEAD101CE
:1040D00010EB80054FEA810444EA907444EB01043C
:1040E0006D1944EB0404521BA3414FF0000348BF79
:1040F0000A3200D530BD401C41F1000130BD000046
:104100002DE9F0411F46044603260168072A01F401
:10411000006004DB08B116A505E016A503E008B1B0
:1041200015A500E015A521F010002060A069C01EB3
:10413000A0610FB1401EA0612046FFF75DFA4FB1AC
:10414000D4E9012138469047206A401C2062C01CF7
:10415000206206E0206AFAE7D4E9012115F8010B94
:104160009047761EF8D22046FFF75DFABDE8F08151
:104170004E414E006E616E00494E4600696E66000B
:104180002DE9F05F824615468B4600270AF10104AF
:10419000B9460078302801D09DB113E014F8010B26
:1041A0000127782803D0582801D045B10AE00DB185
:1041B000102D07D1002714F8010B102502E0082567
:1041C00000E00A250026B0460EE005FB080005FBCE
:1041D00006F101271FFA80F801EB1046B6F5803F83
:1041E00000D3B94614F8010B294600F0B8F80028AE
:1041F000EBDABBF1000F05D00FB1641E00E05446AE
:10420000CBF80040B9F1000F06D0FFF7EBFB02211D
:104210000160C81EBDE8F09F48EA0640FAE70000CA
:104220002DE9F047814616468AB035487844D0E9F2
:10423000002380680092CDE90130314878440C3881
:10424000D0E90223006903924FF03702CDE9043030
:1042500041F69B30014491FBF2F0A0F1800502FB96
:1042600010141B3C02D56442012000E00020DFF85E
:1042700090A080460027FA44AAF1C60A0DE0E007A4
:1042800009D03246684607EB47010AEB810100F08E
:1042900052FB8DE8070064107F1C002CEFD1184FF3
:1042A0007F44B43F17E0E80713D007EB04100DF18B
:1042B000180A90E80E00AAE80E00C068F04201D18A
:1042C00098190890324606A903A800F034FB03AB06
:1042D00007C36D10641C002DE5D132466946B8F164
:1042E000000F03A802D000F012FB01E000F023FB56
:1042F000C9E90001C9F808200AB0BDE8F08700004C
:104300003812000010B500F043F8BDE8104000F08E
:104310003AB870477546FFF78FFEAE46050069460E
:10432000534620F00700854618B020B5FBF75CFF28
:10433000BDE820404FF000064FF000074FF00008A6
:104340004FF0000B21F00701AC46ACE8C009ACE827
:10435000C009ACE8C009ACE8C0098D4670473A28EE
:1043600000D2303820F02002412A01D3A2F13700D8
:10437000884201D34FF0FF3070470446AFF300800E
:104380002046FBF71DFF002801D000F029B8704738
:1043900010B5012805D0002103A000F027F8012066
:1043A00010BD09A1F8E7000053494752544D454D4F
:1043B0003A204F7574206F662068656170206D65C6
:1043C0006D6F7279000000003A2048656170206DC1
:1043D000656D6F727920636F7272757074656400B9
:1043E00001491820ABBEFEE72600020070B5054665
:1043F0000C460A2000E06D1C00F011F835B1287859
:104400000028F8D102E0641C00F009F814B120780B
:104410000028F8D1BDE870400A20AFF3008008B54D
:1044200069468DF800000320ABBE08BD5FEA400C72
:1044300008BF91F0000F4FEA8C234FEAC12243EAF4
:1044400051514FEA1C5018BF00F5F0404FEA3000C0
:1044500018BF41F000415FEA6C5C00F02980BCF1BC
:10446000FF3F08BF40F080407047130C06BF1204A6
:104470004FF0100C4FF0000C130E04BF12020CF1A1
:10448000080C130F04BF12010CF1040C930F04BFAE
:1044900092000CF1020CD30F04BF52000CF1010C7E
:1044A00011464FF00002A0F11F00A0EB0C00704776
:1044B00011F0004F08BF704731F000413FF4D5AF15
:1044C0000B0C06BF09044FF0100C4FF0000C0B0E44
:1044D00004BF09020CF1080C0B0F04BF09010CF119
:1044E000040C8B0F04BF89000CF1020CCB0F04BF2E
:1044F00049000CF1010CCCF12003A0EB0C0022FAD6
:1045000003F302FA0CF241EA030100F101007047E3
:1045100020F07F4C80EA030023F07F47ACEB0703D9
:1045200003F57C5300F0004003F1FF032DE98049BF
:104530004FEA154B09B44FEA144325EA0B4E24EA1F
:1045400003480FF2042606EB132749083E785FEA7A
:10455000320203FB0667C7F5000707FB06F64FEAC2
:1045600054374FEAD64606F1020607FB066CCCF13B
:10457000005C4FEA1C472CEA074C07FB06F40CFBD7
:1045800006F504EB15464FEA961634BF00204FF0AF
:1045900000404FEAD13706FB07FC4FEA1C4C0CFBEE
:1045A0000BF7D21B03FB0CF761EB07010CFB0EF7BB
:1045B000B0EB074072EB17420CFB08F734BFA2EBDD
:1045C0000742B2EB074261EB17414FEA0C444FEA56
:1045D000910706FB07FC4FEA1C4C0CFB0BF7B0EBFA
:1045E000C74072EB573203FB0CF734BFA2EBC74254
:1045F000B2EBC74261EB57310CFB0EF7B0EBC700D3
:1046000072EB57720CFB08F734BFA2EBC702B2EB98
:10461000C70261EB5771039F4FEA816141EA921132
:1046200004EBCC044FEAD1374FEA826206FB07FC69
:1046300042EA90124FEA80604FEA1C4C0CFB0BF7E9
:10464000D21B03FB0CF761EB07010CFB0EF7B0EB81
:10465000074072EB17420CFB08F734BFA2EB07428E
:10466000B2EB074261EB17414FEA8C554FEA9107D5
:1046700004EB9C2406FB07FC4FEA1C4C0CFB0BF7DD
:10468000B0EBC74072EB573203FB0CF734BFA2EB21
:10469000C742B2EBC74261EB57310CFB0EF7B0EBF0
:1046A000C70072EB57720CFB08F734BFA2EBC702CE
:1046B000B2EBC70261EB577115EB4C254FEA8161F4
:1046C00041EA92114FEA82624FEAD13742EA9012F0
:1046D00006FB07FC44F100044FEA80604FEA1C4CE3
:1046E0000CFB0BF7D21B03FB0CF761EB07010CFB78
:1046F0000EF7B0EB074072EB17420CFB08F734BF24
:10470000A2EB0742B2EB074261EB174115EB1C1518
:104710004FEA813141EA92414FEA823242EA9042C5
:104720004FEA80304FEA0C7644F1000448EA034334
:104730004EEA0B484FF0000EB2EB080C71EB03078A
:1047400024BF624639464EEB0E0E4FF0000B0018A8
:10475000524149414BEB0B0BB2EB080C71EB0307D9
:104760007BF1000B24BF624639464EEB0E0E4FF034
:10477000000B0018524149414BEB0B0BB2EB080CFC
:1047800071EB03077BF1000B24BF624639464EEB09
:104790000E0E51EA020718BF46F0010616EB0E7620
:1047A00055F1000254F1000103D5BDE88901BDE8CF
:1047B0000088BDE88901BDE80048B619524141EBC7
:1047C0000101A3F10103704780807F7E7D7C7B7AAD
:1047D0007978777676757473727171706F6E6E6DAD
:1047E0006C6C6B6A6A696868676666656464636353
:1047F00062616160605F5F5E5E5D5D5C5C5B5B5AD9
:104800005A59595858575756565555555454535345
:1048100052525251515050504F4F4F4E4E4D4D4DA0
:104820004C4C4C4B4B4B4A4A4A49494948484847EB
:104830004747474646464545454444444443434329
:104840004342424242414141002B26D4770021D0CD
:104850001CB54FEA370703B44FF010004FF01001BA
:104860004FF000000FBCBDE810400BF1010BBBF195
:10487000010F08BF5FEA170722BF12F1010211F111
:1048800001014FF0004143F1000300F0004043EA12
:1048900000007047F9D35708DAE746EA064613F1F5
:1048A000400F4FEA16461FDD13F1200FDFBF1643FE
:1048B0000A46002120335B42C8D0C3F1200746EAF4
:1048C000064602FA07F74FEA164646EA0706C3F11C
:1048D000200722FA03F201FA07F721FA03F14FF059
:1048E000000342EA0702B1E746EA020646EA064644
:1048F0004FEA164646EA0106BCBF46EA0646360CB3
:104900004FF000034FF000024FF000019EE72DE949
:10491000C048934630B491E8380007C831EA400CEB
:1049200048BF34EA430C03D5FFF7F2FDFFF78CFFD5
:10493000F0BCBDE800882DE9C048934630B491E84A
:10494000380007C810F0804F08BF13F0804F03D124
:1049500000F005F8FFF778FFF0BCBDE8008820F014
:104960007F4780EA030023F07F4C07EB0C03A3F59D
:104970007C5300F00040A3F1FE0392F0000F00F022
:10498000B38095F0000F00F077802DE901494FEAE0
:1049900011404FEA144621EA004800FB06FC24EAD5
:1049A000064708FB06F607FB08F800FB07F718EBBD
:1049B00006484CEB164C4FEA124B18EB07484FEAEF
:1049C00015464CEB174022EA0B4E0BFB06FC25EA82
:1049D00006470EFB06F607FB0EFE0BFB07F71EEB6A
:1049E000064E4CEB164C4FF000061EEB074E4CEB00
:1049F000174B18EB0B0840F1000018EB0E0B58EBAF
:104A0000000840F100008F1A4FF000013CBFC9437D
:104A1000661B14BFB5EB040C00213CBFC943F61B59
:104A20004FEA17444EEA8E0E27EA04454FEA1C4728
:104A300004FB07622CEA074C05FB07F70CFB05F6A5
:104A400004FB0CFC16EB074642EB174216EB0C4638
:104A500042EB1C421BEB060658EB0202414146EAC0
:104A60009E0601D5BDE80189B619524141EB01010D
:104A7000A3F10103BDE801894FEA14454FEA11474C
:104A800024EA054621EA074C05FB07F406FB07F775
:104A90000CFB06F105FB0CFC11EB074144EB174442
:104AA0004FEA124711EB0C4144EB1C4422EA074C3D
:104AB00005FB07F206FB07F70CFB06F605FB0CFCF3
:104AC00016EB074642EB174216EB0C4642EB1C4531
:104AD0006A1854F1000148BF7047B619524141EBC2
:104AE0000101A3F10103704795F0000F37D04FEAA1
:104AF00011424FEA144721EA024624EA074C02FB1E
:104B000007F106FB07F70CFB06F402FB0CFC14EBA9
:104B1000074441EB17414FEA154714EB0C4441EBB6
:104B20001C4125EA074C02FB07F506FB07F70CFBC7
:104B300006F602FB0CFC16EB074645EB174516EB99
:104B40000C4645EB1C42121951F1000148BF704759
:104B5000B619524141EB0101A3F1010370474FEA3D
:104B600014454FEA114724EA054621EA074C05FBA4
:104B700007F106FB07F70CFB06F24FF0000605FBFA
:104B80000CFC12EB074241EB174112EB0C4251EBCC
:104B90001C4148BF7047921841EB0101A3F101038A
:104BA0007047490050EAC12018BF04204A0D18BFC1
:104BB00040F0010040F2FF72B2EB515F08BF40F0DD
:104BC0000200012808BF0520704730380A2801D2AA
:104BD000012070470020704710B500290AD00878DE
:104BE000002807D005487844FEF7B0FE002801D021
:104BF000002010BD0248784410BD0000BA08000033
:104C0000B208000010B500290AD00878002807D0A3
:104C100005487844FEF79AFE002801D0002010BD18
:104C20000248784410BD00009E090000960900006B
:104C300021F00042A2F16052B2F5801F01F0004362
:104C400028BFD2F17F6C0BD95FEA001C43EAC20295
:104C500042EB507018BF704728BF20F0010070472A
:104C6000B2F5801FBCBF184670474FEA410C1CF5D7
:104C7000001F02D2084600F04EBB70B500F06AFA81
:104C800000000089FFF7F6BF4FF00040A0F580005C
:104C9000704700002DE9C04130B4DFF8A0C23CEA03
:104CA000111418BF3CEA131400F0EC8081EA0305EC
:104CB0001CEA111444EAD57418BF1CEA131500F05D
:104CC000C780A4EB05044FF0004545EAC12145EA41
:104CD000C32341EA505143EA525304F17F7499428D
:104CE00004F500344FEAC0204FEAC22208BF9042C8
:104CF00000F09C804FEA13650FF24016765D4FEA94
:104D0000134506FB05F7C7F1807706FB07F74FEA67
:104D1000D737A7FB03687642C8F58038A7FB06CED5
:104D200038BFA8F1010807FB08E64FF0000EA6FB0C
:104D3000028CE6FB03CEDCF1000CCEF1004E38BF56
:104D4000AEF1010EA6FB0C584FF000074FF0000526
:104D5000E6FB0E87A1FB08C6A0FB07CE16EB0E06EE
:104D600045F10005E1FB076515F1E04E7EBFA4F5B6
:104D700080345FEA46066D4116F1800745F1000573
:104D80004FEA17274FEA066647EA0567A6F1DE46AF
:104D9000B6F1805F4FEA15251FD9384624F0010C83
:104DA00005EBC471BCF1FE6F01EB0C1102D8F0BC35
:104DB000BDE8008124425CBF01F5801E9EEAC47FED
:104DC00002D4F0BCBDE80081244238D4F0BCA1F18B
:104DD000C041BDE8004100F00BBA4FEAD22242EADE
:104DE00043524FEAD323A7FB02864FEAD02040EA82
:104DF000415007FB03661EEA0E0F4FEAD12105FB67
:104E0000026658BFA6EB0056B6EB00564FEA520EAC
:104E10004EEAC37E18EB0E0E56EB530EBDD518EBC3
:104E200002085E417F1C55F10005B6E74FF480157E
:104E30004FF000074FF000064FF00008ADE7F0BC60
:104E40004FF0000001F1C04101F00041BDE80081D8
:104E500011EA0C1F0CEA131500D00CE013EA0C1F2A
:104E600000F025804FF00000F0BC81EA030101F062
:104E70000041BDE80081F0BCBDE8004181EA0301CA
:104E800000F0B6B9F0BCBDE8004170B500F062F9C1
:104E9000097EFC3E00F007B881EA03014FF00000F4
:104EA00001F00041704781EA030100F0A1B9F0BCB4
:104EB000BDE800414FF0000021497047FFFDFBF9BC
:104EC000F7F5F4F2F0EEEDEBE9E8E6E4E3E1E0DE3D
:104ED000DDDBDAD8D7D5D4D3D1D0CFCDCCCBCAC8AF
:104EE000C7C6C5C4C2C1C0BFBEBDBCBBBAB9B8B7D6
:104EF000B6B5B4B3B2B1B0AFAEADACABAAA9A8A8C9
:104F0000A7A6A5A4A3A3A2A1A09F9F9E9D9C9C9B96
:104F10009A99999897979695959493939291919041
:104F20008F8F8E8E8D8C8C8B8B8A898988888787D2
:104F30008685858484838382828181800000FF0747
:104F40000000F87F10F0004248BF4042B0FA80F302
:104F500010FA03F10AD0C3F11D0303F580634FEA91
:104F6000415002EB035202EBD12170474FF0000099
:104F700070470000B1FA81F30B3B20D3994010D168
:104F8000B0FA80F310FA03F108BF7047C3F11D03B4
:104F900003F580634FEAD1224FEA415002EB0351FF
:104FA0007047C3F1200C20FA0CFC9840C3F1320387
:104FB00003F5806341EA0C0101EB0351704710B522
:104FC000C3F10004C3F1320CC4F1200E0CF5806271
:104FD00001FA0EFC21FA04F100FA0EF3E040BDE8FC
:104FE000104040EA0C0001EB025138BF7047401CF2
:104FF00041F100015B0008BF20F001007047000094
:10500000DFF848C170B51CEA111E1EBF1CEA13155B
:105010009EEA0C0F95EA0C0F00F06F8081EA030402
:1050200023EA4C134EEAD47E21EA4C1141F480115C
:1050300043F48013AE44A1FB024CA0FB0365AEF128
:105040007F7E361955EB0C05A1FB034C4CF1000398
:10505000A0FB021C16EB0C06654153F1000309424C
:1050600018BF46F0010613F4007F0BD14FEA03315D
:105070004FEA0530340341EA155140EA16506FF00B
:1050800003020AE04FEAC3214FEAC520F40241EAD5
:10509000555140EA56506FF0020202EB2E4201EBEE
:1050A000025585EACE710AD05FEA440C18BF24F09D
:1050B000004450F1000041F1000120EAD47040F2B8
:1050C000FE7C624500D270BDA84214BF4FF0804400
:1050D0004FF04044002E08BF0024BEF1806FA8BFEF
:1050E000A1F1C041BDE8704080F282804FF0000025
:1050F00001F1C04101F0004170479EEA0C0F0CEA3B
:10510000131518BF95EA0C0F06D04FF0000081EA86
:10511000030E0EF0004170BD00F01CF88900013E46
:1051200000F007B800F009B84FEA430C5FEA5C5C96
:1051300008D081EA030100F05BB84FEA410C5FEA56
:105140005C5CF6D14FF00000014970470000FF079A
:105150000000F87F0EF1020E2EF0030E5EF8046BD5
:10516000364205D4012A43EB030515F5001F12D87A
:10517000012841EB010C1CF5001F0CD80ED14FEAA1
:10518000D17C15F5001F0CEB4C0C0CF1020C08BF88
:105190004CEBD37C04E04FF0080C01E04FEAD37CE9
:1051A0000CEB4C0526FA05F606F00706B6F1040CE2
:1051B00006D20EEB860CBDE870404CF0010C604747
:1051C000DFE80CF0090B02024FF000414FF0000045
:1051D000A1F5002170BD19461046012851EB0104CC
:1051E00018BFD4F5001484BF002001F0004170BD49
:1051F0000808A0F500114FEA3101704743004FEA5B
:10520000D30C4FEA3C0C43401FBF40070CF16051E8
:1052100013F0FE4F70471CF0006F03D100200CF01C
:10522000004170470CF0004343EA507010B540EA6B
:10523000CC0000F02AF800BF000000924FEA000105
:10524000FFF7D6BF4FF000414FF00000A1F500215D
:105250007047000041000B0ED3F19E0208D950F4B4
:1052600000034FEA032323FA02F048BF404270478D
:1052700010B500F00AF800BF499224800020704762
:105280006FF0004282EA200070470EF1020E2EF00D
:10529000030E5EF8044B244204D44FEA4102B2F1FB
:1052A0007F4F11D84FEA4003B3F17F4F0CD80ED196
:1052B0004FEAD07CB2F17F4F0CEB4C0C0CF1020C9E
:1052C00008BF4CEBD17C04E04FF0080C01E04FEA42
:1052D000D17C0CEB4C0324FA03F404F00704B4F182
:1052E000040C06D20EEB840CBDE810404CF0010C0F
:1052F0006047DFE80CF0070802024FF00040A0F51D
:10530000800010BD0846420018BFD2F1807288BFED
:1053100000F0004010BDFF2141EAD050C0057047A9
:10532000FEF7E4BC0D0D0A0A286329204F70656E54
:105330002D504C43202D204750494F206D6F6475F0
:105340006C652076312E3420286F70656E2D706C60
:10535000632E636F6D290D0D0A0A3F202D206865AD
:105360006C700D0A000000000D0A6C6E203C4E6E41
:105370003E2020202020202020202020202020200F
:10538000202020202020202020202020202020201D
:1053900020202D20736574206E756D626572206FFC
:1053A00066206368616E6E656C732028312D2564FC
:1053B00029003031323334353637383941424344AD
:1053C000454640305800303132333435363738397D
:1053D0006162636465664030780004000008000084
:1053E0000000000000020001000010000240000068
:1053F000000000A00000000005400000000000C800
:10540000000000000C4000000000409C0000000074
:10541000194000000020BCBE000000003440000025
:10542000BFC91B8E00000004B5400000504BCFD018
:105430006607E2CF010000006C4100003E8251AAE5
:10544000DFEEA73401000000D9420000DCB5A0E285
:105450003A301F97FFFFFFFFB4450000FD25A0C8AD
:10546000E9A3C14FFFFFFFFFFF3F000000000080E6
:1054700000000000FF3F000000000080000000006E
:10548000CC5500080000002074000000280100082E
:105490004056000874000020D406000044010008B3
:1054A0001001000043000000F8FFFFFF00404040F3
:1054B00040404040404041414141414040404040E7
:1054C0004040404040404040404040404005020293
:1054D0000202020202020202020202020220202052
:1054E00020202020202020020202020202029090AE
:1054F00090909090101010101010101010101010AC
:1055000010101010101010100202020202028888FF
:10551000888888880808080808080808080808080B
:1055200008080808080808080202020240000000F3
:10553000000000000000000000000000000000006B
:10554000000000000000000000000000000000005B
:10555000000000000000000000000000000000004B
:10556000000000000000000000000000000000003B
:10557000000000000000000000000000000000002B
:10558000000000000000000000000000000000001B
:10559000000000000000000000000000000000000B
:1055A00000000000000000000000000000000000FB
:1055B0001C00000043000000F8FFFFFF0C0000008B
:1055C0000E0000000F0000002E00000000366E01EB
:1055D00000000000000000000102030406070809A3
:1055E0000000000001020304010203040607080989
:1055F00002040608E8F7FF1F00000000000000009A
:10560000000000000000000000000000000000009A
:10561000000000000000000000000000000000008A
:10562000000000000000000000000000000000007A
:10563000000000000000000000000000000000006A
:04000005080000ED02
:00000001FF
