:020000040800F2
:10000000280E002001010008170A000861090008F5
:10001000150A0008A5010008B11A00080000000038
:100020000000000000000000000000009D0E00081D
:100030005506000800000000D10B00087D150008DF
:100040001B0100081B0100081B0100081B01000820
:100050001B0100081B0100081B0100081B01000810
:100060001B0100081B0100081B0100081B01000800
:100070001B0100081B0100081B0100081B010008F0
:100080001B0100081B0100081B0100081B010008E0
:10009000391A00081B0100081B0100081B01000899
:1000A0001B0100081B0100081B0100081B010008C0
:1000B0001B0100081B0100081B0100081B010008B0
:1000C0001B0100081B0100081B0100081B010008A0
:1000D0001B010008D11500081B0100081B010008C6
:1000E0001B0100081B01000861180008DFF80CD094
:1000F00000F018F8004800473F1D0008280E0020B7
:100100000648804706480047FEE7FEE7FEE7FEE7B1
:10011000FEE7FEE7FEE7FEE7FEE7FEE781150008E3
:10012000ED000008064C074D06E0E06840F00103D2
:1001300094E8070098471034AC42F6D3FFF7DAFF93
:10014000AC1E0008CC1E000870B501EB020410F8CC
:10015000015B15F0070301D110F8013B2A1106D10C
:1001600010F8012B03E010F8016B01F8016B5B1E26
:10017000F9D12B0705D40023521E0FD401F8013BFF
:10018000FAE710F8013B02F10202A1EB030303E0DE
:1001900013F8015B01F8015B521EF9D5A142D6D3D9
:1001A000002070BDFEE7C1B2000A40EA012070479E
:1001B0002DE9F84F0020ADF80000DFF830A14BF634
:1001C000BF7648F28007484D40F68F78474C48F696
:1001D0000F7BDFF81C910AF1440A2DE0018811F031
:1001E0000F0244490A7030D004EB82000168ADF878
:1001F0000010BDF8001009040BD53E49026802EA60
:10020000080202603C4A087802EB800050F8040CB7
:100210008047BDF8000000060ED53649087804EB8B
:100220008002106800EA0B0010603448097800EB87
:10023000810050F8040C8047DAF800104846A9F80D
:1002400000100904CAD4BDE8F88F216829802988E4
:1002500001F030016980298801F44051298021682A
:10026000314081F4005181F0200139432160008840
:10027000C006206815D400EA0B00206000F072FB75
:1002800026E02988890401D580F400506988C906D0
:1002900026D46988890601D580F020003843206083
:1002A000D1E7ADF80000BDF80000000506D52068D4
:1002B00000EA0800206000F049FF09E0BDF80000F6
:1002C0000004B9D5206800EA0800206000F04CFC6A
:1002D000206829883040C904D3D580F48050D0E705
:1002E00080F01000D5E7000036010020005C0040DF
:1002F0003A0000202401002060000020440000207B
:10030000074901EB80000168490407D5016848F6F8
:100310008F7211404CF2800211430160704700005F
:10032000005C0040074901EB80000168490607D5E1
:10033000016848F68F72114048F2C0021143016013
:1003400070470000005C0040054901EB800108682F
:1003500048F68F62104048F28002104308607047F0
:10036000005C00402DE9F047DFF89480254F4FF006
:100370003009D8F8001001F11005088A0E7A08B982
:10038000042E04D0AC88A04215D8042614E01E48E0
:100390000178012903D00726102038802BE01B4A62
:1003A000002112681A4B92B203EB42025160A7F887
:1003B000009001701FE00226844200D90446A9681B
:1003C000204688478246002000F066FA0146224611
:1003D000504601F06FFB2146002000F0F1FD288817
:1003E000001B2880688820446880A7F8009009498D
:1003F0004FF440500880D8F800000672BDE8F0873E
:10040000280100203801002020010020505C00401D
:1004100000600040360100202DE9F047224EDFF851
:100420008C803027356835F8100FA968A9B100B362
:10043000AC88844200D904462046884781462888F3
:10044000001B2880688820446880002000F004FA9F
:1004500001462246484600F0ABFB288848B11449C3
:100460004FF4405008800021084600F0A9FDA8F88C
:1004700000702888A988884201D3032001E020B1B8
:10048000052031680872BDE8F087316806200872DF
:10049000084900200968084A89B202EB4101486016
:1004A000A8F80070EFE700002801002038010020C4
:1004B00036010020505C004000600040F8B55C4C04
:1004C0005C4D09262068002729684278062A05D055
:1004D000AAB1082A4BD00A2A4ED069E00278520607
:1004E00066D18078012804D0022804D0032804D0E3
:1004F0005EE0C96954E0096A52E0496A50E0428806
:10050000A2BBC288022A53D102797ABB0278530671
:1005100001D1838833B102F07F02012A04D0022A7C
:100520000CD045E044493BE08A694079002190477E
:10053000E0B92068807A0028F4D139E0417901F0EF
:100540000F0001F070020B063C4951F8201003D552
:10055000C1F30111090102E0C1F301310903384B74
:100560001B78834224D90AB90029DBD120E0007826
:1005700040061DD1334913E0027802F07F02012AC0
:1005800016D1827AA2B1428892B9027982B9C28820
:10059000012A0DD18A6940790021904740B92A4942
:1005A00031B120684782816100208847002006E041
:1005B00029682068096940788847032807D021689E
:1005C0000A8AA2F57F43FF3B04D10E72F8BD206872
:1005D0000672F8BD022809D042B10878000621D57C
:1005E000C8880090824205D9088213E04FF00800C5
:1005F0000872F8BD0ED22868144B90F82C00824285
:1006000001D21F7006E0B2FBF0F400FB142008B921
:1006100001201870286890F82C008882BDE8F84006
:10062000FFF7A0BE03200872094900030880F8BD47
:10063000280100202C0100200D130008005C004060
:10064000E8000020A1120008E512000820010020A7
:10065000360100207047000070B514480178012968
:100660000FD1134C0026236853B11249402B086860
:1006700082B207D940304025403B0860236005E046
:10068000067070BD184408609DB226600A48C021FB
:1006900010442A4601F00EFA2946012000F090FC91
:1006A000BDE87040012000F0B1BC00000000002057
:1006B0000C00002008000020A801002010B5064909
:1006C000032001F0CBF9C1B2034801F0D9F9BDE82C
:1006D0001040032000F054BCA80900200149086024
:1006E000704700001404014030B51A49837902684C
:1006F00053B30B6893430B600A1D13680468A3434C
:10070000136002790A441368046823431360114A92
:10071000083213680468A3431360131D1C6805683E
:10072000AC431C604479102C05D021440A68006851
:1007300002430A6030BD11680468214311601968E2
:1007400000680143196030BD007908440168914395
:10075000016030BD00040140F0B5CA78002502F008
:100760000F03D20601D58A7813430C784FF00F0E91
:100770000122ECB1D0F800400F8802FA05F63740AC
:10078000B74211D14FEA850C0EFA0CF724EA07079D
:1007900003FA0CF43C43CF78282F02D0482F02D024
:1007A00002E0466100E006616D1C082DE4D30460A0
:1007B0000C88FF2C1ED944685FF0000606F108077C
:1007C00002FA07F50F882F40AF420FD14FEA860C8F
:1007D0000EFA0CF7BC4303FA0CF73C43CF78282FF2
:1007E00000D14561CF78482F00D10561761C082ED5
:1007F000E4D34460F0BD0000F0B5144C002801DAE9
:10080000E36900E06368420D120185B2C0F301574D
:100810009540C0F30346032F05D0C2020AD5032238
:10082000B240934307E023F07062636823F0706383
:10083000636002E0AB4343F0706201B12A430028D9
:1008400001DAE261F0BD6260F0BD0000000001402D
:1008500041617047016170470549096889B201EB40
:10086000C000044901EB4000008980B270470000DD
:10087000505C0040006000400549096889B201EB06
:10088000C000044901EB40008089C0F309007047B3
:10089000505C0040006000400449096889B201EBE7
:1008A000C000034931F8100080B27047505C00402E
:1008B000006000400A4810B50168001D0468001D72
:1008C000006808180BD00822064900F079F805499D
:1008D00020460422BDE81040103100F071B810BD70
:1008E000E8F7FF1F1A00002070B51B4801780129A6
:1008F0000AD082680021B2F5006F00D18160D0E992
:100900000123934201D1017070BD02D9C3F5006289
:1009100001E0A2EB03021446C260402A9AB205D954
:1009200040254033403CC0E9023403E02344C0E9A1
:100930000231A5B2012101700848C02110442A46A5
:1009400001F0B8F82946012000F03AFBBDE87040FC
:10095000012000F05BBB000000000020A801002087
:10096000FEE7000010B5134C2068017A022904D07C
:10097000042902D0062905D015E0FFF7F3FC206812
:10098000007A11E04178052909D10178490606D19C
:10099000C07800F08DFA08480068006A8047074870
:1009A000006880688047082021680872BDE8104010
:1009B00000F010B928010020300100202C01002097
:1009C000F0B500230A24302537261F4611E000BF6A
:1009D000B4EB107F02D905EB107C01E006EB107C34
:1009E00001F813C001EB430C00015B1C8CF8017093
:1009F000DBB29342ECD3F0BD0448817A044809B1DC
:100A0000052100E00121016000F0BABD080A0020C4
:100A100010010020FEE7704770470000F0B50F217D
:100A2000C478027801234FF0E026DCB1124C246830
:100A3000457804F4E064C4F5E064240AC4F10407D2
:100A4000E1408478BD400C402C4321010B4C1155F2
:100A5000007800F01F018B40400906EB8000C0F8D1
:100A60000031F0BD02F01F008340500906EB80000A
:100A7000C0F88031F0BD00000CED00E000E400E0C3
:100A80000249084302490860704700000000FA0567
:100A90000CED00E070B52F4D2868017844784A06C7
:100AA00006D001F07F00012828D002282BD035E0A5
:100AB000092C06D0052C07D0032C0ED0012C14D005
:100AC0002CE000F06BFC28E0C1787F292ED88178DB
:100AD00061BB818851BB807A27E0C17801291DD193
:100AE0008088D8B900F076FC17E0C178012915D1CB
:100AF000818899B9407A80060AD40FE00B2C0DD179
:100B000000F0BAFC09E0012C02D0032C03D005E070
:100B100000F050FB01E000F06FFC58B10E49204698
:100B2000096849698847032802D018B108200DE0F8
:100B300009200BE0094A062000211268084B92B2F6
:100B400003EB42025160074A302111802968087284
:100B500070BD0000280100202C010020505C0040E6
:100B6000006000403801002010B50F4C2068007A6A
:100B7000022811D004280FD0032804D0052802D061
:100B8000072805D008E0FFF747FC2068007A04E05A
:100B900006480068C0688047082021680872BDE8E0
:100BA000104000F017B80000280100202C010020A0
:100BB000064B521C520803EB410105D031F8043BAF
:100BC00020F8023B521EF9D170470000006000403F
:100BD000704700000C4810B590F82C10002000F071
:100BE00097F90A480068007A082802D0092809D035
:100BF00006E007494FF4805008800649102008801D
:100C0000002010BD012010BD980000202801002008
:100C1000360100203801002010B5012000F024FE2C
:100C20000648012101600021054A0160031D196089
:100C30004FF4E05111800160002010BD405C004085
:100C400034010020044A0029D16901D0014300E0A9
:100C50008143D1617047000000100240044A00291E
:100C6000916901D0014300E0814391617047000028
:100C70000010024030B520494A6812F00C031F4AA8
:100C800003D0042B01D0082B22D002604A680F2326
:100C90001B4C03EA1212A35C0268DA4042604B6804
:100CA000072505EA1323E35C22FA03F383604B680C
:100CB00005EAD323E35C22FA03F2C2604968032306
:100CC00003EA9131231F595CB2FBF1F1016130BDA0
:100CD0004A684B6802F470124FF0020413F4803F2C
:100CE00004EB924202D04B689B0301D5054B00E018
:100CF000024B5A43C9E700000010024000127A007C
:100D00003E01002000093D000149086070470000D5
:100D1000D80042422DE9F041214C072800D0207034
:100D200022781F4D0626052104271E48062A0BD2CD
:100D3000DFE802F0030C11161E27686810B121705D
:100D4000BDE8F08100F030F82670F9E700F02CF8EB
:100D50002770012022E00220607003202070EFE75E
:100D60006078401E607060780028E9D12770E7E75E
:100D7000026892B242F01002026021700A20607094
:100D8000DEE76178491E617061780029D8D1016879
:100D900089B221F010010160267000206860CFE761
:100DA00018010020405C004010B5064C206880B25D
:100DB00020F004002060FFF71FFE4FF43F4020604A
:100DC00010BD0000405C004007480068052809D1BC
:100DD00006480168491C0160062903D10021016011
:100DE000FFF782BD70470000100100203400002092
:100DF000F8B50E46044627492648083150F8240025
:100E000051F82410084340F001000121FFF726FFAC
:100E1000204D083DBCB301210820FFF7EDFC55F83B
:100E200024000121FFF70EFF18208DF80300194858
:100E30006946183830F81400ADF8000003208DF82A
:100E40000200154850F82400FFF786FC04208DF8B6
:100E5000030010486946143830F81400ADF800005B
:100E60000D48083050F82400FFF776FC0A4D314653
:100E7000083D55F8240000F06BFC55F824000121D2
:100E800000F0BEFBF8BDFFE701212868FFF7E6FE92
:100E9000CAE700001C1E000858010020704700002F
:100EA000024920F00700086070470000505C0040D5
:100EB000F0B50D490D4D48F68F770B78002148F2BB
:100EC000800C09E0CEB205EB860422683A4032433A
:100ED00042EA0C022260491C9942F3D3034940F0D4
:100EE00080004C310860F0BDE8000020005C00404C
:100EF000054A21F00101126892B202EBC000034AD8
:100F000002EB400081607047505C00400060004090
:100F10000D4A12683E2992B202EBC0000B4A02EB66
:100F2000400209D94809C90601D1401E80B24FF4D8
:100F3000004141EA802004E04808C90700D0401C75
:100F40008002106070470000505C00400C60004060
:100F50000A4A02EB800210684BF68F7300EA030026
:100F6000CB0401D580F48050890401D580F4005071
:100F700048F280010843106070470000005C0040A8
:100F8000064901EB800108684BF68F72104080F42F
:100F9000405048F28002104308607047005C0040F7
:100FA000054A21F00101126892B202EBC000034A27
:100FB00042F8101070470000505C00400060004094
:100FC000044A126892B202EBC000034A02EB4000EE
:100FD00041607047505C0040006000400A4A02EBEC
:100FE0008002106848F6BF7300EA0300CB0601D503
:100FF00080F01000890601D580F0200048F28001C1
:101000000843106070470000005C0040064901EB97
:101010008001086848F6BF72104080F0300048F246
:101020008002104308607047005C0040044A02EBF5
:101030008002106848F68F1318400843106070470C
:10104000005C00400CB50021264801910091026827
:1010500042F4803202604FF4A063026802F400326E
:101060000092019A521C0192009A12B9019A9A4276
:10107000F3D10268920333D5012100911A490A681D
:1010800042F010020A600A6822F003020A600A684D
:1010900042F002020A604168416041684160416873
:1010A00041F480614160416821F47C1141604168F4
:1010B00041F4E8114160016841F08071016001680C
:1010C0008901FCD5416821F003014160416841F08C
:1010D000020141604168C1F381010229FAD10CBDCE
:1010E00000910CBD001002400020024038B50121E3
:1010F0002020FFF7B3FD4FF40070ADF8000003208F
:101100008DF8020014208DF8030069460848FFF7A7
:1011100023FB4FF480242046FFF7E0FA054908201E
:101120000C604871012088710846FFF7DDFA38BD70
:10113000001401401000002010B50020FFF7E4FD6E
:101140000121BDE81040C805FFF77CBD70B5164809
:101150000068174D81B2154800EB4101098989B239
:1011600000EB41042868017A09290FD02178017029
:1011700061784170A088FFF716F8296848802089B7
:10118000FFF711F829688880A089C88028680121A4
:101190000172C08828B1FFF791F9BDE87040FFF7F0
:1011A00019BDFFF777FCF8E7505C00400060004095
:1011B000280100202DE9F04134480068017811F041
:1011C0007F0102D0022905D05DE0417A01F0DF0104
:1011D000417247E04188002955D10179F1BB41793D
:1011E0002C4D21F080040A06294B55F8242003D504
:1011F000C2F30112120102E0C2F3013212031E789F
:101200002346A6423FD94AB3807A38B308060DD5A3
:1012100055F82400C0F3011001281DD11846FFF72E
:1012200081F820463021FFF7D9FE15E005EB840652
:101230003068C0F3013001280ED14BF68F7748F2A9
:10124000800894B11846FFF75BF83068384080F4A6
:10125000405040EA080030600F4800E013E00068AA
:10126000406980470020BDE8F0810C4890F82C10C0
:101270000020FFF74DFE2868384080F4405040EAD7
:1012800008002860E8E70220EDE7000028010020C0
:10129000E8000020005C00403001002098000020A1
:1012A00010B5074C30B107480068006880472068D7
:1012B0000A3010BD216801200882002010BD000006
:1012C0002801002030010020054A13685A8A10B115
:1012D0000868104470478888801A18820020704778
:1012E0002801002010B5074C30B10748006880681D
:1012F000804720680C3010BD216801200882002042
:1013000010BD000028010020300100201F4910B549
:10131000096860B11E48002202800A7853060AD08C
:1013200002F07F02012A16D0022A16D001E0022024
:101330000882002010BD497A8A06027802D542F060
:10134000020201E002F0FD0249060270D1B210D49F
:1013500001F0FE010FE00E4810BD4A7902F00F01C6
:1013600013060C4A52F8211007D5C1F3011106E00B
:10137000017841F00101017003E0C1F3013101295D
:10138000F6D00548006800698047E4E7280100209E
:1013900022010020005C0040300100200A4810B506
:1013A00000680A4AC1785278914203D882780AB913
:1013B00082880AB1022010BD817205480068406829
:1013C0008047002010BD000028010020E800002018
:1013D00030010020064810B50068417A41F0200134
:1013E000417204480068C0698047002010BD0000B9
:1013F000280100203001002070B51B4803681B48FD
:10140000597921F0800500EB85000C06046821F075
:10141000800203D5C4F30114240102E0C4F30134B3
:101420002403134D2D7895420FD95A886AB964B1B7
:101430009A7A52B10906016848F2800207D548F647
:10144000BF73194081F0100106E0022070BD4BF619
:101450008F73194081F48051114301600548006881
:1014600080698047002070BD28010020005C00409A
:10147000E80000203001002010B50E4C0E4A206814
:101480001268C17892694079904721688A7A22B1BE
:1014900018B9087908B9887808B1022010BD074842
:1014A0000068C068804720684179C172C1780173C3
:1014B000002010BD280100202C0100203001002058
:1014C000F8B52A49002000900A68284B284C92B2AF
:1014D000403B00BF53F82050ADB244F82050401CB0
:1014E0000828F7D342F48060086040F001000860EB
:1014F00020F001050D601D4A121D10684005FCD545
:101500004FF6FF301060002054F82060B6B243F868
:101510002060401C0828F7D345F0080008600868E0
:1015200080B240F004000860124B18680090186800
:1015300020F0030040F0010018600F48046844F0F8
:10154000040404601468E40401D430BF09E04EF6DA
:10155000FF7414600A6892B222F008020A600099CF
:101560001960016821F004010160F8BD405C004091
:10157000E80900200070004010ED00E07047000016
:101580000F4810B5016841F00101016041680D4A42
:101590001140416001680C4A11400160016821F46A
:1015A00080210160416821F4FE0141604FF41F0178
:1015B0008160FFF747FD05494FF00060086010BDEE
:1015C000001002400000FFF8FFFFF6FE08ED00E00B
:1015D00010B50A4C40F22551204600F082F808B1BF
:1015E00000F018F90821204600F074F8002804D013
:1015F0002046BDE8104000F005B910BD003801409C
:101600000029818902D041F4005101E021F4005108
:10161000818170471E4A10B513791E48002123B1FD
:10162000012B04D0022B1CD104E0C18005E04FF453
:10163000405301E04FF40053C380537923B1012B91
:1016400004D0022B0DD104E0018105E04FF480634A
:1016500001E04FF4C06303819379072B0BD0082B73
:1016600003D000F019F8002010BD03891BB14FF41E
:101670008053838000E081801268026081810C21A8
:10168000418104490020FFF7B3FB012010BD000099
:1016900080000020980100200C4810B54FF416512E
:1016A000016000218180C1804FF4C062028181818C
:1016B0000C21418101460020FFF79AFBBDE8104054
:1016C000012240F22551024800F02AB8980100207A
:1016D000003801400246002012880A4200D0012052
:1016E000704730B501F01F0201240025C1F34213F9
:1016F00004FA02F2012B0FD0022B0FD0838A4FEA9B
:1017000011210088134204FA01F400EA040001D018
:1017100000B10125284630BD8389F0E7038AEEE752
:1017200010B5C1F3421301F01F040121A140012BA8
:1017300007D0022B07D01430002A026805D00A43D4
:1017400004E00C30F8E71030F6E78A43026010BD81
:1017500030B50446008A85B00D464CF6FF7108404E
:10176000E98801432182A1894EF6F3100140A8883F
:101770002A8910436A890A431043A081A08A4FF640
:10178000FF410840A9890143A1826846FFF772FA28
:101790001B48844201D1039800E00298A189090402
:1017A000002900EBC00101EB0010296802DA4FEAC2
:1017B000410101E04FEA8101B0FBF1F06422B0FB8E
:1017C000F2F14FEA01114FEA11136FF018056B4364
:1017D00000EB8300A3891D044FF0320306D503EB11
:1017E000C000B0FBF2F000F0070005E003EB0010D2
:1017F000B0FBF2F000F00F000843208105B030BDCF
:10180000003801408088C0F308007047C1F3080128
:101810008180704770B50E480F4D104C81790D488E
:10182000072902D0082905D008E0FFF7EBFF00F0F8
:101830007F0001E0FFF7E6FF616868546068401CC4
:101840006060B0F5006F01D10020606070BD0000E5
:101850008000002000380140A80100200000002086
:101860004FF48020FEF73ABF044A00284FF400717D
:10187000104601D0FEF7ECBFFEF7ECBF00140140AC
:1018800006480549022201600A72064A0449C0E975
:101890000112086800470000080A00202801002003
:1018A00098000020EC00002038B54FF4A060FFF74E
:1018B000E7F814208DF8000002208DF801000024C4
:1018C0008DF8024001258DF803506846FFF7A6F811
:1018D0002A208DF800008DF801406846FFF79EF839
:1018E00025208DF800008DF801506846FFF796F826
:1018F00038BD00002DE9F0414A4E88B00024306820
:10190000494D68806888494F39880840800507D567
:101910004FF6FF5030602878401C2870FFF754FACB
:10192000688839880840000401D5FEF741FC6888C2
:1019300039884FF6FF380840400504D5C6F80080C6
:101940003B4840688047698838880140890402D54F
:101950004DF6FF71316069880140C80405D54EF627
:10196000FF7030600020FFF7D5F96888398808409B
:1019700000050BD52F48007810B1FFF7A1FD02E05C
:101980000220FFF7C7F94FF2FF703060688839888E
:101990000840C00542D54FF6FF6030602148001D69
:1019A00000684FF00002000434D56868401C68608D
:1019B000686803282FD91B48001F016809072AD42B
:1019C000016889B2A96017496B46443951F82470FF
:1019D000BFB243F82470641C082CF7D3AC6844F001
:1019E0000104AC60AC68A4B20460AC6824F00104EB
:1019F000AC60AC68A4B2046030684005FCD5C6F8A1
:101A00000080002053F82040A4B241F82040401C40
:101A10000828F7D36A600720FFF77CF908B0BDE813
:101A2000F0810000445C00403800002034010020B8
:101A30009800002014010020FFF75CBF054900203A
:101A4000086005494FF43F4008800249091F0860BB
:101A500000207047445C00403401002070B500F065
:101A60007F060D463046FEF707FF04463046FEF778
:101A7000F3FE014622462846FFF79AF8204670BD3D
:101A80002DE9F0410E4607460024084D0AE0395D75
:101A90002846FFF7BBFE80212846FFF71BFE0028E3
:101AA000F9D0641CB442F2D3BDE8F08100380140A3
:101AB000FEE70000084B10B5521C520803EB410131
:101AC00008D003784478801C43EA042321F8043BBF
:101AD000521EF6D110BD000000600040114910B543
:101AE0000A68212802D0202807D018E0107800F0DA
:101AF0007F00212813D10C490AE01078202300F040
:101B00007F010A48212901D0037008E008490370C9
:101B100029B10020916150828847002010BD022029
:101B200010BD0000280100204D1B00087C00002093
:101B3000C11C00080149FFF7C7BB0000900000204E
:101B40000149FFF7C1BB00008800002008B104482C
:101B50007047044908200968088200207047000087
:101B6000800000202801002005490968C97804295F
:101B700001D900207047034A02EBC101FFF7A4BB63
:101B800028010020C800002009B9012801D902203D
:101B9000704700207047000007490968097801F084
:101BA0007F01212903D1022803D0222801D002205D
:101BB000704700207047000028010020334810B50E
:101BC0000068334A00218172D2794272C17208469C
:101BD000FFF766F94FF400710020FFF727FA102194
:101BE0000020FFF7FBF940210020FFF781F9802159
:101BF0000020FFF7D5F90020FEF7A6FB254890F856
:101C00002C100020FFF784F90020FFF7B9F900211C
:101C10000120FFF70BFAC0210120FFF7C1F92021B5
:101C20000120FFF7DBF900210120FFF791F94FF4C4
:101C3000C0610220FFF7FAF94FF480710220FFF72C
:101C4000AFF900210220FFF783F920210220FFF7DE
:101C5000C5F900210320FFF7E9F94FF4887103204B
:101C6000FFF746F940210320FFF752F94FF44051A6
:101C70000320FFF76DF900210320FFF7AFF90020E3
:101C8000FFF716F904490120086010BD2801002063
:101C9000621D000898000020100100200348807A8F
:101CA000002802D00249052008607047080A002079
:101CB0001001002001490420086070471001002035
:101CC00008B10448704704490820096808820020C8
:101CD00070470000800000202801002010B5044C4F
:101CE0002078202803D1FFF795FC0020207010BD3C
:101CF0007C0000207047000010B5FEF7DBFD0648B1
:101D0000002400688472FEF787FFFFF797FEFFF755
:101D1000C3FC0248046010BD28010020100100200F
:101D200002E008C8121F08C1002AFAD170477047A4
:101D3000002001E001C1121F002AFBD17047FFF70C
:101D4000D5F9FFF7F9F9FFF7AFFDFFF799FDFEE7CA
:101D50001201000202000040830440570002010209
:101D6000030109024300020100C03209040000011E
:101D700002020100052400100105240100010424D1
:101D800002020524060001070582030800FF09047A
:101D90000100020A000000070503024000000705D9
:101DA0008102400000040309042603530054004D3F
:101DB000006900630072006F0065006C00650063DD
:101DC00000740072006F006E0069006300730032DF
:101DD00003530054004D00330032002000560069C8
:101DE0000072007400750061006C00200043004F19
:101DF000004D00200050006F007200740020002091
:101E000000000000000220000004400040008000AC
:101E10000001000200400000000002000400000079
:101E2000200000000400000020000000100000005E
:101E30001000000010000000100000000100002051
:101E40000002010002000001004000100400000038
:101E500010000000080000004000000040000000EA
:101E600020000000200000002000000001000020F1
:101E7000000201000200000100400010000002000A
:101E800001000400040003000300030000000D0033
:101E900009000000010008000E000C0006002800E8
:101EA000170006000700170028002800CC1E0008B5
:101EB000000000209801000048010008741F00087D
:101EC00098010020900C0000301D00080118141A21
:101ED00003531254124D12330221321359060C1CB3
:101EE00008190A040A11BD245133C2011208135003
:101EF0001D3308121A620832431BF91C34121B1BD3
:101F000008DD081AF50413DD1A1B0899101A890454
:101F10001A41041A35041A69044132401AA53832AC
:101F2000041AA90832261ACF0829BA221833201A0F
:101F30001A046729741A9D4C0916A41AB51C412964
:101F40009201224C0204062E2C02030404350607DB
:101F50000809143801401A44931A08081A1404692D
:101F600008DA1004291829081A0C045A1804292818
:041F70005904000010
:04000005080000ED02
:00000001FF
